:020000040800F2
:1000000000000220791D0008E90A0008EB0A000838
:10001000ED0A0008EF0A0008F10A000800000000DD
:10002000000000000000000000000000F30A0008CB
:10003000F50A000800000000F70A0008F90A0008A5
:10004000C91D0008C91D0008C91D0008C91D0008F8
:10005000C91D0008C91D0008C91D0008C91D0008E8
:10006000C91D0008C91D0008C91D0008C91D0008D8
:10007000C91D0008C91D0008C91D0008C91D0008C8
:10008000C91D0008C91D0008C91D0008C91D0008B8
:10009000C91D0008C91D0008C91D0008C91D0008A8
:1000A000C91D0008C91D0008C91D0008C91D000898
:1000B000C91D0008C91D0008C91D0008C91D000888
:1000C000C91D0008C91D0008C91D0008C91D000878
:1000D000C91D0008C91D0008C91D0008C91D000868
:1000E000C91D0008C91D0008C91D0008C91D000858
:1000F000C91D0008C91D0008C91D0008C91D000848
:10010000C91D0008C91D0008C91D0008C91D000837
:10011000C91D0008C91D0008C91D0008C91D000827
:10012000C91D0008C91D0008C91D0008C91D000817
:10013000C91D0008C91D0008C91D0008C91D000807
:10014000C91D0008C91D0008C91D0008C91D0008F7
:10015000C91D0008C91D0008C91D0008C91D0008E7
:10016000C91D0008C91D0008C91D0008C91D0008D7
:10017000C91D0008C91D0008C91D000800000000B5
:08018000C91D0008C91D00089B
:1001880010B5054C237833B9044B13B10448AFF3C9
:1001980000800123237010BD2C0000200000000007
:1001A800401E000808B5034B1BB103490348AFF3D1
:1001B800008008BD0000000030000020401E00083C
:1001C80053B94AB9002908BF00281CBF4FF0FF31B6
:1001D8004FF0FF3000F074B9ADF1080C6DE904CEB2
:1001E80000F006F8DDF804E0DDE9022304B070470A
:1001F8002DE9F047089D04468E46002B4DD18A42D2
:10020800944669D9B2FA82F252B101FA02F3C2F104
:10021800200120FA01F10CFA02FC41EA030E944095
:100228004FEA1C48210CBEFBF8F61FFA8CF708FBB6
:1002380016E341EA034306FB07F199420AD91CEB8E
:10024800030306F1FF3080F01F81994240F21C81C0
:10025800023E63445B1AA4B2B3FBF8F008FB103308
:1002680044EA034400FB07F7A7420AD91CEB04043D
:1002780000F1FF3380F00A81A74240F2078164440D
:10028800023840EA0640E41B00261DB1D440002392
:10029800C5E900433146BDE8F0878B4209D9002DF6
:1002A80000F0EF800026C5E9000130463146BDE880
:1002B800F087B3FA83F6002E4AD18B4202D38242EA
:1002C80000F2F980841A61EB030301209E46002D99
:1002D800E0D0C5E9004EDDE702B9FFDEB2FA82F2EE
:1002E800002A40F09280A1EB0C014FEA1C471FFA4C
:1002F8008CFE0126200CB1FBF7F307FB131140EA33
:1003080001410EFB03F0884208D91CEB010103F1FF
:10031800FF3802D2884200F2CB804346091AA4B2C1
:10032800B1FBF7F007FB101144EA01440EFB00FE95
:10033800A64508D91CEB040400F1FF3102D2A645FA
:1003480000F2BB800846A4EB0E0440EA03409CE799
:10035800C6F12007B34022FA07FC4CEA030C20FA46
:1003680007F401FA06F31C43F9404FEA1C4900FA66
:1003780006F3B1FBF9F8200C1FFA8CFE09FB1811E3
:1003880040EA014108FB0EF0884202FA06F20BD956
:100398001CEB010108F1FF3A80F08880884240F2A6
:1003A8008580A8F102086144091AA4B2B1FBF9F0EA
:1003B80009FB101144EA014100FB0EFE8E4508D9E5
:1003C8001CEB010100F1FF346CD28E456AD902386A
:1003D800614440EA0840A0FB0294A1EB0E01A1424F
:1003E800C846A64656D353D05DB1B3EB080261EBBD
:1003F8000E0101FA07F722FA06F3F1401F43C5E997
:10040800007100263146BDE8F087C2F12003D840CC
:100418000CFA02FC21FA03F3914001434FEA1C470E
:100428001FFA8CFEB3FBF7F007FB10360B0C43EA00
:10043800064300FB0EF69E4204FA02F408D91CEBB0
:10044800030300F1FF382FD29E422DD902386344AE
:100458009B1B89B2B3FBF7F607FB163341EA03414E
:1004680006FB0EF38B4208D91CEB010106F1FF389D
:1004780016D28B4214D9023E6144C91A46EA004694
:1004880038E72E46284605E70646E3E61846F8E626
:100498004B45A9D2B9EB020864EB0C0E0138A3E76F
:1004A8004646EAE7204694E74046D1E7D0467BE750
:1004B800023B614432E7304609E76444023842E7C8
:1004C800704700BF034613F8012B002AFBD1181A06
:1004D800013870470368426803F16043B3F5003F91
:1004E80009D802F17843B3F5801F06D212F0010F44
:1004F80005D0012070470020704700207047002079
:1005080070470000012801D0014870470148704732
:10051800000001080000040808B5FFF7F3FFFFF723
:10052800D9FF00B1012008BD70B588B0002400943F
:10053800194B1A6B42F001021A631A6B02F001029E
:100548000092009A01941A6B42F002021A631A6B25
:1005580002F002020192019A02941A6B42F0080218
:100568001A631B6B03F008030293029B0394049421
:100578000594069407944FF4804603960123049348
:10058800064D03A9284600F085FD22463146284637
:1005980000F072FE08B070BD00380240000C024046
:1005A80010B50446FFF78EFF642382B22146024845
:1005B80001F077FB10BD00BFC000002008B5064859
:1005C80000F014FA18B90548FFF7EAFF08BD044817
:1005D800FFF7E6FFFAE700BFFC1F0008581E0008F7
:1005E800781E000870B504460668456800F014FBDC
:1005F80072B600230BE00E4A03F1200C4FF0FF31D6
:1006080042F82C1003F1600C42F82C100133072B30
:10061800F1D901F07DF900F07BFA064B9C6086F376
:10062800088862B6BFF34F8FBFF36F8FA847FEE706
:1006380000E100E000ED00E038B50C46FFF762FF8E
:100648000546FFF747FF20B90748FFF7A9FF002035
:1006580038BD14B12046FFF7A3FF0448FFF7A0FFF9
:100668002846FFF7BFFF00BF981E0008B81E000805
:1006780010B54A4800F08CF900287CD0474B5B69DC
:10068800012B37D9454B00225A610123434A12698D
:10069800012A03D9414B5A691A6101233F4A926CD6
:1006A8001AB93E4B03229A6401233C4A126C002A71
:1006B8002ED03A4A536C926C93421DD20133374A7A
:1006C8005364364883680133836000F08FF910BBA8
:1006D800324B1C69012C22D9002C34D1012C3ED17B
:1006E8002F48FFF75DFF01224FF480412D4800F0AD
:1006F800C3FD10BD0023C9E7284B5A691A610022BF
:100708001A645A640122DA642748FFF749FFD8E7D8
:10071800002BDDD0D5E72548FFF742FFD8E7204674
:10072800FFF7FAFE0028D7D034B921490020FFF797
:1007380083FF0028D0D0DCE71E490120FFF77CFFAB
:100748000028C9D0D5E70020FFF7E6FE0028C5D06D
:1007580019490020FFF770FF0028BFD0C9E7012022
:10076800FFF7DAFE0028BBD014490120FFF764FF29
:100778000028B5D0BDE71248FFF712FFFFF71EFFAC
:1007880010490020FFF758FF0028B2D10E49012078
:10079800FFF752FF0028A3D0ABE700BF48000020B6
:1007A800B41F0008000C0240D41E0008FC1E0008FC
:1007B800141F0008281F00083C1F0008501F0008CD
:1007C800641F00088C1F0008A01F000872B6FEE70F
:1007D80008B50A480A4B03604FF4E133436000232D
:1007E8008360C36003610C2242618361C36101F0CD
:1007F80028FA00B908BDFFF7E9FF00BFC0000020D4
:100808000044004000B595B03022002108A801F04E
:100818000BFB00230393049305930693079301931B
:100828001F4A116C41F080511164126C02F0805221
:100838000192019A02931B4A116841F480411160A8
:10084800126802F480420292029A0222089201215E
:100858000B9110210C910E920F930823109364238F
:10086800119312920723139308A800F015FD98B965
:100878000F23039302230493002305934FF4A053FB
:1008880006934FF480530793032103A800F06AFFEF
:1008980020B915B05DF804FBFFF798FFFFF796FF46
:1008A800003802400070004008B500F075F9FFF705
:1008B800A9FFFFF739FEFFF78BFF0748FFF770FE28
:1008C800FFF7D6FE4FF48041044800F0DBFCFA2025
:1008D80000F08EF9F6E700BFE41F0008000C0240A4
:1008E80010B50446084600214FF0FF320CE042F3F1
:1008F800000E0A4B0EEA030383EA52020CF1010CC4
:10090800BCF1070FF3D90131814204D2635C5A402C
:100918004FF0000CF4E7D04310BD00BF2083B8EDC2
:1009280010B586B000230093019302230593082392
:1009380003930123049300F067FA694601A800F0C5
:100948005FFB044600F078FA201E18BF012006B0AD
:1009580010BD000070B5064600F056FA00240B4D95
:100968001D2C0ED856F8242000232946022000F01A
:100978009DFA10B904350134F2E700F05DFA012060
:1009880070BD00F059FA0020FAE700BF000008081F
:1009980000B330B59FB0044678221249684601F08A
:1009A80035FA009A104B9A4216D1019B012B16D1A9
:1009B800149D0023149378216846FFF791FF854220
:1009C80001D0002009E078226946204601F01EFA8D
:1009D800012002E00020704700201FB030BD002039
:1009E800FBE700BF000008084D41544FD8B110B5CF
:1009F8009EB0014678242246684601F007FA0B4B60
:100A08000093012301930023149321466846FFF7BE
:100A180067FF1490FFF784FF08B11EB010BD684649
:100A2800FFF798FFF9E70120704700BF4D41544F89
:100A380000B583B0002100910C4B5A6C42F48042FF
:100A48005A645A6C02F480420092009A01911A6C1E
:100A580042F080521A641B6C03F080530193019B8F
:100A6800072000F0E1F803B05DF804FB003802400D
:100A780000B589B000230393049305930693079365
:100A88000268154B9A4202D009B05DF804FB0021B8
:100A9800019103F5FA331A6C42F400321A641A6CA5
:100AA80002F400320192019A02911A6B42F001029B
:100AB8001A631B6B03F001030293029B0C2303933D
:100AC80002230493032306930723079303A90348E8
:100AD80000F0E0FAD8E700BF004400400000024000
:100AE800FEE7FEE7FEE7FEE7FEE770477047704760
:100AF80008B500F06BF808BD034AD2F8883043F413
:100B08007003C2F88830704700ED00E070470000BD
:100B180010B50A4B0A4A1A6200241C62094A5A6232
:100B28005C62094A1A611C61C1225A615C61012236
:100B38009A619C61FFF7EAFF204610BD0038024029
:100B4800FFC9FEF633797704FF11602210B5044619
:100B58000E4B18784FF47A73B3FBF0F30C4A106815
:100B6800B0FBF3F000F0AAF868B90F2C01D9012006
:100B78000AE0002221464FF0FF3000F067F8054BED
:100B88001C60002000E0012010BD00BF0400002010
:100B9800000000200800002008B50B4B1A6842F43A
:100BA80000721A601A6842F480621A601A6842F485
:100BB80080721A60032000F037F80020FFF7C6FFA4
:100BC800FFF736FF002008BD003C0240034A1168C9
:100BD800034B1B780B441360704700BF08010020CB
:100BE80004000020014B1868704700BF080100206E
:100BF80038B50446FFF7F6FF0546B4F1FF3F02D0CB
:100C0800044B1B781C44FFF7EDFF401BA042FAD3AE
:100C180038BD00BF040000204FF0E022136923F024
:100C28000203136170470000074AD36823F4E063A6
:100C38001B041B0C000200F4E060034343F0BF6395
:100C480043F40033D360704700ED00E000B5194B62
:100C5800DB68C3F30223C3F1070CBCF1040F28BF00
:100C68004FF0040C03F1040EBEF1060F18D9033B34
:100C78004FF0FF3E0EFA0CFC21EA0C0199400EFAE7
:100C880003F322EA0303194300280BDB0901C9B265
:100C980000F1604000F5614080F800135DF804FB46
:100CA8000023E5E700F00F000901C9B2024B19540F
:100CB800F4E700BF00ED00E014ED00E00138B0F10A
:100CC800807F0BD24FF0E0235861054AF02182F86B
:100CD80023100020986107221A617047012070478D
:100CE80000ED00E010B40A490C6924F440740C616A
:100CF8000C6944F440740C610C6944F001040C6103
:100D08000260BFF36F8F43605DF8044B704700BF0C
:100D1800003C0240074B1A6922F440721A611A69B2
:100D280042F400721A611A6942F001021A61016004
:100D3800704700BF003C0240074B1A6922F440721A
:100D48001A611A6942F480721A611A6942F0010242
:100D58001A610180704700BF003C0240064B1A69C7
:100D680022F440721A611A691A611A6942F0010282
:100D78001A610170704700BF003C0240204BDB68DD
:100D880013F0100F07D01F4AD36943F01003D36143
:100D98001B4B1022DA601A4BDB6813F0200F07D0C8
:100DA800184AD36943F00803D361154B2022DA604F
:100DB800134BDB6813F0400F07D0124AD36943F096
:100DC8000403D3610E4B4022DA600D4BDB6813F04D
:100DD800800F07D00B4AD36943F00203D361084B55
:100DE8008022DA60064BDB6813F0020F07D0054A51
:100DF800D36943F02003D361014B0222DA607047C4
:100E0800003C02400C000020094B1B69002B01DB51
:100E180000207047064B074A5A6002F188325A6030
:100E28001B69002B01DB002070470120704700BFC1
:100E3800003C024023016745034A136943F000431D
:100E480013610020704700BF003C024038B50446DB
:100E5800144B0022DA61FFF7C5FE0546124BDB682A
:100E680013F4803F0AD0B4F1FF3FF7D024B1FFF765
:100E7800B9FE401BA042F1D903200DE00A4BDB6804
:100E880013F0010F02D0084B0122DA60064BDB6831
:100E980013F0F20F01D1002038BDFFF76FFF0120DA
:100EA800FAE700BF0C000020003C0240F8B51646E7
:100EB8001B4A127E012A30D004460D461F46184BA5
:100EC80001221A764CF25030FFF7C0FF90B9ACB14E
:100ED800012C18D0022C1BD032463B462846FFF77F
:100EE80001FF4CF25030FFF7B1FF0E4A136923F0AF
:100EF800010313610A4B00221A76F8BDF1B22846A5
:100F0800FFF72CFFEDE7B1B22846FFF715FFE8E73A
:100F180031462846FFF7FEFEE3E70220EDE700BF73
:100F28000C000020003C0240074B196921F4407175
:100F38001961196941F0040119611A6942EA00222C
:100F480042F480321A617047003C024049B10129DD
:100F580021D0022902D04FF4407C04E04FF4007CF9
:100F680001E04FF0000C0D4B196921F44071196133
:100F78001A6942EA0C021A611A6922F078021A61A7
:100F88001A6942EAC00040F0020018611A6942F486
:100F980080321A6170474FF4807CE4E7003C0240DD
:100FA800164B1B6813F4007F10D0144B1A6822F4F8
:100FB80000721A601A6842F400621A601A6822F411
:100FC80000621A601A6842F400721A600B4B1B68C0
:100FD80013F4806F10D0094B1A6822F480621A60EB
:100FE8001A6842F480521A601A6822F480521A6011
:100FF8001A6842F480621A60704700BF003C0240E1
:10100800F8B5224B1B7E012B3ED004460E461F4BE3
:1010180001221A764CF25030FFF718FF074670BBD2
:101028004FF0FF3333602368012B16D0A568E368BF
:10103800A2681344AB4220D9217C2846FFF786FFDB
:101048004CF25030FFF702FF114A136923F07A037C
:101058001361074680B90135E9E76168207CFFF72D
:1010680063FF4CF25030FFF7F1FE0746084A136958
:1010780023F00403136100E03560FFF791FF034B91
:1010880000221A763846F8BD0227FBE70C0000203C
:10109800003C024000230F2B00F2E48070B582B0C0
:1010A80060E085685E000324B44025EA0405CC6846
:1010B800B4402C438460456825EA02054C68C4F3B3
:1010C80000129A402A4342605AE0DC08083450F87B
:1010D800246003F0070295000F22AA4026EA020EB8
:1010E8000A69AA4042EA0E0240F824205CE007227E
:1010F80000E0002202FA0EF22A4302345A4D45F863
:1011080024205A4A94686FEA0C0224EA0C054E68B7
:1011180016F4801F01D04CEA0405544CA560E4681D
:1011280002EA04054E6816F4001F01D04CEA0405D3
:101138004E4CE560646802EA04054E6816F4003F08
:1011480001D04CEA0405494C6560246822404D688A
:1011580015F4803F01D04CEA0402444C226001336C
:101168000F2B7DD801229A400C6804EA020C32EA5F
:101178000404F4D14C6804F00304013C012C90D918
:101188004A6802F00302032A09D0C4685D000322FA
:10119800AA4024EA02048A68AA402243C2604A6834
:1011A80002F00302022A90D004684FEA430E032299
:1011B80002FA0EF224EA02044A6802F0030202FA72
:1011C8000EF2224302604A6812F4403FC7D0002260
:1011D8000192274A546C44F480445464526C02F4DB
:1011E80080420192019A9C08A51C1F4A52F825507A
:1011F80003F003024FEA820E0F2202FA0EF225EAEA
:1012080002051C4A90423FF474AF02F58062904296
:101218001AD002F58062904218D002F5806290429E
:1012280016D002F58062904214D002F58062904296
:1012380012D002F58062904210D002F5806290428E
:101248003FF455AF082255E7012253E7022251E740
:1012580003224FE704224DE705224BE7062249E720
:1012680002B070BD704700BF00380140003C01402B
:1012780000380240000002400AB181617047090449
:1012880081617047436901EA030221EA030141EAE7
:101298000241816170470000002800F0E08170B5CC
:1012A80082B00446036813F0010F3BD09F4B9B6844
:1012B80003F00C03042B2CD09C4B9B6803F00C030D
:1012C800082B21D06368B3F5803F4FD0B3F5A02F2A
:1012D80052D0964B1A6822F480321A601A6822F4A7
:1012E80080221A606368002B50D0FFF77BFC05460C
:1012F8008E4B1B6813F4003F14D1FFF773FC401B9F
:101308006428F5D90320B1E1884B5B6813F4800F9A
:10131800D8D0864B1B6813F4003F03D06368002BBA
:1013280000F09F81236813F0020F54D07F4B9B6815
:1013380013F00C0F3ED07D4B9B6803F00C03082B79
:1013480033D0E368002B68D0794B01221A60FFF78D
:1013580049FC0546754B1B6813F0020F54D1FFF783
:1013680041FC401B0228F5D903207FE16F4A13682E
:1013780043F480331360B5E76C4B1A6842F480225B
:101388001A601A6842F480321A60ABE7FFF72AFC49
:101398000546664B1B6813F4003FC3D0FFF722FCD9
:1013A800401B6428F5D9032060E1604B5B6813F4A7
:1013B800800FC6D15D4B1B6813F0020F03D0E368A2
:1013C800012B40F05081594A136823F0F803216932
:1013D80043EAC1031360236813F0080F42D063691E
:1013E8006BB3534B0122C3F8802EFFF7FBFB054676
:1013F8004E4B5B6F13F0020F34D1FFF7F3FB401B2A
:101408000228F5D9032031E1484A136823F0F8038C
:10141800216943EAC1031360DDE7454B00221A60E6
:10142800FFF7E0FB0546414B1B6813F0020FD2D0D3
:10143800FFF7D8FB401B0228F5D9032016E13C4BE7
:101448000022C3F8802EFFF7CDFB0546374B5B6FB4
:1014580013F0020F06D0FFF7C5FB401B0228F5D991
:10146800032003E1236813F0040F77D02F4B1B6C84
:1014780013F0805F33D1002301932C4B1A6C42F098
:1014880080521A641B6C03F080530193019B012561
:10149800284B1B6813F4807F23D0A368012B34D01A
:1014A800052B38D0214B1A6F22F001021A671A6FE8
:1014B80022F004021A67A368002B3DD0FFF792FBC5
:1014C80006461A4B1B6F13F0020F46D1FFF78AFB33
:1014D800801B41F288339842F3D90320C6E00025E7
:1014E800D6E7144A136843F480731360FFF77AFB56
:1014F8000646104B1B6813F4807FCED1FFF772FBB2
:10150800801B0228F5D90320B0E0084A136F43F086
:1015180001031367CFE7054B1A6F42F004021A67FD
:101528001A6F42F001021A67C5E700BF003802408F
:101538000000474200700040FFF754FB0646524B3C
:101548001B6F13F0020F08D0FFF74CFB801B41F212
:1015580088339842F3D9032088E0EDB9A369002BBA
:1015680000F08380484A926802F00C02082A51D0A1
:10157800022B17D0454B00221A66FFF733FB0446AF
:10158800414B1B6813F0007F42D0FFF72BFB001B79
:101598000228F5D9032069E03B4A136C23F08053F5
:1015A8001364DBE7394B00221A66FFF71BFB05467D
:1015B800354B1B6813F0007F06D0FFF713FB401B69
:1015C8000228F5D9032051E0E369226A1343626ACD
:1015D80043EA8213A26A5208013A43EA0243E26AE2
:1015E80043EA0263284A5360284B01221A66FFF730
:1015F800F9FA0446244B1B6813F0007F06D1FFF765
:10160800F1FA001B0228F5D903202FE000202DE075
:1016180000202BE0012B2BD01B4B5B6803F48001CF
:10162800E269914226D103F03F02216A8A4223D11E
:10163800616A47F6C0721A40B2EB811F1ED103F4EB
:101648004031A26A5208013AB1EB024F18D103F0B7
:101658007063E26AB3EB026F14D1002006E0012048
:101668007047012002E0012000E0002002B070BDB8
:101678000120FBE70120F9E70120F7E70120F5E762
:101688000120F3E70120F1E700380240000047425B
:1016980008B5314B9B6803F00C03042B57D0082B7B
:1016A80057D12D4B5A6802F03F025B6813F4800F44
:1016B8002AD0294B5968C1F3881C4FEA4C11B1EB69
:1016C8000C006EEB0E0E4FEA8E1343EA9063810115
:1016D800091A63EB0E03DB0043EA5173C90011EBEF
:1016E8000C0C43F10003590200234FEA4C2041EA55
:1016F800DC51FEF765FD184B5B68C3F3014301330A
:101708005B00B0FBF3F025E0134B5968C1F3881C6C
:101718004FEA4C11B1EB0C006EEB0E0E4FEA8E1334
:1017280043EA90638101091A63EB0E03DB0043EA85
:101738005173C90011EB0C0C43F10003990200230B
:101748004FEA8C2041EA9C51FEF73AFDD3E7034863
:1017580000E0034808BD00BF0038024000127A00CC
:101768000024F400002800F09B8070B50D46044664
:101778004F4B1B6803F007038B4208D2CBB24C4A8D
:101788001370136803F007038B4240F08B802368C3
:1017980013F0020F17D013F0040F04D0454A9368D2
:1017A80043F4E0539360236813F0080F04D0414AD0
:1017B800936843F4604393603E4A936823F0F003D0
:1017C800A1680B439360236813F0010F32D063685C
:1017D800012B21D09A1E012A25D9364A126812F007
:1017E800020F61D033498A6822F0030213438B60E9
:1017F800FFF7F8F906462F4B9B6803F00C03626865
:10180800B3EB820F16D0FFF7EDF9801B41F2883356
:101818009842F0D9032042E0264A126812F4003FA9
:10182800E0D101203BE0234A126812F0007FD9D1B1
:10183800012034E01E4B1B6803F00703AB4207D9B5
:10184800EAB21B4B1A701B6803F00703AB422DD199
:10185800236813F0040F06D0164A936823F4E05364
:10186800E1680B439360236813F0080F07D0114A0F
:10187800936823F46043216943EAC1039360FFF747
:1018880007FF0C4B9B68C3F303130B4AD35CD84088
:101898000A4B18600A4B1868FFF758F9002070BD0A
:1018A800012070470120FAE70120F8E70120F6E758
:1018B800003C02400038024074200008000000206C
:1018C80008000020014B1868704700BF0000002086
:1018D80008B5FFF7F7FF044B9B68C3F38223034A5D
:1018E800D35CD84008BD00BF0038024084200008FF
:1018F80008B5FFF7E7FF044B9B68C3F34233034A7D
:10190800D35CD84008BD00BF0038024084200008DE
:1019180038B5FFF767F90446464A136843F00103F0
:101928001360444B1B6813F0020F06D1FFF75AF9F6
:10193800001B0228F5D9032038BD3E4D2B6843F023
:1019480080032B60FFF74EF904460023AB60394B48
:101958009B6813F00C0F08D0FFF744F9001B41F205
:1019680088339842F3D90320E6E7FFF73BF90446AA
:10197800304A136823F4502313602E4B1B6813F46A
:10198800003F06D0FFF72EF9001B6428F5D9032085
:10199800D2E7FFF727F90446264A136823F0807335
:1019A8001360244B1B6813F0007F06D0FFF71AF969
:1019B800001B0228F5D90320BEE7FFF713F90446F8
:1019C8001C4A136823F0806313601A4B1B6813F0DA
:1019D800006F06D0FFF706F9001B0228F5D903208F
:1019E800AAE7144B144A5A60144AC3F88420DA68E8
:1019F80022F4F852DA60DA6822F40052DA60DA681F
:101A080042F41F02DA60DA6842F40012DA605A6FB0
:101A180022F001025A675A6F42F080725A67084BE7
:101A2800084A1A60084B1868FFF790F8002883D016
:101A3800012081E700380240103000040030002007
:101A4800000000200024F40008000020026802F1D1
:101A58000C0353E8003F23F490730C3242E8003142
:101A68000029F3D1026802F1140353E8003F23F080
:101A78000103143242E800310029F3D1036B012B32
:101A880005D0202380F842300023036370470268A2
:101A980002F10C0353E8003F23F010030C3242E834
:101AA80000310029F3D1ECE738B504460268136920
:101AB80023F44053C1680B431361836802691343DD
:101AC80042691343C2691A430168CB6823F4164379
:101AD80023F00C031343CB600268536923F440736B
:101AE80081690B4353610368314A934206D002F57A
:101AF8008062934202D0FFF7EBFE01E0FFF7F8FEA9
:101B0800E369B3F5004F29D00021031849411B1898
:101B180041F10001C90041EA5371DB0018186368FC
:101B28004FEA83024FEA937341F10001FEF748FB45
:101B3800204DA5FB00325109642303FB11031B014F
:101B48003233A5FB03235B0903F0F00202EB011219
:101B580003F00F03216813448B6038BD002302187B
:101B680043EB0301121841F10001C90041EA527127
:101B7800D200101841F10001626892185B41FEF72B
:101B88001FFB0C4DA5FB00325109642303FB110315
:101B9800DB003233A5FB03235B095A0002F4F87219
:101BA80002EB011203F00703216813448B60D4E7AA
:101BB800001001401F85EB512DE9F04383B0054625
:101BC8000E4617469946DDF828802C68246836EAC0
:101BD80004030CBF4FF0010C4FF0000CBC4528D19A
:101BE800B8F1FF3FF1D0FEF7FDFFA0EB090040453B
:101BF80023D8B8F1000F22D02B68DA6812F0040F4E
:101C0800E3D0802EE1D0402EDFD01A6812F0080F02
:101C1800DBD0002401941A6801925B680193019B50
:101C28002846FFF713FF08236B6485F8404001201E
:101C380000E0002003B0BDE8F0830320FAE70320AA
:101C4800F8E760B310B5044690F8413013B3242385
:101C580084F841302268D36823F40053D3602046C7
:101C6800FFF722FF2268136923F490431361226867
:101C7800536923F02A0353612268D36843F400535D
:101C8800D36000206064202384F8413084F8423017
:101C9800606310BD80F84030FEF7EAFED7E7012008
:101CA80070472DE9F04182B01E4690F84130DBB212
:101CB800202B56D104460D469046002955D00AB926
:101CC80001204FE000234364212380F84130FEF7D0
:101CD80089FF0746A4F82480A4F82680A368B3F5F2
:101CE800805F02D04FF0000814E023692BB34FF057
:101CF80000080FE0202384F84130032032E038F850
:101D0800023B2268C3F308035360E28C92B2013AA3
:101D180092B2E284E38C9BB293B100963B460022D8
:101D280080212046FFF748FF0028E3D1002DE6D0A8
:101D380015F8012B23685A60E7E7A8460025E9E76C
:101D480000963B46002240212046FFF735FF18B990
:101D5800202384F8413005E0202384F84130032013
:101D680000E0022002B0BDE8F0810120FAE700009F
:101D7800DFF834D0FEF7C0FE0C480D490D4A0023A9
:101D880002E0D458C4500433C4188C42F9D30A4A28
:101D98000A4C002301E013600432A242FBD300F096
:101DA80011F8FEF781FD70470000022000000020B6
:101DB8002C0000209C2000082C0000200C01002092
:101DC800FEE7000070B50D4D0D4C641BA4100026F5
:101DD800A64209D10B4D0C4C00F02EF8641BA41040
:101DE8000026A64205D170BD55F8043B9847013638
:101DF800EEE755F8043B98470136F2E794200008CF
:101E08009420000894200008982000080A44914271
:101E180000F1FF3300D1704710B511F8014B03F8FA
:101E2800014F9142F9D110BD02440346934200D1BB
:101E3800704703F8011BF9E7F8B500BFF8BC08BC08
:101E48009E467047F8B500BFF8BC08BC9E46704770
:101E580044656661756C74206D6574616461746154
:101E680020696E697469616C697A65640D0A00009D
:101E780044656661756C74206D6574616461746134
:101E880020696E6974206661696C65640D0A0000DA
:101E980053656C656374656420736C6F7420766534
:101EA80063746F7220696E76616C69640D0A000054
:101EB8004A756D70696E6720746F206170706C6907
:101EC800636174696F6E0D0A00000000526F6C6CDC
:101ED8006261636B3A206D617820626F6F74206174
:101EE8007474656D70747320726561636865640DE0
:101EF8000A0000004D657461646174612073617645
:101F080065206661696C65640D0A0000507265663B
:101F1800657272656420736C6F743A20410D0A0013
:101F280050726566657272656420736C6F743A20CE
:101F3800420D0A0046616C6C6261636B20736C6FC2
:101F4800743A20410D0A000046616C6C6261636B53
:101F580020736C6F743A20420D0A00004D6574615D
:101F68006461746120696E76616C69642C20747296
:101F7800792064656661756C7420736C6F74730D79
:101F88000A00000044656661756C7420736C6F7498
:101F98003A20410D0A00000044656661756C7420A2
:101FA800736C6F743A20420D0A0000004E6F207661
:101FB800616C6964206170706C69636174696F6ECB
:101FC8002C2073746179696E6720696E20626F6F67
:101FD800746C6F616465720D0A000000426F6F7463
:101FE8006C6F6164657220737461727465640D0A44
:101FF800000000004D41544F0100000001000000A6
:1020080000000000000000000000000000000108BF
:1020180000000300000000000100000000000000B4
:102028000000040800000400000000000000000098
:102038000000000000000000000000000300000095
:102048000000000000000000000000000000000088
:102058000000000000000000000000000000000078
:102068000000000000000000000000000000000068
:102078000000000001020304060708090000000030
:04208800010203044A
:08208C006CE1FF7F0100000080
:04209400AD01000892
:0420980089010008B2
:10209C000024F4000100000010000000000000000B
:1020AC000000000000000000000000000100000023
:0C20BC0000000000000000000000000018
:0400000508001D7959
:00000001FF
