:020000040800F2
:1000000000000220B91D00080D0B00080F0B0008AE
:10001000110B0008130B0008150B0008000000006E
:10002000000000000000000000000000170B0008A6
:10003000190B0008000000001B0B00081D0B000836
:10004000091E0008091E0008091E0008091E0008F4
:10005000091E0008091E0008091E0008091E0008E4
:10006000091E0008091E0008091E0008091E0008D4
:10007000091E0008091E0008091E0008091E0008C4
:10008000091E0008091E0008091E0008091E0008B4
:10009000091E0008091E0008091E0008091E0008A4
:1000A000091E0008091E0008091E0008091E000894
:1000B000091E0008091E0008091E0008091E000884
:1000C000091E0008091E0008091E0008091E000874
:1000D000091E0008091E0008091E0008091E000864
:1000E000091E0008091E0008091E0008091E000854
:1000F000091E0008091E0008091E0008091E000844
:10010000091E0008091E0008091E0008091E000833
:10011000091E0008091E0008091E0008091E000823
:10012000091E0008091E0008091E0008091E000813
:10013000091E0008091E0008091E0008091E000803
:10014000091E0008091E0008091E0008091E0008F3
:10015000091E0008091E0008091E0008091E0008E3
:10016000091E0008091E0008091E0008091E0008D3
:10017000091E0008091E0008091E000800000000F2
:08018000091E0008091E000819
:1001880010B5054C237833B9044B13B10448AFF3C9
:1001980000800123237010BD2C0000200000000007
:1001A800801E000808B5034B1BB103490348AFF391
:1001B800008008BD0000000030000020801E0008FC
:1001C80053B94AB9002908BF00281CBF4FF0FF31B6
:1001D8004FF0FF3000F088B9ADF1080C6DE904CE9E
:1001E80000F006F8DDF804E0DDE9022304B070470A
:1001F8002DE9F047089D8E4604468846002B4AD1D3
:100208008A42174662D9B2FA82F64EB1C6F1200385
:1002180001FA06F820FA03F3B74043EA0808B440A5
:100228004FEA174E1FFA87FCB8FBFEF1230C0EFBB2
:10023800118843EA084301FB0CF29A4209D9FB18DA
:1002480001F1FF3080F0EA809A4240F2E7800239FB
:100258003B449A1AA3B2B2FBFEF00EFB102243EA0B
:10026800024300FB0CFC9C4509D9FB1800F1FF3246
:1002780080F0D6809C4540F2D3803B44023840EA67
:100288000140A3EB0C0300211DB1F3400022C5E996
:100298000032BDE8F0878B4205D90DB1C5E90001F0
:1002A80000210846F5E7B3FA83F1002946D17345E2
:1002B80002D3824200F20581841A6EEB0302012008
:1002C8009046002DE5D0C5E90048E2E7002A00F095
:1002D8009080B2FA82F6002E40F0A4808A1A030CAD
:1002E8004FEA174E80B2BCB20121B2FBFEFC0EFBF6
:1002F8001C2243EA024304FB0CF29A4207D9FB187A
:100308000CF1FF3802D29A4200F2E080C4469B1AF0
:10031800B3FBFEF20EFB123340EA034302FB04F484
:100328009C4207D9FB1802F1FF3002D29C4200F22E
:10033800CA8002461B1B42EA0C40A5E7C1F1200611
:100348008B4022FA06F71F430EFA01F420FA06F34F
:100358002EFA06FE4FEA1749234300FA01F81FFA5E
:1003680087FCBEFBF9F01C0C09FB10EE44EA0E44B6
:1003780000FB0CFEA64502FA01F209D93C1900F16E
:10038800FF3A80F09C80A64540F2998002383C44B0
:10039800A4EB0E041FFA83FEB4FBF9F309FB134424
:1003A8004EEA044403FB0CFCA44508D93C1903F1AC
:1003B800FF3E80F08280A4457FD9023B3C4443EA5B
:1003C8000040A4EB0C04A0FB02EC64457346E14634
:1003D80062D35FD05DB1B8EB030264EB090404FAA1
:1003E80006F622FA01F31E43CC40C5E90064002159
:1003F8004FE7B1FBF2FC010C41EA0E4180B240EA42
:1004080001423B4638463C46B846BE462026B1FB2C
:10041800F7F1A2EB080241EA0C4166E7014618E74A
:1004280010462CE7C6F120022EFA02F3B740B1407D
:1004380020FA02F24FEA174E0A43B3FBFEF8BCB2A9
:100448000EFB1833110C41EA034108FB04F9B040D4
:1004580089454FEA104380B23ED9791808F1FF3C2C
:1004680001D289451FD8A1EB0901B1FBFEF909FBAF
:1004780004F80EFB191192B242EA0142424529D210
:10048800BA1809F1FF31C4D24245C2D2A9F102011A
:100498003A44BEE7F0459DD2BEEB02036CEB070C75
:1004A8000138E14696E7A7EB09094944A8F1020C8F
:1004B800B1FBFEF909FB04F8DBE773467FE750461A
:1004C80066E70846FDE63B44023A33E7ACF1020C26
:1004D8003B441CE749469CE7A1EB0901C446B1FB34
:1004E800FEF909FB04F8C4E7704700BF034613F898
:1004F800012B002AFBD1181A01387047036842689B
:1005080003F16043B3F5003F09D802F17843B3F52E
:10051800801F06D212F0010F05D00120704700207D
:10052800704700207047002070470000012801D064
:10053800014870470148704700000108000004089E
:1005480008B5FFF7F3FFFFF7D9FF00B1012008BD99
:1005580070B588B000240094194B1A6B42F0010260
:100568001A631A6B02F001020092009A01941A6B46
:1005780042F002021A631A6B02F002020192019A17
:1005880002941A6B42F008021A631B6B03F008030B
:100598000293029B039404940594069407944FF4E1
:1005A8008046039601230493064D03A9284600F0CC
:1005B8008BFD22463146284600F07CFE08B070BD0F
:1005C80000380240000C024010B50446FFF78EFFC9
:1005D800642382B22146024801F083FB10BD00BFAC
:1005E800C000002008B5064800F012FA18B90548FE
:1005F800FFF7EAFF08BD0448FFF7E6FFFAE700BF88
:1006080040200008981E0008BC1E000870B504466B
:100618000668456800F012FB72B600230BE00E4A2C
:1006280003F1200C4FF0FF3142F82C1003F1600C5D
:1006380042F82C100133072BF1D901F08BF900F0A7
:1006480079FA064B9C6086F3088862B6BFF34F8F31
:10065800BFF36F8FA847FEE700E100E000ED00E080
:1006680038B50C46FFF762FF0546FFF747FF20B98C
:100678000748FFF7A9FF002038BD14B12046FFF74F
:10068800A3FF0448FFF7A0FF2846FFF7BFFF00BFFE
:10069800DC1E0008FC1E000810B5494800F08AF965
:1006A80000287BD0464B5B69012B3FD9444B002285
:1006B8005A610123424A1269012A03D9404B5A69F7
:1006C8001A6101233E4A926C1AB93D4B03229A647F
:1006D80001233B4A126C002A36D0394A536C926C7B
:1006E800934225D20133364A53643548836801332F
:1006F800836000F08DF950BB314B1C69012C2AD95D
:100708000020FFF71DFF00283AD1012C04D001205A
:10071800FFF716FF00283AD12A48FFF755FF0122B4
:100728004FF48041284800F0C5FD10BD0023C1E703
:10073800234B5A691A6100221A645A640122DA6446
:100748002248FFF741FFD0E7002BD5D0CDE720485E
:10075800FFF73AFFD0E72046FFF7F2FE30B144B981
:100768001C490020FFF77CFF0028DED1002CCED0EA
:10077800C6E719490120FFF773FF0028F6D0D4E730
:1007880016490020FFF76CFF0028BED0CDE71449BA
:100798000120FFF765FF0028BED0C6E71148FFF724
:1007A80013FFFFF71FFF10490020FFF759FF00282C
:1007B800BBD10E490120FFF753FF0028ACD0B4E7A6
:1007C80048000020F81F0008000C0240181F00080D
:1007D800401F0008581F00086C1F0008801F0008F1
:1007E800941F0008A81F0008D01F0008E41F000875
:1007F80072B6FEE708B50A480A4B03604FF4E133C6
:10080800436000238360C36003610C2242618361FB
:10081800C36101F036FA00B908BDFFF7E9FF00BF70
:10082800C00000200044004000B595B030220021EF
:1008380008A801F0E6FA00230393049305930693AE
:10084800079301931F4A116C41F080511164126C97
:1008580002F080520192019A02931B4A116841F4F6
:1008680080411160126802F480420292029A0222C8
:10087800089201210B9110210C910E920F930823DD
:1008880010936423119312920723139308A800F07E
:1008980021FD98B90F2303930223049300230593A2
:1008A8004FF4A05306934FF480530793032103A8F2
:1008B80000F07AFF20B915B05DF804FBFFF798FF48
:1008C800FFF796FF003802400070004008B500F0BE
:1008D80075F9FFF7A9FFFFF73BFEFFF78BFF074806
:1008E800FFF772FEFFF7D8FE4FF48041044800F08E
:1008F800E7FCFA2000F08EF9F6E700BF2820000890
:10090800000C024010B50446084600214FF0FF32A3
:100918000CE042F3000E0A4B0EEA030383EA52028C
:100928000CF1010CBCF1070FF3D90131814204D25B
:10093800635C5A404FF0000CF4E7D04310BD00BF91
:100948002083B8ED10B586B00023009301930223ED
:100958000593082303930123049300F073FA69466F
:1009680001A800F067FB044600F084FA201E18BFB7
:10097800012006B010BD000070B5064600F062FA0E
:1009880000240B4D1D2C0ED856F824200023294690
:10099800022000F0A9FA10B904350134F2E700F09A
:1009A80069FA012070BD00F065FA0020FAE700BF7F
:1009B8000000080800B330B59FB0044678221249F9
:1009C800684601F04BFA009A104B9A4216D1019BE7
:1009D800012B16D1149D0023149378216846FFF744
:1009E80091FF854201D0002009E07822694620461F
:1009F80001F034FA012002E00020704700201FB007
:100A080030BD0020FBE700BF000008084D41544FEF
:100A1800D8B110B59EB0014678242246684601F048
:100A28001DFA0B4B009301230193002314932146D5
:100A38006846FFF767FF1490FFF784FF08B11EB000
:100A480010BD6846FFF798FFF9E70120704700BF1F
:100A58004D41544F00B583B0002100910C4B5A6CA6
:100A680042F480425A645A6C02F480420092009A1E
:100A780001911A6C42F080521A641B6C03F0805387
:100A88000193019B072000F015F903B05DF804FB02
:100A98000038024000B589B00023039304930593FE
:100AA800069307930268154B9A4202D009B05DF885
:100AB80004FB0021019103F5FA331A6C42F4003269
:100AC8001A641A6C02F400320192019A02911A6BAC
:100AD80042F001021A631B6B03F001030293029BAD
:100AE8000C230393022304930323069307230793FA
:100AF80003A9034800F0E8FAD8E700BF0044004023
:100B080000000240FEE7FEE7FEE7FEE7FEE770476B
:100B18007047704708B500F06BF808BD034AD2F873
:100B2800883043F47003C2F88830704700ED00E065
:100B38007047000010B50A4B0A4A1A6200241C626A
:100B4800094A5A625C62094A1A611C61C1225A61E7
:100B58005C6101229A619C61FFF7EAFF204610BDA3
:100B680000380240FFC9FEF633797704FF1160228E
:100B780010B504460E4B1A784FF47A73B3FBF2F3B0
:100B88000C4A1068B0FBF3F000F0B6F868B90F2C07
:100B980001D901200AE0002221464FF0FF3000F081
:100BA8009BF8054B1C60002000E0012010BD00BF31
:100BB80004000020000000200800002008B50B4BAE
:100BC8001A6842F400721A601A6842F480621A6065
:100BD8001A6842F480721A60032000F06BF8002053
:100BE800FFF7C6FFFFF736FF002008BD003C0240B4
:100BF800034A1168034B1B780B441360704700BF0E
:100C08000801002004000020014B1868704700BF4D
:100C18000801002038B50446FFF7F6FF0546B4F191
:100C2800FF3F02D0044B1B781C44FFF7EDFF401B2D
:100C3800A042FAD338BD00BF040000204FF0E022E4
:100C4800136923F00203136170470000002808DBD2
:100C58000901C9B200F1604000F5614080F8001355
:100C6800704700F00F000901C9B2014B19547047D1
:100C780014ED00E000B500F00700C0F1070CBCF16E
:100C8800040F28BF4FF0040C031D062B0FD9C31EF9
:100C98004FF0FF3E0EFA0CF021EA000199400EFADF
:100CA80003FE22EA0E0241EA02005DF804FB00237B
:100CB800EEE70000074AD36823F4E0631B041B0C2B
:100CC800000200F4E060034343F0BF6343F40033E1
:100CD800D360704700ED00E010B50446054BD868B6
:100CE800C0F30220FFF7C6FF01462046FFF7AEFF1C
:100CF80010BD00BF00ED00E00138B0F1807F0BD2DD
:100D08004FF0E0235861054AF02182F823100020B3
:100D1800986107221A6170470120704700ED00E0D2
:100D280010B40A490C6924F440740C610C6944F449
:100D380040740C610C6944F001040C610260BFF35B
:100D48006F8F43605DF8044B704700BF003C024062
:100D5800074B1A6922F440721A611A6942F4007248
:100D68001A611A6942F001021A610160704700BFF6
:100D7800003C0240074B1A6922F440721A611A6952
:100D880042F480721A611A6942F001021A61018004
:100D9800704700BF003C0240064B1A6922F44072BB
:100DA8001A611A691A611A6942F001021A6101701E
:100DB800704700BF003C0240204BDB6813F0100F67
:100DC80007D01F4AD36943F01003D3611B4B10228D
:100DD800DA601A4BDB6813F0200F07D0184AD36982
:100DE80043F00803D361154B2022DA60134BDB680C
:100DF80013F0400F07D0124AD36943F00403D361BC
:100E08000E4B4022DA600D4BDB6813F0800F07D0E1
:100E18000B4AD36943F00203D361084B8022DA609E
:100E2800064BDB6813F0020F07D0054AD36943F07D
:100E38002003D361014B0222DA607047003C024074
:100E48000C000020094B1B69002B01DB00207047B8
:100E5800064B074A5A6002F188325A601B69002B18
:100E680001DB002070470120704700BF003C0240B2
:100E780023016745034A136943F0004313610020C7
:100E8800704700BF003C024038B50446144B0022AE
:100E9800DA61FFF7B9FE0546124BDB6813F4803FB1
:100EA8000AD0B4F1FF3FF7D024B1FFF7ADFE401BE5
:100EB800A042F1D903200DE00A4BDB6813F0010FC3
:100EC80002D0084B0122DA60064BDB6813F0F20F00
:100ED80001D1002038BDFFF76FFF0120FAE700BFFE
:100EE8000C000020003C0240F8B516461B4A127E52
:100EF800012A30D004460D461F46184B01221A76A7
:100F08004CF25030FFF7C0FF90B9ACB1012C18D0AB
:100F1800022C1BD032463B462846FFF701FF4CF215
:100F28005030FFF7B1FF0E4A136923F00103136134
:100F38000A4B00221A76F8BDF1B22846FFF72CFFBB
:100F4800EDE7B1B22846FFF715FFE8E73146284636
:100F5800FFF7FEFEE3E70220EDE700BF0C000020EC
:100F6800003C0240074B1A6922F440721A611A6960
:100F780042F004021A611A6942EA002242F48032FD
:100F88001A617047003C0240012905D0022906D0A9
:100F980039B14FF4407104E04FF4807101E04FF42F
:100FA80000710B4B1A6922F440721A611A690A43DC
:100FB8001A611A6922F078021A611A6942EAC000B5
:100FC80040F0020018611A6942F480321A617047D1
:100FD800003C0240164B1B6813F4007F10D0144BE2
:100FE8001A6822F400721A601A6842F400621A60E1
:100FF8001A6822F400621A601A6842F400721A60D1
:101008000B4B1B6813F4806F10D0094B1A6822F43D
:1010180080621A601A6842F480521A601A6822F4D0
:1010280080521A601A6842F480621A60704700BFE2
:10103800003C0240F8B5224B1B7E012B3ED00446F3
:101048000E461F4B01221A764CF25030FFF71CFF58
:10105800074670BB4FF0FF3333602368012B16D06F
:10106800A568E368A2681344AB4220D9217C2846CE
:10107800FFF78AFF4CF25030FFF706FF114A136959
:1010880023F07A031361074680B90135E9E76168FF
:10109800207CFFF767FF4CF25030FFF7F5FE07465C
:1010A800084A136923F00403136100E03560FFF771
:1010B80091FF034B00221A763846F8BD0227FBE75A
:1010C8000C000020003C024000230F2B00F2E980B6
:1010D80070B582B065E085684FEA430E032404FAD0
:1010E8000EF425EA0405CC6804FA0EF42C43846057
:1010F800446824EA02044A68C2F300129A40224370
:1011080042605CE0DC08083450F8242003F007054E
:10111800AD004FF00F0E0EFA05FE22EA0E0E0A6918
:10112800AA4042EA0E0240F824205CE0072200E0D0
:10113800002202FA0EF22A4302345A4D45F82420BE
:10114800594A94686FEA0C0224EA0C054E6816F4B2
:10115800801F01D04CEA0405534CA560E46802EAFC
:1011680004054E6816F4001F01D04CEA04054E4CE5
:10117800E560646802EA04054E6816F4003F01D091
:101188004CEA0405484C6560246822404D6815F413
:10119800803F01D04CEA0402434C226001330F2BFC
:1011A8007DD801229A400C6804EA020C32EA040451
:1011B800F4D14C6804F00304013C012C8BD94A6833
:1011C80002F00302032A09D0C4685D000322AA4082
:1011D80024EA02048A68AA402243C2604A6802F0EC
:1011E8000302022A8ED004684FEA430E032202FA51
:1011F8000EF224EA02044A6802F0030202FA0EF22E
:10120800224302604A6812F4403FC7D0002201928C
:10121800264A546C44F480445464526C02F480426C
:101228000192019A9C08A51C1E4A52F8255003F009
:10123800030E4FEA8E0E0F2202FA0EF225EA02057D
:101248001B4A90423FF474AF02F5806290421AD074
:1012580002F58062904218D002F58062904216D062
:1012680002F58062904214D002F58062904212D05A
:1012780002F58062904210D002F5806290423FF4FD
:1012880055AF082255E7012253E7022251E703220E
:101298004FE704224DE705224BE7062249E702B053
:1012A80070BD704700380140003C014000380240E2
:1012B800000002400AB181617047090481617047EA
:1012C800436901EA030221EA030141EA024181611B
:1012D80070470000002800F0E08170B582B0044635
:1012E800036813F0010F3BD09F4B9B6803F00C037E
:1012F800042B2CD09C4B9B6803F00C03082B21D0AB
:101308006368B3F5803F4FD0B3F5A02F52D0964B0A
:101318001A6822F480321A601A6822F480221A604D
:101328006368002B50D0FFF76FFC05468E4B1B6897
:1013380013F4003F14D1FFF767FC401B6428F5D96C
:101348000320B1E1884B5B6813F4800FD8D0864B3B
:101358001B6813F4003F03D06368002B00F09F81E3
:10136800236813F0020F54D07F4B9B6813F00C0FC7
:101378003ED07D4B9B6803F00C03082B33D0E36809
:10138800002B68D0794B01221A60FFF73DFC054617
:10139800754B1B6813F0020F54D1FFF735FC401B47
:1013A8000228F5D903207FE16F4A136843F480339C
:1013B8001360B5E76C4B1A6842F480221A601A6809
:1013C80042F480321A60ABE7FFF71EFC0546664B15
:1013D8001B6813F4003FC3D0FFF716FC401B6428BA
:1013E800F5D9032060E1604B5B6813F4800FC6D128
:1013F8005D4B1B6813F0020F03D0E368012B40F02C
:101408005081594A136823F0F803216943EAC1035C
:101418001360236813F0080F42D063696BB3534B12
:101428000122C3F8802EFFF7EFFB05464E4B5B6F9A
:1014380013F0020F34D1FFF7E7FB401B0228F5D960
:10144800032031E1484A136823F0F803216943EA8D
:10145800C1031360DDE7454B00221A60FFF7D4FB98
:101468000546414B1B6813F0020FD2D0FFF7CCFBA7
:10147800401B0228F5D9032016E13C4B0022C3F893
:10148800802EFFF7C1FB0546374B5B6F13F0020F49
:1014980006D0FFF7B9FB401B0228F5D9032003E16A
:1014A800236813F0040F77D02F4B1B6C13F0805F69
:1014B80033D1002301932C4B1A6C42F080521A64EA
:1014C8001B6C03F080530193019B0125284B1B687B
:1014D80013F4807F23D0A368012B34D0052B38D098
:1014E800214B1A6F22F001021A671A6F22F00402C8
:1014F8001A67A368002B3DD0FFF786FB06461A4BF8
:101508001B6F13F0020F46D1FFF77EFB801B41F2E1
:1015180088339842F3D90320C6E00025D6E7144A59
:10152800136843F480731360FFF76EFB0646104B95
:101538001B6813F4807FCED1FFF766FB801B02285F
:10154800F5D90320B0E0084A136F43F0010313678D
:10155800CFE7054B1A6F42F004021A671A6F42F080
:1015680001021A67C5E700BF003802400000474281
:1015780000700040FFF748FB0646524B1B6F13F004
:10158800020F08D0FFF740FB801B41F288339842D6
:10159800F3D9032088E0EDB9A369002B00F083801C
:1015A800484A926802F00C02082A51D0022B17D040
:1015B800454B00221A66FFF727FB0446414B1B6880
:1015C80013F0007F42D0FFF71FFB001B0228F5D95C
:1015D800032069E03B4A136C23F080531364DBE774
:1015E800394B00221A66FFF70FFB0546354B1B687F
:1015F80013F0007F06D0FFF707FB401B0228F5D940
:10160800032051E0E369226A1343626A43EA8213C2
:10161800A26A5208013A43EA0243E26A43EA0263D1
:10162800284A5360284B01221A66FFF7EDFA044650
:10163800244B1B6813F0007F06D1FFF7E5FA001B67
:101648000228F5D903202FE000202DE000202BE010
:10165800012B2BD01B4B5B6803F48001E26991429C
:1016680026D103F03F02216A8A4223D1616A47F6F4
:10167800C0721A40B2EB811F1ED103F44031A26A36
:101688005208013AB1EB024F18D103F07063E26AD5
:10169800B3EB026F14D1002006E00120704701204F
:1016A80002E0012000E0002002B070BD0120FBE74D
:1016B8000120F9E70120F7E70120F5E70120F3E72A
:1016C8000120F1E7003802400000474208B5334BDB
:1016D8009B6803F00C03042B5BD0082B5BD12F4BCA
:1016E8005A6802F03F025B6813F4800F2CD02B4B32
:1016F8005868C0F388104FEA401CBCEB000C6EEB36
:101708000E0E4FEA8E1343EA9C634FEA8C11B1EB3D
:101718000C0163EB0E03DB0043EA5173C90011EBC4
:10172800000C43F10003590200234FEA4C2041EA20
:10173800DC51FEF745FD194B5B68C3F301430133E8
:101748005B00B0FBF3F008BD144B5868C0F3881079
:101758004FEA401CBCEB000C6EEB0E0E4FEA8E13EA
:1017680043EA9C634FEA8C11B1EB0C0163EB0E0367
:10177800DB0043EA5173C90011EB000C43F100038D
:10178800990200234FEA8C2041EA9C51FEF718FD8C
:10179800D1E70348D7E70348D5E700BF0038024040
:1017A80000127A000024F400002800F09B8070B535
:1017B8000D4604464F4B1B6803F007038B4208D2C3
:1017C800CBB24C4A1370136803F007038B4240F006
:1017D8008B80236813F0020F17D013F0040F04D086
:1017E800454A936843F4E0539360236813F0080F65
:1017F80004D0414A936843F4604393603E4A936837
:1018080023F0F003A1680B439360236813F0010FE2
:1018180032D06368012B21D09A1E012A25D9364A75
:10182800126812F0020F61D033498A6822F003026D
:1018380013438B60FFF7E8F906462F4B9B6803F0CC
:101848000C036268B3EB820F16D0FFF7DDF9801B3B
:1018580041F288339842F0D9032042E0264A1268C0
:1018680012F4003FE0D101203BE0234A126812F055
:10187800007FD9D1012034E01E4B1B6803F0070319
:10188800AB4207D9EAB21B4B1A701B6803F0070377
:10189800AB422DD1236813F0040F06D0164A936883
:1018A80023F4E053E1680B439360236813F0080FB7
:1018B80007D0114A936823F46043216943EAC103BE
:1018C8009360FFF703FF0C4B9B68C3F303130B4AAA
:1018D800D35CD8400A4B18600A4B1868FFF748F9E0
:1018E800002070BD012070470120FAE70120F8E7C9
:1018F8000120F6E7003C024000380240C020000802
:101908000000002008000020014B1868704700BF45
:101918000000002008B5FFF7F7FF044B9B68C3F3EE
:101928008223034AD35CD84008BD00BF0038024078
:10193800B820000808B5FFF7E7FF044B9B68C3F31E
:101948004233034AD35CD84008BD00BF0038024088
:10195800B820000838B5FFF757F90446464A136817
:1019680043F001031360444B1B6813F0020F06D1C8
:10197800FFF74AF9001B0228F5D9032038BD3E4D70
:101988002B6843F080032B60FFF73EF904460023E1
:10199800AB60394B9B6813F00C0F08D0FFF734F994
:1019A800001B41F288339842F3D90320E6E7FFF79A
:1019B8002BF90446304A136823F4502313602E4B46
:1019C8001B6813F4003F06D0FFF71EF9001B6428BC
:1019D800F5D90320D2E7FFF717F90446264A13681A
:1019E80023F080731360244B1B6813F0007F06D02C
:1019F800FFF70AF9001B0228F5D90320BEE7FFF715
:101A080003F904461C4A136823F0806313601A4BD9
:101A18001B6813F0006F06D0FFF7F6F8001B0228CA
:101A2800F5D90320AAE7144B144A5A60144AC3F89C
:101A38008420DA6822F4F852DA60DA6822F4005274
:101A4800DA60DA6842F41F02DA60DA6842F40012F7
:101A5800DA605A6F22F001025A675A6F42F08072B8
:101A68005A67084B084A1A60084B1868FFF780F84D
:101A7800002883D0012081E700380240103000049C
:101A880000300020000000200024F400080000209E
:101A9800026802F10C0353E8003F23F490730C3200
:101AA80042E800310029F3D1026802F1140353E837
:101AB800003F23F00103143242E800310029F3D13A
:101AC800036B012B05D0202380F8423000230363E9
:101AD8007047026802F10C0353E8003F23F010033B
:101AE8000C3242E800310029F3D1ECE710B5044686
:101AF8000268136923F44053C1680B431361836878
:101B080002691A4343691A43C3691A430168CB68D7
:101B180023F4164323F00C031343CB600268536984
:101B280023F4407381690B4353610368314A93423C
:101B380006D002F58062934202D0FFF7EBFE01E087
:101B4800FFF7F8FEE369B3F5004F29D00021031829
:101B580049411B1841F10001C90041EA5371DB00FA
:101B6800181863684FEA83024FEA937341F1000142
:101B7800FEF726FB204AA2FB00314909642303FB38
:101B880011031B013233A2FB03235B0903F0F002AC
:101B980002EB011203F00F03216813448B6010BDA0
:101BA8000023021843EB0301121841F10001C90098
:101BB80041EA5271D200101841F10001626892188E
:101BC8005B41FEF7FDFA0C4AA2FB00314909642388
:101BD80003FB1103DB003233A2FB03235B095A002A
:101BE80002F4F87202EB011203F0070321681344B0
:101BF8008B60D4E7001001401F85EB512DE9F043BD
:101C080083B005460E4617469946DDF828802B68AE
:101C18001C6836EA04040CBF01240024BC4228D105
:101C2800B8F1FF3FF3D0FEF7EFFFA0EB0900404506
:101C380023D8B8F1000F22D02B68DA6812F0040F0D
:101C4800E5D0802EE3D0402EE1D01A6812F0080FBC
:101C5800DDD0002401941A6801925B680193019B0E
:101C68002846FFF715FF08236B6485F840400120DC
:101C780000E0002003B0BDE8F0830320FAE703206A
:101C8800F8E760B310B5044690F8413013B3242345
:101C980084F841302268D36823F40053D360204687
:101CA800FFF724FF2268136923F490431361226825
:101CB800536923F02A0353612268D36843F400531D
:101CC800D36000206064202384F8413084F84230D7
:101CD800606310BD80F84030FEF7DCFED7E70120D6
:101CE80070472DE9F04182B01E4690F84130DBB2D2
:101CF800202B56D104460D469046002955D00AB9E6
:101D080001204FE000234364212380F84130FEF78F
:101D18007BFF0746A4F82480A4F82680A368B3F5BF
:101D2800805F02D04FF0000814E023692BB34FF016
:101D380000080FE0202384F84130032032E038F80F
:101D4800023B2268C3F308035360E28C92B2013A63
:101D580092B2E284E38C9BB293B100963B46002298
:101D680080212046FFF74AFF0028E3D1002DE6D066
:101D780015F8012B23685A60E7E7A8460025E9E72C
:101D880000963B46002240212046FFF737FF18B94E
:101D9800202384F8413005E0202384F841300320D3
:101DA80000E0022002B0BDE8F0810120FAE700005F
:101DB800DFF834D0FEF7B2FE0C480D490D4A002377
:101DC80002E0D458C4500433C4188C42F9D30A4AE8
:101DD8000A4C002301E013600432A242FBD300F056
:101DE80019F8FEF773FD704700000220000000207C
:101DF8002C000020E02000082C0000200C0100200E
:101E0800FEE702440346934200D1704703F8011BE2
:101E1800F9E7000070B50D4D0D4C641BA4100026A9
:101E2800A64209D10B4D0C4C00F026F8641BA410F7
:101E38000026A64205D170BD55F8043B98470136E7
:101E4800EEE755F8043B98470136F2E7D82000083A
:101E5800D8200008D8200008DC2000080A44914255
:101E680000F1FF3300D1704710B511F8014B03F8AA
:101E7800014F9142F9D110BDF8B500BFF8BC08BCBC
:101E88009E467047F8B500BFF8BC08BC9E46704730
:101E980044656661756C74206D6574616461746114
:101EA80020696E697469616C697A65640D0A00005D
:101EB8000000000044656661756C74206D6574618E
:101EC8006461746120696E6974206661696C656417
:101ED8000D0A000053656C656374656420736C6F4C
:101EE8007420766563746F7220696E76616C6964BC
:101EF8000D0A00004A756D70696E6720746F206165
:101F080070706C69636174696F6E0D0A000000007F
:101F1800526F6C6C6261636B3A206D617820626FFE
:101F28006F7420617474656D707473207265616379
:101F38006865640D0A0000004D6574616461746130
:101F48002073617665206661696C65640D0A00001E
:101F580050726566657272656420736C6F743A209E
:101F6800410D0A0050726566657272656420736C73
:101F78006F743A20420D0A0046616C6C6261636BB3
:101F880020736C6F743A20410D0A000046616C6C36
:101F98006261636B20736C6F743A20420D0A000013
:101FA8004D6574616461746120696E76616C696401
:101FB8002C207472792064656661756C7420736C6A
:101FC8006F74730D0A00000044656661756C7420B7
:101FD800736C6F743A20410D0A0000004465666115
:101FE800756C7420736C6F743A20420D0A000000FF
:101FF8004E6F2076616C6964206170706C696361F2
:1020080074696F6E2C2073746179696E6720696ECC
:1020180020626F6F746C6F616465720D0A00000056
:10202800426F6F746C6F616465722073746172744F
:1020380065640D0A000000004D41544F0100000086
:102048000100000000000000000000000000000087
:10205800000001080000030000000000010000006B
:102068000000000000000408000004000000000058
:102078000000000000000000000000000000000058
:102088000300000000000000000000000000000045
:102098000000000000000000000000000000000038
:1020A8000000000000000000000000000000000028
:1020B800000000000102030400000000000000000E
:0820C8000102030406070809E8
:0820D00028E1FF7F0100000080
:0420D800AD0100084E
:0420DC00890100086E
:1020E0000024F400010000001000000000000000C7
:1020F00000000000000000000000000001000000DF
:0C210000000000000000000000000000D3
:0400000508001DB919
:00000001FF
