:020000040801F1
:1000000000000220892D01081514010817140108A9
:10001000191401081B1401081D1401080000000038
:100020000000000000000000000000001F14010894
:100030002114010800000000231401082514010800
:10004000D92D0108D92D0108D92D0108D92D010874
:10005000D92D0108D92D0108D92D0108D92D010864
:10006000D92D0108D92D0108D92D0108D92D010854
:10007000D92D0108D92D0108D92D0108D92D010844
:10008000D92D0108D92D0108D92D0108D92D010834
:100090002D1401083D140108D92D0108D92D01089E
:1000A000D92D0108D92D0108D92D0108D92D010814
:1000B000D92D0108D92D0108D92D0108D92D010804
:1000C000D92D0108D92D0108D92D0108D92D0108F4
:1000D000D92D0108D92D0108D92D0108D92D0108E4
:1000E000D92D0108D92D0108D92D0108D92D0108D4
:1000F000D92D0108D92D0108D92D0108D92D0108C4
:10010000D92D0108D92D0108D92D0108D92D0108B3
:10011000D92D0108D92D0108D92D0108D92D0108A3
:10012000D92D0108D92D0108D92D0108D92D010893
:10013000D92D0108D92D0108D92D0108D92D010883
:10014000D92D0108D92D0108D92D0108D92D010873
:10015000D92D0108D92D0108D92D0108D92D010863
:10016000D92D0108D92D0108D92D0108D92D010853
:10017000D92D0108D92D0108D92D01080000000052
:08018000D92D0108D92D010859
:1001900010B5054C237833B9044B13B10448AFF3C1
:1001A00000800123237010BD7C00002000000000AF
:1001B0004437010808B5034B1BB103490348AFF3AB
:1001C000008008BD000000008000002044370108C6
:1001D00053B94AB9002908BF00281CBF4FF0FF31AE
:1001E0004FF0FF3000F088B9ADF1080C6DE904CE96
:1001F00000F006F8DDF804E0DDE9022304B0704702
:100200002DE9F047089D8E4604468846002B4AD1CA
:100210008A42174662D9B2FA82F64EB1C6F120037D
:1002200001FA06F820FA03F3B74043EA0808B4409D
:100230004FEA174E1FFA87FCB8FBFEF1230C0EFBAA
:10024000118843EA084301FB0CF29A4209D9FB18D2
:1002500001F1FF3080F0EA809A4240F2E7800239F3
:100260003B449A1AA3B2B2FBFEF00EFB102243EA03
:10027000024300FB0CFC9C4509D9FB1800F1FF323E
:1002800080F0D6809C4540F2D3803B44023840EA5F
:100290000140A3EB0C0300211DB1F3400022C5E98E
:1002A0000032BDE8F0878B4205D90DB1C5E90001E8
:1002B00000210846F5E7B3FA83F1002946D17345DA
:1002C00002D3824200F20581841A6EEB0302012000
:1002D0009046002DE5D0C5E90048E2E7002A00F08D
:1002E0009080B2FA82F6002E40F0A4808A1A030CA5
:1002F0004FEA174E80B2BCB20121B2FBFEFC0EFBEE
:100300001C2243EA024304FB0CF29A4207D9FB1871
:100310000CF1FF3802D29A4200F2E080C4469B1AE8
:10032000B3FBFEF20EFB123340EA034302FB04F47C
:100330009C4207D9FB1802F1FF3002D29C4200F226
:10034000CA8002461B1B42EA0C40A5E7C1F1200609
:100350008B4022FA06F71F430EFA01F420FA06F347
:100360002EFA06FE4FEA1749234300FA01F81FFA56
:1003700087FCBEFBF9F01C0C09FB10EE44EA0E44AE
:1003800000FB0CFEA64502FA01F209D93C1900F166
:10039000FF3A80F09C80A64540F2998002383C44A8
:1003A000A4EB0E041FFA83FEB4FBF9F309FB13441C
:1003B0004EEA044403FB0CFCA44508D93C1903F1A4
:1003C000FF3E80F08280A4457FD9023B3C4443EA53
:1003D0000040A4EB0C04A0FB02EC64457346E1462C
:1003E00062D35FD05DB1B8EB030264EB090404FA99
:1003F00006F622FA01F31E43CC40C5E90064002151
:100400004FE7B1FBF2FC010C41EA0E4180B240EA39
:1004100001423B4638463C46B846BE462026B1FB24
:10042000F7F1A2EB080241EA0C4166E7014618E742
:1004300010462CE7C6F120022EFA02F3B740B14075
:1004400020FA02F24FEA174E0A43B3FBFEF8BCB2A1
:100450000EFB1833110C41EA034108FB04F9B040CC
:1004600089454FEA104380B23ED9791808F1FF3C24
:1004700001D289451FD8A1EB0901B1FBFEF909FBA7
:1004800004F80EFB191192B242EA0142424529D208
:10049000BA1809F1FF31C4D24245C2D2A9F1020112
:1004A0003A44BEE7F0459DD2BEEB02036CEB070C6D
:1004B0000138E14696E7A7EB09094944A8F1020C87
:1004C000B1FBFEF909FB04F8DBE773467FE7504612
:1004D00066E70846FDE63B44023A33E7ACF1020C1E
:1004E0003B441CE749469CE7A1EB0901C446B1FB2C
:1004F000FEF909FB04F8C4E7704700BF034613F890
:10050000012B002AFBD1181A0138704700000000A7
:1005100001F0FF01102A2BDB10F0070F08D010F8B4
:10052000013B013A8B422DD010F0070F42B3F6D1B8
:10053000F0B441EA012141EA014122F007047FF0D1
:1005400000070023F0E80256083C85EA010586EA28
:10055000010685FA47F5A3FA87F586FA47F6A5FA64
:1005600087F68EB9EED1F0BC01F0FF0102F0070270
:1005700032B110F8013B013A83EA010313B1F8D11B
:100580000020704701387047002D06BF35460338FC
:10059000073815F0010F07D1013015F4807F02BF35
:1005A000013015F4C03F0130F0BC0138704700BF86
:1005B000BFF34F8F0549CA6802F4E062044B13434E
:1005C000CB60BFF34F8F00BFFDE700BF00ED00E041
:1005D0000400FA050023134A1370134A1360134AE8
:1005E0001360134A1360134A1360134A4FF0FF312C
:1005F0001160124A1360124A1380124A01211160DD
:10060000114A12491160124A4FF480211160114AB7
:1006100006211160104A02211160104A1370104A1D
:1006200013607047D0000020CC000020C8000020DC
:10063000C4000020C0000020BC000020B800002042
:10064000B4000020B0000020AC000020000004082E
:10065000A8000020A4000020A00000209C00002092
:100660009800002010B50C46114600220CE040F323
:10067000000E094B0EEA030383EA50000CF1010C53
:10068000BCF1070FF3D901328A4204D2A35C58406F
:100690004FF0000CF4E710BD2083B8ED00B59FB01B
:1006A00078221E49684602F003FC684600F062FDAD
:1006B00038B1039B012B01D9012303E0CBB90123FE
:1006C00000E00123164A1360ABB9164B164A1A60B4
:1006D000164B4FF440321A60154B04221A60154B2A
:1006E00002221A600A9B0133134A13601FB05DF89F
:1006F00004FB0023E6E70B4B104A1A600B4B4FF448
:1007000080221A600A4B06221A600A4B02221A60E3
:100710000F9B0133084A1360E8E700BF94380108D3
:10072000B0000020AC00002000000108A80000205C
:10073000A4000020A0000020C40000200000040845
:1007400070B588B000240094194B1A6B42F0010276
:100750001A631A6B02F001020092009A01941A6B5C
:1007600042F002021A631A6B02F002020192019A2D
:1007700002941A6B42F008021A631B6B03F0080321
:100780000293029B039404940594069407944FF4F7
:100790005046039601230493064D03A9284601F011
:1007A0001DFD22463146284601F00EFE08B070BD00
:1007B00000380240000C024010B50446FFF79EFED0
:1007C000642382B22146024802F077FA10BD00BFCE
:1007D000240100202DE9F041AAB01C785D789E78B4
:1007E000DF7893F804C093F805E093F80680DB798E
:1007F0000993CDF82080CDF81CE0CDF818C00597FE
:100800000496039502940192009103460A4A8021BE
:100810000AA802F0E3FA00280ADD7F2802DD0AA810
:10082000FFF76CFE642382B20AA9044802F045FA7D
:100830002AB0BDE8F08100BF5C3701082401002028
:10084000104B1B7803B9704710B58AB072B60DF122
:100850000C0C0D4C0FCCACE80F0094E807008CE8B2
:1008600007000A4A01AB92E8030083E80300054A47
:100870000021117062B6079A03990548FFF7AAFF95
:100880000AB010BD2001002004010020FC0000205F
:10089000A437010810B586B0002301930293039397
:1008A000049305930093022305930A4B1B6803935B
:1008B000094B1B68049301F04FFB694601A801F046
:1008C00043FC044601F060FB201E18BF012006B067
:1008D00010BD00BFA4000020A000002070B582B0B1
:1008E00000230193042A02D9012002B070BD0646FC
:1008F000D51C25F0030501A802F0DAFA01F02CFB63
:100900000024AC4225D204F108036B4413F8043CE4
:1009100004F109026A4412F8042C43EA022304F1A8
:100920000A026A4412F8042C43EA024304F10B025F
:100930006A4412F8042C43EA02620023A11902203F
:1009400001F05CFB08B90434DBE701F01DFB01207A
:10095000CBE701F019FB0020C7E7000000B58BB022
:100960000023049305930693079308930993049037
:10097000082008908DF808108DF80920C2F307218F
:100980008DF80A10C2F307418DF80B10120E8DF886
:100990000C208DF80D308DF80E308DF80F3001AB36
:1009A0000DEB000204A9034800F058FF0BB05DF8FE
:1009B00004FB00BF6C010020A64B1B78002B00F04D
:1009C000EE8170B58AB072B60DF10C0CA24C0FCC52
:1009D000ACE80F0094E807008CE807009F4A01ABE1
:1009E00092E8030083E803009A4B00221A7062B673
:1009F000079C082C0AD8039BA3F54873032B0AD83D
:100A0000DFE813F00B004600BA004401012140F278
:100A10002530FFF7A3FF0AB070BD082C03D19DF865
:100A200004304F2B06D00022012140F22530FFF781
:100A300095FFF0E79DF80530542BF4D19DF8063072
:100A4000412BF0D19DF80730532BECD19DF80830A5
:100A5000592BE8D19DF809304E2BE4D19DF80A308E
:100A6000432BE0D19DF80B30212BDCD1FFF7B2FDF9
:100A7000FFF714FE7A4B01221A707A4B1A68002194
:100A80004FF44970FFF76AFF7748FFF795FEC2E71A
:100A90009DF804209DF8053042EA03229DF80630B7
:100AA00042EA03429DF8073042EA03629DF80830AB
:100AB0009DF8091043EA01239DF80A1043EA014317
:100AC0009DF80B1043EA016365490978022915D0A6
:100AD000012926D165490A6065490B601AB1654B49
:100AE0001B68934224D2032140F22530FFF736FFE2
:100AF000032000F0DDFBFFF76DFD8CE75E4800682A
:100B00000028E5D1594800689042E1D1584C24684A
:100B10009C42DDD1024600214FF44970FFF71EFFD1
:100B200079E70022012140F22530FFF717FF72E735
:100B3000FFF7B0FE58B10022022140F22530FFF746
:100B40000DFF012000F0B4FBFFF744FD63E7444BC9
:100B500002221A700021484B1960484B4FF0FF32B7
:100B60001A60474B1A68474B1A60404B1A684FF49B
:100B70004970FFF7F3FE4EE7394B1B78022B28D163
:100B8000022C2DD99DF804309DF8052043EA02235C
:100B90003D4A12889A422CD1A51E374B1A6851192A
:100BA000324B1B6899422CD82A460DF10601354B71
:100BB0001868FFF793FE78B32F4B1A68022140F2B2
:100BC0002530FFF7CBFE012000F072FBFFF702FD9E
:100BD00021E70022012140F22530FFF7BFFE1AE78E
:100BE0000022012140F22530FFF7B8FEFFF7F2FCAA
:100BF00011E7012140F22530FFF7B0FEFFF7EAFCD4
:100C000009E7032140F22530FFF7A8FE032000F09A
:100C10004FFBFFF7DFFCFEE6184E2A460DF10601FA
:100C20003068FFF71FFD3060134B1A682A441A60C2
:100C300015490B8801330B80611C21F00301114819
:100C400003680B44036000214FF44970FFF786FEF0
:100C5000E1E600BFF8000020DC000020D400002006
:100C6000D0000020B0000020A8370108CC000020F0
:100C7000C8000020A8000020C0000020BC00002008
:100C8000AC000020B8000020B4000020444B1B78CA
:100C9000022B2CD1082C31D19DF804309DF8052071
:100CA00043EA02239DF8062043EA02439DF8072009
:100CB00043EA02639DF808209DF8091042EA0122E8
:100CC0009DF80A1042EA01429DF80B1042EA0162C7
:100CD00034498B4203D1344B1968914217D001211A
:100CE00040F22530FFF73AFEFFF774FC93E600224E
:100CF000012140F22530FFF731FE8CE60022012170
:100D000040F22530FFF72AFEFFF764FC83E6274B0D
:100D10001C68E443264B1B68994203D1254B1B6892
:100D2000A3420BD02246042140F22530FFF716FEE5
:100D3000022000F0BDFAFFF74DFC6CE61E4B1B686D
:100D400022461E48006800F065FA40B100220221E8
:100D500040F22530FFF702FEFFF73CFC5BE6104B4C
:100D600003221A70224600214FF44970FFF7F6FD66
:100D7000124B1B687BB91248FFF71EFD1148FFF7A5
:100D80001BFD114B01221A7000F0DEFB00F596707E
:100D90000E4A10603FE60E48FFF70EFDEEE7704783
:100DA000D000002031444E45CC000020BC00002083
:100DB000C0000020C8000020C4000020B0000020B7
:100DC000BC370108FC3701089C0000209800002077
:100DD000DC3701080268244B9A4200D0704710B5F6
:100DE0008AB001AB03AA002100F0ADFD002834D188
:100DF000059B002B36D1069B002B33D11B4C0DF1EC
:100E00000C0CBCE80F000FC49CE8070084E8070046
:100E1000174B01AA92E8030083E80300154B012257
:100E20001A70154B1B7893B9144C0DF10C0CBCE8DF
:100E30000F000FC49CE8070084E80700104B01AACC
:100E400092E8030083E803000B4B01221A704FF471
:100E500000410C4801F0BEFA04E04FF4804109481B
:100E600001F0B8FA0AB010BD00640040040100208F
:100E7000FC00002020010020F8000020DC00002001
:100E8000D4000020000C024008B50268044B9A42CE
:100E900000D008BD4FF48041024801F09BFAF8E70A
:100EA00000640040000C024072B6FEE708B50D4831
:100EB0000D4B03600A23436000238360C3604FF43B
:100EC000702202614FF400124261037601224276E1
:100ED0008376C2760377437700F050FB00B908BDF4
:100EE000FFF7E2FF6C0100200064004008B50A48EB
:100EF0000A4B03604FF4E133436000238360C36017
:100F000003610C2242618361C36101F0A6FE00B956
:100F100008BDFFF7C9FF00BF2401002000440040C6
:100F200000B58BB028220021684601F08DFF012317
:100F3000079308930E23099369460B4800F0C4FBFE
:100F400060B9094800F05CFC50B948F2024106481B
:100F500000F0AEFD30B90BB05DF804FBFFF7A4FF65
:100F6000FFF7A2FFFFF7A0FF6C01002000B595B0CE
:100F70003022002108A801F067FF002303930493A7
:100F800005930693079301931F4A116C41F080511A
:100F90001164126C02F080520192019A02931B4A72
:100FA000116841F480411160126802F4804202929B
:100FB000029A0222089201210B9110210C910E92AB
:100FC0000F93082310936423119312920723139312
:100FD00008A801F009FA98B90F2303930223049398
:100FE000002305934FF4A05306934FF480530793C7
:100FF000032103A801F062FC20B915B05DF804FBE1
:10100000FFF752FFFFF750FF00380240007000402A
:1010100010B59EB000F072FAFFF7A8FFFFF790FB43
:10102000FFF744FFFFF762FFFFF77AFF1E48FFF765
:10103000C3FB1E48FFF7C0FBFFF7CCFA684600F081
:1010400099F808B1109BE3B900F07EFA0446FFF767
:10105000F7FBFFF7B1FC00F077FA001BB0F57A7FE1
:101060001AD2134B1B78002BF1D000F06DFA114B04
:101070001B68C01A0028EADB142000F06BFAFFF7A7
:1010800097FA00F0F7F818B90B48FFF795FBDBE784
:101090000A48FFF791FBD7E704F57A744FF48051C3
:1010A000074801F097F9DCE72838010840380108C3
:1010B0009C00002098000020503801087838010872
:1010C000000C024010B586B0002300930193022368
:1010D0000593082303930123049300F03DFF694621
:1010E00001A801F031F8044600F04EFF201E18BFA1
:1010F000012006B010BD000070B5064600F02CFFC0
:1011000000240B4D1D2C0ED856F824200023294610
:10111000022000F073FF10B904350134F2E700F04B
:1011200033FF012070BD00F02FFF0020FAE700BF61
:101130000000080810B50446084600214FF0FF32B1
:101140000CE042F3000E0A4B0EEA030383EA52025C
:101150000CF1010CBCF1070FF3D90131814204D22B
:10116000635C5A404FF0000CF4E7D04310BD00BF61
:101170002083B8ED00B330B59FB004467822124901
:10118000684601F095FE009A104B9A4216D1019BD9
:10119000012B16D1149D0023149378216846FFF784
:1011A000C9FF854201D0002009E078226946204627
:1011B00001F07EFE012002E00020704700201FB0F9
:1011C00030BD0020FBE700BF000008084D41544F30
:1011D000D8B110B59EB0014678242246684601F089
:1011E00067FE0B4B009301230193002314932146C8
:1011F0006846FFF79FFF1490FFF764FF08B11EB029
:1012000010BD6846FFF778FFF9E70120704700BF7F
:101210004D41544F012801D901207047F0B59FB0CE
:1012200004460F4616461D466846FFF7A3FF20B941
:1012300078220F49684601F03BFE029B013302937E
:101240000123109304940023119313934CB907972F
:101250000896022309930A956846FFF7B9FF1FB065
:10126000F0BD0C970D9602230E930F95F4E700BF87
:101270009438010800B59FB06846FFF77BFFA8B11E
:10128000049B039305930022109211921392029AE9
:10129000013202923BB9012309936846FFF798FF98
:1012A0001FB05DF804FB01230E93F6E70120F7E77A
:1012B00010B59EB004466846FFF75CFF10B90120E8
:1012C0001EB010BD1394029B013302936846FFF7D2
:1012D0007FFFF5E700B583B0002100910C4B5A6CFD
:1012E00042F480425A645A6C02F480420092009A9E
:1012F00001911A6C42F080521A641B6C03F0805307
:101300000193019B072000F05BFD03B05DF804FB37
:101310000038024010B588B000230393049305936E
:101320000693079302681D4B9A4201D008B010BD86
:101330000024019403F5EA331A6C42F000721A6437
:101340001A6C02F000720192019A02941A6B42F038
:1013500002021A631B6B03F002030293029B4FF419
:1013600040730393022304930323069309230793F3
:1013700003A90B4800F032FF22462146142000F05A
:1013800031FD142000F03EFD22462146152000F0DC
:1013900029FD152000F036FDC8E700BF00640040BD
:1013A0000004024000B589B0002303930493059321
:1013B000069307930268154B9A4202D009B05DF874
:1013C00004FB0021019103F5FA331A6C42F4003258
:1013D0001A641A6C02F400320192019A02911A6B9B
:1013E00042F001021A631B6B03F001030293029B9C
:1013F0000C230393022304930323069307230793E9
:1014000003A9034800F0EAFED8E700BF004400400B
:1014100000000240FEE7FEE7FEE7FEE7FEE770475A
:101420007047704708B500F083F808BD08B502485A
:1014300000F05BFB08BD00BF6C01002008B502484E
:1014400000F053FB08BD00BF6C01002010B503463F
:101450000C4A0D490D48006840B10C48006803442F
:10146000521A934206D8094A136010BD0748084C27
:101470000460F2E701F0F0FC0C2303604FF0FF3052
:10148000F3E700BF000002200004000094010020E8
:10149000E8020020044BD3F8882042F47002C3F81D
:1014A0008820024A9A60704700ED00E000000108C1
:1014B00010B504460E4B1A784FF47A73B3FBF2F36F
:1014C0000C4A1068B0FBF3F000F0A0FC68B90F2CD8
:1014D00001D901200AE0002221464FF0FF3000F040
:1014E00081FC054B1C60002000E0012010BD00BF06
:1014F00004000020000000200800002008B50B4B6D
:101500001A6842F400721A601A6842F480621A6023
:101510001A6842F480721A60032000F051FC002027
:10152000FFF7C6FFFFF7D6FE002008BD003C0240D3
:10153000034A1168034B1B780B441360704700BFCC
:101540009801002004000020014B1868704700BF7C
:101550009801002038B50446FFF7F6FF0546B4F1C0
:10156000FF3F02D0044B1B781C44FFF7EDFF401BEC
:10157000A042FAD338BD00BF04000020002800F0CC
:10158000A18038B5044690F82030D3B122681368A2
:1015900043F001031360FFF7D7FF054623685A683D
:1015A00012F0010F10D1FFF7CFFF401B0A28F5D929
:1015B000636A43F400336362052384F8203001201A
:1015C00038BDFFF7A7FEE1E71A6822F002021A60B1
:1015D000FFF7BAFF054623685A6812F0020F0DD0D4
:1015E000FFF7B2FF401B0A28F5D9636A43F40033C2
:1015F0006362052384F820300120E1E7227E012A7E
:101600003DD01A6822F080021A60637E012B3BD025
:101610002268136823F040031360A37E012B39D0A6
:101620002268136823F020031360E37E012B37D078
:101630002268136843F010031360237F012B35D019
:101640002268136823F008031360637F012B33D0F3
:101650002268136823F004031360A368E26813434D
:1016600022691343626913436268013A2168134394
:10167000CB6100206062012384F82030A0E71A6863
:1016800042F080021A60C0E72268136843F040030A
:101690001360C2E72268136843F020031360C4E7B5
:1016A0002268136823F010031360C6E722681368EA
:1016B00043F008031360C8E72268136843F004038B
:1016C0001360CAE70120704790F82030013BDBB27D
:1016D000012B05D9436A43F48023436201207047FC
:1016E00030B5464BD3F8002242F00102C3F8002285
:1016F000D3F8002222F47C52C3F80022D3F800224F
:10170000486A42EA0022C3F800224A6902F01F0236
:10171000012000FA02F2D3F81C026FEA020C20EA60
:101720000200C3F81C02CB69C3B9344BD3F80C02D6
:101730000CEA0000C3F80C028C884869CD6844EAC2
:101740000544483043F830408C68088840EA04403B
:101750004C6904F1480E03EBCE035860CB69012BB2
:101760001ED08B69002B33D12448D0F804320CEA08
:101770000303C0F804320B698BBB2048D0F8143245
:101780000CEA0303C0F814320B6A012B2ED01B4A5B
:10179000D2F8003223F00103C2F80032002030BD3D
:1017A000164BD3F80C021043C3F80C028C8848691E
:1017B0000D6844EA0544483043F8304088894C6954
:1017C0008D6840EA0540483403EBC4035860C8E71D
:1017D0000A48D0F804321343C0F80432CBE7074874
:1017E000D0F814321343C0F81432CDE70349D1F8CE
:1017F0001C321343C1F81C32C9E700BF006400402B
:1018000070B5044690F82050EDB2012D06D0436A21
:1018100043F4002343620125284670BD022380F86B
:1018200020300268136823F001031360FFF78CFE79
:10183000064623685B6813F0010F0CD0FFF784FEA7
:10184000831B0A2BF5D9636A43F4003363620523D3
:1018500084F82030E0E700256562DDE730B590F8D8
:1018600020C00468A4680CF1FF3C5FFA8CFCBCF15A
:10187000010F62D814F0E05F59D0C4F3016C012469
:1018800004FA0CF41C608B68002B3DD10D68CB680A
:10189000046843EA45550CF118031B01E550036841
:1018A0000C690CF1180E03EB0E135C600B7D012B21
:1018B00035D0D17993791B0443EA0163517943EA26
:1018C000012314790168234301EB0C11C1F88C3119
:1018D000D17893781B0443EA0163517843EA0123EA
:1018E000117802680B4302EB0C12C2F888310268CF
:1018F0000CF1180C4FEA0C1C52F80C3043F00103A9
:1019000042F80C3000201DE04C6843EAC403CC6868
:1019100023430CF11804240105682B51BFE7036829
:1019200003EB0E13596841F480715960C1E7436AB3
:1019300043F400134362012004E0436A43F480232C
:101940004362012030BD90F820C00CF1FF3C5FFAEB
:101950008CFCBCF1010F00F2A58030B451B90468D1
:10196000E46814F0030F10D1436A43F40013436298
:1019700001207EE00468246914F0030F05D1436A56
:1019800043F400134362012073E0056801F11B0476
:1019900024012C5904F004049460002C6BD10568D8
:1019A00001F11B0424012C59640D1460046801F139
:1019B0001B0C4FEA0C1C54F80C4004F00204D460D9
:1019C0000468A444DCF8045015F0080F5BD0082428
:1019D0001461046801F11B0C04EB0C146468C4F37B
:1019E00007249461046804EB0C146468240C5461AB
:1019F000026802EB0112D2F8B8211A70026802EBF9
:101A00000112D2F8B821C2F307225A70026802EB21
:101A10000112D2F8B821C2F307429A70026802EBB1
:101A20000112D2F8B821120EDA70026802EB01122C
:101A3000D2F8BC211A71026802EB0112D2F8BC2163
:101A4000C2F307225A71026802EB0112D2F8BC21DC
:101A5000C2F307429A71026802EB0112D2F8BC216C
:101A6000120EDA71C1B90268D36843F02003D36063
:101A7000002030BC7047056801F11B0424012C597B
:101A8000E408546092E701F11B0504EB0514646857
:101A900004F00F0414619CE70268136943F020030B
:101AA0001361E5E7436A43F48023436201207047F2
:101AB00090F82030013BDBB2012B05D9436A43F497
:101AC0008023436201207047026853690B435361CE
:101AD00000207047704770477047704770477047E5
:101AE000704770477047704770472DE9F84F0546BB
:101AF00003685C69D3F804809F68D3F80CA0D3F81E
:101B00001090D3F818B014F001063BD017F001067E
:101B100016D001229A6017F0020F08D117F0040FB7
:101B20000CD117F0080606D04FF4805608E0FFF7F6
:101B3000D1FF002604E0FFF7D0FF01E04FF400667C
:101B400017F4807F0DD02B684FF480729A6017F4E1
:101B5000007F40F0968017F4806F00F0968046F486
:101B6000005617F4803F0DD02B684FF480329A60F6
:101B700017F4003F40F0938017F4802F00F093801B
:101B800046F4004614F0080F07D01AF0100F04D0E6
:101B900046F400762B681022DA6014F0040F03D0AC
:101BA0001AF0080F40F0898014F0020F05D02B685E
:101BB000DB6813F0030F40F0878014F0400F07D06C
:101BC00019F0100F04D046F480662B6810221A61B9
:101BD00014F0200F02D019F0080F79D114F0100F73
:101BE00004D02B681B6913F0030F78D114F4003F65
:101BF00002D018F0100F76D114F4803F02D018F004
:101C0000080F77D114F4004F37D018F0040F31D0FB
:101C100014F4807F04D01BF0010F01D046F00106C0
:101C200014F4007F04D01BF0020F01D046F002062E
:101C300014F4806F04D01BF0040F01D046F00406AA
:101C400014F4006F16D01BF0700B13D0BBF1400FD3
:101C500066D056D8BBF1200F5CD0BBF1300F5CD002
:101C6000BBF1100F01D146F008062A68936923F0F2
:101C7000700393612B6804225A60002E56D1BDE890
:101C8000F88F2846FFF727FF6BE717F4006F02D0A5
:101C900046F4804665E72846FFF720FF61E72846BF
:101CA000FFF71AFF6EE717F4002F02D046F48036D4
:101CB00068E72846FFF713FF64E72B680822DA601D
:101CC0002846FFF70DFF6FE72846FFF783F874E714
:101CD0002B6808221A612846FFF704FF7EE7284692
:101CE000FFF7FFFE82E72B6810225A602846FFF7B5
:101CF000FAFE81E72B6808225A602846FFF7F4FEB7
:101D000080E7BBF1500F0ED0BBF1600FADD146F4B0
:101D10008076AAE746F01006A7E746F02006A4E77B
:101D200046F04006A1E746F080069EE76B6A334323
:101D30006B622846FFF7A8F8A1E70000002807DB40
:101D400000F01F02400901239340024A42F820306C
:101D5000704700BF00E100E0002808DB0901C9B2BC
:101D600000F1604000F5614080F80013704700F01A
:101D70000F000901C9B2014B1954704714ED00E07E
:101D800000B500F00700C0F1070CBCF1040F28BF3C
:101D90004FF0040C031D062B0FD9C31E4FF0FF3E5E
:101DA0000EFA0CF021EA000199400EFA03FE22EA35
:101DB0000E0241EA02005DF804FB0023EEE700009A
:101DC000074AD36823F4E0631B041B0C000200F4F1
:101DD000E060034343F0BF6343F40033D3607047D4
:101DE00000ED00E010B50446054BD868C0F30220B2
:101DF000FFF7C6FF01462046FFF7AEFF10BD00BF4C
:101E000000ED00E008B5FFF799FF08BD0138B0F11B
:101E1000807F0BD24FF0E0235861054AF02182F811
:101E200023100020986107221A6170470120704733
:101E300000ED00E010B40A490C6924F440740C6110
:101E40000C6944F440740C610C6944F001040C61A9
:101E50000260BFF36F8F43605DF8044B704700BFB3
:101E6000003C0240074B1A6922F440721A611A6959
:101E700042F400721A611A6942F001021A610160AB
:101E8000704700BF003C0240074B1A6922F44072C1
:101E90001A611A6942F480721A611A6942F00102E9
:101EA0001A610180704700BF003C0240064B1A696E
:101EB00022F440721A611A691A611A6942F0010229
:101EC0001A610170704700BF003C0240204BDB6884
:101ED00013F0100F07D01F4AD36943F01003D361EA
:101EE0001B4B1022DA601A4BDB6813F0200F07D06F
:101EF000184AD36943F00803D361154B2022DA60F6
:101F0000134BDB6813F0400F07D0124AD36943F03C
:101F10000403D3610E4B4022DA600D4BDB6813F0F3
:101F2000800F07D00B4AD36943F00203D361084BFB
:101F30008022DA60064BDB6813F0020F07D0054AF7
:101F4000D36943F02003D361014B0222DA6070476A
:101F5000003C02400C000020094B1B69002B01DBF8
:101F600000207047064B074A5A6002F188325A60D7
:101F70001B69002B01DB002070470120704700BF68
:101F8000003C024023016745034A136943F00043C4
:101F900013610020704700BF003C024038B5044682
:101FA000144B0022DA61FFF7CFFA0546124BDB68CB
:101FB00013F4803F0AD0B4F1FF3FF7D024B1FFF70C
:101FC000C3FA401BA042F1D903200DE00A4BDB68A5
:101FD00013F0010F02D0084B0122DA60064BDB68D8
:101FE00013F0F20F01D1002038BDFFF76FFF012081
:101FF000FAE700BF0C000020003C0240F8B516468E
:102000001B4A127E012A30D004460D461F46184B4B
:1020100001221A764CF25030FFF7C0FF90B9ACB1F4
:10202000012C18D0022C1BD032463B462846FFF725
:1020300001FF4CF25030FFF7B1FF0E4A136923F055
:10204000010313610A4B00221A76F8BDF1B228464B
:10205000FFF72CFFEDE7B1B22846FFF715FFE8E7E1
:1020600031462846FFF7FEFEE3E70220EDE700BF1A
:102070000C000020003C0240074B1A6922F4407219
:102080001A611A6942F004021A611A6942EA0022CE
:1020900042F480321A617047003C0240012905D0A9
:1020A000022906D039B14FF4407104E04FF4807139
:1020B00001E04FF400710B4B1A6922F440721A616F
:1020C0001A690A431A611A6922F078021A611A69B8
:1020D00042EAC00040F0020018611A6942F48032FE
:1020E0001A617047003C0240164B1B6813F4007FD6
:1020F00010D0144B1A6822F400721A601A6842F465
:1021000000621A601A6822F400621A601A6842F4C7
:1021100000721A600B4B1B6813F4806F10D0094BD0
:102120001A6822F480621A601A6842F480521A60B7
:102130001A6822F480521A601A6842F480621A60A7
:10214000704700BF003C0240F8B5224B1B7E012BBC
:102150003ED004460E461F4B01221A764CF25030F8
:10216000FFF71CFF074670BB4FF0FF333360236857
:10217000012B16D0A568E368A2681344AB4220D9AE
:10218000217C2846FFF78AFF4CF25030FFF706FF0C
:10219000114A136923F07A031361074680B90135A8
:1021A000E9E76168207CFFF767FF4CF25030FFF7EA
:1021B000F5FE0746084A136923F00403136100E0A3
:1021C0003560FFF791FF034B00221A763846F8BDC1
:1021D0000227FBE70C000020003C024000230F2BED
:1021E00000F2E98070B582B065E085684FEA430E81
:1021F000032404FA0EF425EA0405CC6804FA0EF46C
:102200002C438460446824EA02044A68C2F3001242
:102210009A40224342605CE0DC08083450F82420F5
:1022200003F00705AD004FF00F0E0EFA05FE22EA8F
:102230000E0E0A69AA4042EA0E0240F824205CE031
:10224000072200E0002202FA0EF22A4302345A4D1D
:1022500045F82420594A94686FEA0C0224EA0C05D8
:102260004E6816F4801F01D04CEA0405534CA5605B
:10227000E46802EA04054E6816F4001F01D04CEA37
:1022800004054E4CE560646802EA04054E6816F4E5
:10229000003F01D04CEA0405484C656024682240A8
:1022A0004D6815F4803F01D04CEA0402434C226093
:1022B00001330F2B7DD801229A400C6804EA020CEE
:1022C00032EA0404F4D14C6804F00304013C012C0C
:1022D0008BD94A6802F00302032A09D0C4685D0062
:1022E0000322AA4024EA02048A68AA402243C26068
:1022F0004A6802F00302022A8ED004684FEA430EB5
:10230000032202FA0EF224EA02044A6802F00302EF
:1023100002FA0EF2224302604A6812F4403FC7D02C
:1023200000220192264A546C44F480445464526C56
:1023300002F480420192019A9C08A51C1E4A52F8A0
:10234000255003F0030E4FEA8E0E0F2202FA0EF212
:1023500025EA02051B4A90423FF474AF02F5806201
:1023600090421AD002F58062904218D002F5806245
:10237000904216D002F58062904214D002F580623D
:10238000904212D002F58062904210D002F5806235
:1023900090423FF455AF082255E7012253E702224D
:1023A00051E703224FE704224DE705224BE70622BF
:1023B00049E702B070BD704700380140003C014061
:1023C00000380240000002400AB1816170470904F0
:1023D00081617047436901EA030221EA030141EA8E
:1023E0000241816170470000002800F0E08170B573
:1023F00082B00446036813F0010F3BD09F4B9B68EB
:1024000003F00C03042B2CD09C4B9B6803F00C03B3
:10241000082B21D06368B3F5803F4FD0B3F5A02FD0
:1024200052D0964B1A6822F480321A601A6822F44D
:1024300080221A606368002B50D0FFF785F80546AC
:102440008E4B1B6813F4003F14D1FFF77DF8401B3F
:102450006428F5D90320B1E1884B5B6813F4800F41
:10246000D8D0864B1B6813F4003F03D06368002B61
:1024700000F09F81236813F0020F54D07F4B9B68BC
:1024800013F00C0F3ED07D4B9B6803F00C03082B20
:1024900033D0E368002B68D0794B01221A60FFF734
:1024A00053F80546754B1B6813F0020F54D1FFF724
:1024B0004BF8401B0228F5D903207FE16F4A1368CF
:1024C00043F480331360B5E76C4B1A6842F4802202
:1024D0001A601A6842F480321A60ABE7FFF734F8EA
:1024E0000546664B1B6813F4003FC3D0FFF72CF87A
:1024F000401B6428F5D9032060E1604B5B6813F44E
:10250000800FC6D15D4B1B6813F0020F03D0E36848
:10251000012B40F05081594A136823F0F8032169D8
:1025200043EAC1031360236813F0080F42D06369C4
:102530006BB3534B0122C3F8802EFFF705F8054615
:102540004E4B5B6F13F0020F34D1FEF7FDFF401BC3
:102550000228F5D9032031E1484A136823F0F80333
:10256000216943EAC1031360DDE7454B00221A608D
:10257000FEF7EAFF0546414B1B6813F0020FD2D06D
:10258000FEF7E2FF401B0228F5D9032016E13C4B81
:102590000022C3F8802EFEF7D7FF0546374B5B6F4E
:1025A00013F0020F06D0FEF7CFFF401B0228F5D92B
:1025B000032003E1236813F0040F77D02F4B1B6C2B
:1025C00013F0805F33D1002301932C4B1A6C42F03F
:1025D00080521A641B6C03F080530193019B012508
:1025E000284B1B6813F4807F23D0A368012B34D0C1
:1025F000052B38D0214B1A6F22F001021A671A6F8F
:1026000022F004021A67A368002B3DD0FEF79CFF5E
:1026100006461A4B1B6F13F0020F46D1FEF794FFCC
:10262000801B41F288339842F3D90320C6E000258D
:10263000D6E7144A136843F480731360FEF784FFEF
:102640000646104B1B6813F4807FCED1FEF77CFF4B
:10265000801B0228F5D90320B0E0084A136F43F02D
:1026600001031367CFE7054B1A6F42F004021A67A4
:102670001A6F42F001021A67C5E700BF0038024036
:102680000000474200700040FEF75EFF0646524BD6
:102690001B6F13F0020F08D0FEF756FF801B41F2AC
:1026A00088339842F3D9032088E0EDB9A369002B61
:1026B00000F08380484A926802F00C02082A51D048
:1026C000022B17D0454B00221A66FEF73DFF044649
:1026D000414B1B6813F0007F42D0FEF735FF001B13
:1026E0000228F5D9032069E03B4A136C23F080539C
:1026F0001364DBE7394B00221A66FEF725FF054617
:10270000354B1B6813F0007F06D0FEF71DFF401B02
:102710000228F5D9032051E0E369226A1343626A73
:1027200043EA8213A26A5208013A43EA0243E26A88
:1027300043EA0263284A5360284B01221A66FEF7D7
:1027400003FF0446244B1B6813F0007F06D1FEF7FD
:10275000FBFE001B0228F5D903202FE000202DE00E
:1027600000202BE0012B2BD01B4B5B6803F4800176
:10277000E269914226D103F03F02216A8A4223D1C5
:10278000616A47F6C0721A40B2EB811F1ED103F492
:102790004031A26A5208013AB1EB024F18D103F05E
:1027A0007063E26AB3EB026F14D1002006E00120EF
:1027B0007047012002E0012000E0002002B070BD5F
:1027C0000120FBE70120F9E70120F7E70120F5E709
:1027D0000120F3E70120F1E7003802400000474202
:1027E00008B5334B9B6803F00C03042B5BD0082B1C
:1027F0005BD12F4B5A6802F03F025B6813F4800FE5
:102800002CD02B4B5868C0F388104FEA401CBCEB0F
:10281000000C6EEB0E0E4FEA8E1343EA9C634FEAF8
:102820008C11B1EB0C0163EB0E03DB0043EA517337
:10283000C90011EB000C43F10003590200234FEAD9
:102840004C2041EADC51FDF7C3FC194B5B68C3F334
:10285000014301335B00B0FBF3F008BD144B586833
:10286000C0F388104FEA401CBCEB000C6EEB0E0E60
:102870004FEA8E1343EA9C634FEA8C11B1EB0C01D3
:1028800063EB0E03DB0043EA5173C90011EB000C4C
:1028900043F10003990200234FEA8C2041EA9C5146
:1028A000FDF796FCD1E70348D7E70348D5E700BF1B
:1028B0000038024000127A000024F400002800F0E2
:1028C0009B8070B50D4604464F4B1B6803F0070311
:1028D0008B4208D2CBB24C4A1370136803F0070343
:1028E0008B4240F08B80236813F0020F17D013F057
:1028F000040F04D0454A936843F4E053936023687F
:1029000013F0080F04D0414A936843F46043936086
:102910003E4A936823F0F003A1680B439360236859
:1029200013F0010F32D06368012B21D09A1E012AC7
:1029300025D9364A126812F0020F61D033498A68ED
:1029400022F0030213438B60FEF7FEFD06462F4B79
:102950009B6803F00C036268B3EB820F16D0FEF79E
:10296000F3FD801B41F288339842F0D9032042E006
:10297000264A126812F4003FE0D101203BE0234ACE
:10298000126812F0007FD9D1012034E01E4B1B6881
:1029900003F00703AB4207D9EAB21B4B1A701B685E
:1029A00003F00703AB422DD1236813F0040F06D0C8
:1029B000164A936823F4E053E1680B43936023685D
:1029C00013F0080F07D0114A936823F4604321697C
:1029D00043EAC1039360FFF703FF0C4B9B68C3F30B
:1029E00003130B4AD35CD8400A4B18600A4B186893
:1029F000FEF75EFD002070BD012070470120FAE760
:102A00000120F8E70120F6E7003C024000380240D0
:102A1000143901080000002008000020014B18684C
:102A2000704700BF0000002008B5FFF7F7FF044B18
:102A30009B68C3F38223034AD35CD84008BD00BF20
:102A4000003802400C39010808B5FFF7E7FF044BD6
:102A50009B68C3F34233034AD35CD84008BD00BF30
:102A6000003802400C390108026802F10C0353E8F7
:102A7000003F23F490730C3242E800310029F3D177
:102A8000026802F1140353E8003F23F001031432FB
:102A900042E800310029F3D1036B012B05D020233C
:102AA00080F84230002303637047026802F10C0390
:102AB00053E8003F23F010030C3242E800310029B4
:102AC000F3D1ECE710B504460268136923F44053D0
:102AD000C1680B431361836802691A4343691A434F
:102AE000C3691A430168CB6823F4164323F00C032F
:102AF0001343CB600268536923F4407381690B432D
:102B000053610368314A934206D002F580629342D2
:102B100002D0FFF789FF01E0FFF796FFE369B3F505
:102B2000004F29D00021031849411B1841F1000131
:102B3000C90041EA5371DB00181863684FEA830249
:102B40004FEA937341F10001FDF742FB204AA2FBDB
:102B500000314909642303FB11031B013233A2FB3B
:102B600003235B0903F0F00202EB011203F00F03F1
:102B7000216813448B6010BD0023021843EB03014E
:102B8000121841F10001C90041EA5271D200101837
:102B900041F10001626892185B41FDF719FB0C4A94
:102BA000A2FB00314909642303FB1103DB0032332C
:102BB000A2FB03235B095A0002F4F87202EB011234
:102BC00003F00703216813448B60D4E70010014031
:102BD0001F85EB512DE9F04383B005460E4617469D
:102BE0009946DDF828802B681C6836EA04040CBF7F
:102BF00001240024BC4228D1B8F1FF3FF3D0FEF7F6
:102C0000A3FCA0EB0900404523D8B8F1000F22D067
:102C10002B68DA6812F0040FE5D0802EE3D0402E46
:102C2000E1D01A6812F0080FDDD0002401941A6870
:102C300001925B680193019B2846FFF715FF08236B
:102C40006B6485F84040012000E0002003B0BDE83F
:102C5000F0830320FAE70320F8E760B310B50446D9
:102C600090F8413013B3242384F841302268D368AC
:102C700023F40053D3602046FFF724FF2268136932
:102C800023F4904313612268536923F02A035361AC
:102C90002268D36843F40053D3600020606420238B
:102CA00084F8413084F84230606310BD80F84030D1
:102CB000FEF778FBD7E7012070472DE9F04182B09D
:102CC0001E4690F84130DBB2202B56D104460D460B
:102CD0009046002955D00AB901204FE000234364F3
:102CE000212380F84130FEF72FFC0746A4F824800A
:102CF000A4F82680A368B3F5805F02D04FF00008E7
:102D000014E023692BB34FF000080FE0202384F870
:102D10004130032032E038F8023B2268C3F3080355
:102D20005360E28C92B2013A92B2E284E38C9BB29D
:102D300093B100963B46002280212046FFF74AFFD0
:102D40000028E3D1002DE6D015F8012B23685A6046
:102D5000E7E7A8460025E9E700963B460022402128
:102D60002046FFF737FF18B9202384F8413005E0EB
:102D7000202384F84130032000E0022002B0BDE8A7
:102D8000F0810120FAE70000DFF834D0FEF782FB83
:102D90000C480D490D4A002302E0D458C4500433B6
:102DA000C4188C42F9D30A4A0A4C002301E013608C
:102DB0000432A242FBD300F055F8FEF729F9704720
:102DC00000000220000000207C000020683901087B
:102DD0007C000020E4020020FEE700000CB430B5C7
:102DE000184B0C1E1D689DB008DA8B232B604FF02A
:102DF000FF301DB0BDE8304002B070474FF40273A1
:102E0000ADF814304FF000031B9314BF04F1FF33EF
:102E10002346049307934FF6FF7302900690ADF894
:102E20001630209A21AB02A92846019300F0A2F99E
:102E3000431CBCBF8B232B60002CDAD0029B0022EA
:102E40001A70D6E72C00002002440346934200D1BA
:102E5000704703F8011BF9E7014B1868704700BF82
:102E60002C00002070B50D4D0D4C641BA4100026E5
:102E7000A64209D10B4D0C4C00F064FC641BA4105D
:102E80000026A64205D170BD55F8043B984701368F
:102E9000EEE755F8043B98470136F2E76039010840
:102EA00060390108603901086439010870477047CA
:102EB0000A44914200F1FF3300D1704710B511F878
:102EC000014B03F8014F9142F9D110BD38B50546C9
:102ED000002941D051F8043C0C1F002BB8BFE41866
:102EE00000F0E0F81D4A136833B9636014602846A7
:102EF000BDE8384000F0DCB8A34208D920682118AA
:102F00008B4201BF19685B6809182160EDE71A461A
:102F10005B680BB1A342FAD911685018A0420BD1DB
:102F200020680144501883421160E0D118685B6842
:102F3000536008441060DAE702D90C232B60D6E70F
:102F4000206821188B4204BF19685B68636004BF66
:102F5000091821605460CAE738BD00BFE0020020B4
:102F600070B50F4E0C463168054611B900F0A4FB50
:102F700030602146284600F09FFB431C03D14FF0F0
:102F8000FF34204670BDC41C24F00304A042F8D0D6
:102F9000211A284600F090FB0130F2D1EFE700BF84
:102FA000DC0200202DE9F843CD1C25F0030508358F
:102FB0000C2D38BF0C25002D064601DBA94204D993
:102FC0000C2333600020BDE8F883DFF8D48000F0E4
:102FD00069F8D8F800301C4644BB29463046FFF754
:102FE000BFFF431C044658D1D8F800402746002FA5
:102FF00043D1002C4BD023683946304604EB0309FB
:1030000000F05AFB814542D121686D1A29463046AD
:10301000FFF7A6FF01303AD023682B442360D8F88D
:1030200000305A6862BBC8F800700FE02268521B7B
:1030300020D40B2A17D96119A342256018BF596003
:10304000636808BFC8F8001062514B60304600F05A
:103050002FF804F10B00231D20F00700C21A1CBF3B
:103060001B1AA350AFE76268A3420CBFC8F8002048
:103070005A60EBE723466468AEE73C467F68B6E7F4
:103080001A465B68A342FBD100235360DEE70C23A2
:103090003360304600F00CF894E70560D6E700BFD7
:1030A000E00200200148FFF701BF00BFD802002066
:1030B0000148FFF7FCBE00BFD80200202DE9F04711
:1030C0008E681F46BE420B6882460C4690462DD83D
:1030D000B1F90C2012F4906F26D06569096905EBEF
:1030E0004505A3EB010905EBD5757B1C4B446D1021
:1030F0009D4238BF1D46530527D52946FFF752FF8D
:10310000064660B321694A46FFF7D2FEA38923F43D
:10311000906343F08003A381266165614E44A5EB73
:1031200009052660A5603E46BE4200D93E4620689D
:103130003246414600F0A6FAA3689B1BA3602368B1
:10314000334423600020BDE8F0872A4600F0C4FA2B
:1031500006460028E0D121695046FFF7B7FE0C2350
:10316000CAF80030A38943F04003A3814FF0FF3039
:10317000E9E700002DE9F04F98468B891B069DB0CA
:1031800007460D46144610D50B6973B94021FFF769
:1031900009FF2860286130B90C233B604FF0FF30F5
:1031A0001DB0BDE8F08F40236B61002309932023FD
:1031B0008DF82930CDF80C803023DFF89C818DF814
:1031C0002A304FF0010923469A4613F8012B0AB121
:1031D000252AF9D1BAEB040B0BD05B4622462946CF
:1031E0003846FFF76BFF013000F0A780099A5A4478
:1031F00009929AF80030002B00F09F8000234FF0D6
:10320000FF32CDE905230AF1010A049307938DF8F3
:1032100053301A935446052214F8011B4E48FDF70B
:1032200077F9049AD8B9D00644BF20238DF85330DB
:10323000110744BF2B238DF853309AF800302A2B06
:1032400015D0079A544600204FF00A0C214611F879
:10325000013B303B092B4BD9B0B1079214E0A0EBF6
:10326000080309FA03F313430493A246D2E7039B2E
:10327000191D1B680391002BBBBF5B4242F0020289
:1032800007930793B8BF049223782E2B0AD1637853
:103290002A2B32D1039B1A1D1B68039243EAE37366
:1032A00002340593DFF8C0A0217803225046FDF7D1
:1032B0002FF938B1049BA0EB0A004022824013434F
:1032C0000134049314F8011B24488DF828100622B9
:1032D000FDF71EF9002836D0214B1BBB039B07339B
:1032E00023F0070308330393099B334409936AE7E8
:1032F0000CFB02320C460120A8E7002301340593A1
:1033000019464FF00A0C204610F8012B303A092AD2
:1033100003D9002BC6D00591C4E70CFB012104465C
:103320000123F0E703AB00932A460E4B04A938466D
:10333000AFF30080421C0646D6D1AB895B063FF551
:103340002DAF09982CE703AB00932A46054B04A93F
:10335000384600F079F8EDE7243901082E390108E4
:1033600000000000BD3001082A3901082DE9F047AE
:10337000164698468A680B69DDF820909342B8BFDC
:103380001346336091F8432007460C460AB10133D7
:1033900033602368990642BF33680233336025687F
:1033A00015F0060506D104F1190AE36832689B1A84
:1033B000AB4226DC94F843302268003B18BF01235F
:1033C00092062BD404F1430241463846C8470130E7
:1033D0001ED02368226903F00603042B02BFE568B0
:1033E0003368ED1AA3680CBF25EAE5750025934202
:1033F000C4BF9B1AED1800261A34B5421AD100201A
:1034000008E00123524641463846C847013003D1FF
:103410004FF0FF30BDE8F0870135C6E7E1185A1CD0
:10342000302081F84300224494F8451082F843107C
:103430000233C7E70123224641463846C8470130D8
:10344000E6D00136D9E700002DE9FF470F7E0C9E3C
:10345000782F914680460C469A4601F1430207D8E0
:10346000622F0AD8002F00F0D180582F00F0B880CA
:1034700004F1420684F842703AE0A7F16303152B89
:10348000F6D801A151F823F0E1340108F534010820
:103490007134010871340108713401087134010874
:1034A000F5340108713401087134010871340108E0
:1034B00071340108F33501081F350108AD350108E5
:1034C000713401087134010815360108713401089E
:1034D0001F3501087134010871340108B535010840
:1034E00033681A1D1B68326004F1420684F84230CA
:1034F00001239CE033682068191D3160060601D560
:103500001D6803E04506FBD5B3F90050002D03DA32
:103510002D236D4284F8433058480A2311E0216876
:103520003368080653F8045B02D4490648BFADB2BD
:103530006F2F5248336014BF0A230823002184F8F8
:1035400043106668A660002E05DB21682E4321F03B
:10355000040121604BD01646B5FBF3F103FB115774
:10356000C75D06F8017D2F46BB420D46F4D9082BF6
:103570000BD12368DF0708D5236961689942DEBF54
:10358000302306F8013C06F1FF36921B2261CDF88C
:1035900000A04B4603AA21464046FFF7E7FE013054
:1035A0004AD14FF0FF3004B0BDE8F087236843F004
:1035B000200323603248782784F8457023683168F7
:1035C0001F0651F8045B02D45F0648BFADB23160FC
:1035D000D90744BF43F0200323601DB11023ADE79A
:1035E0002648E9E7236823F020032360F6E7164620
:1035F000BDE7336825686169181D30602E061B68B9
:1036000001D5196002E06806FBD51980002323610B
:103610001646BCE733681A1D32601E6862680021D6
:103620003046FCF775FF08B1801B6060636823615A
:10363000002384F84330AAE72369324649464046CE
:10364000D0470130ADD023689B0713D4E068039BBB
:103650009842B8BF1846A6E701233246494640467D
:10366000D04701309DD00135E36803995B1AAB4226
:10367000F2DCEBE7002504F11906F5E7353901081E
:1036800046390108884210B501EB020402D9844290
:10369000234607D8431EA14208D011F8012B03F896
:1036A000012FF8E7024401468A4200D110BD13F809
:1036B000014D02F8014DF7E738B5064D00230446E9
:1036C00008462B60FDF7C2FE431C02D12B6803B1F4
:1036D000236038BDD40200202DE9F041074614468E
:1036E0000D4621B9BDE8F0411146FFF75BBC2AB990
:1036F000FFF7ECFB25462846BDE8F08100F01AF8FC
:103700008442064602D8B4EB500FF4D8214638461E
:10371000FFF748FC804608B94546ECE7B44222462C
:10372000294628BF3246FFF7C3FB29463846FFF734
:10373000CDFBF1E751F8043C181F002BBCBF0B5820
:10374000C0187047F8B500BFF8BC08BC9E4670476B
:0C375000F8B500BFF8BC08BC9E467047EE
:10375C0025732049443D30782530336C5820444C37
:10376C00433D256C7520444154413D253032582051
:10377C00253032582025303258202530325820251B
:10378C003032582025303258202530325820253000
:10379C0032580D0A00000000525800004F544120CE
:1037AC0073796E632061636365707465640D0A00E0
:1037BC004F544120696D6167652073746F72656445
:1037CC0020696E20536C6F7420410D0A00000000BC
:1037DC004F544120696D6167652073746F72656425
:1037EC0020696E20536C6F7420420D0A000000009B
:1037FC004F544120737563636573732E2052656259
:10380C006F6F74696E6720746F20626F6F746C6F6A
:10381C00616465722E2E2E0D0A00000043414E206D
:10382C0064656275672055415254207265616479F4
:10383C000D0A00004275696C643A204F54412052C5
:10384C00580D0A0041637469766520696D6167657E
:10385C0020636F6E6669726D656420696E206D659C
:10386C007461646174610D0A000000004D6574613F
:10387C006461746120636F6E6669726D2066616944
:10388C006C65640D0A0000004D41544F01000000AE
:10389C00010000000000000000000000000000001B
:1038AC000000010800000000000000000100000002
:1038BC0000000000000004080000000000000000F0
:1038CC0000000000000000000000000000000000EC
:1038DC0003000000000000000000000000000000D9
:1038EC0000000000000000000000000000000000CC
:1038FC0000000000000000000000000000000000BC
:10390C0000000000010203040000000000000000A1
:10391C000102030406070809232D302B2000686CD4
:10392C004C006566674546470030313233343536D6
:10393C00373839414243444546003031323334350F
:0C394C003637383961626364656600003C
:08395800A8C8FF7F0100000078
:04396000B5010108A4
:0439640091010108C4
:103968000024F40001000000100000000000000026
:10397800000000000000000000000000010000003E
:1039880000000000000000000000000030000020DF
:10399800000000009C010020040200206C020020AE
:1039A800000000000000000000000000000000000F
:1039B80000000000000000000000000000000000FF
:1039C80000000000000000000000000000000000EF
:0C39D800000000000000000000000000E3
:0400000508012D8938
:00000001FF
