:020000040801F1
:10000000000002207D2E0108351501083715010872
:10001000391501083B1501083D15010800000000D5
:100020000000000000000000000000003F15010873
:10003000411501080000000043150108451501089D
:10004000CD2E0108CD2E0108CD2E0108CD2E0108A0
:10005000CD2E0108CD2E0108CD2E0108CD2E010890
:10006000CD2E0108CD2E0108CD2E0108CD2E010880
:10007000CD2E0108CD2E0108CD2E0108CD2E010870
:10008000CD2E0108CD2E0108CD2E0108CD2E010860
:100090004D1501085D150108CD2E0108CD2E010872
:1000A000CD2E0108CD2E0108CD2E0108CD2E010840
:1000B000CD2E0108CD2E0108CD2E0108CD2E010830
:1000C000CD2E0108CD2E0108CD2E0108CD2E010820
:1000D000CD2E0108CD2E0108CD2E0108CD2E010810
:1000E000CD2E0108CD2E0108CD2E0108CD2E010800
:1000F000CD2E0108CD2E0108CD2E0108CD2E0108F0
:10010000CD2E0108CD2E0108CD2E0108CD2E0108DF
:10011000CD2E0108CD2E0108CD2E0108CD2E0108CF
:10012000CD2E0108CD2E0108CD2E0108CD2E0108BF
:10013000CD2E0108CD2E0108CD2E0108CD2E0108AF
:10014000CD2E0108CD2E0108CD2E0108CD2E01089F
:10015000CD2E0108CD2E0108CD2E0108CD2E01088F
:10016000CD2E0108CD2E0108CD2E0108CD2E01087F
:10017000CD2E0108CD2E0108CD2E01080000000073
:08018000CD2E0108CD2E01086F
:1001900010B5054C237833B9044B13B10448AFF3C1
:1001A00000800123237010BD90000020000000009B
:1001B0003838010808B5034B1BB103490348AFF3B6
:1001C000008008BD000000009400002038380108BD
:1001D00053B94AB9002908BF00281CBF4FF0FF31AE
:1001E0004FF0FF3000F074B9ADF1080C6DE904CEAA
:1001F00000F006F8DDF804E0DDE9022304B0704702
:100200002DE9F047089D04468E46002B4DD18A42C9
:10021000944669D9B2FA82F252B101FA02F3C2F1FC
:10022000200120FA01F10CFA02FC41EA030E94408D
:100230004FEA1C48210CBEFBF8F61FFA8CF708FBAE
:1002400016E341EA034306FB07F199420AD91CEB86
:10025000030306F1FF3080F01F81994240F21C81B8
:10026000023E63445B1AA4B2B3FBF8F008FB103300
:1002700044EA034400FB07F7A7420AD91CEB040435
:1002800000F1FF3380F00A81A74240F20781644405
:10029000023840EA0640E41B00261DB1D44000238A
:1002A000C5E900433146BDE8F0878B4209D9002DEE
:1002B00000F0EF800026C5E9000130463146BDE878
:1002C000F087B3FA83F6002E4AD18B4202D38242E2
:1002D00000F2F980841A61EB030301209E46002D91
:1002E000E0D0C5E9004EDDE702B9FFDEB2FA82F2E6
:1002F000002A40F09280A1EB0C014FEA1C471FFA44
:100300008CFE0126200CB1FBF7F307FB131140EA2A
:1003100001410EFB03F0884208D91CEB010103F1F7
:10032000FF3802D2884200F2CB804346091AA4B2B9
:10033000B1FBF7F007FB101144EA01440EFB00FE8D
:10034000A64508D91CEB040400F1FF3102D2A645F2
:1003500000F2BB800846A4EB0E0440EA03409CE791
:10036000C6F12007B34022FA07FC4CEA030C20FA3E
:1003700007F401FA06F31C43F9404FEA1C4900FA5E
:1003800006F3B1FBF9F8200C1FFA8CFE09FB1811DB
:1003900040EA014108FB0EF0884202FA06F20BD94E
:1003A0001CEB010108F1FF3A80F08880884240F29E
:1003B0008580A8F102086144091AA4B2B1FBF9F0E2
:1003C00009FB101144EA014100FB0EFE8E4508D9DD
:1003D0001CEB010100F1FF346CD28E456AD9023862
:1003E000614440EA0840A0FB0294A1EB0E01A14247
:1003F000C846A64656D353D05DB1B3EB080261EBB5
:100400000E0101FA07F722FA06F3F1401F43C5E98E
:10041000007100263146BDE8F087C2F12003D840C4
:100420000CFA02FC21FA03F3914001434FEA1C4706
:100430001FFA8CFEB3FBF7F007FB10360B0C43EAF8
:10044000064300FB0EF69E4204FA02F408D91CEBA8
:10045000030300F1FF382FD29E422DD902386344A6
:100460009B1B89B2B3FBF7F607FB163341EA034146
:1004700006FB0EF38B4208D91CEB010106F1FF3895
:1004800016D28B4214D9023E6144C91A46EA00468C
:1004900038E72E46284605E70646E3E61846F8E61E
:1004A0004B45A9D2B9EB020864EB0C0E0138A3E767
:1004B0004646EAE7204694E74046D1E7D0467BE748
:1004C000023B614432E7304609E76444023842E7C0
:1004D000704700BF034613F8012B002AFBD1181AFE
:1004E000013870470000000000000000000000001C
:1004F00001F0FF01102A2BDB10F0070F08D010F8D5
:10050000013B013A8B422DD010F0070F42B3F6D1D8
:10051000F0B441EA012141EA014122F007047FF0F1
:1005200000070023F0E80256083C85EA010586EA48
:10053000010685FA47F5A3FA87F586FA47F6A5FA84
:1005400087F68EB9EED1F0BC01F0FF0102F0070290
:1005500032B110F8013B013A83EA010313B1F8D13B
:100560000020704701387047002D06BF354603381C
:10057000073815F0010F07D1013015F4807F02BF55
:10058000013015F4C03F0130F0BC0138704700BFA6
:100590000023134A1370134A1360134A1360134A5B
:1005A0001360134A1360134A4FF0FF311160124A6F
:1005B0001360124A1380124A01211160114A124934
:1005C0001160124A4FF480211160114A0621116016
:1005D000104A02211160104A1370104A13607047CC
:1005E0008C010020740100206C01002078010020A3
:1005F0008401002088010020A40100207001002057
:10060000900100209401002000000408A0010020B7
:10061000980100209C0100207C0100208001002026
:1006200010B50C46114600220CE040F3000E094BB9
:100630000EEA030383EA50000CF1010CBCF1070F32
:10064000F3D901328A4204D2A35C58404FF0000C27
:10065000F4E710BD2083B8ED00B59FB078221E49A5
:10066000684602F05FFC684600F014FE38B1039B58
:10067000012B01D9012303E0CBB9012300E00123C1
:10068000164A1360ABB9164B164A1A60164B4FF454
:1006900040321A60154B04221A60154B02221A6070
:1006A0000A9B0133134A13601FB05DF804FB00235B
:1006B000E6E70B4B104A1A600B4B4FF480221A608E
:1006C0000A4B06221A600A4B02221A600F9B013362
:1006D000084A1360E8E700BF443901089001002090
:1006E0009401002000000108A001002098010020D2
:1006F0009C010020780100200000040800B59FB094
:10070000684600F0C7FD08B1109B13B91FB05DF833
:1007100004FB00F03FFEF9E770B588B000240094B8
:10072000194B1A6B42F001021A631A6B02F00102B4
:100730000092009A01941A6B42F002021A631A6B3B
:1007400002F002020192019A02941A6B42F008022E
:100750001A631B6B03F008030293029B0394049437
:100760000594069407944FF450460396012304938E
:10077000064D03A9284601F0B1FD22463146284620
:1007800001F09EFE08B070BD00380240000C02402F
:1007900010B50446FFF79EFE642382B2214602484C
:1007A00002F005FB10BD00BF240100202DE9F0413F
:1007B000AAB01C785D789E78DF7893F804C093F82F
:1007C00005E093F80680DB790993CDF82080CDF819
:1007D0001CE0CDF818C00597049603950294019289
:1007E000009103460A4A80210AA802F0B1FB0028C2
:1007F0000ADD7F2802DD0AA8FFF76CFE642382B2BF
:100800000AA9044802F0D3FA2AB0BDE8F08100BF7B
:100810005038010824010020104B1B7803B97047A1
:1008200010B58AB072B60DF10C0C0D4C0FCCACE8C3
:100830000F0094E807008CE807000A4A01AB92E831
:10084000030083E80300054A0021117062B6079A8D
:1008500003990548FFF7AAFF0AB010BDF800002071
:10086000DC000020D40000209838010800B589B0D1
:100870000023029303930493059306930793029036
:10088000069201AB0A4602A9024801F077F809B0C6
:100890005DF804FBFC00002000B583B08DF800106B
:1008A0008DF80120C2F307238DF80230C2F307430D
:1008B0008DF80330120E8DF8042000238DF80530DA
:1008C0008DF806308DF8073008226946FFF7CEFF15
:1008D00003B05DF804FB000010B586B0002301935F
:1008E00002930393049305930093022305930A4B09
:1008F0001B680393094B1B68049301F0A9FB69462D
:1009000001A801F0A1FC044601F0BAFB201E18BFAB
:10091000012006B010BD00BF980100209C010020FE
:1009200070B582B000230193042A02D9012002B0DD
:1009300070BD0646D51C25F0030501A802F0F2FAA9
:1009400001F086FB0024AC4225D204F108036B447D
:1009500013F8043C04F109026A4412F8042C43EA37
:10096000022304F10A026A4412F8042C43EA024307
:1009700004F10B026A4412F8042C43EA02620023D9
:10098000A119022001F0B6FB08B90434DBE701F03D
:1009900077FB0120CBE701F073FB0020C7E70000E5
:1009A000BA4B1B78002B00F08A8270B5AAB072B6E1
:1009B0000DF18C0CB64C0FCCACE80F0094E807009E
:1009C0008CE80700B34A21AB92E8030083E80300F8
:1009D000AE4B00221A7062B6279C082C4AD8239B83
:1009E00040F2263293424CD0B3F5487F00F0DC80D1
:1009F00040F22132934200F0128140F222329342BF
:100A000000F0988140F22332934238D1A24B1B78F8
:100A1000022B40F0FC81082C40F000829DF88430CD
:100A20009DF8852043EA02239DF8862043EA02438D
:100A30009DF8872043EA02639DF888209DF889107D
:100A400042EA01229DF88A1042EA01429DF88B1089
:100A500042EA016291498B4204D1914B196891425B
:100A600000F0E581012140F22530FFF715FFFFF787
:100A70008FFD04E0012140F22530FFF70DFF2AB081
:100A800070BD002301930293012C13D07822854975
:100A900003A802F047FA012C12D19DF88420B2B1CC
:100AA000012A3BD0022A5CD0012140F22530FFF719
:100AB000F3FEE4E703A800F0EDFB0028EBD1E5E747
:100AC0000022012140F22530FFF7E6FED7E79DF82E
:100AD00018308DF804309DF81C308DF805309DF8E5
:100AE00020308DF806309DF84C308DF807309DF899
:100AF00050308DF808309DF854308DF809309DF84D
:100B000058308DF80A309DF814308DF80B300822DB
:100B100001A940F22730FFF7A9FEB0E70A9B8DF844
:100B20000430C3F307228DF80520C3F307428DF884
:100B300006201B0E8DF807300B9B8DF80830C3F391
:100B400007228DF80920C3F307428DF80A201B0EF7
:100B50008DF80B30082201A940F22730FFF786FEFE
:100B60008DE70F9B8DF80430C3F307228DF8052025
:100B7000C3F307428DF806201B0E8DF80730109B3B
:100B80008DF80830C3F307228DF80920C3F307421C
:100B90008DF80A201B0E8DF80B30082201A940F2B7
:100BA0002730FFF763FE6AE7082C03D19DF88430F5
:100BB0004F2B06D00022012140F22530FFF76CFEBA
:100BC0005DE79DF88530542BF4D19DF88630412B9C
:100BD000F0D19DF88730532BECD19DF88830592BFC
:100BE000E8D19DF889304E2BE4D19DF88A30432B13
:100BF000E0D19DF88B30212BDCD1FFF7C9FCFFF74A
:100C00002BFD254B01221A70274B1A6800214FF447
:100C10004970FFF741FE2548FFF7BAFD2FE79DF821
:100C200084209DF8853042EA03229DF8863042EA0E
:100C300003429DF8873042EA03629DF888309DF8B0
:100C4000891043EA01239DF88A1043EA01439DF885
:100C50008B1043EA01631049097802292CD001293D
:100C60003DD10F490A6012490B601AB1114B1B6844
:100C700093423BD2032140F22530FFF70DFE0320C3
:100C800000F0A6FBFFF784FCF9E600BFD0000020CF
:100C9000B4000020AC0000208C01002031444E45FF
:100CA0007401002044390108900100209C3801089B
:100CB0006C010020A0010020814800680028CED1EE
:100CC000804800689042CAD17F4C24689C42C6D1BB
:100CD000024600214FF44970FFF7DEFDCFE6002207
:100CE000012140F22530FFF7D7FDC8E6FFF7F4FDFC
:100CF00058B10022022140F22530FFF7CDFD01203E
:100D000000F066FBFFF744FCB9E6704B02221A7054
:100D100000216B4B19606E4B4FF0FF321A606D4B28
:100D20001A686D4B1A60674B1A684FF44970FFF7E9
:100D3000B3FDA4E6654B1B78022B28D1022C2DD9DC
:100D40009DF884309DF8852043EA0223634A128887
:100D50009A422CD1A51E5A4B1A685119594B1B683F
:100D600099422CD82A460DF186015B4B1868FFF793
:100D7000D7FD78B3524B1A68022140F22530FFF7B5
:100D80008BFD012000F024FBFFF702FC77E6002238
:100D9000012140F22530FFF77FFD70E6002201219E
:100DA00040F22530FFF778FDFFF7F2FB67E60121FF
:100DB00040F22530FFF770FDFFF7EAFB5FE6032105
:100DC00040F22530FFF768FD032000F001FBFFF73C
:100DD000DFFB54E63E4E2A460DF186013068FFF7F0
:100DE0001FFC3060364B1A682A441A603B490B8856
:100DF00001330B80631C23F00301374803680B4465
:100E0000036000214FF44970FFF746FD37E60022EA
:100E1000012140F22530FFF73FFD30E6002201219D
:100E200040F22530FFF738FDFFF7B2FB27E6284BED
:100E30001C68E443224B1B68994203D1224B1B6878
:100E4000A3420BD02246042140F22530FFF724FDB7
:100E5000022000F0BDFAFFF79BFB10E6204B1B6859
:100E600022462048006800F065FA40B100220221C5
:100E700040F22530FFF710FDFFF78AFBFFE5134B2B
:100E800003221A70224600214FF44970FFF704FD37
:100E9000144B1B687BB91448FFF77AFC1348FFF723
:100EA00077FC134B01221A7000F0DEFB00F5967000
:100EB000104A1060E3E51048FFF76AFCEEE7704760
:100EC00084010020740100206C0100208C010020AE
:100ED0008801002094010020A4010020700100205E
:100EE0007801002090010020B0380108F038010896
:100EF0007C01002080010020D03801080268244BCA
:100F00009A4200D0704710B58AB001AB03AA002105
:100F100000F0A9FD002834D1059B002B36D1069B9B
:100F2000002B33D11B4C0DF10C0CBCE80F000FC48F
:100F30009CE8070084E80700174B01AA92E8030029
:100F400083E80300154B01221A70154B1B7893B9E7
:100F5000144C0DF10C0CBCE80F000FC49CE807000A
:100F600084E80700104B01AA92E8030083E803001D
:100F70000B4B01221A704FF400410C4801F0A6FA05
:100F800004E04FF48041094801F0A0FA0AB010BD16
:100F900000640040DC000020D4000020F8000020A5
:100FA000D0000020B4000020AC000020000C024063
:100FB00008B50268044B9A4200D008BD4FF4804146
:100FC000024801F083FAF8E700640040000C024098
:100FD00072B6FEE708B50D480D4B03600A23436067
:100FE00000238360C3604FF4702202614FF400124B
:100FF00042610376012242768376C2760377437795
:1010000000F04CFB00B908BDFFF7E2FFFC00002038
:101010000064004008B50A480A4B03604FF4E1330E
:10102000436000238360C36003610C2242618361DB
:10103000C36101F08CFE00B908BDFFF7C9FF00BF16
:10104000240100200044004000B58BB0282200217C
:10105000684601F075FF0123079308930E23099357
:1010600069460B4800F0C0FB60B9094800F058FC25
:1010700050B948F20241064800F0AAFD30B90BB061
:101080005DF804FBFFF7A4FFFFF7A2FFFFF7A0FF47
:10109000FC00002000B595B03022002108A801F026
:1010A0004FFF002303930493059306930793019343
:1010B0001F4A116C41F080511164126C02F0805291
:1010C0000192019A02931B4A116841F48041116018
:1010D000126802F480420292029A022208920121CE
:1010E0000B9110210C910E920F93082310936423FF
:1010F000119312920723139308A801F0F1F998B9FC
:101100000F23039302230493002305934FF4A0536A
:1011100006934FF480530793032103A801F046FC84
:1011200020B915B05DF804FBFFF752FFFFF750FF41
:10113000003802400070004010B500F06FFAFFF771
:10114000DDFAFFF7A7FFFFF7E7FAFFF743FFFFF727
:1011500061FFFFF779FF1C48FFF71AFB1B48FFF7F9
:1011600017FBFFF715FA00F07FFA0446FFF754FB70
:10117000FFF716FC00F078FA001BB0F57A7F1AD260
:10118000134B1B78002BF1D000F06EFA114B1B684B
:10119000C01A0028EADB142000F06CFABFF34F8F6E
:1011A0000D49CA6802F4E0620C4B1343CB60BFF3F5
:1011B0004F8F00BFFDE704F57A744FF48051084863
:1011C00001F084F9DCE700BF1C390108343901085B
:1011D0007C0100208001002000ED00E00400FA0501
:1011E000000C024010B586B0002300930193022347
:1011F0000593082303930123049300F029FF694614
:1012000001A801F021F8044600F03AFF201E18BFA3
:10121000012006B010BD000070B5064600F018FFB2
:1012200000240B4D1D2C0ED856F8242000232946EF
:10123000022000F05FFF10B904350134F2E700F03E
:101240001FFF012070BD00F01BFF0020FAE700BF68
:101250000000080810B50446084600214FF0FF3290
:101260000CE042F3000E0A4B0EEA030383EA52023B
:101270000CF1010CBCF1070FF3D90131814204D20A
:10128000635C5A404FF0000CF4E7D04310BD00BF40
:101290002083B8ED00B330B59FB0044678221249E0
:1012A000684601F03FFE009A104B9A4216D1019B0E
:1012B000012B16D1149D0023149378216846FFF763
:1012C000C9FF854201D0002009E078226946204606
:1012D00001F028FE012002E00020704700201FB02E
:1012E00030BD0020FBE700BF000008084D41544F0F
:1012F000D8B110B59EB0014678242246684601F068
:1013000011FE0B4B009301230193002314932146FC
:101310006846FFF79FFF1490FFF764FF08B11EB007
:1013200010BD6846FFF778FFF9E70120704700BF5E
:101330004D41544F012801D901207047F0B59FB0AD
:1013400004460F4616461D466846FFF7A3FF20B920
:1013500078220F49684601F0E5FD029B01330293B4
:101360000123109304940023119313934CB907970E
:101370000896022309930A956846FFF7B9FF1FB044
:10138000F0BD0C970D9602230E930F95F4E700BF66
:101390004439010800B59FB06846FFF77BFFA8B14C
:1013A000049B039305930022109211921392029AC8
:1013B000013202923BB9012309936846FFF798FF77
:1013C0001FB05DF804FB01230E93F6E70120F7E759
:1013D00010B59EB004466846FFF75CFF10B90120C7
:1013E0001EB010BD1394029B013302936846FFF7B1
:1013F0007FFFF5E700B583B0002100910C4B5A6CDC
:1014000042F480425A645A6C02F480420092009A7C
:1014100001911A6C42F080521A641B6C03F08053E5
:101420000193019B072000F015FD03B05DF804FB5C
:101430000038024010B588B000230393049305934D
:101440000693079302681D4B9A4201D008B010BD65
:101450000024019403F5EA331A6C42F000721A6416
:101460001A6C02F000720192019A02941A6B42F017
:1014700002021A631B6B03F002030293029B4FF4F8
:1014800040730393022304930323069309230793D2
:1014900003A90B4800F022FF22462146142000F049
:1014A000EBFC142000F020FD22462146152000F020
:1014B000E3FC152000F018FDC8E700BF0064004001
:1014C0000004024000B589B0002303930493059300
:1014D000069307930268154B9A4202D009B05DF853
:1014E00004FB0021019103F5FA331A6C42F4003237
:1014F0001A641A6C02F400320192019A02911A6B7A
:1015000042F001021A631B6B03F001030293029B7A
:101510000C230393022304930323069307230793C7
:1015200003A9034800F0DAFED8E700BF00440040FA
:1015300000000240FEE7FEE7FEE7FEE7FEE7704739
:101540007047704708B500F083F808BD08B5024839
:1015500000F05BFB08BD00BFFC00002008B502489E
:1015600000F053FB08BD00BFFC00002010B503468F
:101570000C4A0D490D48006840B10C48006803440E
:10158000521A934206D8094A136010BD0748084C06
:101590000460F2E701F09CFC0C2303604FF0FF3085
:1015A000F3E700BF0000022000040000A8010020B3
:1015B000C0010020044BD3F8882042F47002C3F825
:1015C0008820024A9A60704700ED00E000000108A0
:1015D00010B504460E4B18784FF47A73B3FBF0F352
:1015E0000C4A1068B0FBF3F000F08CFC68B90F2CCB
:1015F00001D901200AE0002221464FF0FF3000F01F
:101600003BFC054B1C60002000E0012010BD00BF2A
:1016100004000020000000200800002008B50B4B4B
:101620001A6842F400721A601A6842F480621A6002
:101630001A6842F480721A60032000F00BFC00204C
:10164000FFF7C6FFFFF7D6FE002008BD003C0240B2
:10165000034A1168034B1B780B441360704700BFAB
:10166000AC01002004000020014B1868704700BF47
:10167000AC01002038B50446FFF7F6FF0546B4F18B
:10168000FF3F02D0044B1B781C44FFF7EDFF401BCB
:10169000A042FAD338BD00BF04000020002800F0AB
:1016A000A18038B5044690F82030D3B12268136881
:1016B00043F001031360FFF7D7FF054623685A681C
:1016C00012F0010F10D1FFF7CFFF401B0A28F5D908
:1016D000636A43F400336362052384F820300120F9
:1016E00038BDFFF7A7FEE1E71A6822F002021A6090
:1016F000FFF7BAFF054623685A6812F0020F0DD0B3
:10170000FFF7B2FF401B0A28F5D9636A43F40033A0
:101710006362052384F820300120E1E7227E012A5C
:101720003DD01A6822F080021A60637E012B3BD004
:101730002268136823F040031360A37E012B39D085
:101740002268136823F020031360E37E012B37D057
:101750002268136843F010031360237F012B35D0F8
:101760002268136823F008031360637F012B33D0D2
:101770002268136823F004031360A368E26813432C
:1017800022691343626913436268013A2168134373
:10179000CB6100206062012384F82030A0E71A6842
:1017A00042F080021A60C0E72268136843F04003E9
:1017B0001360C2E72268136843F020031360C4E794
:1017C0002268136823F010031360C6E722681368C9
:1017D00043F008031360C8E72268136843F004036A
:1017E0001360CAE70120704790F82030013BDBB25C
:1017F000012B05D9436A43F48023436201207047DB
:1018000030B5464BD3F8002242F00102C3F8002263
:10181000D3F8002222F47C52C3F80022D3F800222D
:10182000486A42EA0022C3F800224A6902F01F0215
:10183000012000FA02F2D3F81C026FEA020C20EA3F
:101840000200C3F81C02CB69C3B9344BD3F80C02B5
:101850000CEA0000C3F80C028C884869CD6844EAA1
:101860000544483043F830408C68088840EA04401A
:101870004C6904F1480E03EBCE035860CB69012B91
:101880001ED08B69002B33D12448D0F804320CEAE7
:101890000303C0F804320B698BBB2048D0F8143224
:1018A0000CEA0303C0F814320B6A012B2ED01B4A3A
:1018B000D2F8003223F00103C2F80032002030BD1C
:1018C000164BD3F80C021043C3F80C028C884869FD
:1018D0000D6844EA0544483043F8304088894C6933
:1018E0008D6840EA0540483403EBC4035860C8E7FC
:1018F0000A48D0F804321343C0F80432CBE7074853
:10190000D0F814321343C0F81432CDE70349D1F8AC
:101910001C321A43C1F81C22C9E700BF0064004012
:1019200070B5044690F82050EDB2012D06D0436A00
:1019300043F4002343620125284670BD022380F84A
:1019400020300268136823F001031360FFF78CFE58
:10195000064623685B6813F0010F0CD0FFF784FE86
:10196000831B0A2BF5D9636A43F4003363620523B2
:1019700084F82030E0E700256562DDE730B590F8B7
:1019800020C00468A4680CF1FF3C5FFA8CFCBCF139
:10199000010F62D814F0E05F59D0C4F3016C012448
:1019A00004FA0CF41C608B68002B3DD10D68CB68E9
:1019B000046843EA45550CF118031B01E550036820
:1019C0000C690CF1180E03EB0E135C600B7D012B00
:1019D00035D0D17993791B0443EA0163517943EA05
:1019E000012314790168234301EB0C11C1F88C31F8
:1019F000D17893781B0443EA0163517843EA0123C9
:101A0000117802680B4302EB0C12C2F888310268AD
:101A10000CF1180C4FEA0C1C52F80C3043F0010387
:101A200042F80C3000201DE04C6843EAC403CC6847
:101A300023430CF11804240105682B51BFE7036808
:101A400003EB0E13596841F480715960C1E7436A92
:101A500043F400134362012004E0436A43F480230B
:101A60004362012030BD90F820C00CF1FF3C5FFACA
:101A70008CFCBCF1010F00F2A58030B451B90468B0
:101A8000E46814F0030F10D1436A43F40013436277
:101A900001207EE00468246914F0030F05D1436A35
:101AA00043F400134362012073E0056801F11B0455
:101AB00024012C5904F004049460002C6BD10568B7
:101AC00001F11B0424012C59640D1460046801F118
:101AD0001B0C4FEA0C1C54F80C4004F00204D460B8
:101AE0000468A444DCF8045015F0080F5BD0082407
:101AF0001461056801F11B0C05EB0C156D68C5F34D
:101B000007259561046804EB0C146468240C546187
:101B1000026802EB0112D2F8B8211A70026802EBD7
:101B20000112D2F8B821C2F307225A70026802EB00
:101B30000112D2F8B821C2F307429A70026802EB90
:101B40000112D2F8B821120EDA70026802EB01120B
:101B5000D2F8BC211A71026802EB0112D2F8BC2142
:101B6000C2F307225A71026802EB0112D2F8BC21BB
:101B7000C2F307429A71026802EB0112D2F8BC214B
:101B8000120EDA71C1B90268D36843F02003D36042
:101B9000002030BC7047056801F11B0424012C595A
:101BA000E408546092E701F11B0504EB0514646836
:101BB00004F00F0414619CE70268136943F02003EA
:101BC0001361E5E7436A43F48023436201207047D1
:101BD00090F82030013BDBB2012B05D9436A43F476
:101BE00080234362012070470268536919435161A1
:101BF00000207047704770477047704770477047C4
:101C0000704770477047704770472DE9F84F054699
:101C100003685C69D3F804809F68D3F80CB0D3F8EC
:101C200010A0D3F8189014F001063BD017F001066D
:101C300016D001229A6017F0020F08D117F0040F96
:101C40000CD117F0080606D04FF4805608E0FFF7D5
:101C5000D1FF002604E0FFF7D0FF01E04FF400665B
:101C600017F4807F0DD02B684FF480729A6017F4C0
:101C7000007F40F0868017F4806F00F0868046F485
:101C8000005617F4803F0DD02B684FF480329A60D5
:101C900017F4003F40F0838017F4802F00F083801A
:101CA00046F4004614F0080F07D01BF0100F04D0C4
:101CB00046F400762B681022DA6014F0040F02D08C
:101CC0001BF0080F79D114F0020F04D02B68DB68E9
:101CD00013F0030F78D114F0400F07D01AF0100F53
:101CE00004D046F480662B6810221A6114F0200F8D
:101CF00002D01AF0080F6BD114F0100F04D02B682B
:101D00001B6913F0030F6AD114F4003F02D018F0DE
:101D1000100F68D114F4803F02D018F0080F69D179
:101D200014F4004F7AD018F0040F74D014F4807FAC
:101D300004D019F0010F01D046F0010614F4007F21
:101D400004D019F0020F01D046F0020614F4806F9F
:101D500004D019F0040F01D046F0040614F4006F0B
:101D600059D019F0700956D0B9F1400F65D058D844
:101D7000B9F1200F5ED0B9F1300F42D146F0200604
:101D800044E02846FFF737FF7BE717F4006F02D0E7
:101D900046F4804675E72846FFF730FF71E728468E
:101DA000FFF72AFF7EE717F4002F02D046F48036B3
:101DB00078E72846FFF723FF74E72B680822DA60EC
:101DC0002846FFF71DFF7EE72846FFF797F882E7D2
:101DD0002B6808221A612846FFF714FF8CE7284673
:101DE000FFF70FFF90E72B6810225A602846FFF795
:101DF0000AFF8FE72B6808225A602846FFF704FF86
:101E00008EE7B9F1100F01D146F008062A689369F0
:101E100023F0700393612B6804225A609EB9BDE8D9
:101E2000F88FB9F1500F0BD0B9F1600FEED146F435
:101E30008076EBE746F01006E8E746F04006E5E777
:101E400046F08006E2E76B6A1E436E622846FFF7A3
:101E5000AFF8E4E7074AD36823F4E0631B041B0CE4
:101E6000000200F4E060034343F0BF6343F4003337
:101E7000D360704700ED00E000B5194BDB68C3F399
:101E80000223C3F1070CBCF1040F28BF4FF0040C70
:101E900003F1040EBEF1060F18D9033B4FF0FF3ECD
:101EA0000EFA0CFC21EA0C0199400EFA03F322EA27
:101EB0000303194300280BDB0901C9B200F160409C
:101EC00000F5614080F800135DF804FB0023E5E7AE
:101ED00000F00F000901C9B2024B1954F4E700BF2A
:101EE00000ED00E014ED00E0002807DB00F01F0229
:101EF000400901239340024A42F82030704700BF56
:101F000000E100E00138B0F1807F0BD24FF0E02318
:101F10005861054AF02182F82310002098610722B9
:101F20001A6170470120704700ED00E010B40A49C3
:101F30000C6924F440740C610C6944F440740C6125
:101F40000C6944F001040C610260BFF36F8F4360C1
:101F50005DF8044B704700BF003C0240074B1A6914
:101F600022F440721A611A6942F400721A611A6905
:101F700042F001021A610160704700BF003C02405C
:101F8000074B1A6922F440721A611A6942F480728E
:101F90001A611A6942F001021A610180704700BF9C
:101FA000003C0240064B1A6922F440721A611A6919
:101FB0001A611A6942F001021A610170704700BF8C
:101FC000003C0240204BDB6813F0100F07D01F4A83
:101FD000D36943F01003D3611B4B1022DA601A4B14
:101FE000DB6813F0200F07D0184AD36943F00803C9
:101FF000D361154B2022DA60134BDB6813F0400FDE
:1020000007D0124AD36943F00403D3610E4B402238
:10201000DA600D4BDB6813F0800F07D00B4AD369F1
:1020200043F00203D361084B8022DA60064BDB6881
:1020300013F0020F07D0054AD36943F02003D361A0
:10204000014B0222DA607047003C02400C00002085
:10205000094B1B69002B01DB00207047064B074A28
:102060005A6002F188325A601B69002B01DB0020A4
:1020700070470120704700BF003C024023016745C4
:10208000034A136943F0004313610020704700BF07
:10209000003C024038B50446144B0022DA61FFF7D9
:1020A000E3FA0546124BDB6813F4803F0AD0B4F123
:1020B000FF3FF7D024B1FFF7D7FA401BA042F1D978
:1020C00003200DE00A4BDB6813F0010F02D0084B30
:1020D0000122DA60064BDB6813F0F20F01D1002019
:1020E00038BDFFF76FFF0120FAE700BF0C000020AA
:1020F000003C0240F8B516461B4A127E012A30D039
:1021000004460D461F46184B01221A764CF25030F9
:10211000FFF7C0FF90B9ACB1012C18D0022C1BD036
:1021200032463B462846FFF701FF4CF25030FFF79E
:10213000B1FF0E4A136923F0010313610A4B002219
:102140001A76F8BDF1B22846FFF72CFFEDE7B1B2E1
:102150002846FFF715FFE8E731462846FFF7FEFE61
:10216000E3E70220EDE700BF0C000020003C024046
:10217000074B196921F440711961196941F0040193
:1021800019611A6942EA002242F480321A617047EA
:10219000003C024049B1012921D0022902D04FF46C
:1021A000407C04E04FF4007C01E04FF0000C0D4B4C
:1021B000196921F4407119611A6942EA0C021A6125
:1021C0001A6922F078021A611A6942EAC00040F0E6
:1021D000020018611A6942F480321A6170474FF4A4
:1021E000807CE4E7003C0240164B1B6813F4007F40
:1021F00010D0144B1A6822F400721A601A6842F464
:1022000000621A601A6822F400621A601A6842F4C6
:1022100000721A600B4B1B6813F4806F10D0094BCF
:102220001A6822F480621A601A6842F480521A60B6
:102230001A6822F480521A601A6842F480621A60A6
:10224000704700BF003C0240F8B5224B1B7E012BBB
:102250003ED004460E461F4B01221A764CF25030F7
:10226000FFF718FF074670BB4FF0FF33336023685A
:10227000012B16D0A568E368A2681344AB4220D9AD
:10228000217C2846FFF786FF4CF25030FFF702FF13
:10229000114A136923F07A031361074680B90135A7
:1022A000E9E76168207CFFF763FF4CF25030FFF7ED
:1022B000F1FE0746084A136923F00403136100E0A6
:1022C0003560FFF791FF034B00221A763846F8BDC0
:1022D0000227FBE70C000020003C024000230F2BEC
:1022E00000F2E48070B582B060E085685E0003248F
:1022F000B44025EA0405CC68B4402C4384604568AA
:1023000025EA02054C68C4F300129A402A43426051
:102310005AE0DC08083450F8246003F00702950006
:102320000F22AA4026EA020E0A69AA4042EA0E02D9
:1023300040F824205CE0072200E0002202FA0EF2BE
:102340002A4302345A4D45F824205A4A94686FEAC9
:102350000C0224EA0C054E6816F4801F01D04CEAEA
:102360000405544CA560E46802EA04054E6816F4BE
:10237000001F01D04CEA04054E4CE560646802EA97
:1023800004054E6816F4003F01D04CEA0405494CA0
:102390006560246822404D6815F4803F01D04CEA06
:1023A0000402444C226001330F2B7DD801229A4055
:1023B0000C6804EA020C32EA0404F4D14C6804F01C
:1023C0000304013C012C90D94A6802F00302032A5D
:1023D00009D0C4685D000322AA4024EA02048A6886
:1023E000AA402243C2604A6802F00302022A90D047
:1023F00004684FEA430E032202FA0EF224EA0204B2
:102400004A6802F0030202FA0EF2224302604A68AE
:1024100012F4403FC7D000220192274A546C44F482
:1024200080445464526C02F480420192019A9C08E8
:10243000A51C1F4A52F8255003F003024FEA820EF2
:102440000F2202FA0EF225EA02051C4A90423FF4DE
:1024500074AF02F5806290421AD002F58062904219
:1024600018D002F58062904216D002F58062904248
:1024700014D002F58062904212D002F58062904240
:1024800010D002F5806290423FF455AF082255E724
:10249000012253E7022251E703224FE704224DE7CE
:1024A00005224BE7062249E702B070BD704700BF26
:1024B00000380140003C014000380240000002406A
:1024C0000AB181617047090481617047436901EA7B
:1024D000030221EA030141EA0241816170470000E1
:1024E000002800F0E08170B582B00446036813F064
:1024F000010F3BD09F4B9B6803F00C03042B2CD0A7
:102500009C4B9B6803F00C03082B21D06368B3F548
:10251000803F4FD0B3F5A02F52D0964B1A6822F4CB
:1025200080321A601A6822F480221A606368002BD5
:1025300050D0FFF799F805468E4B1B6813F4003F07
:1025400014D1FFF791F8401B6428F5D90320B1E1BD
:10255000884B5B6813F4800FD8D0864B1B6813F44C
:10256000003F03D06368002B00F09F81236813F0C5
:10257000020F54D07F4B9B6813F00C0F3ED07D4B65
:102580009B6803F00C03082B33D0E368002B68D062
:10259000794B01221A60FFF767F80546754B1B68F7
:1025A00013F0020F54D1FFF75FF8401B0228F5D952
:1025B00003207FE16F4A136843F480331360B5E76B
:1025C0006C4B1A6842F480221A601A6842F4803216
:1025D0001A60ABE7FFF748F80546664B1B6813F433
:1025E000003FC3D0FFF740F8401B6428F5D9032013
:1025F00060E1604B5B6813F4800FC6D15D4B1B68D4
:1026000013F0020F03D0E368012B40F05081594AC8
:10261000136823F0F803216943EAC10313602368B8
:1026200013F0080F42D063696BB3534B0122C3F818
:10263000802EFFF719F805464E4B5B6F13F0020F23
:1026400034D1FFF711F8401B0228F5D9032031E1FE
:10265000484A136823F0F803216943EAC103136071
:10266000DDE7454B00221A60FEF7FEFF0546414BB1
:102670001B6813F0020FD2D0FEF7F6FF401B0228B2
:10268000F5D9032016E13C4B0022C3F8802EFEF75B
:10269000EBFF0546374B5B6F13F0020F06D0FEF7DA
:1026A000E3FF401B0228F5D9032003E1236813F060
:1026B000040F77D02F4B1B6C13F0805F33D10023B6
:1026C00001932C4B1A6C42F080521A641B6C03F07D
:1026D00080530193019B0125284B1B6813F4807FD5
:1026E00023D0A368012B34D0052B38D0214B1A6F8F
:1026F00022F001021A671A6F22F004021A67A36817
:10270000002B3DD0FEF7B0FF06461A4B1B6F13F0AF
:10271000020F46D1FEF7A8FF801B41F28833984292
:10272000F3D90320C6E00025D6E7144A136843F422
:1027300080731360FEF798FF0646104B1B6813F476
:10274000807FCED1FEF790FF801B0228F5D90320B1
:10275000B0E0084A136F43F001031367CFE7054B5E
:102760001A6F42F004021A671A6F42F001021A67E8
:10277000C5E700BF0038024000004742007000403B
:10278000FEF772FF0646524B1B6F13F0020F08D084
:10279000FEF76AFF801B41F288339842F3D9032089
:1027A00088E0EDB9A369002B00F08380484A926865
:1027B00002F00C02082A51D0022B17D0454B002200
:1027C0001A66FEF751FF0446414B1B6813F0007F69
:1027D00042D0FEF749FF001B0228F5D9032069E02B
:1027E0003B4A136C23F080531364DBE7394B002220
:1027F0001A66FEF739FF0546354B1B6813F0007F5C
:1028000006D0FEF731FF401B0228F5D9032051E026
:10281000E369226A1343626A43EA8213A26A520896
:10282000013A43EA0243E26A43EA0263284A5360F8
:10283000284B01221A66FEF717FF0446244B1B683B
:1028400013F0007F06D1FEF70FFF001B0228F5D919
:1028500003202FE000202DE000202BE0012B2BD0C7
:102860001B4B5B6803F48001E269914226D103F0BF
:102870003F02216A8A4223D1616A47F6C0721A4038
:10288000B2EB811F1ED103F44031A26A5208013A13
:10289000B1EB024F18D103F07063E26AB3EB026F41
:1028A00014D1002006E001207047012002E0012041
:1028B00000E0002002B070BD0120FBE70120F9E735
:1028C0000120F7E70120F5E70120F3E70120F1E718
:1028D000003802400000474208B5314B9B6803F0C6
:1028E0000C03042B57D0082B57D12D4B5A6802F0FC
:1028F0003F025B6813F4800F2AD0294B5968C1F35B
:10290000881C4FEA4C11B1EB0C006EEB0E0E4FEA37
:102910008E1343EA90638101091A63EB0E03DB0017
:1029200043EA5173C90011EB0C0C43F10003590247
:1029300000234FEA4C2041EADC51FDF749FC184BDB
:102940005B68C3F3014301335B00B0FBF3F025E0A8
:10295000134B5968C1F3881C4FEA4C11B1EB0C00C2
:102960006EEB0E0E4FEA8E1343EA90638101091A53
:1029700063EB0E03DB0043EA5173C90011EB0C0C4F
:1029800043F10003990200234FEA8C2041EA9C5155
:10299000FDF71EFCD3E7034800E0034808BD00BF75
:1029A0000038024000127A000024F400002800F0F1
:1029B0009B8070B50D4604464F4B1B6803F0070320
:1029C0008B4208D2CBB24C4A1370136803F0070352
:1029D0008B4240F08B80236813F0020F17D013F066
:1029E000040F04D0454A936843F4E053936023688E
:1029F00013F0080F04D0414A936843F46043936096
:102A00003E4A936823F0F003A1680B439360236868
:102A100013F0010F32D06368012B21D09A1E012AD6
:102A200025D9364A126812F0020F61D033498A68FC
:102A300022F0030213438B60FEF716FE06462F4B6F
:102A40009B6803F00C036268B3EB820F16D0FEF7AD
:102A50000BFE801B41F288339842F0D9032042E0FC
:102A6000264A126812F4003FE0D101203BE0234ADD
:102A7000126812F0007FD9D1012034E01E4B1B6890
:102A800003F00703AB4207D9EAB21B4B1A701B686D
:102A900003F00703AB422DD1236813F0040F06D0D7
:102AA000164A936823F4E053E1680B43936023686C
:102AB00013F0080F07D0114A936823F4604321698B
:102AC00043EAC1039360FFF707FF0C4B9B68C3F316
:102AD00003130B4AD35CD8400A4B18600A4B1868A2
:102AE000FEF776FD002070BD012070470120FAE757
:102AF0000120F8E70120F6E7003C024000380240E0
:102B0000BC3901080000002008000020014B1868B3
:102B1000704700BF0000002008B5FFF7F7FF044B27
:102B20009B68C3F38223034AD35CD84008BD00BF2F
:102B300000380240CC39010808B5FFF7E7FF044B25
:102B40009B68C3F34233034AD35CD84008BD00BF3F
:102B500000380240CC390108026802F10C0353E846
:102B6000003F23F490730C3242E800310029F3D186
:102B7000026802F1140353E8003F23F0010314320A
:102B800042E800310029F3D1036B012B05D020234B
:102B900080F84230002303637047026802F10C039F
:102BA00053E8003F23F010030C3242E800310029C3
:102BB000F3D1ECE738B504460268136923F44053B7
:102BC000C1680B431361836802691343426913436D
:102BD000C2691A430168CB6823F4164323F00C033F
:102BE0001343CB600268536923F4407381690B433C
:102BF00053610368314A934206D002F580629342E2
:102C000002D0FFF789FF01E0FFF796FFE369B3F514
:102C1000004F29D00021031849411B1841F1000140
:102C2000C90041EA5371DB00181863684FEA830258
:102C30004FEA937341F10001FDF7CAFA204DA5FB5D
:102C400000325109642303FB11031B013233A5FB3E
:102C500003235B0903F0F00202EB011203F00F0300
:102C6000216813448B6038BD0023021843EB030135
:102C7000121841F10001C90041EA5271D200101846
:102C800041F10001626892185B41FDF7A1FA0C4D19
:102C9000A5FB00325109642303FB1103DB0032332F
:102CA000A5FB03235B095A0002F4F87202EB011240
:102CB00003F00703216813448B60D4E70010014040
:102CC0001F85EB512DE9F04383B005460E461746AC
:102CD0009946DDF828802C68246836EA04030CBF86
:102CE0004FF0010C4FF0000CBC4528D1B8F1FF3F6C
:102CF000F1D0FEF7B9FCA0EB0900404523D8B8F1AC
:102D0000000F22D02B68DA6812F0040FE3D0802E77
:102D1000E1D0402EDFD01A6812F0080FDBD000247B
:102D200001941A6801925B680193019B2846FFF7A2
:102D300013FF08236B6485F84040012000E0002069
:102D400003B0BDE8F0830320FAE70320F8E760B39F
:102D500010B5044690F8413013B3242384F8413071
:102D60002268D36823F40053D3602046FFF722FF84
:102D70002268136923F4904313612268536923F096
:102D80002A0353612268D36843F40053D3600020C0
:102D90006064202384F8413084F84230606310BDC1
:102DA00080F84030FEF78EFBD7E7012070472DE911
:102DB000F04182B01E4690F84130DBB2202B56D154
:102DC00004460D469046002955D00AB901204FE02F
:102DD00000234364212380F84130FEF745FC074679
:102DE000A4F82480A4F82680A368B3F5805F02D0FD
:102DF0004FF0000814E023692BB34FF000080FE0F8
:102E0000202384F84130032032E038F8023B226866
:102E1000C3F308035360E28C92B2013A92B2E284A7
:102E2000E38C9BB293B100963B4600228021204662
:102E3000FFF748FF0028E3D1002DE6D015F8012B5D
:102E400023685A60E7E7A8460025E9E700963B4675
:102E5000002240212046FFF735FF18B9202384F8CF
:102E6000413005E0202384F84130032000E00220B7
:102E700002B0BDE8F0810120FAE70000DFF834D0AD
:102E8000FEF798FB0C480D490D4A002302E0D45888
:102E9000C4500433C4188C42F9D30A4A0A4C0023A4
:102EA00001E013600432A242FBD300F017F8FEF7F2
:102EB00043F970470000022000000020900000202D
:102EC000183A010890000020C0010020FEE7000031
:102ED000014B1868704700BF2C00002070B50D4DE5
:102EE0000D4C641BA4100026A64209D10B4D0C4CBE
:102EF00000F0A2FC641BA4100026A64205D170BD00
:102F000055F8043B98470136EEE755F8043B9847DF
:102F10000136F2E7103A0108103A0108103A0108A8
:102F2000143A01080A44914200F1FF3300D170477E
:102F300010B511F8014B03F8014F9142F9D110BDC2
:102F400002440346934200D1704703F8011BF9E79E
:102F50000CB430B5174B0C1E1D689DB008DA8B23DE
:102F60002B604FF0FF301DB0BDE8304002B070471D
:102F70004FF40273ADF8143014BF04F1FF3323464D
:102F8000049307934FF6FF7302900690ADF8163046
:102F9000209A21AB02A92846019300F069F8431C4E
:102FA000BCBF8B232B60002CDDD0029B00221A704B
:102FB000D9E700BF2C0000202DE9F0478E689E4223
:102FC00082460C4690461F4638D88A8912F4906F84
:102FD00032D025680969A5EB0109656905EB45054E
:102FE00005EBD57501334B446D109D4238BF1D462E
:102FF000530531D5294600F055FB064650B90C2340
:10300000CAF80030A38943F04003A3814FF0FF309A
:10301000BDE8F08721694A46FFF784FFA38923F4BE
:10302000906343F08003A381266165614E44A5EB64
:1030300009052660A5603E46BE4200D93E4620688E
:103040003246414600F0A8FAA3689B1BA3602368A0
:10305000334423600020DBE72A4600F097FB064656
:103060000028E1D12169504600F0B0FAC7E700001E
:103070002DE9F04F98468B891B069DB007460D46FB
:1030800014460ED50B6963B9402100F00BFB286094
:10309000286120B90C233B604FF0FF30D1E0402382
:1030A0006B610023099320238DF82930CDF80C8023
:1030B0003023DFF8A8818DF82A304FF0010923462C
:1030C0009A4613F8012B0AB1252AF9D1BAEB040B61
:1030D0000BD05B46224629463846FFF76DFF01308C
:1030E00000F0AA80099A5A4409929AF80030002BFD
:1030F00000F0A28000234FF0FF32CDE905230AF152
:10310000010A049307938DF853301A93544605220D
:1031100014F8011B5148FDF7EBF9049AD8B9D00611
:1031200044BF20238DF85330110744BF2B238DF863
:1031300053309AF800302A2B15D0079A54460020B5
:103140004FF00A0C214611F8013B303B092B4ED9B8
:10315000B0B1079214E0A0EB080309FA03F313439C
:103160000493A246D2E7039B191D1B680391002B11
:10317000BBBF5B4242F0020207930793B8BF0492C1
:1031800023782E2B0CD163782A2B35D1039B1A1D63
:103190001B680392002BB8BF4FF0FF330234059336
:1031A000DFF8C8A0217803225046FDF7A1F940B10D
:1031B0004023A0EB0A0003FA00F0049B0343013410
:1031C000049314F8011B26488DF828100622FDF7F9
:1031D0008FF9002838D0234B1BBB039B073323F008
:1031E000070308330393099B3344099367E70CFBF8
:1031F00002320C460120A5E700230134059319464D
:103200004FF00A0C204610F8012B303A092A03D956
:10321000002BC5D00591C3E70CFB01210446012317
:10322000F0E703AB00932A460F4B04A93846AFF3EF
:103230000080421C0646D6D1AB895B063FF52CAF19
:1032400009981DB0BDE8F08F03AB00932A46064BEA
:1032500004A9384600F07AF8EBE700BFD43901083A
:10326000DE39010800000000B92F0108DA39010831
:103270002DE9F047164699468A680B69DDF82080EB
:103280009342B8BF1346336091F8432007460C467B
:103290000AB1013333602368990642BF33680233B1
:1032A0003360256815F0060506D104F1190AE368B4
:1032B00032689B1AAB4226DC94F84320131E226826
:1032C00018BF012392062BD404F143024946384625
:1032D000C04701301ED02368E568326803F006035A
:1032E000042B08BFAD1AA36822690CBF25EAE57557
:1032F00000259342C4BF9B1AED1800261A34B5422C
:103300001AD1002008E00123524649463846C047FA
:10331000013003D14FF0FF30BDE8F0870135C6E73B
:10332000E1185A1C302081F84300224494F84510DB
:1033300082F843100233C7E7012322464946384644
:10334000C0470130E6D00136D9E700002DE9FF473C
:103350000F7E0C9D782F914680460C469A4601F1CF
:10336000430207D8622F0AD8002F00F0D880582FC8
:1033700000F0A38004F1420584F842703AE0A7F11E
:103380006303152BF6D801A151F823F0E5330108AA
:10339000F9330108753301087533010875330108E5
:1033A00075330108F93301087533010875330108D5
:1033B0007533010875330108053501082934010802
:1033C000E734010875330108753301082735010812
:1033D0007533010829340108753301087533010874
:1033E000EF3401082B681A1D1B682A6004F142059E
:1033F00084F842300123A3E020682968060601F121
:1034000004030AD50E682B60002E03DA2D237642C2
:1034100084F843305E480A2319E00E682B6010F0F0
:10342000400F18BF36B2EFE72B682068191D2960DE
:10343000010601D51E6802E04606FBD51E885448E9
:103440006F2F0CBF08230A23002184F843106568FE
:10345000A560002DA2BF216821F0040121600EB9F2
:10346000002D4DD01546B6FBF3F103FB1167C75D88
:1034700005F8017D3746BB420E46F4D9082B0BD127
:103480002368DE0708D5236961689942DEBF3023CF
:1034900005F8013C05F1FF35521B2261CDF800A073
:1034A0004B4603AA21464046FFF7E2FE01304CD1CD
:1034B0004FF0FF3004B0BDE8F087354881F8457023
:1034C0002968236851F8046B29601D0614D5DF07AD
:1034D00044BF43F0200323601EB9236823F0200378
:1034E00023601023B0E7236843F020032360782390
:1034F000284884F84530E3E7590648BFB6B2E6E706
:103500001546BBE72B6826686169181D28603506DB
:103510001B6801D5196002E07006FBD519800023F5
:1035200023611546BAE72B681A1D2A601D68626878
:1035300000212846FCF7DCFF08B1401B606063688F
:103540002361002384F84330A8E723692A464946CB
:103550004046D0470130ABD023689B0713D4E068C6
:10356000039B9842B8BF1846A4E701233246494658
:103570004046D04701309BD00135E36803995B1A80
:10358000AB42F2DCEBE7002504F11906F5E700BFDA
:10359000E5390108F6390108884210B501EB02044B
:1035A00002D98442234607D8431EA14208D011F80D
:1035B000012B03F8012FF8E7024401468A4200D1AB
:1035C00010BD13F8014D02F8014DF7E737B500299A
:1035D00044D051F8043C0190002BA1F10404B8BF81
:1035E000E41800F013F91E4A0198136833B96360B8
:1035F000146003B0BDE8304000F00EB9A34208D912
:10360000256861198B4201BF19685B6849192160FF
:10361000EDE71A465B680BB1A342FAD91168551859
:10362000A5420BD1246821445418A3421160E0D173
:103630001C685B68536021441160DAE702D90C23EF
:103640000360D6E7256861198B4204BF19685B687F
:10365000636004BF491921605460CAE703B030BDFC
:10366000B001002070B50E4E0C463168054611B908
:1036700000F0BCF830602146284600F0B7F8431C43
:103680000AD0C41C24F00304A04207D0211A284603
:1036900000F0ACF8013001D14FF0FF34204670BD8E
:1036A000B40100202DE9F041CD1C25F003050835BB
:1036B0000C2D38BF0C25002D074601DBA94205D98A
:1036C0000C233B6000263046BDE8F0812E4E00F012
:1036D0009DF833681C4634BB29463846FFF7C2FFC5
:1036E000431C04464DD134682646002E40D1236841
:1036F0003146384604EB030800F078F880453AD1AB
:10370000216803356D1A25F0030508350C2D38BFE7
:103710000C2529463846FFF7A5FF01302BD023683A
:103720002B4423600EE02268521B1ED40B2A16D9AC
:103730006119A342256018BF5960636808BF3160F2
:1037400062514B60384604F10B0600F065F826F034
:103750000706231DF21AB6D09B1BA350B3E762687D
:10376000A3420CBF32605A60ECE723466468B2E7BC
:1037700034467668B9E70C233B60384600F04CF8D5
:10378000A1E72560DEE700BFB00100202DE9F04190
:10379000804614460E4621B9BDE8F0411146FFF7B8
:1037A00081BF2AB9FFF712FF25462846BDE8F08100
:1037B00000F038F88442074602D8B4EB500F12D814
:1037C00021464046FFF76EFF05460028EDD0BC427B
:1037D0002246314628BF3A46FFF7A4FB3146404611
:1037E000FFF7F4FEE1E73546DFE7000038B5064DA8
:1037F0000023044608462B60FDF7B8FE431C02D1A7
:103800002B6803B1236038BDB8010020014800F0E7
:1038100011B800BFBC010020014800F00CB800BF87
:10382000BC01002051F8043C181F002BBCBF0B58F2
:10383000C018704770477047F8B500BFF8BC08BCA7
:103840009E467047F8B500BFF8BC08BC9E4670475E
:1038500025732049443D30782530336C5820444C42
:10386000433D256C7520444154413D25303258205C
:103870002530325820253032582025303258202526
:10388000303258202530325820253032582025300B
:1038900032580D0A00000000525800004F544120D9
:1038A00073796E632061636365707465640D0A00EB
:1038B0004F544120696D6167652073746F72656450
:1038C00020696E20536C6F7420410D0A00000000C7
:1038D0004F544120696D6167652073746F72656430
:1038E00020696E20536C6F7420420D0A00000000A6
:1038F0004F544120737563636573732E2052656264
:103900006F6F74696E6720746F20626F6F746C6F75
:10391000616465722E2E2E0D0A00000043414E2078
:1039200064656275672055415254207265616479FF
:103930000D0A00004275696C643A204F54412052D0
:10394000580D0A004D41544F0100000001000000D5
:10395000000000000000000000000000000001085E
:103960000000000000000000010000000000000056
:10397000000004080000000000000000000000003B
:103980000000000000000000000000000300000034
:103990000000000000000000000000000000000027
:1039A0000000000000000000000000000000000017
:1039B0000000000000000000000000000000000007
:1039C00000000000010203040607080900000000CF
:1039D00001020304232D302B2000686C4C00656627
:1039E0006745464700303132333435363738394150
:1039F0004243444546003031323334353637383966
:083A0000616263646566000069
:083A0800F8C7FF7F0100000078
:043A1000B5010108F3
:043A14009101010813
:103A18000024F40001000000100000000000000075
:103A2800000000000000000000000000010000008D
:103A3800000000000000000000000000300000202E
:103A4800000000000000000000000000000000006E
:103A5800000000000000000000000000000000005E
:103A6800000000000000000000000000000000004E
:103A7800000000000000000000000000000000003E
:103A8800000000000000000000000000000000002E
:103A9800000000000000000000000000000000001E
:0400000508012E7D43
:00000001FF
