:020000040800F2
:1000000000000220594C00087530000877300008C5
:10001000793000087B3000087D30000800000000C7
:100020000000000000000000000000007F30000819
:10003000813000080000000083300008853000088F
:10004000A94C0008A94C0008A94C0008A94C0008BC
:10005000A94C0008A94C0008A94C0008A94C0008AC
:10006000A94C0008A94C0008A94C0008A94C00089C
:10007000A94C0008A94C0008A94C0008A94C00088C
:10008000A94C0008A94C0008A94C00088D300008B4
:100090009D300008AD300008A94C0008A94C0008AC
:1000A000A94C0008A94C0008A94C0008A94C00085C
:1000B000A94C0008A94C0008A94C0008A94C00084C
:1000C000A94C0008A94C0008A94C0008A94C00083C
:1000D000A94C0008A94C0008A94C0008A94C00082C
:1000E000A94C0008A94C0008A94C0008A94C00081C
:1000F000A94C0008A94C0008A94C0008A94C00080C
:10010000A94C0008A94C0008A94C0008A94C0008FB
:10011000A94C0008A94C0008A94C0008A94C0008EB
:10012000A94C0008A94C0008A94C0008A94C0008DB
:10013000A94C0008A94C0008A94C0008A94C0008CB
:10014000A94C0008A94C0008A94C0008A94C0008BB
:10015000A94C0008A94C0008A94C0008A94C0008AB
:10016000A94C0008A94C0008A94C0008A94C00089B
:10017000A94C0008A94C0008A94C00080000000088
:08018000A94C0008A94C00087D
:1001900010B5054C237833B9044B13B10448AFF3C1
:1001A00000800123237010BD3C02002000000000ED
:1001B000F85F000808B5034B1BB103490348AFF3D0
:1001C000008008BD0000000040020020F85F000829
:1001D00053B94AB9002908BF00281CBF4FF0FF31AE
:1001E0004FF0FF3000F088B9ADF1080C6DE904CE96
:1001F00000F006F8DDF804E0DDE9022304B0704702
:100200002DE9F047089D8E4604468846002B4AD1CA
:100210008A42174662D9B2FA82F64EB1C6F120037D
:1002200001FA06F820FA03F3B74043EA0808B4409D
:100230004FEA174E1FFA87FCB8FBFEF1230C0EFBAA
:10024000118843EA084301FB0CF29A4209D9FB18D2
:1002500001F1FF3080F0EA809A4240F2E7800239F3
:100260003B449A1AA3B2B2FBFEF00EFB102243EA03
:10027000024300FB0CFC9C4509D9FB1800F1FF323E
:1002800080F0D6809C4540F2D3803B44023840EA5F
:100290000140A3EB0C0300211DB1F3400022C5E98E
:1002A0000032BDE8F0878B4205D90DB1C5E90001E8
:1002B00000210846F5E7B3FA83F1002946D17345DA
:1002C00002D3824200F20581841A6EEB0302012000
:1002D0009046002DE5D0C5E90048E2E7002A00F08D
:1002E0009080B2FA82F6002E40F0A4808A1A030CA5
:1002F0004FEA174E80B2BCB20121B2FBFEFC0EFBEE
:100300001C2243EA024304FB0CF29A4207D9FB1871
:100310000CF1FF3802D29A4200F2E080C4469B1AE8
:10032000B3FBFEF20EFB123340EA034302FB04F47C
:100330009C4207D9FB1802F1FF3002D29C4200F226
:10034000CA8002461B1B42EA0C40A5E7C1F1200609
:100350008B4022FA06F71F430EFA01F420FA06F347
:100360002EFA06FE4FEA1749234300FA01F81FFA56
:1003700087FCBEFBF9F01C0C09FB10EE44EA0E44AE
:1003800000FB0CFEA64502FA01F209D93C1900F166
:10039000FF3A80F09C80A64540F2998002383C44A8
:1003A000A4EB0E041FFA83FEB4FBF9F309FB13441C
:1003B0004EEA044403FB0CFCA44508D93C1903F1A4
:1003C000FF3E80F08280A4457FD9023B3C4443EA53
:1003D0000040A4EB0C04A0FB02EC64457346E1462C
:1003E00062D35FD05DB1B8EB030264EB090404FA99
:1003F00006F622FA01F31E43CC40C5E90064002151
:100400004FE7B1FBF2FC010C41EA0E4180B240EA39
:1004100001423B4638463C46B846BE462026B1FB24
:10042000F7F1A2EB080241EA0C4166E7014618E742
:1004300010462CE7C6F120022EFA02F3B740B14075
:1004400020FA02F24FEA174E0A43B3FBFEF8BCB2A1
:100450000EFB1833110C41EA034108FB04F9B040CC
:1004600089454FEA104380B23ED9791808F1FF3C24
:1004700001D289451FD8A1EB0901B1FBFEF909FBA7
:1004800004F80EFB191192B242EA0142424529D208
:10049000BA1809F1FF31C4D24245C2D2A9F1020112
:1004A0003A44BEE7F0459DD2BEEB02036CEB070C6D
:1004B0000138E14696E7A7EB09094944A8F1020C87
:1004C000B1FBFEF909FB04F8DBE773467FE7504612
:1004D00066E70846FDE63B44023A33E7ACF1020C1E
:1004E0003B441CE749469CE7A1EB0901C446B1FB2C
:1004F000FEF909FB04F8C4E7704700BF10F8012BB0
:1005000011F8013B012A28BF9A42F7D0D01A704750
:10051000034613F8012B002AFBD1181A0138704743
:1005200001F0FF01102A2BDB10F0070F08D010F8A4
:10053000013B013A8B422DD010F0070F42B3F6D1A8
:10054000F0B441EA012141EA014122F007047FF0C1
:1005500000070023F0E80256083C85EA010586EA18
:10056000010685FA47F5A3FA87F586FA47F6A5FA54
:1005700087F68EB9EED1F0BC01F0FF0102F0070260
:1005800032B110F8013B013A83EA010313B1F8D10B
:100590000020704701387047002D06BF35460338EC
:1005A000073815F0010F07D1013015F4807F02BF25
:1005B000013015F4C03F0130F0BC0138704700BF76
:1005C000204B984228D303F58043984226D303F565
:1005D0008043984224D31C4B984223D903F580339F
:1005E000984221D903F5003398421FD903F500330F
:1005F00098421DD903F5003398421BD903F5003307
:10060000984219D903F50033984217D903F50033FE
:10061000984215D90B207047002070470120704781
:100620000220704703207047042070470520704760
:100630000620704707207047082070470920704740
:100640000A20704700400008FFFF000870B586B020
:10065000002301930293039304930593009329B31A
:1006600004460E46B0F1006F23D3FFF7A9FF0546FD
:1006700030190138FFF7A4FF044603F0B3FA002352
:100680000193022305930395641B01340494694686
:1006900001A803F09FFB20B903F0BCFA002006B0CC
:1006A00070BD03F0B7FA4FF0FF30F8E74FF0FF30BE
:1006B000F5E74FF0FF30F2E700293FD0F8B50546E7
:1006C00017460C46002A3CD003F08CFA2F4416E063
:1006D000D800FF21814022EA0102E15C81400A4307
:1006E0000133B342F4D319E000234FF0FF32F8E7AF
:1006F00003F090FA4FF0FF301FE034443D46BD4216
:1007000018D27E1B032EEFD92278637842EA0322A7
:10071000A37842EA0342E37842EA036200232946CF
:10072000022003F0B1FA0028E2D1032EE5D9043407
:100730000435E4E703F06EFA0020F8BD4FF0FF3017
:1007400070474FF0FF30F8E70048704710000E0880
:1007500072B6034B1B78DBB2024A137062B6704765
:10076000B9030020B803002000230E4A13600E4A8C
:1007700013700E4A13700E4A13700E4A13700E4A0D
:1007800013600E4A13600E4A13600E4A4FF0FF3199
:1007900011600D4A13700D4A13800D4A13700D4AF3
:1007A0001370704788020020870200208602002014
:1007B0008502002084020020800200207C020020AC
:1007C00078020020740200206C0200206A020020DF
:1007D00069020020680200204840002206E040F341
:1007E0000001044B0B4083EA50000132072AF6D97E
:1007F000704700BF2083B8ED10B50121084803F011
:10080000C3FC04464FF40051064803F0BDFC012C24
:1008100002D018B9012000E0012010BD0020FCE743
:100820000000024000080240F0B58BB000240194A3
:10083000274B1A6B42F001021A631A6B02F0010295
:100840000192019A02941A6B42F002021A631A6B27
:1008500002F002020292029A03941A6B42F004021E
:100860001A631A6B02F004020392039A04941A6B3F
:1008700042F008021A631B6B03F008030493049B05
:10088000059406940794089409944FF450470597EB
:10089000012506950F4E05A9304603F0E5FA0595AA
:1008A00006940223079305A90B4803F0DDFA4FF4E1
:1008B000005305930694079505A9084803F0D4FA58
:1008C00022463946304603F066FC0BB0F0BD00BF4F
:1008D00000380240000C02400000024000080240C4
:1008E00008B5054B1860054B01221A704FF4004102
:1008F000034803F056FC08BDBC030020C1030020E0
:10090000000C024072B6164B1A78D2B2154B1B7807
:10091000DBB29A4220D070B50D46114E3478C4EB4C
:10092000C4028446104B03EB820EBEE80F00ACE815
:100930000F009EE807008CE807000C4B03EBC40196
:1009400053F834204B682A606B60013404F00704CC
:10095000347062B6012070BD62B60020704700BFDF
:10096000B8030020B9030020D8020020980200201C
:100970002DE9F041AAB01C785D789E78DF7893F875
:1009800004C093F805E093F80680DB790993CDF86D
:100990002080CDF81CE0CDF818C00597049603958B
:1009A00002940192009103460A4A80210AA804F0A9
:1009B000F7F900280ADD7F2802DD0AA8FFF7A8FD65
:1009C000642382B20AA9044804F077F82AB0BDE88B
:1009D000F08100BF1C6000083004002008B5134BF4
:1009E00018601A61124800230360436004F0ACFAF7
:1009F000104802F0DCFD08B9002008BD0E4B0C4A7F
:100A00000A490C4802F05EFD08B10020F5E74FF4FA
:100A100080510A4803F0C5FB0449054B0A6909687F
:100A20000748FFF7A5FF0120E7E700BFD00300203C
:100A3000C803002078040020C4030020000C0240FA
:100A40006460000828B310B582B00C46014614B3A8
:100A5000042C01D900201FE0104B1B888DF80030BA
:100A60001B0A8DF801300023CDF8023022460DF12B
:100A7000020004F069FAA21CD2B2694640F22230A8
:100A8000FFF7ACFF40B1054A138801331380012002
:100A900002E000207047204602B010BD6A0200202C
:100AA00008B50B4B1B784BB10A4B1B7833B10A4B83
:100AB0001B781BB1094B1978042900D008BD0848E0
:100AC000FFF7C0FF0028F9D0044B00221A70F5E7A9
:100AD0008702002086020020850200206C02002090
:100AE0007002002010B50446FFF712FD642382B2A5
:100AF0002146024803F0E1FF10BD00BF3004002092
:100B000010B590B0154B1A68154B9A4205D1134B8E
:100B10005B6813B1134A934209D90023124A136048
:100B2000124A13601248FFF7DDFF10B010BD0E4CE3
:100B300023600A4B9A680D4B1A600E48FFF7D2FFEC
:100B400023680D4A4021684604F02AF96846FFF7F9
:100B5000C9FF0A48FFF7C6FFE7E700BF00000E081D
:100B60004F544132F0FF0100A4040020A0040020F3
:100B7000D06000086860000884600008A060000879
:100B800008B5FFF7BDFFFFF7EFFD08BD00B58DB05D
:100B9000134B1B782BB9134B1B7893B90DB05DF831
:100BA00004FB72B6104B1B680D4A0021117062B62F
:100BB0000E4A3021684604F0F3F86846FFF792FFCA
:100BC000E9E772B6074B00221A7062B64FF4804113
:100BD000074803F0E6FA0748FFF784FFDEE700BFA7
:100BE000C1030020C0030020BC030020E86000080F
:100BF000000C02400C61000800B5A5B01BA91DA89F
:100C0000FFF780FE18B31D9BB3F5497F22D01A4B26
:100C10009DF86C109DF86D209DF86E0042EA002250
:100C20009DF86F0042EA00429DF8700042EA0062BF
:100C300001920091114A602103A804F0B1F803A8C1
:100C4000FFF750FF1D9A40F225339A4204D025B099
:100C50005DF804FB0A4BDBE70A48FFF743FF01227C
:100C60004FF48041084803F096FA084B01221A70AD
:100C7000FFF77AFDEBE700BF346100083C61000834
:100C80003061000858610008000C02406902002031
:100C900000B583B031238DF8003044238DF8013046
:100CA0004E238DF8023045238DF803300F4B1B681F
:100CB0008DF80430C3F307228DF80520C3F30742F3
:100CC0008DF806201B0E8DF807300822694640F289
:100CD0002330FFF783FE10B903B05DF804FB044B2B
:100CE00001221A700348FFF7FDFEF5E7800200209D
:100CF000840200208861000808B51D4B1B78EBB109
:100D00001C4B1B78D3B11C4B1B78BBB11B4B1A6817
:100D10001B4B1B689A4211D11A4B197879B91A4B9F
:100D20001B68DB43194A12689A4211D1184B1B7891
:100D3000D3B11848FFF7D6FEFFF716FD08BD1648D9
:100D4000FFF780FE0028F9D00E4B00221A70E6E76C
:100D50001248FFF7C7FE01224FF48041104803F00C
:100D60001AFAFFF701FDE9E7FFF792FFE6E700BF98
:100D700087020020860200208502002078020020E1
:100D8000800200206C020020740200207C020020FF
:100D900084020020B8610008700200209C610008F5
:100DA000000C024000B583B00B4A6B4692E803008A
:100DB00083E80300082219464FF44870FFF70EFE3F
:100DC00010B903B05DF804FB044B01221A7004480B
:100DD000FFF788FEF5E700BFE46100088602002007
:100DE000D461000800B583B0174B1B688DF8003044
:100DF000C3F307228DF80120C3F307428DF80220C8
:100E00001B0E8DF80330114B1B688DF80430C3F3B3
:100E100007228DF80520C3F307428DF806201B0E2C
:100E20008DF807300822694640F22130FFF7D6FDE1
:100E300010B903B05DF804FB054B01221A70054898
:100E4000FFF750FEF5E700BF800200207C02002083
:100E500085020020F061000800B59BB0074B1B68BD
:100E60000093074B1B68074A602102A803F098FF14
:100E700002A8FFF737FE1BB05DF804FBA0040020BA
:100E8000A40400200462000800B5C3B0144B1B7812
:100E9000B3B1144B1B680193134B1B680093134BA6
:100EA0001B68134A4FF4807102A803F079FF02A86F
:100EB000FFF718FE0F4B1B7833B943B05DF804FB06
:100EC0000D48FFF70FFEF8E70A4B0C4A4FF480710C
:100ED00002A803F065FF02A8FFF704FEEDE700BFDC
:100EE000580200205C020020600200206402002002
:100EF00040620008C00000202C6200086862000800
:100F000008B5294A1378517843EA0123917843EAD6
:100F10000143D27843EA0263244A934236D1224AFB
:100F20001379517943EA0123917943EA0143D17955
:100F300043EA01631E490B60117A507A41EA0021AD
:100F4000907A41EA0041D27A41EA026219490A6084
:100F5000013BB3F5802F20D2174B01221A700023DA
:100F6000164A1360164A4FF0FF311160154A13609C
:100F7000154A1370154A1370154A1370154A1370E9
:100F80001548FFF7AFFDFFF70DFF08BD1348FFF74A
:100F9000A9FD0A4B00221A60F7E71148FFF7A2FDEE
:100FA000FFF7E2FBF1E700BF8C0200204F54413114
:100FB000800200207C02002087020020880200209E
:100FC00074020020780200206C02002086020020BB
:100FD0008502002084020020B46200087C620008C0
:100FE0009862000830B583B0054602F0E1F8044687
:100FF00006E00A2301220DF10701054803F0C3FDB5
:1010000002F0D6F8001BA842F3D303B030BD00BFF6
:10101000E80300202DE9F04182B080460F461646D5
:1010200002F0C6F8B8F1000F2AD00546012F2AD9E0
:10103000002402F0BDF8431BB3421ED20A23012252
:101040000DF10701114803F09EFD0028F1D19DF834
:1010500007300D2BEDD00A2B06D07A1EA242E8D91C
:1010600008F804300134E4E7002CE2D0002308F84B
:101070000430204602B0BDE8F0814FF0FF30F9E7C0
:101080004FF0FF30F6E74FF0FF30F3E7E8030020C2
:101090002DE9F04383B080460F46164602F088F8EB
:1010A000B8F1000F36D00546012F36D9002400E0F4
:1010B0001CBB02F07DF8431BB34228D20A23012255
:1010C0000DF10701164803F05EFD0028F1D19DF8EF
:1010D00007300D2BECD00A2BEAD07A1EA242E8D9B9
:1010E00004F1010908F80430142301220DF107016D
:1010F0000B4803F0E2FC4C46DBE7002308F8043021
:101100000848FFF7EFFC204603B0BDE8F0834FF03E
:10111000FF30F9E74FF0FF30F6E74FF0FF30F3E72D
:1011200030040020786700082DE9F0418AB00646B7
:101130000D461746984602F03BF8044602F038F890
:10114000001BA84218D201A903A8FFF7DBFB002867
:10115000F4D0039BB342F1D137B103AC0FCC0FC72E
:1011600094E8070087E8070001AB03CBC8F800004C
:10117000C8F80410012000E000200AB0BDE8F081AA
:1011800010B58AB000238DF8243090B30446FFF7E1
:10119000DFFA012209A940F22630FFF71FFC0346BF
:1011A00010B918460AB010BD6B4602AA4FF47A7106
:1011B00040F22730FFF7B8FF03460028F1D09DF832
:1011C000003023609DF8013063609DF80230A36019
:1011D0009DF80330E3609DF8043023619DF80530ED
:1011E00063619DF80630A3619DF80730E361012338
:1011F000D7E70023D5E710B58AB08DF82400C1B336
:101200000C46FFF7A5FA012209A940F22630FFF7A4
:10121000E5FB034610B918460AB010BD6B4602AA9A
:101220004FF47A7140F22730FFF77EFF0346002823
:10123000F1D09DF800309DF8012043EA02239DF88B
:10124000022043EA02439DF8032043EA026323603D
:101250009DF804309DF8052043EA02239DF80620FE
:1012600043EA02439DF8072043EA026363600123D7
:10127000D1E70023CFE7F0B58BB007460D46144603
:1012800001F096FF064607E0039BB3F5497F24D0A3
:1012900040F22532934222D001F08AFF801BB842EF
:1012A0001FD201A903A8FFF72DFB0028F4D015B128
:1012B0009DF804302B70002CE6D09DF805309DF889
:1012C000062043EA02239DF8072043EA02439DF8E3
:1012D000082043EA02632360D6E7012002E00220EF
:1012E00000E000200BB0F0BD2DE9F04F9DB00646A8
:1012F000894690461F469DF89C300393DDF8A0A0D8
:10130000DDF8A4B0FFF724FA0024CDF8A0A0BA4677
:10131000289F0CE0631C009333461D4A602104A8FB
:1013200003F03EFD04A8FFF7DDFB0134E4B25445B1
:101330002CD2424649463046FFF750FB0028F4D0F5
:101340005A4639462698FFF796FF0546012819D0D8
:101350000228DFD187B1BBF1000F0DD03B78DBF85D
:1013600000200192009333460A4A602104A803F04A
:1013700017FD04A8FFF7B6FB039B1BB117B13B7821
:10138000012BD2D028461DB0BDE8F08F0025F9E72B
:10139000F8620008D06200082DE9F04F91B0FFF725
:1013A000D3F905467B4B1C687B4B1F6800238DF8E7
:1013B0003F300E93794A0AAB92E8030083E80300BA
:1013C000002C3AD07648FFF78DFB764B00221A703E
:1013D000002F40D05FFA84FA8DF820A0C4F30729CB
:1013E0008DF82190C4F3074B8DF822B0260E8DF8AE
:1013F00023608DF82470C7F307238DF82530C7F3D9
:1014000007438DF826303F0E8DF827700EAB0393FF
:101410000DF13F030293002301934FF4FA730093FD
:10142000032308220AA94FF44870FFF75DFF012843
:1014300014D05D48FFF756FB02E05C48FFF752FB13
:1014400011B0BDE8F08FE95DFFF7C6F90137A7429B
:10145000F9D3C743BEE74FF0FF30F8E70EAB039375
:101460000DF13F0302930123019340F6B83300933B
:101470000323082208A940F22130FFF735FF012895
:1014800041D10027B846CDF810A0CDF81490A04562
:101490004CD2A4EB0809B9F1030F38D85FFA89F9E7
:1014A0008DF830703B0A8DF831304FF0000ACDF8DE
:1014B00032A04A4605EB08010DF1320003F044FD6D
:1014C00009F102020EAB03930DF13F030293CDF835
:1014D00004A04FF4FA7300930323D2B20CA940F294
:1014E0002230FFF701FF012814D0022807D19DF810
:1014F0003F30012B03D10E9B9AB297420ED32C485A
:10150000FFF7F0FA9CE72B48FFF7ECFA98E74FF06B
:101510000409C5E7C8440137BFB2B8E74FEA8208FB
:10152000B4EB820F00D2A0461746B0E7DDF810A05A
:10153000DDF8149031238DF8183044238DF81930DC
:101540004E238DF81A3045238DF81B308DF81CA0E2
:101550008DF81D908DF81EB08DF81F600EAB0393B3
:101560000DF13F0302930023019340F2DC530093FB
:101570000323082206A940F22330FFF7B5FE012815
:1015800003D00D48FFF7AEFA5AE70C48FFF7AAFA66
:1015900056E700BFA4040020A0040020E461000876
:1015A0003C630008690200206463000820630008AF
:1015B00084630008746300089C630008AC6300083F
:1015C00070B584B006460D4601F0F2FD002301938C
:1015D000029396B304463046FEF79AFF0138062878
:1015E00018D9002027E05A1C03F111010DEB010C62
:1015F0001CF80CCC10336B4403F80CCC1346062BB0
:10160000F1D99DF80F308DF80B30314601A803F069
:1016100058FCA0B901F0CCFD001BA8420AD214234B
:1016200001220DF10F01074803F0ADFA0028F1D1B6
:101630000023E4E7002004B070BD0020FBE7012098
:10164000F9E700BFE803002030B5EFB001F0B0FDCE
:101650000446294A68AB07CA03C323F8022B120CBD
:101660001A702648FFF73EFA68A8FEF751FF4FF4BC
:10167000FA7382B268A9224803F01FFA054668BBD4
:1016800001F096FD001B41F2873398422BD84FF4AE
:101690002F72C02138A8FFF7BDFC0028F0DD38AB61
:1016A000184AE021684603F07BFB6846FFF71AFA08
:1016B000154938A803F005FCD8B9144938A803F037
:1016C00000FC98B9124938A803F0FBFB70B9114926
:1016D00038A803F0F6FB0028D2D007E00E48FFF749
:1016E00001FA002502E00D48FFF7FCF928466FB02B
:1016F00030BD0125FAE700BFD4630008E0630008AD
:10170000E8030020006400080C6400081C64000862
:101710002C64000840640008F06300084864000876
:10172000F0B5ADF5197D002857D00E4605460346A5
:101730002D4AC02168A803F033FB2B462B4AE02139
:10174000684603F02DFB6846FFF7CCF95020FFF701
:1017500049FC68A8FEF7DCFE4FF4FA7382B268A970
:10176000234803F0AAF9074618B901F021FD8419AE
:1017700007E02048FFF7B6F900272FE001F018FD39
:10178000841901F015FD201A002822DD4FF4AF72F4
:10179000C02138A8FFF73EFC0028F2DD38AB164A1E
:1017A000E021684603F0FCFA6846FFF79BF913490D
:1017B00038A8FEF7A3FEA8B1294638A8FEF79EFE7A
:1017C0000028DBD00E4938A803F07BFB0028D8D0D6
:1017D00004E00C48FFF786F900E0002738460DF5D5
:1017E000197DF0BD0127F9E7646400086C64000806
:1017F000E8030020F0630008006400087864000833
:10180000406400087C64000870B590B0044630481D
:10181000446003F038F918B10025284610B070BDB7
:1018200005462B4803F0FFF806460028F5D123466D
:10183000284A4021684603F0B3FA6846FFF752F998
:10184000502001F0BBFC5020FFF7CCFB002509E045
:101850004FF4E1612048FFF763FF38BB782001F0C7
:10186000ADFC0135022D31D82820FFF7BBFBC82382
:1018700003221A49164803F020F90028E8D14FF452
:1018800096611748FFF79CFE0028E1D04FF496615F
:101890001448FFF745FF2346134A4021684603F0EA
:1018A0007FFA6846FFF71EF90125B6E74FF4966107
:1018B0000C48FFF735FF23460B4A4021684603F0EA
:1018C0006FFA6846FFF70EF90125A6E73546A4E74B
:1018D000E803002090640008C86400086C710008E8
:1018E00078640008A8640008B064000830B595B0BA
:1018F0004FF4E130FFF788FF18B10125284615B0F5
:1019000030BD05461F48FFF7EDF81F4C4FF4E1339B
:101910006360204603F0B7F8204603F084F878208F
:1019200001F04CFC7820FFF75DFB002403E09620DB
:1019300001F044FC0134042C18D8FA230422134982
:10194000114803F0BAF80028F1D14FF4AF61104804
:10195000FFF736FE0028EAD04FF496610D48FFF7F6
:10196000DFFE0D48FFF7BEF80125C7E74FF4E1336E
:101970000A4A5021684603F013FA6846FFF7B2F8A6
:10198000BCE700BFCC640008E803002070710008C9
:1019900078640008A8640008F06400081065000876
:1019A00008B54EF660210948FFF7BAFE4EF66021F1
:1019B0000748FFF7B5FE4EF660210648FFF7B0FE78
:1019C00041F288310448FFF7ABFE08BD34650008DA
:1019D000406500084C6500085865000808B541F2EC
:1019E00088311348FFF79CFE08B1012008BD11485B
:1019F000FFF778F841F288310F48FFF791FE4EF675
:101A000060210E48FFF78CFE4FF4967001F0D6FB74
:101A10004EF660210A48FFF783FE4EF66021094822
:101A2000FFF77EFE4EF660210148FFF779FEDDE705
:101A30006465000870650008986500083465000852
:101A4000406500084C65000808B541F2883111482E
:101A5000FFF766FE08B1012008BD41F288310E484B
:101A6000FFF75EFE0028F6D10C48FFF73BF841F285
:101A700088310B48FFF754FE0028ECD141F2883141
:101A80000848FFF74DFE0028E5D10748FFF72AF880
:101A9000E1E700BFA4650008B8650008D06500084C
:101AA000F4650008086600082066000870B110B5EB
:101AB00004460722084903F0DFF948B10822074924
:101AC000204603F0D9F928B1002010BD002070474E
:101AD0000120FAE70120F8E7646600086C66000858
:101AE00020B370B5B2B00C46054601291CD91322AB
:101AF0000F4903F0C1F9B8B905F113060D49304695
:101B000003F0DFF980B1821D01920096831B0A4A1F
:101B1000C02102A803F044F9013C224602A928464C
:101B200003F0BCF900232B5532B070BD704700BFE5
:101B3000786600088C66000894660008F0B5B7B0B7
:101B400007460E46144601F033FB054601F030FB14
:101B5000401BA0421DD22246C02106A8FFF75AFA18
:101B600000230393049305939842EFDD05AB0093A4
:101B700004AB03AA084906A803F048F90328E5D1F5
:101B800017B1BDF810303B800EB1059B33600120CA
:101B900000E0002037B0F0BDC066000868B370B543
:101BA0000E46044659B3194903F08BF948B3204651
:101BB000FEF7AEFC231800E0013BA3421BD913F84B
:101BC000012C13498A5C12F0040FF5D0184600E08E
:101BD0000138A04206D910F8012C0D4DAA5C12F074
:101BE000040FF5D183420ED00A22002103F0CEF873
:101BF0003060012070BD1846EBE7002070470020E0
:101C0000F8E70020F6E70020F4E700BFD8660008F8
:101C1000917100082DE9F043C5B080460D46164687
:101C20001F4601F0C5FA00230393002E59D000F59A
:101C30009C540834002F57D02DB94FF0000840466F
:101C400045B0BDE8F083009543462A4A402134A8B8
:101C500003F0A6F834A8FEF75BFC4FF4FA7382B2E7
:101C600034A9254802F029FF804600283FD101F021
:101C70009FFA201A002815DD4FF4FA72C02104A83B
:101C8000FFF7C8F90028F2DD03A904A8FFF786FFD3
:101C9000814638B9194904A803F013F90028E6D0A1
:101CA000C846CCE7039A002AC9D0AA42C7D841F255
:101CB000883392B23146104802F065FF0028BED149
:101CC0004FF49672C02104A8FFF7A4F94FF496725E
:101CD000C02104A8FFF79EF9039B3B604FF0010869
:101CE000ADE74FF00008AAE74FF00008A7E74FF074
:101CF0000008A4E7E4660008E80300204064000848
:101D00002DE9F041C4B00024ADF80E400294002843
:101D100000F097800F4616461D468046002900F0C9
:101D20009280002B00F0918022B90024204644B01C
:101D3000BDE8F081FFF7DAFD04460028F6D0444BF9
:101D4000444A4FF4807104A803F02AF841F2883124
:101D500004A8FFF7E5FC04460028E7D0FFF720FEC3
:101D600041F288313C48FFF7DBFCFFF737FE0446C1
:101D70000028DBD0FFF768FE4346384A4FF48071F5
:101D800004A803F00DF841F2883104A8FFF7C8FC5D
:101D90000446C8B141F288313148FFF7C1FC04461E
:101DA000C0B14EF6602202A90DF10E00FFF7C6FE8B
:101DB0000446A8B1BDF80E30C82B17D1029BABB1B9
:101DC000B34213D8002621E041F288312248FFF7C0
:101DD000A7FCABE741F288311F48FFF7A1FCA5E75C
:101DE00041F288311C48FFF79BFC9FE741F28831A4
:101DF0001948FFF795FC002498E701ABBA19304663
:101E0000FFF708FF044668B1019B1E440299B142E6
:101E10000ED9891B00230193B1F5807FEDD94FF4D2
:101E20008071EAE741F288310B48FFF779FC7DE7E2
:101E300041F288310848FFF773FC029B2B600124B4
:101E400074E7002472E7002470E700246EE700BF07
:101E500080010020FC6600089865000814670008EF
:101E60002C6700082DE9F043ADF5197D0023ADF88E
:101E70005E31569320B10E4615460746037843B9A6
:101E80009C48FEF72FFE002420460DF5197DBDE885
:101E9000F083FFF72BFD044600285CD0FFF7D4FB4E
:101EA000044600285BD0944B944A4FF4807158A8A4
:101EB00002F076FF41F2883158A8FFF731FC044662
:101EC000002850D0FFF76CFD41F288318C48FFF7B5
:101ED00027FCFFF783FD0446002848D0FFF7B4FD38
:101EE0003B46884A4FF4807158A802F059FF41F2EE
:101EF000883158A8FFF714FC044600283BD041F273
:101F000088318148FFF70CFC044600283CD04EF68F
:101F1000602256A90DF5AF70FFF710FE04460028A9
:101F20003BD0BDF85E31C82B04D1569A12B1774927
:101F30008A423BD9569A0092754A602116A802F04F
:101F40002FFF16A8FEF7CEFD41F288316C48FFF74F
:101F5000E7FB002498E76F48FEF7C4FD94E76E485E
:101F6000FEF7C0FD90E76D48FEF7BCFD8CE76C48BE
:101F7000FEF7B8FD88E76B48FEF7B4FD41F2883103
:101F80005F48FFF7CDFB7FE76748FEF7ABFD41F207
:101F900088315B48FFF7C4FB76E76448FEF7A2FD93
:101FA00041F288315648FFF7BBFB6DE74FF4003133
:101FB0005F48FEF74BFB30B94FF0FF37DFF8A091D9
:101FC0004FF000082BE05B48FEF78CFD41F28831B2
:101FD0004B48FFF7A5FB002456E75748FEF782FD64
:101FE00041F288314648FFF79BFB00244CE75348F9
:101FF000FEF778FD41F288314148FFF791FBF4E7A5
:1020000016AB195D3846FEF7E7FB07460134039B24
:10201000A342F5D899449844C8F30C03CBB1569920
:10202000414522D9A1EB0801B1F5807F01D94FF4D8
:10203000807103AB16AA4046FFF7ECFD0028CCD018
:10204000039A16A94846FEF737FB0028CFD1002493
:10205000DDE7569B00934346394A482104A802F025
:102060009FFE04A8FEF73EFDD9E70EB1B14223D191
:1020700015B1FB43AB4229D1324B16931791FF4365
:1020800018974FF0FF331993102216A92848FEF72E
:1020900013FB28BB179A2C4B1A60189A2B4B1A600B
:1020A00041F288311648FFF73BFB2948FEF71AFD3D
:1020B000FEF7D2FE0124E7E62648FEF713FD41F2C3
:1020C00088310F48FFF72CFB0024DDE62248FEF79D
:1020D00009FD41F288310A48FFF722FB0024D3E6CC
:1020E0001E48FEF7FFFC41F288310548FFF718FB58
:1020F0000024C9E63C67000880010020FC66000857
:1021000098650008146700082C670008F0FF0100BC
:10211000FC6700084C670008646700087C670008DB
:1021200094670008AC670008C8670008E06700080B
:1021300000000E08206800084C680008606800086D
:102140008C6800084F544132A4040020A0040020F1
:1021500004690008A4680008C0680008D86800087E
:1021600010000E08002800F0D080F0B5ADF20C4D44
:102170000C4616461D460146002C00F0C880B4F5FA
:10218000806F00F2C880002B00F0C780DDF820349B
:10219000002B00F0C48001AF2246384602F0D4FE86
:1021A00000233B555F49384602F08BFE044660B180
:1021B0005EB1217829B13A2903D03D2901D00134FB
:1021C000F7E73A290FD03D290DD0574901A802F071
:1021D00078FE044670B1227872B13A2A0CD03D2ABA
:1021E0000AD00134F7E700221146601C02F0CEFD50
:1021F0003060EAE7002404E03A2A10D03D2A0ED0ED
:1022000000244A4901A802F05CFE034678B11A781E
:102210007AB13A2A0DD03D2A0BD00133F7E70022DC
:102220001146601C02F0B2FD28600124E9E7002598
:1022300015E03A2A03D03D2A01D000250FE0581CB2
:1022400000E001300378202BFBD0222BF9D00022B4
:10225000114602F09BFDDDF8203418600125344959
:1022600001A802F02EFE014630B1DDF8243473B12E
:10227000DDF82834072B0FD8DDF824343BB10023D8
:10228000DDF828241AB113B9DDF824241370BCB387
:10229000CDBB002035E001310B781BB13A2B01D0CA
:1022A0003D2BF8D13A2B01D03D2BE5D1013100E097
:1022B00001310B78202BFBD0222BF9D00A4600E00D
:1022C000013213784BB10A3BDBB2182BF8D819480E
:1022D00020FA03F313F0010FF2D09142CCD2561A38
:1022E000DDF82834B34200D85E1E3246DDF82404FF
:1022F00002F02AFE0023DDF8242493550123BFE7D2
:102300000020C0B204E00120FBE70020704700205D
:102310000DF20C4DF0BD0020FAE70020F8E7002098
:10232000F6E700BF2869000830690008386900082E
:102330003C6900080900000110B5ADF59C6D002155
:102340003791369135913491C02204A802F08CFD6A
:1023500037AB4FF4806238A91B48FFF7D1FC38B97E
:1023600003461A4A0021117018460DF59C6D10BDE8
:10237000C023029304AB019334AB009335AB36AA70
:10238000379938A8FFF7EEFE034678B1369A104B1E
:102390001A60359A0F4B1A60349A0F4B1A609DF8E9
:1023A00010303BB90123094A1370DDE7074A0021C9
:1023B0001170D9E7094CBF2204A9204602F06EFD36
:1023C000002384F8BF30EDE7000000205802002011
:1023D00064020020600200205C020020C000002097
:1023E00010B5CAB06748FFF761FBB0B1664CC021B9
:1023F0002046FFF775FBC0216248FFF771FB0822FA
:102400006249204602F038FDA0B1FFF795FF002891
:102410005AD15F48FEF766FB12E05A4CBF225D4975
:10242000204602F03BFD002384F8BF305A48FEF7F7
:1024300059FBDBE7594B00221A705948FEF752FB53
:1024400006A8FEF79DFE0446002840D0079B089A88
:1024500001920093069B534AF0210EA802F0A0FCC3
:102460000EA8FEF73FFB069B002B3BD0012B34D17F
:102470004D49444CBF22204602F010FD002384F851
:10248000BF302346494AF0210EA802F089FC0EA86D
:10249000FEF728FB414B1B7833BB404A12780AB148
:1024A000002B62D03D4B1B78002B62D0404A116854
:1024B000002B60D03F4B1A683248FFF7D3FC04462C
:1024C00000285AD0012405E0FEF7DEFCB8E73A48C0
:1024D000FEF708FB20464AB010BD3848FEF702FB65
:1024E0000024F7E72B49C4E704A90120FEF783FE87
:1024F00003460028D1D002A90220FEF77CFE034645
:102500000028CAD0049A2A4B1B689A420FD0029A1C
:1025100093421FD0069B33BB4223294AF0210EA8C9
:1025200002F03EFC0EA8FEF7DDFA0123B5E705999F
:10253000204A12689142EAD10123012B11D0422393
:10254000204AF0210EA802F02BFC0EA8FEF7CAFAD2
:102550000224BFE7039A174B1B689A42DAD1022381
:10256000EBE74123ECE74123D7E71748FEF7BAFA38
:1025700098E700219CE700229EE71448FEF7B2FA94
:10258000A8E700BFC0000020000000206C66000823
:10259000486A000840690008D46900085802002011
:1025A000046A0008A06A00088C690008F06A000844
:1025B000600200205C0200207C6A0008D46A0008E7
:1025C000646B0008206B0008A06B0008E06B00083B
:1025D0002DE9F043F7B0A54B1B7813B1A44A12784C
:1025E0009AB113B1A34A127892B11BB1A24B1B78D6
:1025F000042B07D0142301220DF2D7119F4802F0BB
:10260000C2FA40B177B0BDE8F083FEF7CBFBF9E743
:10261000FEF7E8FBF6E79DF8D731994A20216DA82F
:1026200002F0BEFB6DA8FEF75DFA9DF8D721A2F17E
:102630006103DBB2192B02D8203A8DF8D7218B4BDE
:102640001B78002B40F0BB819DF8D721A2F14703F6
:10265000102B00F2A881DFE813F09201A601A60179
:10266000A601A601A6018801A601A601A601AE0049
:10267000B300970051011100A601D2004FF47A7304
:10268000042269467D4802F07EFA0028BAD19DF8FE
:1026900000809DF8013048EA03289DF8023048EA9E
:1026A00003489DF8033048EA036808F1FF32754B90
:1026B0009A4211D87448FEF715FA4FF40031734866
:1026C000FDF7C4FF60B97248FEF70CFA47464FF0B9
:1026D000FF35DFF824921DE06E48FEF703FA91E71C
:1026E0006D48FEF7FFF98DE76C48FEF7FBF989E7C7
:1026F0006B48FEF7F7F985E731AB195D2846FEF721
:102700006BF805460134B442F6D36648FEF7EAF9A1
:10271000B144BF1BAFB13E46802F28BF802641F297
:102720008833B2B231A9554802F02DFA0028DBD126
:10273000324631A94846FDF7BFFF0028D8D1002412
:10274000E1E7594B0193CDF80880ED4303954FF035
:10275000FF330493102201A94C48FDF7ADFF18B1D7
:102760005248FEF7BFF94DE7514BC3F80080039A7A
:10277000504B1A605048FEF7B5F95048FEF7B2F9D1
:102780004F48FEF7AFF93DE74E4B01221A70FFF7B5
:1027900027FE012805D0022809D04B48FEF7A2F9F0
:1027A00030E74A48FEF79EF9FEF7F6FD2AE748486B
:1027B000FEF798F926E7FEF7A3F9FEF74DFB21E7B0
:1027C00000F0F6FC05464348FEF78CF9FFF78EF85B
:1027D000044600F0EDFC431B44B13F4A402131A8C0
:1027E00002F0DEFA31A8FEF77DF90BE73B4A5021F3
:1027F00031A802F0D5FA31A8FEF774F902E738489B
:10280000FEF770F947F23052C02101A8FEF740FCF4
:1028100000281EDD01A8FFF749F9B0B1314CBF22F5
:1028200001A9204602F03AFB002384F8BF30C02102
:102830002046FFF755F923462B4AF02131A802F034
:10284000AFFA31A8FEF74EF9DCE62848FEF74AF960
:10285000D8E62748FEF746F9224B264AF02131A850
:1028600002F09EFA31A8FEF73DF9CBE68702002080
:1028700086020020850200206C0200203004002027
:10288000046C0008EFFF0100406C000800000E0817
:10289000986C0008186C0008746C0008A06C0008A4
:1028A000CC6C0008F06C00084F544132F46C000806
:1028B000A4040020A0040020186D0008306D00085A
:1028C0003C6D000868020020DC6D0008706D000897
:1028D000A06D0008086E0008206E00083C6E00081D
:1028E000606E0008C0000020846E0008A06E000822
:1028F000D06E0008E46E000810000E083C48FEF799
:10290000F1F847F23052C02101A8FEF7C1FB0028C0
:102910001EDD01A8FFF7CAF8B0B1364CBF2201A9ED
:10292000204602F0BBFA002384F8BF30C0212046C5
:10293000FFF7D6F82346304AF02131A802F030FAEA
:1029400031A8FEF7CFF85DE62C48FEF7CBF859E644
:102950002B48FEF7C7F8274B2A4AF02131A802F08E
:102960001FFA31A8FEF7BEF84CE6FFF7E5FC10B100
:10297000FEF78AFA46E62448FEF7B4F842E6FFF787
:102980002FFD012805D0022809D02048FEF7AAF81B
:1029900038E61F48FEF7A6F8FEF7FEFC32E61D48B3
:1029A000FEF7A0F82EE61C4801684B1C03601B488C
:1029B00042540B2B7FF626AEFEF7A2FA22E6184B06
:1029C0001C68184B1B689C42BFF41CAE9DF8D75185
:1029D000154E29463068FDF7FFFE3060134A137824
:1029E000591C1170124AD55401340D4B1C6009E674
:1029F000046F000800000020286F0008446F0008E2
:102A0000746F0008946F0008B46F0008DC6D000854
:102A1000706D0008A06D0008880200208C02002064
:102A20007802002080020020740200206C02002046
:102A30007002002008B50268034B9A4200D008BD1E
:102A40000020FDF74DFFFAE70064004008B502687A
:102A5000034B9A4200D008BD0120FDF741FFFAE781
:102A60000064004008B50268034B9A4200D008BDDC
:102A70000220FDF735FFFAE7006400400268044BCE
:102A80009A4200D07047034B01221A70FAE700BF48
:102A900000640040C00300200268044B9A4200D04A
:102AA0007047034B01221A70FAE700BF0064004030
:102AB000C00300200268044B9A4200D07047034BC9
:102AC00001221A70FAE700BF00640040C003002032
:102AD0000268044B9A4200D07047034B01221A70DF
:102AE000FAE700BF00640040C00300200268234BE7
:102AF0009A4200D0704730B58BB001AB03AA0021D9
:102B000000F06EFD88BB039BA3F54972012A03D92F
:102B100040F22732934228D1194B1C78E5B2013498
:102B200004F00704174B1B78DBB2A3421FD0C5EBA0
:102B3000C502154B03EB820C0DF10C0EBEE80F0025
:102B4000ACE80F009EE807008CE807000F4B03EB92
:102B5000C50301AA92E8030083E80300084B1C7038
:102B60004FF400410A4801F01CFB0BB030BD054A90
:102B70001378013303F007031370D8E700640040B3
:102B8000B9030020B8030020D802002098020020DA
:102B9000000C024072B6FEE708B50D480D4B03600D
:102BA0000A23436000238360C3604FF470220261F4
:102BB0004FF4001242610376012242768376C27698
:102BC0000377437700F00EFB00B908BDFFF7E2FF83
:102BD000780400200064004008B50A480A4B0360EE
:102BE0004FF4E133436000238360C36003610C2230
:102BF00042618361C36101F016FF00B908BDFFF7B0
:102C0000C9FF00BF300400200044004008B50A4856
:102C10000A4B03604FF4E133436000238360C360D9
:102C200003610C2242618361C36101F0FCFE00B9C3
:102C300008BDFFF7AFFF00BFE803002000480040D9
:102C400000B58BB028220021684602F00DF901235F
:102C5000079308930E2309936946114800F068FB17
:102C6000B8B90F4800F000FCA8B948F203410C487D
:102C700000F06BFD88B90B4B40F227121A6000225E
:102C80005A609A60DA60082119611A750BB05DF814
:102C900004FBFFF77FFFFFF77DFFFFF77BFF00BF20
:102CA00078040020D003002000B595B03022002128
:102CB00008A802F0D9F80023039304930593069320
:102CC000079301931F4A116C41F080511164126CFB
:102CD00002F080520192019A02931B4A116841F45A
:102CE00080411160126802F480420292029A02222C
:102CF000089201210B9110210C910E920F93082341
:102D000010936423119312920723139308A801F0E0
:102D100051FA98B90F2303930223049300230593D8
:102D20004FF4A05306934FF480530793032103A855
:102D300001F0AAFC20B915B05DF804FBFFF72AFFEB
:102D4000FFF728FF003802400070004010B594B033
:102D500000F008FAFFF7A8FFFDF766FDFFF71CFF7C
:102D6000FFF73AFFFFF752FFFFF76AFF3248FDF720
:102D7000B9FE3248FDF7B6FE3148FDF7B3FE3148E3
:102D8000FDF7B0FE3048FDF7ADFE3048FDF7AAFE76
:102D90002F48FDF7A7FE2F48FDF7A4FE2E48FDF7AC
:102DA000A1FEFDF7EDFE0CE02C48FDF79BFEFEF7C3
:102DB000F3FA3CE02A48FDF795FE38E0294B002263
:102DC0001A70FDF7E3FEFDF717FFFDF769FEFDF74B
:102DD00093FFFFF7FDFB244B1B78002BF1D1FDF790
:102DE0000BFD0028EAD01F4B1B78002BE9D10121F5
:102DF0001E4801F0C9F904464FF400511C4801F087
:102E0000C3F9009023461B4A482102A801F0C8FFDD
:102E100002A8FDF767FE134B01221A70FFF7E0FAD4
:102E20000128C1D00228C5D01348FDF75BFE3C2025
:102E300000F0C4F9C5E700BFCC6F0008E46F0008DC
:102E40000470000824700008647000089C7000087A
:102E5000C8700008EC70000810710008706D000860
:102E6000A06D0008680200208702002000000240D8
:102E70000008024048710008DC6D000800B583B00E
:102E8000002100910C4B5A6C42F480425A645A6CF7
:102E900002F480420092009A01911A6C42F0805232
:102EA0001A641B6C03F080530193019B072000F010
:102EB000CDFD03B05DF804FB0038024010B588B0CA
:102EC0000023039304930593069307930268214B11
:102ED0009A4201D008B010BD0024019403F5EA33F2
:102EE0001A6C42F000721A641A6C02F000720192BD
:102EF000019A02941A6B42F002021A631B6B03F0F0
:102F000002030293029B4FF4407303930223049342
:102F1000032306930923079303A90F4800F0A4FF96
:102F200022462146132000F0A3FD132000F0B0FD3F
:102F300022462146142000F09BFD142000F0A8FD3D
:102F400022462146152000F093FD152000F0A0FD3B
:102F5000C0E700BF006400400004024000B58BB031
:102F60000023059306930793089309930368284A5F
:102F7000934205D0274A934225D00BB05DF804FB5D
:102F800000210191244B1A6C42F400321A641A6C2D
:102F900002F400320192019A02911A6B42F001028E
:102FA0001A631B6B03F001030293029B0C2305932E
:102FB00002230693032308930723099305A91748BF
:102FC00000F052FFD9E700210391134B1A6C42F431
:102FD00080221A641A6C02F480220392039A0491EC
:102FE0001A6B42F002021A631B6B03F00203049394
:102FF000049B4FF440630593022306930323089335
:103000000723099305A9064800F02EFFB5E700BF86
:1030100000440040004800400038024000000240E8
:103020000004024008B503680E4A934203D00E4ADA
:1030300093420BD008BD02F5FA32136C23F400332F
:1030400013640C21094801F005F8F3E702F5F832A2
:10305000136C23F4802313644FF44061044800F0A0
:10306000F9FFE7E70044004000480040000002404C
:1030700000040240FEE7FEE7FEE7FEE7FEE77047DA
:103080007047704708B500F087F808BD08B50248DA
:1030900000F072FB08BD00BF7804002008B50248AC
:1030A00000F06AFB08BD00BF7804002008B50248A4
:1030B00000F062FB08BD00BF7804002010B5034695
:1030C0000C4A0D490D48006840B10C4800680344A3
:1030D000521A934206D8094A136010BD0748084C9B
:1030E0000460F2E701F004FF0C2303604FF0FF30AF
:1030F000F3E700BF0000022000040000A804002045
:10310000F8050020034AD2F8883043F47003C2F86F
:103110008830704700ED00E010B504460E4B1A7879
:103120004FF47A73B3FBF2F30C4A1068B0FBF3F080
:1031300000F0B2FC68B90F2C01D901200AE000228E
:1031400021464FF0FF3000F093FC054B1C6000203F
:1031500000E0012010BD00BFC4010020C00100201C
:10316000C801002008B50B4B1A6842F400721A60BF
:103170001A6842F480621A601A6842F480721A6017
:10318000032000F063FC0020FFF7C6FFFFF776FE88
:10319000002008BD003C0240034A1168034B1B7825
:1031A0000B441360704700BFAC040020C401002032
:1031B000014B1868704700BFAC04002038B50446C6
:1031C000FFF7F6FF0546B4F1FF3F02D0044B1B7832
:1031D0001C44FFF7EDFF401BA042FAD338BD00BFEF
:1031E000C4010020002800F0A18038B5044690F802
:1031F0002030D3B12268136843F001031360FFF756
:10320000D7FF054623685A6812F0010F10D1FFF767
:10321000CFFF401B0A28F5D9636A43F40033636289
:10322000052384F82030012038BDFFF747FEE1E791
:103230001A6822F002021A60FFF7BAFF05462368F7
:103240005A6812F0020F0DD0FFF7B2FF401B0A2898
:10325000F5D9636A43F400336362052384F82030B0
:103260000120E1E7227E012A3DD01A6822F0800287
:103270001A60637E012B3BD02268136823F0400361
:103280001360A37E012B39D02268136823F020033A
:103290001360E37E012B37D02268136843F01003DC
:1032A0001360237F012B35D02268136823F00803B5
:1032B0001360637F012B33D02268136823F004036B
:1032C0001360A368E26813432269134362691343DE
:1032D0006268013A21681343CB61002060620123D8
:1032E00084F82030A0E71A6842F080021A60C0E734
:1032F0002268136843F040031360C2E72268136832
:1033000043F020031360C4E72268136823F010031E
:103310001360C6E72268136843F008031360C8E728
:103320002268136843F004031360CAE70120704762
:1033300090F82030013BDBB2012B05D9436A43F4FE
:10334000802343620120704730B5464BD3F80022FA
:1033500042F00102C3F80022D3F8002222F47C528A
:10336000C3F80022D3F80022486A42EA0022C3F8D8
:1033700000224A6902F01F02012000FA02F2D3F88B
:103380001C026FEA020C20EA0200C3F81C02CB699F
:10339000C3B9344BD3F80C020CEA0000C3F80C029A
:1033A0008C884869CD6844EA0544483043F8304089
:1033B0008C68088840EA04404C6904F1480E03EB2D
:1033C000CE035860CB69012B1ED08B69002B33D103
:1033D0002448D0F804320CEA0303C0F804320B6925
:1033E0008BBB2048D0F814320CEA0303C0F8143227
:1033F0000B6A012B2ED01B4AD2F8003223F00103B6
:10340000C2F80032002030BD164BD3F80C02104336
:10341000C3F80C028C8848690D6844EA05444830BA
:1034200043F8304088894C698D6840EA054048344B
:1034300003EBC4035860C8E70A48D0F804321343CA
:10344000C0F80432CBE70748D0F814321343C0F871
:103450001432CDE70349D1F81C321343C1F81C32B2
:10346000C9E700BF0064004070B5044690F82050E2
:10347000EDB2012D06D0436A43F4002343620125D7
:10348000284670BD022380F820300268136823F0BC
:1034900001031360FFF78CFE064623685B6813F098
:1034A000010F0CD0FFF784FE831B0A2BF5D9636A4A
:1034B00043F400336362052384F82030E0E70025FD
:1034C0006562DDE730B590F820C00468A4680CF1AF
:1034D000FF3C5FFA8CFCBCF1010F62D814F0E05F96
:1034E00059D0C4F3016C012404FA0CF41C608B68FD
:1034F000002B3DD10D68CB68046843EA45550CF1BB
:1035000018031B01E55003680C690CF1180E03EB5E
:103510000E135C600B7D012B35D0D17993791B04A0
:1035200043EA0163517943EA012314790168234393
:1035300001EB0C11C1F88C31D17893781B0443EA6C
:103540000163517843EA0123117802680B4302EBCF
:103550000C12C2F8883102680CF1180C4FEA0C1CEE
:1035600052F80C3043F0010342F80C3000201DE00B
:103570004C6843EAC403CC6823430CF118042401CB
:1035800005682B51BFE7036803EB0E13596841F43C
:1035900080715960C1E7436A43F40013436201201C
:1035A00004E0436A43F480234362012030BD90F875
:1035B0002030013BDBB2012B01D9002070470368AA
:1035C000986810F0806000D001209A6812F0006FB7
:1035D00000D001309B6813F0805FEFD0013070475E
:1035E00090F820C00CF1FF3C5FFA8CFCBCF1010F9D
:1035F00000F2A58030B451B90468E46814F0030FF8
:1036000010D1436A43F40013436201207EE0046852
:10361000246914F0030F05D1436A43F40013436295
:10362000012073E0056801F11B0424012C5904F00A
:1036300004049460002C6BD1056801F11B04240183
:103640002C59640D1460046801F11B0C4FEA0C1C2A
:1036500054F80C4004F00204D4600468A444DCF87C
:10366000045015F0080F5BD008241461046801F1C0
:103670001B0C04EB0C146468C4F307249461046805
:1036800004EB0C146468240C5461026802EB011210
:10369000D2F8B8211A70026802EB0112D2F8B821F0
:1036A000C2F307225A70026802EB0112D2F8B82165
:1036B000C2F307429A70026802EB0112D2F8B821F5
:1036C000120EDA70026802EB0112D2F8BC211A71F4
:1036D000026802EB0112D2F8BC21C2F307225A7130
:1036E000026802EB0112D2F8BC21C2F307429A71C0
:1036F000026802EB0112D2F8BC21120EDA71C1B9D4
:103700000268D36843F02003D360002030BC7047C8
:10371000056801F11B0424012C59E408546092E768
:1037200001F11B0504EB0514646804F00F04146137
:103730009CE70268136943F020031361E5E7436ADD
:1037400043F4802343620120704790F82030013B0E
:10375000DBB2012B05D9436A43F480234362012085
:103760007047026853690B435361002070477047EC
:1037700070477047704770472DE9F84F054603685A
:103780005C69D3F804809F68D3F80CA0D3F810903C
:10379000D3F818B014F001063BD017F0010616D08C
:1037A00001229A6017F0020F08D117F0040F0CD114
:1037B00017F0080606D04FF4805608E0FFF73AF9F4
:1037C000002604E0FFF75AF901E04FF4006617F411
:1037D000807F0DD02B684FF480729A6017F4007FC1
:1037E00040F0968017F4806F00F0968046F4005603
:1037F00017F4803F0DD02B684FF480329A6017F495
:10380000003F40F0938017F4802F00F0938046F43F
:10381000004614F0080F07D01AF0100F04D046F439
:1038200000762B681022DA6014F0040F03D01AF02F
:10383000080F40F0898014F0020F05D02B68DB6878
:1038400013F0030F40F0878014F0400F07D019F0F9
:10385000100F04D046F480662B6810221A6114F011
:10386000200F02D019F0080F79D114F0100F04D0F6
:103870002B681B6913F0030F78D114F4003F02D0BA
:1038800018F0100F76D114F4803F02D018F0080F12
:1038900077D114F4004F37D018F0040F31D014F45E
:1038A000807F04D01BF0010F01D046F0010614F414
:1038B000007F04D01BF0020F01D046F0020614F482
:1038C000806F04D01BF0040F01D046F0040614F4FE
:1038D000006F16D01BF0700B13D0BBF1400F66D0F9
:1038E00056D8BBF1200F5CD0BBF1300F5CD0BBF1E0
:1038F000100F01D146F008062A68936923F070037F
:1039000093612B6804225A60002E56D1BDE8F88FCF
:103910002846FFF79BF86BE717F4006F02D046F4D8
:10392000804665E72846FFF7B7F861E72846FFF7C6
:1039300099F86EE717F4002F02D046F4803668E756
:103940002846FFF7B7F864E72B680822DA602846B4
:10395000FFF70DFF6FE72846FFF7C8F874E72B68FD
:1039600008221A612846FFF704FF7EE72846FFF782
:10397000FFFE82E72B6810225A602846FFF7FAFE06
:1039800081E72B6808225A602846FFF7F4FE80E79B
:10399000BBF1500F0ED0BBF1600FADD146F4807675
:1039A000AAE746F01006A7E746F02006A4E746F08F
:1039B0004006A1E746F080069EE76B6A33436B62E0
:1039C0002846FFF785F8A1E7002807DB00F01F0273
:1039D000400901239340024A42F82030704700BF5B
:1039E00000E100E0002808DB0901C9B200F16040F5
:1039F00000F5614080F80013704700F00F000901E6
:103A0000C9B2014B1954704714ED00E000B500F045
:103A10000700C0F1070CBCF1040F28BF4FF0040CE5
:103A2000031D062B0FD9C31E4FF0FF3E0EFA0CF0FC
:103A300021EA000199400EFA03FE22EA0E0241EA51
:103A400002005DF804FB0023EEE70000074AD3689C
:103A500023F4E0631B041B0C000200F4E06003434A
:103A600043F0BF6343F40033D360704700ED00E0E0
:103A700010B50446054BD868C0F30220FFF7C6FF17
:103A800001462046FFF7AEFF10BD00BF00ED00E08D
:103A900008B5FFF799FF08BD0138B0F1807F0BD260
:103AA0004FF0E0235861054AF02182F823100020EE
:103AB000986107221A6170470120704700ED00E00D
:103AC00010B40A490C6924F440740C610C6944F484
:103AD00040740C610C6944F001040C610260BFF396
:103AE0006F8F43605DF8044B704700BF003C02409D
:103AF000074B1A6922F440721A611A6942F4007283
:103B00001A611A6942F001021A610160704700BF30
:103B1000003C0240074B1A6922F440721A611A698C
:103B200042F480721A611A6942F001021A6101803E
:103B3000704700BF003C0240064B1A6922F44072F5
:103B40001A611A691A611A6942F001021A61017058
:103B5000704700BF003C0240204BDB6813F0100FA1
:103B600007D01F4AD36943F01003D3611B4B1022C7
:103B7000DA601A4BDB6813F0200F07D0184AD369BC
:103B800043F00803D361154B2022DA60134BDB6846
:103B900013F0400F07D0124AD36943F00403D361F6
:103BA0000E4B4022DA600D4BDB6813F0800F07D01C
:103BB0000B4AD36943F00203D361084B8022DA60D9
:103BC000064BDB6813F0020F07D0054AD36943F0B8
:103BD0002003D361014B0222DA607047003C0240AF
:103BE000CC010020094B1B69002B01DB0020704732
:103BF000064B074A5A6002F188325A601B69002B53
:103C000001DB002070470120704700BF003C0240EC
:103C100023016745034A136943F000431361002001
:103C2000704700BF003C024038B50446144B0022E8
:103C3000DA61FFF7BDFA0546124BDB6813F4803FEB
:103C40000AD0B4F1FF3FF7D024B1FFF7B1FA401B1F
:103C5000A042F1D903200DE00A4BDB6813F0010FFD
:103C600002D0084B0122DA60064BDB6813F0F20F3A
:103C700001D1002038BDFFF76FFF0120FAE700BF38
:103C8000CC010020003C0240F8B516461B4A127ECB
:103C9000012A30D004460D461F46184B01221A76E1
:103CA0004CF25030FFF7C0FF90B9ACB1012C18D0E6
:103CB000022C1BD032463B462846FFF701FF4CF250
:103CC0005030FFF7B1FF0E4A136923F0010313616F
:103CD0000A4B00221A76F8BDF1B22846FFF72CFFF6
:103CE000EDE7B1B22846FFF715FFE8E73146284671
:103CF000FFF7FEFEE3E70220EDE700BFCC01002066
:103D0000003C0240074B1A6922F440721A611A699A
:103D100042F004021A611A6942EA002242F4803237
:103D20001A617047003C0240012905D0022906D0E3
:103D300039B14FF4407104E04FF4807101E04FF469
:103D400000710B4B1A6922F440721A611A690A4316
:103D50001A611A6922F078021A611A6942EAC000EF
:103D600040F0020018611A6942F480321A6170470B
:103D7000003C0240164B1B6813F4007F10D0144B1C
:103D80001A6822F400721A601A6842F400621A601B
:103D90001A6822F400621A601A6842F400721A600B
:103DA0000B4B1B6813F4806F10D0094B1A6822F478
:103DB00080621A601A6842F480521A601A6822F40B
:103DC00080521A601A6842F480621A60704700BF1D
:103DD000003C0240F8B5224B1B7E012B3ED004462E
:103DE0000E461F4B01221A764CF25030FFF71CFF93
:103DF000074670BB4FF0FF3333602368012B16D0AA
:103E0000A568E368A2681344AB4220D9217C284608
:103E1000FFF78AFF4CF25030FFF706FF114A136993
:103E200023F07A031361074680B90135E9E7616839
:103E3000207CFFF767FF4CF25030FFF7F5FE074696
:103E4000084A136923F00403136100E03560FFF7AB
:103E500091FF034B00221A763846F8BD0227FBE794
:103E6000CC010020003C024000230F2B00F2E9802F
:103E700070B582B065E085684FEA430E032404FA0A
:103E80000EF425EA0405CC6804FA0EF42C43846091
:103E9000446824EA02044A68C2F300129A402243AA
:103EA00042605CE0DC08083450F8242003F0070589
:103EB000AD004FF00F0E0EFA05FE22EA0E0E0A6953
:103EC000AA4042EA0E0240F824205CE0072200E00B
:103ED000002202FA0EF22A4302345A4D45F82420F9
:103EE000594A94686FEA0C0224EA0C054E6816F4ED
:103EF000801F01D04CEA0405534CA560E46802EA37
:103F000004054E6816F4001F01D04CEA04054E4C1F
:103F1000E560646802EA04054E6816F4003F01D0CB
:103F20004CEA0405484C6560246822404D6815F44D
:103F3000803F01D04CEA0402434C226001330F2B36
:103F40007DD801229A400C6804EA020C32EA04048B
:103F5000F4D14C6804F00304013C012C8BD94A686D
:103F600002F00302032A09D0C4685D000322AA40BC
:103F700024EA02048A68AA402243C2604A6802F026
:103F80000302022A8ED004684FEA430E032202FA8B
:103F90000EF224EA02044A6802F0030202FA0EF268
:103FA000224302604A6812F4403FC7D000220192C7
:103FB000264A546C44F480445464526C02F48042A7
:103FC0000192019A9C08A51C1E4A52F8255003F044
:103FD000030E4FEA8E0E0F2202FA0EF225EA0205B8
:103FE0001B4A90423FF474AF02F5806290421AD0AF
:103FF00002F58062904218D002F58062904216D09D
:1040000002F58062904214D002F58062904212D094
:1040100002F58062904210D002F5806290423FF437
:1040200055AF082255E7012253E7022251E7032248
:104030004FE704224DE705224BE7062249E702B08D
:1040400070BD704700380140003C0140003802401C
:104050000000024000230F2B00F28F80F0B52DE00E
:10406000072500E0002505FA0CF5A54269D0046893
:104070005D004FF0030C0CFA05FC24EA0C0404600C
:104080004FEAD30E0EF1080E50F82E4003F007064B
:10409000B6000F25B54024EA050440F82E40C46858
:1040A00024EA0C04C460446824EA02024260826884
:1040B00022EA0C02826001330F2B5DD801229A4064
:1040C00002EA010632EA0104F5D14FEA930E0EF13D
:1040D00002052A4C54F8254003F0030C4FEA8C0CDF
:1040E0000F2505FA0CF73C40254DA842BAD005F53E
:1040F0008065A84219D005F58065A84217D005F55E
:104100008065A84215D005F58065A84213D005F555
:104110008065A84211D005F58065A8420FD005F54D
:104120008065A8429CD008259DE701259BE70225D4
:1041300099E7032597E7042595E7052593E70625E5
:1041400091E7104C256825EA06052560656825EA93
:1041500006056560E56825EA0605E560A56825EAC7
:104160000605A560054E0EF1020456F8245025EA16
:10417000070546F824507AE7F0BD70470038014043
:1041800000000240003C01400369194201D00120B7
:104190007047002070470AB181617047090481614E
:1041A0007047436901EA030221EA030141EA02413F
:1041B00081617047002800F0E08170B582B004464C
:1041C000036813F0010F3BD09F4B9B6803F00C0377
:1041D000042B2CD09C4B9B6803F00C03082B21D0A4
:1041E0006368B3F5803F4FD0B3F5A02F52D0964B04
:1041F0001A6822F480321A601A6822F480221A6047
:104200006368002B50D0FEF7D3FF05468E4B1B682A
:1042100013F4003F14D1FEF7CBFF401B6428F5D9FF
:104220000320B1E1884B5B6813F4800FD8D0864B34
:104230001B6813F4003F03D06368002B00F09F81DC
:10424000236813F0020F54D07F4B9B6813F00C0FC0
:104250003ED07D4B9B6803F00C03082B33D0E36802
:10426000002B68D0794B01221A60FEF7A1FF0546AA
:10427000754B1B6813F0020F54D1FEF799FF401BDA
:104280000228F5D903207FE16F4A136843F4803395
:104290001360B5E76C4B1A6842F480221A601A6802
:1042A00042F480321A60ABE7FEF782FF0546664BA8
:1042B0001B6813F4003FC3D0FEF77AFF401B64284D
:1042C000F5D9032060E1604B5B6813F4800FC6D121
:1042D0005D4B1B6813F0020F03D0E368012B40F025
:1042E0005081594A136823F0F803216943EAC10356
:1042F0001360236813F0080F42D063696BB3534B0C
:104300000122C3F8802EFEF753FF05464E4B5B6F2C
:1043100013F0020F34D1FEF74BFF401B0228F5D9F2
:10432000032031E1484A136823F0F803216943EA86
:10433000C1031360DDE7454B00221A60FEF738FF2A
:104340000546414B1B6813F0020FD2D0FEF730FF39
:10435000401B0228F5D9032016E13C4B0022C3F88C
:10436000802EFEF725FF0546374B5B6F13F0020FDB
:1043700006D0FEF71DFF401B0228F5D9032003E1FC
:10438000236813F0040F77D02F4B1B6C13F0805F62
:1043900033D1002301932C4B1A6C42F080521A64E3
:1043A0001B6C03F080530193019B0125284B1B6874
:1043B00013F4807F23D0A368012B34D0052B38D091
:1043C000214B1A6F22F001021A671A6F22F00402C1
:1043D0001A67A368002B3DD0FEF7EAFE06461A4B8B
:1043E0001B6F13F0020F46D1FEF7E2FE801B41F275
:1043F00088339842F3D90320C6E00025D6E7144A53
:10440000136843F480731360FEF7D2FE0646104B28
:104410001B6813F4807FCED1FEF7CAFE801B0228F2
:10442000F5D90320B0E0084A136F43F00103136786
:10443000CFE7054B1A6F42F004021A671A6F42F079
:1044400001021A67C5E700BF00380240000047427A
:1044500000700040FEF7ACFE0646524B1B6F13F097
:10446000020F08D0FEF7A4FE801B41F28833984269
:10447000F3D9032088E0EDB9A369002B00F0838015
:10448000484A926802F00C02082A51D0022B17D039
:10449000454B00221A66FEF78BFE0446414B1B6813
:1044A00013F0007F42D0FEF783FE001B0228F5D9EF
:1044B000032069E03B4A136C23F080531364DBE76D
:1044C000394B00221A66FEF773FE0546354B1B6812
:1044D00013F0007F06D0FEF76BFE401B0228F5D9D3
:1044E000032051E0E369226A1343626A43EA8213BC
:1044F000A26A5208013A43EA0243E26A43EA0263CB
:10450000284A5360284B01221A66FEF751FE0446E2
:10451000244B1B6813F0007F06D1FEF749FE001BF9
:104520000228F5D903202FE000202DE000202BE009
:10453000012B2BD01B4B5B6803F48001E269914295
:1045400026D103F03F02216A8A4223D1616A47F6ED
:10455000C0721A40B2EB811F1ED103F44031A26A2F
:104560005208013AB1EB024F18D103F07063E26ACE
:10457000B3EB026F14D1002006E001207047012048
:1045800002E0012000E0002002B070BD0120FBE746
:104590000120F9E70120F7E70120F5E70120F3E723
:1045A0000120F1E7003802400000474208B5334BD4
:1045B0009B6803F00C03042B5BD0082B5BD12F4BC3
:1045C0005A6802F03F025B6813F4800F2CD02B4B2B
:1045D0005868C0F388104FEA401CBCEB000C6EEB2F
:1045E0000E0E4FEA8E1343EA9C634FEA8C11B1EB37
:1045F0000C0163EB0E03DB0043EA5173C90011EBBE
:10460000000C43F10003590200234FEA4C2041EA19
:10461000DC51FBF7DDFD194B5B68C3F3014301334C
:104620005B00B0FBF3F008BD144B5868C0F3881072
:104630004FEA401CBCEB000C6EEB0E0E4FEA8E13E3
:1046400043EA9C634FEA8C11B1EB0C0163EB0E0360
:10465000DB0043EA5173C90011EB000C43F1000386
:10466000990200234FEA8C2041EA9C51FBF7B0FDF0
:10467000D1E70348D7E70348D5E700BF0038024039
:1046800000127A000024F400002800F09B8070B52E
:104690000D4604464F4B1B6803F007038B4208D2BC
:1046A000CBB24C4A1370136803F007038B4240F0FF
:1046B0008B80236813F0020F17D013F0040F04D07F
:1046C000454A936843F4E0539360236813F0080F5E
:1046D00004D0414A936843F4604393603E4A936830
:1046E00023F0F003A1680B439360236813F0010FDC
:1046F00032D06368012B21D09A1E012A25D9364A6F
:10470000126812F0020F61D033498A6822F0030266
:1047100013438B60FEF74CFD06462F4B9B6803F05E
:104720000C036268B3EB820F16D0FEF741FD801BCD
:1047300041F288339842F0D9032042E0264A1268B9
:1047400012F4003FE0D101203BE0234A126812F04E
:10475000007FD9D1012034E01E4B1B6803F0070312
:10476000AB4207D9EAB21B4B1A701B6803F0070370
:10477000AB422DD1236813F0040F06D0164A93687C
:1047800023F4E053E1680B439360236813F0080FB0
:1047900007D0114A936823F46043216943EAC103B7
:1047A0009360FFF703FF0C4B9B68C3F303130B4AA3
:1047B000D35CD8400A4B18600A4B1868FEF7ACFC73
:1047C000002070BD012070470120FAE70120F8E7C2
:1047D0000120F6E7003C02400038024080710008EA
:1047E000C0010020C8010020014B1868704700BFBD
:1047F000C001002008B5FFF7F7FF044B9B68C3F327
:104800008223034AD35CD84008BD00BF0038024071
:104810007871000808B5FFF7E7FF044B9B68C3F306
:104820004233034AD35CD84008BD00BF0038024081
:1048300078710008026802F10C0353E8003F23F48A
:1048400090730C3242E800310029F3D1026802F182
:10485000140353E8003F23F00103143242E800310F
:104860000029F3D1036B012B05D0202380F84230BF
:10487000002303637047026802F10C0353E8003F12
:1048800023F010030C3242E800310029F3D1ECE7A9
:1048900010B504460268136923F44053C1680B4302
:1048A0001361836802691A4343691A43C3691A434F
:1048B0000168CB6823F4164323F00C031343CB6049
:1048C0000268536923F4407381690B4353610368A1
:1048D000314A934206D002F58062934202D0FFF73C
:1048E00089FF01E0FFF796FFE369B3F5004F29D098
:1048F0000021031849411B1841F10001C90041EA98
:104900005371DB00181863684FEA83024FEA937310
:1049100041F10001FBF75CFC204AA2FB0031490990
:10492000642303FB11031B013233A2FB03235B0946
:1049300003F0F00202EB011203F00F0321681344AD
:104940008B6010BD0023021843EB0301121841F1E4
:104950000001C90041EA5271D200101841F1000172
:10496000626892185B41FBF733FC0C4AA2FB0031F2
:104970004909642303FB1103DB003233A2FB032349
:104980005B095A0002F4F87202EB011203F007030C
:10499000216813448B60D4E7001001401F85EB5160
:1049A0002DE9F04383B005460E4617469946DDF8DB
:1049B00028802B681C6836EA04040CBF01240024FC
:1049C000BC4228D1B8F1FF3FF3D0FEF7F1FBA0EBDA
:1049D0000900404523D8B8F1000F22D02B68DA68CF
:1049E00012F0040FE5D0802EE3D0402EE1D01A68FB
:1049F00012F0080FDDD0002401941A6801925B6860
:104A00000193019B2846FFF715FF08236B6485F887
:104A10004040012000E0002003B0BDE8F083032007
:104A2000FAE70320F8E760B310B5044690F8413088
:104A300013B3242384F841302268D36823F400534D
:104A4000D3602046FFF724FF2268136923F49043C4
:104A500013612268536923F02A0353612268D368E3
:104A600043F40053D36000206064202384F8413075
:104A700084F84230606310BD80F84030FEF76EFA73
:104A8000D7E701207047B0B110B50446242380F861
:104A900041300268D36823F40053D360FEF7C2FAB2
:104AA0000020606484F8410084F842002063606361
:104AB00084F8400010BD012070472DE9F04182B01C
:104AC0001E4690F84130DBB2202B56D104460D46ED
:104AD0009046002955D00AB901204FE000234364D5
:104AE000212380F84130FEF763FB0746A4F82480B9
:104AF000A4F82680A368B3F5805F02D04FF00008C9
:104B000014E023692BB34FF000080FE0202384F852
:104B10004130032032E038F8023B2268C3F3080337
:104B20005360E28C92B2013A92B2E284E38C9BB27F
:104B300093B100963B46002280212046FFF730FFCC
:104B40000028E3D1002DE6D015F8012B23685A6028
:104B5000E7E7A8460025E9E700963B46002240210A
:104B60002046FFF71DFF18B9202384F8413005E0E7
:104B7000202384F84130032000E0022002B0BDE889
:104B8000F0810120FAE72DE9F04182B01E4690F84D
:104B90004230DBB2202B59D104460D469046002905
:104BA00058D00AB9012052E000234364222280F841
:104BB00042200363FEF7FCFA0746A4F82C80A4F811
:104BC0002E80A368B3F5805F02D04FF000081CE090
:104BD000236913B14FF0000817E0A846002514E040
:104BE000202384F84230032031E023685B68C3F35C
:104BF000080328F8023B03E023685B682B7001354B
:104C0000E28D92B2013A92B2E285E38D9BB2C3B1DA
:104C100000963B46002220212046FFF7C1FE0028D7
:104C2000DED1002DE1D0A368B3F5805FE4D013B9E5
:104C30002369002BE0D023685B6803F07F032B70AF
:104C4000DDE7202384F84230002000E0022002B09B
:104C5000BDE8F0810120FAE7DFF834D0FEF752FA20
:104C60000C480D490D4A002302E0D458C4500433C7
:104C7000C4188C42F9D30A4A0A4C002301E013609D
:104C80000432A242FBD300F039F9FEF75FF8704717
:104C900000000220000000203C020020F07200080A
:104CA0003C020020F8050020FEE700002DE9F0435B
:104CB000344E86460D46284615F8014B375D17F0F1
:104CC0000807F8D12D2C10D12C780127851C33F042
:104CD000100015D1302C0DD1287800F0DF005828B5
:104CE00008D16C78023510230AE02B2C04BF2C78F5
:104CF000851CECE7002BF6D1302C14BF0A230823C7
:104D00004FF0FF380026B8FBF3F803FB08F96FEA11
:104D100009093046A4F1300CBCF1090F10D86446E3
:104D2000A3421EDDB6F1FF3F07D0804516D301D167
:104D3000A14513DB00FB0340012615F8014BE9E711
:104D4000A4F1410CBCF1190F01D8373CE8E7A4F1FC
:104D5000610CBCF1190F04D8573CE1E74FF0FF3666
:104D6000EBE7731C06D12223CEF80030304632B96F
:104D7000BDE8F08307B14042002AF9D006B1691EB0
:104D80001160F5E791710008FFF790BF13460A46DE
:104D9000014602480068FFF789BF00BFEC01002010
:104DA0000CB430B5184B0C1E1D689DB008DA8B236F
:104DB0002B604FF0FF301DB0BDE8304002B07047AF
:104DC0004FF40273ADF814304FF000031B9314BF7F
:104DD00004F1FF332346049307934FF6FF730290C9
:104DE0000690ADF81630209A21AB02A9284601930F
:104DF00000F00CFA431CBCBF8B232B60002CDAD0D4
:104E0000029B00221A70D6E7EC0100200EB470B5A8
:104E10009DB021AC00254FF4017254F8046BADF83D
:104E200014201B9502900690FBF772FB0B4B03902E
:104E300007900B480B934FF6FF73ADF816303246D0
:104E4000234602A900680F951495019400F034FBE5
:104E50001DB0BDE8704003B0704700BF654E00084C
:104E6000EC0100200020704702440346934200D129
:104E7000704703F8011BF9E710B56AB101398418CE
:104E800010F8012B11F8013F9A4203D1A04201D042
:104E9000002AF5D1D01A10BD1046FCE710B5013933
:104EA000034632B111F8014F03F8014B013A002CCF
:104EB000F7D11A440021934200D110BD03F8011B21
:104EC000F9E70A7870B56AB970BD9A4209D10C4603
:104ED000054614F8013F002BF6D015F8016F9E42ED
:104EE000F7D001300378002BEFD11846ECE7000033
:104EF000014B1868704700BFEC01002070B50D4DE4
:104F00000D4C641BA4100026A64209D10B4D0C4C7D
:104F100001F072F8641BA4100026A64205D170BDF2
:104F200055F8043B98470136EEE755F8043B98479F
:104F30000136F2E7E8720008E8720008E87200083B
:104F4000EC720008704770470A44914200F1FF3349
:104F500000D1704710B511F8014B03F8014F914291
:104F6000F9D110BD38B50546002941D051F8043CAF
:104F70000C1F002BB8BFE41800F0E0F81D4A1368BE
:104F800033B9636014602846BDE8384000F0DCB8EF
:104F9000A34208D9206821188B4201BF19685B68B9
:104FA00009182160EDE71A465B680BB1A342FAD9F4
:104FB00011685018A0420BD1206801445018834258
:104FC0001160E0D118685B68536008441060DAE74C
:104FD00002D90C232B60D6E7206821188B4204BF2E
:104FE00019685B68636004BF091821605460CAE7F0
:104FF00038BD00BFF405002070B50F4E0C46316877
:10500000054611B900F036FF30602146284600F011
:1050100031FF431C03D14FF0FF34204670BDC41C48
:1050200024F00304A042F8D0211A284600F022FF01
:105030000130F2D1EFE700BFF00500202DE9F84381
:10504000CD1C25F0030508350C2D38BF0C25002D8F
:10505000064601DBA94204D90C2333600020BDE8D9
:10506000F883DFF8D48000F069F8D8F800301C46E7
:1050700044BB29463046FFF7BFFF431C044658D1C6
:10508000D8F800402746002F43D1002C4BD023688E
:105090003946304604EB030900F0ECFE814542D16D
:1050A00021686D1A29463046FFF7A6FF01303AD035
:1050B00023682B442360D8F800305A6862BBC8F8D4
:1050C00000700FE02268521B20D40B2A17D96119F7
:1050D000A342256018BF5960636808BFC8F8001074
:1050E00062514B60304600F02FF804F10B00231D95
:1050F00020F00700C21A1CBF1B1AA350AFE762685A
:10510000A3420CBFC8F800205A60EBE7234664684E
:10511000AEE73C467F68B6E71A465B68A342FBD120
:1051200000235360DEE70C233360304600F00CF8B8
:1051300094E70560D6E700BFF40500200148FFF7BB
:1051400001BF00BFEC0500200148FFF7FCBE00BF17
:10515000EC0500202DE9F0478E681F46BE420B6823
:1051600082460C4690462DD8B1F90C2012F4906F6F
:1051700026D06569096905EB4505A3EB010905EB37
:10518000D5757B1C4B446D109D4238BF1D465305A1
:1051900027D52946FFF752FF064660B321694A46E4
:1051A000FFF7D2FEA38923F4906343F08003A38129
:1051B000266165614E44A5EB09052660A5603E4663
:1051C000BE4200D93E4620683246414600F037FED6
:1051D000A3689B1BA3602368334423600020BDE8C1
:1051E000F0872A4600F056FE06460028E0D12169E5
:1051F0005046FFF7B7FE0C23CAF80030A38943F0EE
:105200004003A3814FF0FF30E9E700002DE9F04FA4
:1052100098468B891B069DB007460D46144610D54F
:105220000B6973B94021FFF709FF2860286130B985
:105230000C233B604FF0FF301DB0BDE8F08F4023E2
:105240006B610023099320238DF82930CDF80C8061
:105250003023DFF89C818DF82A304FF00109234676
:105260009A4613F8012B0AB1252AF9D1BAEB040B9F
:105270000BD05B46224629463846FFF76BFF0130CC
:1052800000F0A780099A5A4409929AF80030002B3E
:1052900000F09F8000234FF0FF32CDE905230AF193
:1052A000010A049307938DF853301A93544605224C
:1052B00014F8011B4E48FBF733F9049AD8B9D0060D
:1052C00044BF20238DF85330110744BF2B238DF8A2
:1052D00053309AF800302A2B15D0079A54460020F4
:1052E0004FF00A0C214611F8013B303B092B4BD9FA
:1052F000B0B1079214E0A0EB080309FA03F31343DB
:105300000493A246D2E7039B191D1B680391002B4F
:10531000BBBF5B4242F0020207930793B8BF0492FF
:1053200023782E2B0AD163782A2B32D1039B1A1DA6
:105330001B68039243EAE37302340593DFF8C0A0CD
:10534000217803225046FBF7EBF838B1049BA0EB21
:105350000A004022824013430134049314F8011BD5
:1053600024488DF828100622FBF7DAF8002836D0FA
:10537000214B1BBB039B073323F007030833039325
:10538000099B334409936AE70CFB02320C46012067
:10539000A8E700230134059319464FF00A0C204674
:1053A00010F8012B303A092A03D9002BC6D00591F9
:1053B000C4E70CFB012104460123F0E703AB009393
:1053C0002A460E4B04A93846AFF30080421C06461D
:1053D000D6D1AB895B063FF52DAF09982CE703AB1F
:1053E00000932A46054B04A9384600F049FAEDE738
:1053F000917200089B7200080000000055510008DF
:105400009772000838B54B1C144603D14FF0FF3596
:10541000284638BD938923F020039381636B52683B
:10542000CDB28BB1A36B934208DD23685A1E226074
:1054300003F8015C636801336360E9E7214600F02B
:10544000C4FC0028F1D0E1E72169236851B19942F9
:1054500008D213F8011CA94204D1013B0132236098
:105460006260D5E7C4E90F3204F1440363630323A8
:10547000A363234603F8465F23600123DCE710B5EE
:105480000C46496B69B104F14403994201D0FFF71E
:1054900069FD236C63600020606313B1E36B2360DC
:1054A00010BD2369236000236360A38943F02003B8
:1054B000A3814FF0FF30F3E72DE9F04F0C46ADF537
:1054C000237D0021CDE94411A649A0910DF10408E6
:1054D000A549A64FCDF818810646A191009392F8F0
:1054E0000090B9F1000F00F0588117F8093013F05F
:1054F000080302F1010519D06368002B0FDD236852
:105500001A78BA5C120701D42A46E8E7459A0132B4
:10551000459262680133013A62602360ECE7A19B27
:105520002146304698470028E9D0EDE7B9F1250F2C
:1055300040F085804193439353782A2B02BF102378
:10554000951C41930A22AA461AF8011BA1F13003C7
:10555000092B1ED9DFF818B203225846FAF7E0FFEC
:1055600038B1419AA0EB0B000123834013434193D0
:10557000554615F8013B782B06D8572B10D8252B0C
:105580005DD057D8002B75D0032347930A2342934D
:1055900088E0439B02FB0311303943915546D2E723
:1055A000A3F15802202AEFD801A151F822F000BF40
:1055B000835600088955000889550008DD56000803
:1055C0008955000889550008895500088955000843
:1055D000895500088955000889550008F3560008C8
:1055E000D95600083B5600083B5600083B560008B9
:1055F0008955000895560008895500088955000806
:105600008955000889550008035700089D56000871
:105610007B5600088955000889550008FF56000888
:1056200089550008D9560008895500088955000891
:1056300083560008453B022BA6D8052331E063685A
:10564000002B0DDD23681A784A4540F0A68001330F
:1056500062682360459B013A01336260459353E7DA
:10566000A19B2146304698470028EBD0449800285B
:1056700040F08B804FF0FF308BE0419A42F02002E7
:105680004192419A42F40072419210226E2B429252
:1056900002D905E000234293032302E0082342934A
:1056A000042347936368002B39DD419B590604D4DA
:1056B00023681A78BA5C120738D4479B022B47DC60
:1056C0006B46224641A9304600F0F8F9012864D023
:1056D00002287FF419AFC9E70A22D7E729464046D6
:1056E00000F03AFB419B43F0400341930546012300
:1056F000D7E7419B43F0400341930023D1E70223C6
:10570000CFE74198C3063FF5FFAE009B459A191DB0
:1057100000911B68C0074CBF1A801A60F4E6A19B79
:105720002146304698470028BFD09FE7459A01326E
:1057300045926268013A002A626002DD013323600B
:10574000B6E7A19B2146304698470028B0D08DE7A8
:10575000042B0FDC6B46224641A9304600F008FAC4
:10576000B4E700BF055400087F5400089171000899
:10577000977200080A4B002B3FF4C6AE6B462246D8
:1057800041A93046AFF30080A0E7A3895B063FF54F
:1057900071AF0DF5237DBDE8F08F4498F9E700BFA8
:1057A000000000002DE9F047164698468A680B690C
:1057B000DDF820909342B8BF1346336091F8432040
:1057C00007460C460AB1013333602368990642BF8D
:1057D000336802333360256815F0060506D104F1FD
:1057E000190AE36832689B1AAB4226DC94F843300E
:1057F0002268003B18BF012392062BD404F1430218
:1058000041463846C84701301ED02368226903F05C
:105810000603042B02BFE5683368ED1AA3680CBFCA
:1058200025EAE57500259342C4BF9B1AED180026B2
:105830001A34B5421AD1002008E0012352464146ED
:105840003846C847013003D14FF0FF30BDE8F0873C
:105850000135C6E7E1185A1C302081F84300224484
:1058600094F8451082F843100233C7E7012322461B
:1058700041463846C8470130E6D00136D9E7000036
:105880002DE9FF470F7E0C9E782F914680460C46EF
:105890009A4601F1430207D8622F0AD8002F00F080
:1058A000D180582F00F0B88004F1420684F842708D
:1058B0003AE0A7F16303152BF6D801A151F823F0C4
:1058C000195900082D590008A9580008A9580008BE
:1058D000A9580008A95800082D590008A95800081F
:1058E000A9580008A9580008A95800082B5A000810
:1058F00057590008E5590008A9580008A958000898
:105900004D5A0008A958000857590008A95800081E
:10591000A9580008ED59000833681A1D1B68326049
:1059200004F1420684F8423001239CE03368206889
:10593000191D3160060601D51D6803E04506FBD53B
:10594000B3F90050002D03DA2D236D4284F8433063
:1059500058480A2311E021683368080653F8045BAD
:1059600002D4490648BFADB26F2F5248336014BF0E
:105970000A230823002184F843106668A660002EDD
:1059800005DB21682E4321F0040121604BD016462F
:10599000B5FBF3F103FB1157C75D06F8017D2F46F8
:1059A000BB420D46F4D9082B0BD12368DF0708D57D
:1059B000236961689942DEBF302306F8013C06F195
:1059C000FF36921B2261CDF800A04B4603AA214668
:1059D0004046FFF7E7FE01304AD14FF0FF3004B0F8
:1059E000BDE8F087236843F020032360324878271E
:1059F00084F84570236831681F0651F8045B02D4AF
:105A00005F0648BFADB23160D90744BF43F0200301
:105A100023601DB11023ADE72648E9E7236823F092
:105A200020032360F6E71646BDE733682568616901
:105A3000181D30602E061B6801D5196002E068064B
:105A4000FBD51980002323611646BCE733681A1D75
:105A500032601E68626800213046FAF761FD08B1C5
:105A6000801B606063682361002384F84330AAE7E9
:105A70002369324649464046D0470130ADD02368BD
:105A80009B0713D4E068039B9842B8BF1846A6E76B
:105A90000123324649464046D04701309DD001356A
:105AA000E36803995B1AAB42F2DCEBE7002504F1F3
:105AB0001906F5E7A2720008B37200082DE9F84351
:105AC00015468A6880460C4632B98A69002A14BF96
:105AD0004FF0FF3201228A602268DFF89090D106F1
