:020000040800F2
:1000000000000220214C000865300008673000081D
:10001000693000086B3000086D30000800000000F7
:100020000000000000000000000000006F30000829
:1000300071300008000000007330000875300008BF
:10004000714C0008714C0008714C0008714C00089C
:10005000714C0008714C0008714C0008714C00088C
:10006000714C0008714C0008714C0008714C00087C
:10007000714C0008714C0008714C0008714C00086C
:10008000714C0008714C0008714C00087D3000086C
:100090008D3000089D300008714C0008714C00083C
:1000A000714C0008714C0008714C0008714C00083C
:1000B000714C0008714C0008714C0008714C00082C
:1000C000714C0008714C0008714C0008714C00081C
:1000D000714C0008714C0008714C0008714C00080C
:1000E000714C0008714C0008714C0008714C0008FC
:1000F000714C0008714C0008714C0008714C0008EC
:10010000714C0008714C0008714C0008714C0008DB
:10011000714C0008714C0008714C0008714C0008CB
:10012000714C0008714C0008714C0008714C0008BB
:10013000714C0008714C0008714C0008714C0008AB
:10014000714C0008714C0008714C0008714C00089B
:10015000714C0008714C0008714C0008714C00088B
:10016000714C0008714C0008714C0008714C00087B
:10017000714C0008714C0008714C00080000000030
:08018000714C0008714C0008ED
:1001900010B5054C237833B9044B13B10448AFF3C1
:1001A00000800123237010BD5002002000000000D9
:1001B000E45F000808B5034B1BB103490348AFF3E4
:1001C000008008BD0000000054020020E45F000829
:1001D00053B94AB9002908BF00281CBF4FF0FF31AE
:1001E0004FF0FF3000F074B9ADF1080C6DE904CEAA
:1001F00000F006F8DDF804E0DDE9022304B0704702
:100200002DE9F047089D04468E46002B4DD18A42C9
:10021000944669D9B2FA82F252B101FA02F3C2F1FC
:10022000200120FA01F10CFA02FC41EA030E94408D
:100230004FEA1C48210CBEFBF8F61FFA8CF708FBAE
:1002400016E341EA034306FB07F199420AD91CEB86
:10025000030306F1FF3080F01F81994240F21C81B8
:10026000023E63445B1AA4B2B3FBF8F008FB103300
:1002700044EA034400FB07F7A7420AD91CEB040435
:1002800000F1FF3380F00A81A74240F20781644405
:10029000023840EA0640E41B00261DB1D44000238A
:1002A000C5E900433146BDE8F0878B4209D9002DEE
:1002B00000F0EF800026C5E9000130463146BDE878
:1002C000F087B3FA83F6002E4AD18B4202D38242E2
:1002D00000F2F980841A61EB030301209E46002D91
:1002E000E0D0C5E9004EDDE702B9FFDEB2FA82F2E6
:1002F000002A40F09280A1EB0C014FEA1C471FFA44
:100300008CFE0126200CB1FBF7F307FB131140EA2A
:1003100001410EFB03F0884208D91CEB010103F1F7
:10032000FF3802D2884200F2CB804346091AA4B2B9
:10033000B1FBF7F007FB101144EA01440EFB00FE8D
:10034000A64508D91CEB040400F1FF3102D2A645F2
:1003500000F2BB800846A4EB0E0440EA03409CE791
:10036000C6F12007B34022FA07FC4CEA030C20FA3E
:1003700007F401FA06F31C43F9404FEA1C4900FA5E
:1003800006F3B1FBF9F8200C1FFA8CFE09FB1811DB
:1003900040EA014108FB0EF0884202FA06F20BD94E
:1003A0001CEB010108F1FF3A80F08880884240F29E
:1003B0008580A8F102086144091AA4B2B1FBF9F0E2
:1003C00009FB101144EA014100FB0EFE8E4508D9DD
:1003D0001CEB010100F1FF346CD28E456AD9023862
:1003E000614440EA0840A0FB0294A1EB0E01A14247
:1003F000C846A64656D353D05DB1B3EB080261EBB5
:100400000E0101FA07F722FA06F3F1401F43C5E98E
:10041000007100263146BDE8F087C2F12003D840C4
:100420000CFA02FC21FA03F3914001434FEA1C4706
:100430001FFA8CFEB3FBF7F007FB10360B0C43EAF8
:10044000064300FB0EF69E4204FA02F408D91CEBA8
:10045000030300F1FF382FD29E422DD902386344A6
:100460009B1B89B2B3FBF7F607FB163341EA034146
:1004700006FB0EF38B4208D91CEB010106F1FF3895
:1004800016D28B4214D9023E6144C91A46EA00468C
:1004900038E72E46284605E70646E3E61846F8E61E
:1004A0004B45A9D2B9EB020864EB0C0E0138A3E767
:1004B0004646EAE7204694E74046D1E7D0467BE748
:1004C000023B614432E7304609E76444023842E7C0
:1004D000704700BF10F8012B11F8013B012A28BF1B
:1004E0009A42F7D0D01A7047034613F8012B002A1E
:1004F000FBD1181A0138704700000000000000000E
:1005000001F0FF01102A2BDB10F0070F08D010F8C4
:10051000013B013A8B422DD010F0070F42B3F6D1C8
:10052000F0B441EA012141EA014122F007047FF0E1
:1005300000070023F0E80256083C85EA010586EA38
:10054000010685FA47F5A3FA87F586FA47F6A5FA74
:1005500087F68EB9EED1F0BC01F0FF0102F0070280
:1005600032B110F8013B013A83EA010313B1F8D12B
:100570000020704701387047002D06BF354603380C
:10058000073815F0010F07D1013015F4807F02BF45
:10059000013015F4C03F0130F0BC0138704700BF96
:1005A000204B984228D303F58043984226D303F585
:1005B0008043984224D31C4B984223D903F58033BF
:1005C000984221D903F5003398421FD903F500332F
:1005D00098421DD903F5003398421BD903F5003327
:1005E000984219D903F50033984217D903F500331F
:1005F000984215D90B2070470020704701207047A2
:100600000220704703207047042070470520704780
:100610000620704707207047082070470920704760
:100620000A20704700400008FFFF000870B586B040
:10063000002301930293039304930593009329B33A
:1006400005460C46B0F1006F23D3FFF7A9FF06461D
:1006500060190138FFF7A4FF044603F0A9FA00234C
:100660000193022305930396A41B01340494694665
:1006700001A803F099FB20B903F0B2FA002006B0FC
:1006800070BD03F0ADFA4FF0FF30F8E74FF0FF30E8
:10069000F5E74FF0FF30F2E7002942D0F8B5054604
:1006A00017460C46002A3FD003F082FA2F4419E087
:1006B0004FEAC30CFF2000FA0CF022EA0002E15CD2
:1006C00001FA0CF10A430133B342F1D319E00023DC
:1006D0004FF0FF32F8E703F083FA4FF0FF301FE0EE
:1006E00034443D46BD4218D27E1B032EEFD92278FA
:1006F000637842EA0322A37842EA0342E37842EABB
:10070000036200232946022003F0A4FA0028E2D164
:10071000032EE5D904340435E4E703F061FA002040
:10072000F8BD4FF0FF3070474FF0FF30F8E70000A2
:100730000048704710000E0872B6034B1B78DBB2FE
:10074000024A137062B670479103002090030020A4
:1007500000230E4A13600E4A13700E4A13700E4A9D
:1007600013700E4A13700E4A13600E4A13600E4A3D
:1007700013600E4A4FF0FF3111600D4A13700D4A9D
:1007800013800D4A13700D4A137070479C040020AB
:10079000A9040020AA040020A8040020840400204A
:1007A0008C04002088040020A0040020A404002061
:1007B0008004002082040020AB0400206C02002092
:1007C0004840002206E040F30001044B0B4083EA5E
:1007D00050000132072AF6D9704700BF2083B8EDD8
:1007E00010B50121084803F0B5FC04464FF4005150
:1007F000064803F0AFFC012C02D018B9012000E03C
:10080000012010BD0020FCE700000240000802406B
:10081000F0B58BB000240194274B1A6B42F0010213
:100820001A631A6B02F001020192019A02941A6B88
:1008300042F002021A631A6B02F002020292029A5A
:1008400003941A6B42F004021A631A6B02F004025A
:100850000392039A04941A6B42F008021A631B6B0A
:1008600003F008030493049B0594069407940894EA
:1008700009944FF450470597012506950F4E05A999
:10088000304603F0DBFA059506940223079305A989
:100890000B4803F0D3FA4FF40053059306940795E1
:1008A00005A9084803F0CAFA22463946304603F043
:1008B00058FC0BB0F0BD00BF00380240000C0240F5
:1008C000000002400008024008B5054B1860054BC7
:1008D00001221A704FF40041034803F048FC08BDA0
:1008E0009403002098030020000C024072B6164BBF
:1008F0001A78D2B2154B1B78DBB29A4220D070B571
:100900000D46114E3478C4EBC40E8446104B03EBF5
:100910008E0EBEE80F00ACE80F009EE807008CE8E2
:1009200007000C4B03EBC40153F834204B682A60DA
:100930006B60013404F00704347062B6012070BDAE
:1009400062B60020704700BF900300209103002092
:10095000B0020020700200202DE9F041AAB01C78FE
:100960005D789E78DF7893F804C093F805E093F8FB
:100970000680DB790993CDF82080CDF81CE0CDF816
:1009800018C00597049603950294019200910346BE
:100990000A4A80210AA804F0ADF900280ADD7F2860
:1009A00002DD0AA8FFF7A0FD642382B20AA9044869
:1009B00004F067F82AB0BDE8F08100BF08600008C5
:1009C000EC03002008B5134B18601A61124800238D
:1009D0000360436004F078F9104802F0E0FD08B9C4
:1009E000002008BD0E4B0C4A0A490C4802F062FD7B
:1009F00008B10020F5E74FF480510A4803F0B7FB37
:100A00000449054B0A6909680748FFF7A5FF01205B
:100A1000E7E700BFA80300209C030020C4030020D8
:100A2000C0030020000C02405060000828B310B53D
:100A300082B00C46014614B3042C01D900201FE0FB
:100A4000104B1B888DF800301B0A8DF801300023F5
:100A5000CDF8023022460DF1020004F035F9A21C57
:100A6000D2B2694640F22230FFF7ACFF40B1054AEE
:100A7000138801331380012002E0002070472046D4
:100A800002B010BD8204002008B50B4B1B784BB19F
:100A90000A4B1B7833B10A4B1B781BB1094B1978F1
:100AA000042900D008BD0848FFF7C0FF0028F9D08E
:100AB000044B00221A70F5E7A9040020AA040020C4
:100AC000A8040020800400207C04002010B5044607
:100AD000FFF70AFD642382B22146024803F0D1FFEA
:100AE00010BD00BFEC03002010B590B0154B1A6884
:100AF000154B9A4205D1134B5B6813B1134A9342CD
:100B000009D90023124A1360124A13601248FFF7F2
:100B1000DDFF10B010BD0E4C23600A4B9A680D4BE0
:100B20001A600E48FFF7D2FF23680D4A402168463D
:100B300004F0E0F86846FFF7C9FF0A48FFF7C6FF70
:100B4000E7E700BF00000E084F544132F0FF0100FC
:100B5000C0040020BC040020BC60000854600008F1
:100B6000706000088C60000808B5FFF7BDFFFFF754
:100B7000EFFD08BD00B58DB0134B1B782BB9134B9F
:100B80001B7893B90DB05DF804FB72B6104B1B686F
:100B90000D4A0021117062B60E4A3021684604F0F9
:100BA000A9F86846FFF792FFE9E772B6074B002203
:100BB0001A7062B64FF48041074803F0D8FA07482C
:100BC000FFF784FFDEE700BF98030020A4030020A6
:100BD00094030020D4600008000C0240F860000874
:100BE00000B5A5B01BA91DA8FFF780FE18B31D9B7B
:100BF000B3F5497F22D01A4B9DF86C109DF86D20FB
:100C00009DF86E0042EA00229DF86F0042EA004221
:100C10009DF8700042EA006201920091114A602141
:100C200003A804F067F803A8FFF750FF1D9A40F2ED
:100C300025339A4204D025B05DF804FB0A4BDBE76C
:100C40000A48FFF743FF01224FF48041084803F0B0
:100C500088FA084B01221A70FFF77AFDEBE700BF14
:100C60001C61000828610008246100084461000834
:100C7000000C0240AB04002000B583B031238DF896
:100C8000003044238DF801304E238DF80230452387
:100C90008DF803300F4B1B688DF80430C3F3072227
:100CA0008DF80520C3F307428DF806201B0E8DF842
:100CB00007300822694640F22330FFF783FE10B95F
:100CC00003B05DF804FB044B01221A700348FFF7E0
:100CD000FDFEF5E78C040020840400207461000808
:100CE00008B51D4B1B78EBB11C4B1B78D3B11C4BCB
:100CF0001B78BBB11B4B1A681B4B1B689A4211D166
:100D00001A4B197879B91A4B1B68DB43194A1268D8
:100D10009A4211D1184B1B78D3B11848FFF7D6FE71
:100D2000FFF716FD08BD1648FFF780FE0028F9D032
:100D30000E4B00221A70E6E71248FFF7C7FE0122A9
:100D40004FF48041104803F00CFAFFF701FDE9E78A
:100D5000FFF792FFE6E700BFA9040020AA040020E5
:100D6000A8040020A00400208C040020800400209F
:100D7000A40400208804002084040020A46100084A
:100D80007C04002088610008000C024000B583B09C
:100D90000B4A6B4692E8030083E8030008221946D9
:100DA0004FF44870FFF70EFE10B903B05DF804FB76
:100DB000044B01221A700448FFF788FEF5E700BFD4
:100DC000D0610008AA040020C061000800B583B00B
:100DD000174B1B688DF80030C3F307228DF80120F4
:100DE000C3F307428DF802201B0E8DF80330114B20
:100DF0001B688DF80430C3F307228DF80520C3F378
:100E000007428DF806201B0E8DF807300822694630
:100E100040F22130FFF7D6FD10B903B05DF804FBB6
:100E2000054B01221A700548FFF750FEF5E700BF99
:100E30008C04002088040020A8040020DC61000845
:100E400000B59BB0074B1B680093074B1B68074A14
:100E5000602102A803F04EFF02A8FFF737FE1BB087
:100E60005DF804FBBC040020C0040020F061000811
:100E700000B5C3B0144B1B78B3B1144B1B6801937E
:100E8000134B1B680093134B1B68134A4FF480717C
:100E900002A803F02FFF02A8FFF718FE0F4B1B78E4
:100EA00033B943B05DF804FB0D48FFF70FFEF8E7D8
:100EB0000A4B0C4A4FF4807102A803F01BFF02A8F2
:100EC000FFF704FEEDE700BFB4040020AC040020EF
:100ED000B0040020B80400202C620008400000206C
:100EE000186200085462000808B5294A137851783E
:100EF00043EA0123917843EA0143D27843EA02634B
:100F0000244A934236D1224A1379517943EA012384
:100F1000917943EA0143D17943EA01631E490B60A9
:100F2000117A507A41EA0021907A41EA0041D27A5E
:100F300041EA026219490A60013BB3F5802F20D2D1
:100F4000174B01221A700023164A1360164A4FF0FD
:100F5000FF311160154A1360154A1370154A13705A
:100F6000154A1370154A13701548FFF7AFFDFFF7C8
:100F70000DFF08BD1348FFF7A9FD0A4B00221A60B8
:100F8000F7E71148FFF7A2FDFFF7E2FBF1E700BF2B
:100F9000900400204F5441318C040020880400202C
:100FA000A90400209C040020A4040020A004002028
:100FB00080040020AA040020A8040020840400204B
:100FC000A0620008686200088462000830B583B03F
:100FD000054602F0E5F8044606E00A2301220DF179
:100FE0000701054803F0B3FD02F0DAF8001BA84240
:100FF000F3D303B030BD00BF340400202DE9F0412D
:1010000082B080460F46164602F0CAF8B8F1000FCB
:101010002AD00546012F2AD9002402F0C1F8431B2B
:10102000B3421ED20A2301220DF10701114803F039
:101030008EFD0028F1D19DF807300D2BEDD00A2B45
:1010400006D07A1EA242E8D908F804300134E4E759
:10105000002CE2D0002308F80430204602B0BDE89E
:10106000F0814FF0FF30F9E74FF0FF30F6E74FF037
:10107000FF30F3E7340400202DE9F04383B08046CD
:101080000F46164602F08CF8B8F1000F36D0054630
:10109000012F36D9002400E01CBB02F081F8431B6D
:1010A000B34228D20A2301220DF10701164803F0AA
:1010B0004EFD0028F1D19DF807300D2BECD00A2B06
:1010C000EAD07A1EA242E8D904F1010908F80430F6
:1010D000142301220DF107010B4803F0D2FC4C460A
:1010E000DBE7002308F804300848FFF7EFFC204650
:1010F00003B0BDE8F0834FF0FF30F9E74FF0FF3069
:10110000F6E74FF0FF30F3E7EC03002064670008D8
:101110002DE9F0418AB006460D461746984602F082
:101120003FF8044602F03CF8001BA84218D201A97F
:1011300003A8FFF7DBFB0028F4D0039BB342F1D1F7
:1011400037B103AC0FCC0FC794E8070087E807005E
:1011500001AB03CBC8F80000C8F80410012000E080
:1011600000200AB0BDE8F08110B58AB000238DF8E8
:10117000243090B30446FFF7DFFA012209A940F2B8
:101180002630FFF71FFC034610B918460AB010BD01
:101190006B4602AA4FF47A7140F22730FFF7B8FF8E
:1011A00003460028F1D09DF8003023609DF80130FF
:1011B00063609DF80230A3609DF80330E3609DF802
:1011C000043023619DF8053063619DF80630A3610A
:1011D0009DF80730E3610123D7E70023D5E710B579
:1011E0008AB08DF82400C1B30C46FFF7A5FA01229E
:1011F00009A940F22630FFF7E5FB034610B918466F
:101200000AB010BD6B4602AA4FF47A7140F2273043
:10121000FFF77EFF03460028F1D09DF800309DF8CF
:10122000012043EA02239DF8022043EA02439DF88D
:10123000032043EA026323609DF804309DF80520F3
:1012400043EA02239DF8062043EA02439DF8072063
:1012500043EA026363600123D1E70023CFE7F0B5DF
:101260008BB007460D46144601F09AFF064607E08C
:10127000039BB3F5497F24D040F22532934222D01C
:1012800001F08EFF801BB8421FD201A903A8FFF70F
:101290002DFB0028F4D015B19DF804302B70002CE4
:1012A000E6D09DF805309DF8062043EA02239DF81C
:1012B000072043EA02439DF8082043EA02632360C3
:1012C000D6E7012002E0022000E000200BB0F0BDD4
:1012D0002DE9F04F9DB00646894690461F469DF881
:1012E0009C300393DDF8A0A0DDF8A4B0FFF724FA4A
:1012F0000024CDF8A0A0BA46289F0CE0631C009300
:1013000033461D4A602104A803F0F4FC04A8FFF74B
:10131000DDFB0134E4B254452CD242464946304606
:10132000FFF750FB0028F4D05A4639462698FFF7BD
:1013300096FF0546012819D00228DFD187B1BBF1FD
:10134000000F0DD03B78DBF800200192009333466C
:101350000A4A602104A803F0CDFC04A8FFF7B6FBFD
:10136000039B1BB117B13B78012BD2D028461DB08F
:10137000BDE8F08F0025F9E7E4620008BC620008D0
:101380002DE9F04F91B0FFF7D3F90546784B1C6873
:10139000784B1E6800238DF83F300E93764A0AABD7
:1013A00092E8030083E80300002C3CD07348FFF769
:1013B0008DFB734B00221A70002E42D05FFA84FA24
:1013C0008DF820A0C4F307298DF82190C4F30743BA
:1013D00004938DF822304FEA146B8DF823B08DF80A
:1013E0002460C6F307238DF82530C6F307438DF834
:1013F0002630360E8DF827600EAB03930DF13F03B8
:101400000293002301934FF4FA73009303230822FD
:101410000AA94FF44870FFF75BFF012814D0594820
:10142000FFF754FB02E05848FFF750FB11B0BDE84E
:10143000F08FA95DFFF7C4F90136A642F9D3C64380
:10144000BCE74FF0FF30F8E70EAB03930DF13F031D
:1014500002930123019340F6B8330093032308223B
:1014600008A940F22130FFF733FF01283CD10027C3
:10147000B846CDF814A0A04548D2A4EB0806032E28
:1014800036D8F6B28DF830703B0A8DF831304FF017
:10149000000ACDF832A0324605EB08010DF132000A
:1014A00003F012FCB21C0EAB03930DF13F03029349
:1014B000CDF804A04FF4FA7300930323D2B20CA921
:1014C00040F22230FFF704FF012813D0022807D191
:1014D0009DF83F30012B03D10E9B9AB297420DD35A
:1014E0002A48FFF7F3FAA1E72948FFF7EFFA9DE74B
:1014F0000426C7E7B0440137BFB2BCE74FEA820811
:10150000B4EB820F00D2A0461746B4E7DDF814A072
:1015100031238DF8183044238DF819304E238DF87F
:101520001A3045238DF81B308DF81CA08DF81D90C6
:10153000049B8DF81E308DF81FB00EAB03930DF198
:101540003F0302930023019340F2DC5300930323F3
:10155000082206A940F22330FFF7BAFE012803D083
:101560000C48FFF7B3FA61E70B48FFF7AFFA5DE706
:10157000C0040020BC040020D061000828630008DB
:10158000AB040020506300080C630008706300087F
:1015900060630008886300089863000870B584B031
:1015A00006460D4601F0FCFD00230193029396B31D
:1015B00004463046FEF798FF0138062818D9002067
:1015C00027E05A1C03F111010DEB010C1CF80CCCA7
:1015D00010336B4403F80CCC1346062BF1D99DF85D
:1015E0000F308DF80B30314601A803F00CFCA0B988
:1015F00001F0D6FD001BA8420AD2142301220DF1EE
:101600000F01074803F0A3FA0028F1D10023E4E713
:10161000002004B070BD0020FBE70120F9E700BF07
:101620003404002030B5EFB001F0BAFD0446294A79
:1016300068AB07CA03C323F8022B120C1A702648A2
:10164000FFF744FA68A8FEF74FFF4FF4FA7382B22F
:1016500068A9224803F015FA054668BB01F0A0FD11
:10166000001B41F2873398422BD84FF42F72C021D0
:1016700038A8FFF7C3FC0028F0DD38AB184AE0219A
:10168000684603F037FB6846FFF720FA154938A88B
:1016900003F0B9FBD8B9144938A803F0B4FB98B9E2
:1016A000124938A803F0AFFB70B9114938A803F00C
:1016B000AAFB0028D2D007E00E48FFF707FA002562
:1016C00002E00D48FFF702FA28466FB030BD012551
:1016D000FAE700BFC0630008CC63000834040020B0
:1016E000EC630008F8630008086400081864000848
:1016F0002C640008DC63000834640008F0B5ADF524
:10170000197D002857D00E46054603462D4AC021B4
:1017100068A803F0EFFA2B462B4AE021684603F055
:10172000E9FA6846FFF7D2F95020FFF74FFC68A8A6
:10173000FEF7DAFE4FF4FA7382B268A9234803F089
:10174000A0F9074618B901F02BFD841907E02048DD
:10175000FFF7BCF900272FE001F022FD841901F00A
:101760001FFD201A002822DD4FF4AF72C02138A8D7
:10177000FFF744FC0028F2DD38AB164AE02168464A
:1017800003F0B8FA6846FFF7A1F9134938A8FEF745
:10179000A1FEA8B1294638A8FEF79CFE0028DBD0A0
:1017A0000E4938A803F02FFB0028D8D004E00C48DD
:1017B000FFF78CF900E0002738460DF5197DF0BDE4
:1017C0000127F9E750640008586400083404002039
:1017D000DC630008EC630008646400082C64000803
:1017E0006864000870B590B004463048446003F067
:1017F0002EF918B10025284610B070BD05462B48BB
:1018000003F0F5F806460028F5D12346284A402182
:10181000684603F06FFA6846FFF758F9502001F068
:10182000C5FC5020FFF7D2FB002509E04FF4E16131
:101830002048FFF763FF38BB782001F0B7FC013583
:10184000022D31D82820FFF7C1FBC82303221A49F3
:10185000164803F016F90028E8D14FF496611748AE
:10186000FFF79CFE0028E1D04FF496611448FFF783
:1018700045FF2346134A4021684603F03BFA684679
:10188000FFF724F90125B6E74FF496610C48FFF7FE
:1018900035FF23460B4A4021684603F02BFA684681
:1018A000FFF714F90125A6E73546A4E73404002024
:1018B0007C640008B464000858710008646400087F
:1018C000946400089C64000830B595B04FF4E13092
:1018D000FFF788FF18B10125284615B030BD054631
:1018E0001F48FFF7F3F81F4C4FF4E13363602046C5
:1018F00003F0ADF8204603F07AF8782001F056FCAA
:101900007820FFF763FB002403E0962001F04EFCF3
:101910000134042C18D8FA2304221349114803F087
:10192000B0F80028F1D14FF4AF611048FFF736FE50
:101930000028EAD04FF496610D48FFF7DFFE0D480E
:10194000FFF7C4F80125C7E74FF4E1330A4A5021F5
:10195000684603F0CFF96846FFF7B8F8BCE700BF68
:10196000B8640008340400205C7100086464000856
:1019700094640008DC640008FC64000808B54EF6B6
:1019800060210948FFF7BAFE4EF660210748FFF7CD
:10199000B5FE4EF660210648FFF7B0FE41F28831F1
:1019A0000448FFF7ABFE08BD206500082C65000861
:1019B000386500084465000808B541F288311348CD
:1019C000FFF79CFE08B1012008BD1148FFF77EF823
:1019D00041F288310F48FFF791FE4EF660210E4824
:1019E000FFF78CFE4FF4967001F0E0FB4EF660219D
:1019F0000A48FFF783FE4EF660210948FFF77EFE96
:101A00004EF660210148FFF779FEDDE750650008DA
:101A10005C65000884650008206500082C650008E6
:101A20003865000808B541F288311148FFF766FEB5
:101A300008B1012008BD41F288310E48FFF75EFE73
:101A40000028F6D10C48FFF741F841F288310B48E5
:101A5000FFF754FE0028ECD141F288310848FFF727
:101A60004DFE0028E5D10748FFF730F8E1E700BF59
:101A700090650008A4650008BC650008E0650008E2
:101A8000F46500080C66000870B110B50446072222
:101A9000084903F091F948B108220749204603F0AC
:101AA0008BF928B1002010BD002070470120FAE713
:101AB0000120F8E7506600085866000820B370B5AA
:101AC000B2B00C46054601291CD913220F4903F078
:101AD00073F9B8B905F113060D49304603F093F9CF
:101AE00080B1821D01920096831B0A4AC02102A880
:101AF00003F000F9013C224602A9284603F070F9E0
:101B000000232B5532B070BD704700BF64660008DB
:101B10007866000880660008F0B5B7B007460E4644
:101B2000144601F03DFB054601F03AFB401BA04284
:101B30001DD22246C02106A8FFF760FA00230393B6
:101B4000049305939842EFDD05AB009304AB03AA21
:101B5000084906A803F002F90328E5D117B1BDF83A
:101B600010303B800EB1059B3360012000E0002067
:101B700037B0F0BDAC66000870B338B50D4604460A
:101B800061B3194903F03FF950B32046FEF7ACFCAE
:101B9000231800E0013BA3421CD913F8011C134A8F
:101BA0008A5C12F0040FF5D0184600E00138A0421C
:101BB00007D910F801CC0D4A1CF8022012F0040FCE
:101BC000F4D183420ED00A22002103F0A7F9286045
:101BD000012038BD1846EAE7002070470020F8E7EA
:101BE0000020F6E70020F4E7C46600087D710008D5
:101BF0002DE9F043C5B080460D4616461F4601F05C
:101C0000CFFA00230393002E59D000F59C540834DA
:101C1000002F57D02DB94FF00008404645B0BDE821
:101C2000F083009543462A4A402134A803F062F825
:101C300034A8FEF759FC4FF4FA7382B234A9254850
:101C400002F01FFF804600283FD101F0A9FA201AB8
:101C5000002815DD4FF4FA72C02104A8FFF7CEF971
:101C60000028F2DD03A904A8FFF786FF814638B9F2
:101C7000194904A803F0C7F80028E6D0C846CCE705
:101C8000039A002AC9D0AA42C7D841F2883392B237
:101C90003146104802F05BFF0028BED14FF4967227
:101CA000C02104A8FFF7AAF94FF49672C02104A836
:101CB000FFF7A4F9039B3B604FF00108ADE74FF03D
:101CC0000008AAE74FF00008A7E74FF00008A4E7D4
:101CD000D0660008340400202C6400082DE9F0418F
:101CE000C4B00024ADF80E400294002800F09780A4
:101CF0000F4616461D468046002900F09280002BB4
:101D000000F0918022B90024204644B0BDE8F08163
:101D1000FFF7DAFD04460028F6D0444B444A4FF45E
:101D2000807104A802F0E6FF41F2883104A8FFF7B1
:101D3000E5FC04460028E7D0FFF720FE41F2883199
:101D40003C48FFF7DBFCFFF737FE04460028DBD0FA
:101D5000FFF768FE4346384A4FF4807104A802F04A
:101D6000C9FF41F2883104A8FFF7C8FC0446C8B196
:101D700041F288313148FFF7C1FC0446C0B14EF64C
:101D8000602202A90DF10E00FFF7C6FE0446A8B1BD
:101D9000BDF80E30C82B17D1029BABB1B34213D89C
:101DA000002621E041F288312248FFF7A7FCABE78B
:101DB00041F288311F48FFF7A1FCA5E741F28831C5
:101DC0001C48FFF79BFC9FE741F288311948FFF759
:101DD00095FC002498E701ABBA193046FFF708FFDD
:101DE000044668B1019B1E440299B1420ED9891B79
:101DF00000230193B1F5807FEDD94FF48071EAE7BC
:101E000041F288310B48FFF779FC7DE741F28831D8
:101E10000848FFF773FC029B2B60012474E7002441
:101E200072E7002470E700246EE700BF0000002086
:101E3000E866000884650008006700081867000865
:101E40002DE9F043ADF5197D0023ADF85E315693D1
:101E500020B10E4615460746037843B99C48FEF765
:101E600035FE002420460DF5197DBDE8F083FFF70F
:101E70002BFD044600285CD0FFF7D4FB0446002865
:101E80005BD0944B944A4FF4807158A802F032FF13
:101E900041F2883158A8FFF731FC0446002850D0A1
:101EA000FFF76CFD41F288318C48FFF727FCFFF704
:101EB00083FD0446002848D0FFF7B4FD3B46884A1E
:101EC0004FF4807158A802F015FF41F2883158A8EC
:101ED000FFF714FC044600283BD041F288318148CA
:101EE000FFF70CFC044600283CD04EF6602256A9B1
:101EF0000DF5AF70FFF710FE044600283BD0BDF88B
:101F00005E31C82B04D1569A12B177498A423BD927
:101F1000569A0092754A602116A802F0EBFE16A8A8
:101F2000FEF7D4FD41F288316C48FFF7E7FB00244F
:101F300098E76F48FEF7CAFD94E76E48FEF7C6FDC6
:101F400090E76D48FEF7C2FD8CE76C48FEF7BEFDDA
:101F500088E76B48FEF7BAFD41F288315F48FFF72A
:101F6000CDFB7FE76748FEF7B1FD41F288315B4862
:101F7000FFF7C4FB76E76448FEF7A8FD41F288311D
:101F80005648FFF7BBFB6DE74FF400315F48FEF7A3
:101F90004DFB30B94FF0FF37DFF8A0914FF000084C
:101FA0002BE05B48FEF792FD41F288314B48FFF78A
:101FB000A5FB002456E75748FEF788FD41F288311B
:101FC0004648FFF79BFB00244CE75348FEF77EFD95
:101FD00041F288314148FFF791FBF4E716AB195DF8
:101FE0003846FEF7EDFB07460134039BA342F5D8C4
:101FF00099449844C8F30C03CBB15699414522D972
:10200000A1EB0801B1F5807F01D94FF4807103ABDA
:1020100016AA4046FFF7ECFD0028CCD0039A16A97B
:102020004846FEF739FB0028CFD10024DDE7569B58
:1020300000934346394A482104A802F05BFE04A8F5
:10204000FEF744FDD9E70EB1B14223D115B1FB43F0
:10205000AB4229D1324B16931791FF4318974FF09B
:10206000FF331993102216A92848FEF715FB28BB49
:10207000179A2C4B1A60189A2B4B1A6041F2883130
:102080001648FFF73BFB2948FEF720FDFEF7D8FE78
:102090000124E7E62648FEF719FD41F288310F4892
:1020A000FFF72CFB0024DDE62248FEF70FFD41F28E
:1020B00088310A48FFF722FB0024D3E61E48FEF7CA
:1020C00005FD41F288310548FFF718FB0024C9E6F9
:1020D0002867000800000020E86600088465000802
:1020E0000067000818670008F0FF0100E8670008B3
:1020F00038670008506700086867000880670008B4
:1021000098670008B4670008CC67000800000E0854
:102110000C680008386800084C68000878680008F7
:102120004F544132C0040020BC040020F068000875
:1021300090680008AC680008C468000810000E0829
:10214000002800F0D680F0B5ADF20C4D0C461646D6
:102150001D460146002C00F0CE80B4F5806F00F2E1
:10216000CE80002B00F0CD80DDF82034002B00F075
:10217000CA8001AF2246384602F0A6FD00233B5537
:102180006249384602F03FFE044660B15EB12178F4
:1021900029B13A2903D03D2901D00134F7E73A2982
:1021A0000FD03D290DD05A4901A802F02CFE04465B
:1021B00070B1227872B13A2A0CD03D2A0AD001348B
:1021C000F7E700221146601C02F0A8FE3060EAE743
:1021D000002404E03A2A10D03D2A0ED000244D49B4
:1021E00001A802F010FE034678B11A787AB13A2AB3
:1021F0000DD03D2A0BD00133F7E700221146601CB9
:1022000002F08CFE28600124E9E7002515E03A2A57
:1022100003D03D2A01D000250FE0581C00E001301A
:102220000378202BFBD0222BF9D00022114602F09C
:1022300075FEDDF8203418600125374901A802F049
:10224000E2FD014600283CD0DDF82434002B47D0C5
:10225000DDF82834072B02D8002333E001310B7856
:102260001BB13A2B01D03D2BF8D13A2B03D03D2B9B
:1022700001D0002326E0013100E001310B78202B52
:10228000FBD0222BF9D00A4600E0013213782BB1A3
:10229000222B03D00D2B01D00A2BF6D1914221D253
:1022A000561ADDF82834B34200D85E1E3246DDF8F7
:1022B000240402F009FD0023DDF8242493550123B2
:1022C00000E00023DDF8242432B1DDF828241AB11F
:1022D00013B9DDF82424137034B145B9002004E0AB
:1022E0000023EFE70023EDE70020C0B204E0012067
:1022F000FBE70020704700200DF20C4DF0BD0020E0
:10230000FAE70020F8E70020F6E700BF14690008AC
:102310001C690008246900082869000810B5ADF59B
:102320009C6D002137913691359134910491BC22F6
:1023300005A802F0D7FC37AB4FF4806238A91C48DF
:10234000FFF7CCFC38B903461A4A00211170184631
:102350000DF59C6D10BDC023029304AB019334AB0B
:10236000009335AB36AA379938A8FFF7E9FE034644
:1023700078B1369A104B1A60359A104B1A60349A1D
:102380000F4B1A609DF810303BB90123094A1370B6
:10239000DDE7084A00211170D9E70A4CBF2204A9E1
:1023A000204602F01DFD002384F8BF30EDE700BF9A
:1023B00000010020B4040020B8040020B004002074
:1023C000AC0400204000002010B5CAB06948FFF7F7
:1023D0005BFBA0B1684CC0212046FFF76FFBC0211A
:1023E0006448FFF76BFB08226449204602F0E4FCD6
:1023F00090B1FFF793FF00285BD1012412E05D4C00
:10240000BF225F49204602F0EBFC002384F8BF3076
:102410005C48FEF75BFBDDE700245B4B1C705B4810
:10242000FEF754FB002C47D106A8FEF79DFE04469C
:10243000002845D0079B089A01920093069B544AB6
:10244000F0210EA802F056FC0EA8FEF73FFB069BFB
:10245000002B40D0012B39D14E49464CBF2220469B
:1024600002F0BEFC002384F8BF3023464A4AF02124
:102470000EA802F03FFC0EA8FEF728FB424B1B788B
:10248000002B2AD1404A12780AB1002B66D03E4B6D
:102490001B78002B66D0414A1168002B64D0404B5A
:1024A0001A683448FFF7CCFC044600285ED00124AB
:1024B00009E0FEF7DDFCB7E73A48FEF707FBB3E7B4
:1024C0003948FEF703FB20464AB010BD3748FEF7F7
:1024D000FDFA0024F7E72A49BFE704A90120FEF727
:1024E0007EFE03460028CDD002A90220FEF777FE2B
:1024F00003460028C6D0049A284B1B689A420FD086
:10250000029A93421FD0069B33BB4223284AF021F4
:102510000EA802F0EFFB0EA8FEF7D8FA0123B1E7F0
:1025200005991F4A12689142EAD10123012B11D06B
:102530004223204AF0210EA802F0DCFB0EA8FEF791
:10254000C5FA0224BFE7039A154B1B689A42DAD1F9
:102550000223EBE74123ECE74123D7E71648FEF7D8
:10256000B5FA94E7002198E700229AE71348FEF7AE
:10257000ADFAA8E7400000200001002058660008DE
:102580002C690008C0690008B4040020F069000844
:102590008C6A000878690008DC6A0008B004002032
:1025A000AC040020346A0008686A0008C06A0008A9
:1025B000506B00080C6B00088C6B0008CC6B00089B
:1025C0002DE9F043F7B0AA4B1B7813B1A94A127852
:1025D0009AB113B1A84A127892B11BB1A74B1B78DC
:1025E000042B07D0142301220DF2D711A44802F0C6
:1025F000AEFA40B177B0BDE8F083FEF7C7FBF9E76C
:10260000FEF7E4FBF6E79DF8D7319E4A20216DA83E
:1026100002F070FB6DA8FEF759FA9DF8D721A2F1E0
:102620006103DBB2192B02D8203A8DF8D721904BE9
:102630001B78002B40F0BD819DF8D731552B1FD062
:10264000532B00F0A380512B00F0B780522B00F0E9
:10265000B980572B00F0D580542B00F055814D2BBD
:1026600000F08981472B00F09081874801684A1C5F
:102670000260864843540B2ABCD9FEF735FCB9E703
:102680004FF47A73042269467D4802F060FA00280C
:10269000B0D19DF800809DF8013048EA03289DF8EC
:1026A000023048EA03489DF8033048EA036808F11D
:1026B000FF32774B9A4211D87648FEF707FA4FF46B
:1026C00000317548FDF7B2FF60B97448FEF7FEF9B6
:1026D00047464FF0FF35DFF82C921DE07048FEF7BB
:1026E000F5F987E76F48FEF7F1F983E76E48FEF7E3
:1026F000EDF97FE76D48FEF7E9F97BE731AB195D4E
:102700002846FEF75DF805460134B442F6D3684822
:10271000FEF7DCF9B144BF1BAFB13E46802F28BFA6
:10272000802641F28833B2B231A9554802F00FFA3F
:102730000028DBD1324631A94846FDF7ADFF00281D
:10274000D8D10024E1E75B4B0193CDF80880ED433D
:1027500003954FF0FF330493102201A94E48FDF773
:102760009BFF18B15448FEF7B1F943E7534BC3F848
:102770000080039A524B1A605248FEF7A7F952485C
:10278000FEF7A4F95148FEF7A1F933E7504B0122B7
:102790001A70FFF719FE012805D0022809D04D480C
:1027A000FEF794F926E74C48FEF790F9FEF7E8FDAE
:1027B00020E74A48FEF78AF91CE7FEF795F9FEF78D
:1027C0003FFB17E700F0ECFC05464548FEF77EF9B5
:1027D000FFF77AF8044600F0E3FC431B44B1414A9A
:1027E000402131A802F086FA31A8FEF76FF901E71F
:1027F0003D4A502131A802F07DFA31A8FEF766F972
:10280000F8E63A48FEF762F947F23052C02101A8D3
:10281000FEF732FC00281EDD01A8FFF735F9B0B144
:10282000334CBF2201A9204602F0DAFA002384F8D3
:10283000BF30C0212046FFF741F923462D4AF02141
:1028400031A802F057FA31A8FEF740F9D2E62A483B
:10285000FEF73CF9CEE62948FEF738F9244B284A22
:10286000F02131A802F046FA31A8FEF72FF9C1E6AF
:10287000A9040020AA040020A8040020800400204D
:10288000EC030020F06B00089C0400209004002062
:10289000EFFF01002C6C000800000E08846C00089B
:1028A000046C0008606C00088C6C0008B86C0008B0
:1028B000DC6C00084F544132E06C0008C00400207A
:1028C000BC040020046D00081C6D0008286D000881
:1028D0006C020020C86D00085C6D00088C6D00085B
:1028E000F46D00080C6E0008286E00084C6E00089D
:1028F00040000020706E00088C6E0008BC6E00085E
:10290000D06E000810000E083648FEF7DFF847F2D8
:102910003052C02101A8FEF7AFFB00281EDD01A840
:10292000FFF7B2F8B0B1304CBF2201A9204602F047
:1029300057FA002384F8BF30C0212046FFF7BEF8C5
:1029400023462A4AF02131A802F0D4F931A8FEF733
:10295000BDF84FE62648FEF7B9F84BE62548FEF7E6
:10296000B5F8214B244AF02131A802F0C3F931A86F
:10297000FEF7ACF83EE6FFF7D1FC10B1FEF778FAAF
:1029800038E61E48FEF7A2F834E6FFF71DFD0128E1
:1029900005D0022809D01A48FEF798F82AE6194807
:1029A000FEF794F8FEF7ECFC24E61748FEF78EF8E5
:1029B00020E6164B1C68164B1B689C42BFF41AAEEF
:1029C0009DF8D751134E29463068FDF7F9FE306067
:1029D000114A1378591C1170104AD55401340B4B0D
:1029E0001C6007E6F06E000800010020146F00086C
:1029F000306F0008606F0008806F0008A06F00084B
:102A0000C86D00085C6D00088C6D0008A0040020F3
:102A10008C040020A4040020800400207C040020FA
:102A200008B50268034B9A4200D008BD0020FDF7AC
:102A30004BFFFAE70064004008B50268034B9A4276
:102A400000D008BD0120FDF73FFFFAE70064004019
:102A500008B50268034B9A4200D008BD0220FDF77A
:102A600033FFFAE7006400400268044B9A4200D04A
:102A70007047034B01221A70FAE700BF0064004060
:102A8000A40300200268044B9A4200D07047034B15
:102A900001221A70FAE700BF00640040A40300207E
:102AA0000268044B9A4200D07047034B01221A700F
:102AB000FAE700BF00640040A40300200268044B52
:102AC0009A4200D07047034B01221A70FAE700BF08
:102AD00000640040A40300200268234B9A4200D007
:102AE000704730B58BB001AB03AA002100F070FD38
:102AF00088BB039BA3F54972012A03D940F2273210
:102B0000934228D1194B1C78E5B2013404F0070434
:102B1000174B1B78DBB2A3421FD0C5EBC50C154B7E
:102B200003EB8C0C0DF10C0EBEE80F00ACE80F00AF
:102B30009EE807008CE807000F4B03EBC50301AAD2
:102B400092E8030083E80300084B1C704FF4004137
:102B50000A4801F00CFB0BB030BD054A1378013375
:102B600003F007031370D8E70064004091030020CE
:102B700090030020B002002070020020000C0240F0
:102B800072B6FEE708B50D480D4B03600A2343609B
:102B900000238360C3604FF4702202614FF400127F
:102BA00042610376012242768376C27603774377C9
:102BB00000F010FB00B908BDFFF7E2FFC4030020DE
:102BC0000064004008B50A480A4B03604FF4E13343
:102BD000436000238360C36003610C224261836110
:102BE000C36101F004FF00B908BDFFF7C9FF00BFD2
:102BF000EC0300200044004008B50A480A4B03607B
:102C00004FF4E133436000238360C36003610C220F
:102C100042618361C36101F0EAFE00B908BDFFF7BC
:102C2000AFFF00BF340400200048004000B58BB067
:102C300028220021684602F055F8012307930893E3
:102C40000E2309936946114800F06AFBB8B90F4892
:102C500000F002FCA8B948F203410C4800F06DFDF9
:102C600088B90B4B40F227121A6000225A609A6012
:102C7000DA60082119611A750BB05DF804FBFFF7E3
:102C80007FFFFFF77DFFFFF77BFF00BFC40300203E
:102C9000A803002000B595B03022002108A802F05A
:102CA00021F800230393049305930693079301935C
:102CB0001F4A116C41F080511164126C02F0805275
:102CC0000192019A02931B4A116841F480411160FC
:102CD000126802F480420292029A022208920121B2
:102CE0000B9110210C910E920F93082310936423E3
:102CF000119312920723139308A801F041FA98B98F
:102D00000F23039302230493002305934FF4A0534E
:102D100006934FF480530793032103A801F096FC18
:102D200020B915B05DF804FBFFF72AFFFFF728FF75
:102D3000003802400070004010B594B000F00AFA6C
:102D4000FFF7A8FFFDF764FDFFF71CFFFFF73AFF51
:102D5000FFF752FFFFF76AFF3348FDF7B7FE33482E
:102D6000FDF7B4FE3248FDF7B1FE3248FDF7AEFE86
:102D70003148FDF7ABFE3148FDF7A8FE3048FDF7BE
:102D8000A5FE3048FDF7A2FE2F48FDF79FFEFDF798
:102D9000EBFE0EE02D48FDF799FEFEF7F1FA3EE05E
:102DA0002B48FDF793FE3AE0012414B9294B002289
:102DB0001A70FDF7DFFEFDF713FFFDF765FEFDF767
:102DC0008FFFFFF7FDFB244B1C78002CF1D1FDF7A2
:102DD00007FD0028E9D01F4B1B78002BE4D101210F
:102DE0001E4801F0B7F904464FF400511C4801F0A9
:102DF000B1F9009023461B4A482102A801F07AFF4E
:102E000002A8FDF763FE134B01221A70FFF7DCFAEC
:102E10000128BFD00228C3D01348FDF757FE3C203D
:102E200000F0C4F9C5E700BFB86F0008D06F000814
:102E3000F06F0008107000085070000888700008DB
:102E4000B4700008D8700008FC7000085C6D0008C1
:102E50008C6D00086C020020A904002000000240D4
:102E60000008024034710008C86D000800B583B046
:102E7000002100910C4B5A6C42F480425A645A6C07
:102E800002F480420092009A01911A6C42F0805242
:102E90001A641B6C03F080530193019B072000F020
:102EA00089FD03B05DF804FB0038024010B588B01E
:102EB0000023039304930593069307930268214B21
:102EC0009A4201D008B010BD0024019403F5EA3302
:102ED0001A6C42F000721A641A6C02F000720192CD
:102EE000019A02941A6B42F002021A631B6B03F000
:102EF00002030293029B4FF4407303930223049353
:102F0000032306930923079303A90F4800F096FFB4
:102F100022462146132000F05FFD132000F094FDAF
:102F200022462146142000F057FD142000F08CFDAD
:102F300022462146152000F04FFD152000F084FDAB
:102F4000C0E700BF006400400004024000B58BB041
:102F50000023059306930793089309930368284A6F
:102F6000934205D0274A934225D00BB05DF804FB6D
:102F700000210191244B1A6C42F400321A641A6C3D
:102F800002F400320192019A02911A6B42F001029E
:102F90001A631B6B03F001030293029B0C2305933E
:102FA00002230693032308930723099305A91748CF
:102FB00000F044FFD9E700210391134B1A6C42F44F
:102FC00080221A641A6C02F480220392039A0491FC
:102FD0001A6B42F002021A631B6B03F002030493A4
:102FE000049B4FF440630593022306930323089345
:102FF0000723099305A9064800F020FFB5E700BFA5
:1030000000440040004800400038024000000240F8
:103010000004024008B503680E4A934203D00E4AEA
:1030200093420BD008BD02F5FA32136C23F400333F
:1030300013640C21094800F0F3FFF3E702F5F832BE
:10304000136C23F4802313644FF44061044800F0B0
:10305000E7FFE7E70044004000480040000002406E
:1030600000040240FEE7FEE7FEE7FEE7FEE77047EA
:103070007047704708B500F087F808BD08B50248EA
:1030800000F072FB08BD00BFC403002008B5024871
:1030900000F06AFB08BD00BFC403002008B5024869
:1030A00000F062FB08BD00BFC403002010B503465A
:1030B0000C4A0D490D48006840B10C4800680344B3
:1030C000521A934206D8094A136010BD0748084CAB
:1030D0000460F2E701F0CEFD0C2303604FF0FF30F7
:1030E000F3E700BF0000022000040000C404002039
:1030F000E0040020034AD2F8883043F47003C2F899
:103100008830704700ED00E010B504460E4B18788B
:103110004FF47A73B3FBF0F30C4A1068B0FBF3F092
:1031200000F0A0FC68B90F2C01D901200AE00022B0
:1031300021464FF0FF3000F04FFC054B1C60002093
:1031400000E0012010BD00BFC4010020C00100202C
:10315000C801002008B50B4B1A6842F400721A60CF
:103160001A6842F480621A601A6842F480721A6027
:10317000032000F01FFC0020FFF7C6FFFFF776FEDC
:10318000002008BD003C0240034A1168034B1B7835
:103190000B441360704700BFC8040020C401002026
:1031A000014B1868704700BFC804002038B50446BA
:1031B000FFF7F6FF0546B4F1FF3F02D0044B1B7842
:1031C0001C44FFF7EDFF401BA042FAD338BD00BFFF
:1031D000C4010020002800F0A18038B5044690F812
:1031E0002030D3B12268136843F001031360FFF766
:1031F000D7FF054623685A6812F0010F10D1FFF778
:10320000CFFF401B0A28F5D9636A43F40033636299
:10321000052384F82030012038BDFFF747FEE1E7A1
:103220001A6822F002021A60FFF7BAFF0546236807
:103230005A6812F0020F0DD0FFF7B2FF401B0A28A8
:10324000F5D9636A43F400336362052384F82030C0
:103250000120E1E7227E012A3DD01A6822F0800297
:103260001A60637E012B3BD02268136823F0400371
:103270001360A37E012B39D02268136823F020034A
:103280001360E37E012B37D02268136843F01003EC
:103290001360237F012B35D02268136823F00803C5
:1032A0001360637F012B33D02268136823F004037B
:1032B0001360A368E26813432269134362691343EE
:1032C0006268013A21681343CB61002060620123E8
:1032D00084F82030A0E71A6842F080021A60C0E744
:1032E0002268136843F040031360C2E72268136842
:1032F00043F020031360C4E72268136823F010032F
:103300001360C6E72268136843F008031360C8E738
:103310002268136843F004031360CAE70120704772
:1033200090F82030013BDBB2012B05D9436A43F40E
:10333000802343620120704730B5464BD3F800220A
:1033400042F00102C3F80022D3F8002222F47C529A
:10335000C3F80022D3F80022486A42EA0022C3F8E8
:1033600000224A6902F01F02012000FA02F2D3F89B
:103370001C026FEA020C20EA0200C3F81C02CB69AF
:10338000C3B9344BD3F80C020CEA0000C3F80C02AA
:103390008C884869CD6844EA0544483043F8304099
:1033A0008C68088840EA04404C6904F1480E03EB3D
:1033B000CE035860CB69012B1ED08B69002B33D113
:1033C0002448D0F804320CEA0303C0F804320B6935
:1033D0008BBB2048D0F814320CEA0303C0F8143237
:1033E0000B6A012B2ED01B4AD2F8003223F00103C6
:1033F000C2F80032002030BD164BD3F80C02104347
:10340000C3F80C028C8848690D6844EA05444830CA
:1034100043F8304088894C698D6840EA054048345B
:1034200003EBC4035860C8E70A48D0F804321343DA
:10343000C0F80432CBE70748D0F814321343C0F881
:103440001432CDE70349D1F81C321A43C1F81C22CB
:10345000C9E700BF0064004070B5044690F82050F2
:10346000EDB2012D06D0436A43F4002343620125E7
:10347000284670BD022380F820300268136823F0CC
:1034800001031360FFF78CFE064623685B6813F0A8
:10349000010F0CD0FFF784FE831B0A2BF5D9636A5A
:1034A00043F400336362052384F82030E0E700250D
:1034B0006562DDE730B590F820C00468A4680CF1BF
:1034C000FF3C5FFA8CFCBCF1010F62D814F0E05FA6
:1034D00059D0C4F3016C012404FA0CF41C608B680D
:1034E000002B3DD10D68CB68046843EA45550CF1CB
:1034F00018031B01E55003680C690CF1180E03EB6F
:103500000E135C600B7D012B35D0D17993791B04B0
:1035100043EA0163517943EA0123147901682343A3
:1035200001EB0C11C1F88C31D17893781B0443EA7C
:103530000163517843EA0123117802680B4302EBDF
:103540000C12C2F8883102680CF1180C4FEA0C1CFE
:1035500052F80C3043F0010342F80C3000201DE01B
:103560004C6843EAC403CC6823430CF118042401DB
:1035700005682B51BFE7036803EB0E13596841F44C
:1035800080715960C1E7436A43F40013436201202C
:1035900004E0436A43F480234362012030BD90F885
:1035A0002030013BDBB2012B01D9002070470368BA
:1035B000986810F0806000D001209A6812F0006FC7
:1035C00000D001309B6813F0805FEFD0013070476E
:1035D00090F820C00CF1FF3C5FFA8CFCBCF1010FAD
:1035E00000F2A58030B451B90468E46814F0030F08
:1035F00010D1436A43F40013436201207EE0046863
:10360000246914F0030F05D1436A43F400134362A5
:10361000012073E0056801F11B0424012C5904F01A
:1036200004049460002C6BD1056801F11B04240193
:103630002C59640D1460046801F11B0C4FEA0C1C3A
:1036400054F80C4004F00204D4600468A444DCF88C
:10365000045015F0080F5BD008241461056801F1CF
:103660001B0C05EB0C156D68C5F307259561046807
:1036700004EB0C146468240C5461026802EB011220
:10368000D2F8B8211A70026802EB0112D2F8B82100
:10369000C2F307225A70026802EB0112D2F8B82175
:1036A000C2F307429A70026802EB0112D2F8B82105
:1036B000120EDA70026802EB0112D2F8BC211A7104
:1036C000026802EB0112D2F8BC21C2F307225A7140
:1036D000026802EB0112D2F8BC21C2F307429A71D0
:1036E000026802EB0112D2F8BC21120EDA71C1B9E4
:1036F0000268D36843F02003D360002030BC7047D9
:10370000056801F11B0424012C59E408546092E778
:1037100001F11B0504EB0514646804F00F04146147
:103720009CE70268136943F020031361E5E7436AED
:1037300043F4802343620120704790F82030013B1E
:10374000DBB2012B05D9436A43F480234362012095
:1037500070470268536919435161002070477047F0
:1037600070477047704770472DE9F84F054603686A
:103770005C69D3F804809F68D3F80CB0D3F810A02C
:10378000D3F8189014F001063BD017F0010616D0BC
:1037900001229A6017F0020F08D117F0040F0CD124
:1037A00017F0080606D04FF4805608E0FFF738F906
:1037B000002604E0FFF758F901E04FF4006617F423
:1037C000807F0DD02B684FF480729A6017F4007FD1
:1037D00040F0868017F4806F00F0868046F4005633
:1037E00017F4803F0DD02B684FF480329A6017F4A5
:1037F000003F40F0838017F4802F00F0838046F470
:10380000004614F0080F07D01BF0100F04D046F448
:1038100000762B681022DA6014F0040F02D01BF03F
:10382000080F79D114F0020F04D02B68DB6813F075
:10383000030F78D114F0400F07D01AF0100F04D006
:1038400046F480662B6810221A6114F0200F02D013
:103850001AF0080F6BD114F0100F04D02B681B69FD
:1038600013F0030F6AD114F4003F02D018F0100FC8
:1038700068D114F4803F02D018F0080F69D114F415
:10388000004F7AD018F0040F74D014F4807F04D065
:1038900019F0010F01D046F0010614F4007F04D0A6
:1038A00019F0020F01D046F0020614F4806F04D024
:1038B00019F0040F01D046F0040614F4006F59D03B
:1038C00019F0700956D0B9F1400F65D058D8B9F148
:1038D000200F5ED0B9F1300F42D146F0200644E00F
:1038E0002846FFF7A9F87BE717F4006F02D046F4EB
:1038F000804675E72846FFF7C5F871E72846FFF7C9
:10390000A7F87EE717F4002F02D046F4803678E758
:103910002846FFF7C5F874E72B680822DA602846C6
:10392000FFF71DFF7EE72846FFF7D6F882E72B68F2
:1039300008221A612846FFF714FF8CE72846FFF794
:103940000FFF90E72B6810225A602846FFF70AFF06
:103950008FE72B6808225A602846FFF704FF8EE79E
:10396000B9F1100F01D146F008062A68936923F0D7
:10397000700393612B6804225A609EB9BDE8F88FEA
:10398000B9F1500F0BD0B9F1600FEED146F480764B
:10399000EBE746F01006E8E746F04006E5E746F0BC
:1039A0008006E2E76B6A1E436E622846FFF786F8E0
:1039B000E4E70000074AD36823F4E0631B041B0C10
:1039C000000200F4E060034343F0BF6343F40033BC
:1039D000D360704700ED00E000B5194BDB68C3F31E
:1039E0000223C3F1070CBCF1040F28BF4FF0040CF5
:1039F00003F1040EBEF1060F18D9033B4FF0FF3E52
:103A00000EFA0CFC21EA0C0199400EFA03F322EAAB
:103A10000303194300280BDB0901C9B200F1604020
:103A200000F5614080F800135DF804FB0023E5E732
:103A300000F00F000901C9B2024B1954F4E700BFAE
:103A400000ED00E014ED00E0002807DB00F01F02AD
:103A5000400901239340024A42F82030704700BFDA
:103A600000E100E00138B0F1807F0BD24FF0E0239D
:103A70005861054AF02182F823100020986107223E
:103A80001A6170470120704700ED00E010B40A4948
:103A90000C6924F440740C610C6944F440740C61AA
:103AA0000C6944F001040C610260BFF36F8F436046
:103AB0005DF8044B704700BF003C0240074B1A6999
:103AC00022F440721A611A6942F400721A611A698A
:103AD00042F001021A610160704700BF003C0240E1
:103AE000074B1A6922F440721A611A6942F4807213
:103AF0001A611A6942F001021A610180704700BF21
:103B0000003C0240064B1A6922F440721A611A699D
:103B10001A611A6942F001021A610170704700BF10
:103B2000003C0240204BDB6813F0100F07D01F4A07
:103B3000D36943F01003D3611B4B1022DA601A4B98
:103B4000DB6813F0200F07D0184AD36943F008034D
:103B5000D361154B2022DA60134BDB6813F0400F62
:103B600007D0124AD36943F00403D3610E4B4022BD
:103B7000DA600D4BDB6813F0800F07D00B4AD36976
:103B800043F00203D361084B8022DA60064BDB6806
:103B900013F0020F07D0054AD36943F02003D36125
:103BA000014B0222DA607047003C0240CC01002049
:103BB000094B1B69002B01DB00207047064B074AAD
:103BC0005A6002F188325A601B69002B01DB002029
:103BD00070470120704700BF003C02402301674549
:103BE000034A136943F0004313610020704700BF8C
:103BF000003C024038B50446144B0022DA61FFF75E
:103C0000CFFA0546124BDB6813F4803F0AD0B4F1BB
:103C1000FF3FF7D024B1FFF7C3FA401BA042F1D910
:103C200003200DE00A4BDB6813F0010F02D0084BB4
:103C30000122DA60064BDB6813F0F20F01D100209D
:103C400038BDFFF76FFF0120FAE700BFCC0100206D
:103C5000003C0240F8B516461B4A127E012A30D0BD
:103C600004460D461F46184B01221A764CF250307E
:103C7000FFF7C0FF90B9ACB1012C18D0022C1BD0BB
:103C800032463B462846FFF701FF4CF25030FFF723
:103C9000B1FF0E4A136923F0010313610A4B00229E
:103CA0001A76F8BDF1B22846FFF72CFFEDE7B1B266
:103CB0002846FFF715FFE8E731462846FFF7FEFEE6
:103CC000E3E70220EDE700BFCC010020003C02400A
:103CD000074B196921F440711961196941F0040118
:103CE00019611A6942EA002242F480321A6170476F
:103CF000003C024049B1012921D0022902D04FF4F1
:103D0000407C04E04FF4007C01E04FF0000C0D4BD0
:103D1000196921F4407119611A6942EA0C021A61A9
:103D20001A6922F078021A611A6942EAC00040F06A
:103D3000020018611A6942F480321A6170474FF428
:103D4000807CE4E7003C0240164B1B6813F4007FC4
:103D500010D0144B1A6822F400721A601A6842F4E8
:103D600000621A601A6822F400621A601A6842F44B
:103D700000721A600B4B1B6813F4806F10D0094B54
:103D80001A6822F480621A601A6842F480521A603B
:103D90001A6822F480521A601A6842F480621A602B
:103DA000704700BF003C0240F8B5224B1B7E012B40
:103DB0003ED004460E461F4B01221A764CF250307C
:103DC000FFF718FF074670BB4FF0FF3333602368DF
:103DD000012B16D0A568E368A2681344AB4220D932
:103DE000217C2846FFF786FF4CF25030FFF702FF98
:103DF000114A136923F07A031361074680B901352C
:103E0000E9E76168207CFFF763FF4CF25030FFF771
:103E1000F1FE0746084A136923F00403136100E02A
:103E20003560FFF791FF034B00221A763846F8BD44
:103E30000227FBE7CC010020003C024000230F2BAF
:103E400000F2E48070B582B060E085685E00032413
:103E5000B44025EA0405CC68B4402C43846045682E
:103E600025EA02054C68C4F300129A402A434260D6
:103E70005AE0DC08083450F8246003F0070295008B
:103E80000F22AA4026EA020E0A69AA4042EA0E025E
:103E900040F824205CE0072200E0002202FA0EF243
:103EA0002A4302345A4D45F824205A4A94686FEA4E
:103EB0000C0224EA0C054E6816F4801F01D04CEA6F
:103EC0000405544CA560E46802EA04054E6816F443
:103ED000001F01D04CEA04054E4CE560646802EA1C
:103EE00004054E6816F4003F01D04CEA0405494C25
:103EF0006560246822404D6815F4803F01D04CEA8B
:103F00000402444C226001330F2B7DD801229A40D9
:103F10000C6804EA020C32EA0404F4D14C6804F0A0
:103F20000304013C012C90D94A6802F00302032AE1
:103F300009D0C4685D000322AA4024EA02048A680A
:103F4000AA402243C2604A6802F00302022A90D0CB
:103F500004684FEA430E032202FA0EF224EA020436
:103F60004A6802F0030202FA0EF2224302604A6833
:103F700012F4403FC7D000220192274A546C44F407
:103F800080445464526C02F480420192019A9C086D
:103F9000A51C1F4A52F8255003F003024FEA820E77
:103FA0000F2202FA0EF225EA02051C4A90423FF463
:103FB00074AF02F5806290421AD002F5806290429E
:103FC00018D002F58062904216D002F580629042CD
:103FD00014D002F58062904212D002F580629042C5
:103FE00010D002F5806290423FF455AF082255E7A9
:103FF000012253E7022251E703224FE704224DE753
:1040000005224BE7062249E702B070BD704700BFAA
:1040100000380140003C01400038024000000240EE
:1040200000230F2B00F28F80F0B52DE0072500E074
:10403000002505FA0CFCA44569D004685D004FF02A
:10404000030C0CFA05FC24EA0C0404604FEAD30EBE
:104050000EF1080E50F82E4003F00705AE000F25B4
:10406000B54024EA050440F82E40C46824EA0C0454
:10407000C460446824EA02024260826822EA0C02B8
:10408000826001330F2B5DD801229A4002EA0106BB
:1040900032EA0104F5D14FEA930E0EF102052A4CE3
:1040A00054F8254003F0030C4FEA8C0C0F2505FA59
:1040B0000CF73C40254DA842BAD005F58065A842D2
:1040C00019D005F58065A84217D005F58065A8428E
:1040D00015D005F58065A84213D005F58065A84286
:1040E00011D005F58065A8420FD005F58065A8427E
:1040F0009CD008259DE701259BE7022599E703252C
:1041000097E7042595E7052593E7062591E7104CE9
:10411000256825EA06052560656825EA06056560C7
:10412000E56825EA0605E560A56825EA0606A660B5
:10413000054E0EF1020456F8245025EA070546F80C
:1041400024507AE7F0BD704700380140000002407B
:10415000003C01400369194201D001207047002052
:1041600070470AB1816170470904816170474369F2
:1041700001EA030221EA030141EA02418161704739
:10418000002800F0E08170B582B00446036813F0A7
:10419000010F3BD09F4B9B6803F00C03042B2CD0EA
:1041A0009C4B9B6803F00C03082B21D06368B3F58C
:1041B000803F4FD0B3F5A02F52D0964B1A6822F40F
:1041C00080321A601A6822F480221A606368002B19
:1041D00050D0FEF7E5FF05468E4B1B6813F4003FF9
:1041E00014D1FEF7DDFF401B6428F5D90320B1E1AF
:1041F000884B5B6813F4800FD8D0864B1B6813F490
:10420000003F03D06368002B00F09F81236813F008
:10421000020F54D07F4B9B6813F00C0F3ED07D4BA8
:104220009B6803F00C03082B33D0E368002B68D0A5
:10423000794B01221A60FEF7B3FF0546754B1B68E8
:1042400013F0020F54D1FEF7ABFF401B0228F5D943
:1042500003207FE16F4A136843F480331360B5E7AE
:104260006C4B1A6842F480221A601A6842F4803259
:104270001A60ABE7FEF794FF0546664B1B6813F424
:10428000003FC3D0FEF78CFF401B6428F5D9032004
:1042900060E1604B5B6813F4800FC6D15D4B1B6817
:1042A00013F0020F03D0E368012B40F05081594A0C
:1042B000136823F0F803216943EAC10313602368FC
:1042C00013F0080F42D063696BB3534B0122C3F85C
:1042D000802EFEF765FF05464E4B5B6F13F0020F15
:1042E00034D1FEF75DFF401B0228F5D9032031E1F0
:1042F000484A136823F0F803216943EAC1031360B5
:10430000DDE7454B00221A60FEF74AFF0546414BA8
:104310001B6813F0020FD2D0FEF742FF401B0228A9
:10432000F5D9032016E13C4B0022C3F8802EFEF79E
:1043300037FF0546374B5B6F13F0020F06D0FEF7D1
:104340002FFF401B0228F5D9032003E1236813F057
:10435000040F77D02F4B1B6C13F0805F33D10023F9
:1043600001932C4B1A6C42F080521A641B6C03F0C0
:1043700080530193019B0125284B1B6813F4807F18
:1043800023D0A368012B34D0052B38D0214B1A6FD2
:1043900022F001021A671A6F22F004021A67A3685A
:1043A000002B3DD0FEF7FCFE06461A4B1B6F13F0A8
:1043B000020F46D1FEF7F4FE801B41F2883398428B
:1043C000F3D90320C6E00025D6E7144A136843F466
:1043D00080731360FEF7E4FE0646104B1B6813F46F
:1043E000807FCED1FEF7DCFE801B0228F5D90320AA
:1043F000B0E0084A136F43F001031367CFE7054BA2
:104400001A6F42F004021A671A6F42F001021A672B
:10441000C5E700BF0038024000004742007000407E
:10442000FEF7BEFE0646524B1B6F13F0020F08D07C
:10443000FEF7B6FE801B41F288339842F3D9032081
:1044400088E0EDB9A369002B00F08380484A9268A8
:1044500002F00C02082A51D0022B17D0454B002243
:104460001A66FEF79DFE0446414B1B6813F0007F61
:1044700042D0FEF795FE001B0228F5D9032069E023
:104480003B4A136C23F080531364DBE7394B002263
:104490001A66FEF785FE0546354B1B6813F0007F54
:1044A00006D0FEF77DFE401B0228F5D9032051E01F
:1044B000E369226A1343626A43EA8213A26A5208DA
:1044C000013A43EA0243E26A43EA0263284A53603C
:1044D000284B01221A66FEF763FE0446244B1B6834
:1044E00013F0007F06D1FEF75BFE001B0228F5D912
:1044F00003202FE000202DE000202BE0012B2BD00B
:104500001B4B5B6803F48001E269914226D103F002
:104510003F02216A8A4223D1616A47F6C0721A407B
:10452000B2EB811F1ED103F44031A26A5208013A56
:10453000B1EB024F18D103F07063E26AB3EB026F84
:1045400014D1002006E001207047012002E0012084
:1045500000E0002002B070BD0120FBE70120F9E778
:104560000120F7E70120F5E70120F3E70120F1E75B
:10457000003802400000474208B5314B9B6803F009
:104580000C03042B57D0082B57D12D4B5A6802F03F
:104590003F025B6813F4800F2AD0294B5968C1F39E
:1045A000881C4FEA4C11B1EB0C006EEB0E0E4FEA7B
:1045B0008E1343EA90638101091A63EB0E03DB005B
:1045C00043EA5173C90011EB0C0C43F1000359028B
:1045D00000234FEA4C2041EADC51FBF7F9FD184B70
:1045E0005B68C3F3014301335B00B0FBF3F025E0EC
:1045F000134B5968C1F3881C4FEA4C11B1EB0C0006
:104600006EEB0E0E4FEA8E1343EA90638101091A96
:1046100063EB0E03DB0043EA5173C90011EB0C0C92
:1046200043F10003990200234FEA8C2041EA9C5198
:10463000FBF7CEFDD3E7034800E0034808BD00BF09
:104640000038024000127A000024F400002800F034
:104650009B8070B50D4604464F4B1B6803F0070363
:104660008B4208D2CBB24C4A1370136803F0070395
:104670008B4240F08B80236813F0020F17D013F0A9
:10468000040F04D0454A936843F4E05393602368D1
:1046900013F0080F04D0414A936843F460439360D9
:1046A0003E4A936823F0F003A1680B4393602368AC
:1046B00013F0010F32D06368012B21D09A1E012A1A
:1046C00025D9364A126812F0020F61D033498A6840
:1046D00022F0030213438B60FEF762FD06462F4B68
:1046E0009B6803F00C036268B3EB820F16D0FEF7F1
:1046F00057FD801B41F288339842F0D9032042E0F5
:10470000264A126812F4003FE0D101203BE0234A20
:10471000126812F0007FD9D1012034E01E4B1B68D3
:1047200003F00703AB4207D9EAB21B4B1A701B68B0
:1047300003F00703AB422DD1236813F0040F06D01A
:10474000164A936823F4E053E1680B4393602368AF
:1047500013F0080F07D0114A936823F460432169CE
:1047600043EAC1039360FFF707FF0C4B9B68C3F359
:1047700003130B4AD35CD8400A4B18600A4B1868E5
:10478000FEF7C2FC002070BD012070470120FAE74F
:104790000120F8E70120F6E7003C02400038024023
:1047A00064710008C0010020C8010020014B186896
:1047B000704700BFC001002008B5FFF7F7FF044BAA
:1047C0009B68C3F38223034AD35CD84008BD00BF73
:1047D000003802407471000808B5FFF7E7FF044B8A
:1047E0009B68C3F34233034AD35CD84008BD00BF83
:1047F0000038024074710008026802F10C0353E8AB
:10480000003F23F490730C3242E800310029F3D1C9
:10481000026802F1140353E8003F23F0010314324D
:1048200042E800310029F3D1036B012B05D020238E
:1048300080F84230002303637047026802F10C03E2
:1048400053E8003F23F010030C3242E80031002906
:10485000F3D1ECE738B504460268136923F44053FA
:10486000C1680B43136183680269134342691343B0
:10487000C2691A430168CB6823F4164323F00C0382
:104880001343CB600268536923F4407381690B437F
:1048900053610368314A934206D002F58062934225
:1048A00002D0FFF789FF01E0FFF796FFE369B3F558
:1048B000004F29D00021031849411B1841F1000184
:1048C000C90041EA5371DB00181863684FEA83029C
:1048D0004FEA937341F10001FBF77AFC204DA5FBF1
:1048E00000325109642303FB11031B013233A5FB82
:1048F00003235B0903F0F00202EB011203F00F0344
:10490000216813448B6038BD0023021843EB030178
:10491000121841F10001C90041EA5271D200101889
:1049200041F10001626892185B41FBF751FC0C4DAC
:10493000A5FB00325109642303FB1103DB00323372
:10494000A5FB03235B095A0002F4F87202EB011283
:1049500003F00703216813448B60D4E70010014083
:104960001F85EB512DE9F04383B005460E461746EF
:104970009946DDF828802C68246836EA04030CBFC9
:104980004FF0010C4FF0000CBC4528D1B8F1FF3FAF
:10499000F1D0FEF705FCA0EB0900404523D8B8F1A3
:1049A000000F22D02B68DA6812F0040FE3D0802EBB
:1049B000E1D0402EDFD01A6812F0080FDBD00024BF
:1049C00001941A6801925B680193019B2846FFF7E6
:1049D00013FF08236B6485F84040012000E00020AD
:1049E00003B0BDE8F0830320FAE70320F8E760B3E3
:1049F00010B5044690F8413013B3242384F84130B5
:104A00002268D36823F40053D3602046FFF722FFC7
:104A10002268136923F4904313612268536923F0D9
:104A20002A0353612268D36843F40053D360002003
:104A30006064202384F8413084F84230606310BD04
:104A400080F84030FEF782FAD7E701207047B0B116
:104A500010B50446242380F841300268D36823F45B
:104A60000053D360FEF7D6FA0020606484F841005A
:104A700084F842002063606384F8400010BD012088
:104A800070472DE9F04182B01E4690F84130DBB20C
:104A9000202B56D104460D469046002955D00AB920
:104AA00001204FE000234364212380F84130FEF7CA
:104AB00077FB0746A4F82480A4F82680A368B3F502
:104AC000805F02D04FF0000814E023692BB34FF051
:104AD00000080FE0202384F84130032032E038F84A
:104AE000023B2268C3F308035360E28C92B2013A9E
:104AF00092B2E284E38C9BB293B100963B460022D3
:104B000080212046FFF72EFF0028E3D1002DE6D0BC
:104B100015F8012B23685A60E7E7A8460025E9E766
:104B200000963B46002240212046FFF71BFF18B9A4
:104B3000202384F8413005E0202384F8413003200D
:104B400000E0022002B0BDE8F0810120FAE72DE983
:104B5000F04182B01E4690F84230DBB2202B59D192
:104B600004460D469046002958D00AB9012052E06B
:104B700000234364222280F842200363FEF710FBE7
:104B80000746A4F82C80A4F82E80A368B3F5805FB4
:104B900002D04FF000081CE0236913B14FF0000869
:104BA00017E0A846002514E0202384F842300320B3
:104BB00031E023685B68C3F3080328F8023B03E095
:104BC00023685B682B700135E28D92B2013A92B294
:104BD000E285E38D9BB2C3B100963B4600222021C3
:104BE0002046FFF7BFFE0028DED1002DE1D0A368EC
:104BF000B3F5805FE4D013B92369002BE0D02368BC
:104C00005B6803F07F032B70DDE7202384F84230DC
:104C1000002000E0022002B0BDE8F0810120FAE7A8
:104C2000DFF834D0FEF766FA0C480D490D4A002330
:104C300002E0D458C4500433C4188C42F9D30A4A51
:104C40000A4C002301E013600432A242FBD300F0BF
:104C500017F8FEF771F870470000022000000020EE
:104C6000500200203C73000850020020DC040020A9
:104C7000FEE70000014B1868704700BFEC01002000
:104C800070B50D4D0D4C641BA4100026A64209D131
:104C90000B4D0C4C01F0A6F9641BA4100026A64293
:104CA00005D170BD55F8043B98470136EEE755F83D
:104CB000043B98470136F2E7347300083473000868
:104CC00034730008387300080A44914200F1FF333E
:104CD00000D1704710B511F8014B03F8014F914214
:104CE000F9D110BD02440346934200D1704703F846
:104CF000011BF9E70CB430B5174B0C1E1D689DB0B5
:104D000008DA8B232B604FF0FF301DB0BDE8304038
:104D100002B070474FF40273ADF8143014BF04F1C1
:104D2000FF332346049307934FF6FF7302900690D8
:104D3000ADF81630209A21AB02A92846019300F065
:104D400053F9431CBCBF8B232B60002CDDD0029B8E
:104D500000221A70D9E700BFEC0100200EB410B594
:104D60009FB021AC4FF4017154F8042B0192ADF8BF
:104D70001C1004900890FBF7B7FB0C4B05900990B2
:104D80000D930B48019A0068039400231193169326
:104D90004FF6FF73ADF81E3004A9234600F07EFAEB
:104DA0001FB0BDE8104003B0704700BFB54D00080C
:104DB000EC0100200020704710B57AB1034601399C
:104DC000841813F8010B11F8012F904201D1A3426E
:104DD00001D1801A10BD0028F3D1FAE71046F9E797
:104DE00010B50139034632B111F8014F03F8014BF8
:104DF000013A002CF7D11A440021934200D110BD92
:104E000003F8011BF9E70A7870B56AB970BD9A42D8
:104E100009D10C46054614F8013F002BF6D015F8D1
:104E2000016F9E42F7D001300378002BEFD1184676
:104E3000ECE700002DE9F043364F86460D46284644
:104E400015F8014BE65D16F00806F8D12D2C2FD190
:104E50002C780126851C002B57D0102B09D1302C23
:104E600007D1287800F0DF00582849D16C7810234A
:104E700002354FF0FF380027B8FBF3F803FB08F9C1
:104E80006FEA09093846A4F1300CBCF1090F14D8B7
:104E90006446A34222DD002F1DDB80451BD301D1D8
:104EA000A14518DB00FB0340012715F8014BEAE799
:104EB0002B2C04BF2C78851CCDE7A4F1410CBCF150
:104EC000190F01D8373CE4E7A4F1610CBCF1190FCC
:104ED00004D8573CDDE74FF0FF37E6E7002F07DA4D
:104EE0002223CEF800304FF0FF3032B9BDE8F08316
:104EF00006B14042002AF9D007B1691E1160F5E7FA
:104F00003024002BB5D10823B3E7302CA9D00A23D5
:104F1000AFE700BF7D710008FFF78CBF13460A465C
:104F2000014602480068FFF785BF00BFEC01002082
:104F30002DE9F0478E689E4282460C4690461F46F9
:104F400038D88A8912F4906F32D025680969A5EBA8
:104F50000109656905EB450505EBD57501334B4442
:104F60006D109D4238BF1D46530531D5294600F0CE
:104F700071FF064650B90C23CAF80030A38943F0EC
:104F80004003A3814FF0FF30BDE8F08721694A4616
:104F9000FFF79AFEA38923F4906343F08003A38173
:104FA000266165614E44A5EB09052660A5603E4675
:104FB000BE4200D93E4620683246414600F0C4FE5B
:104FC000A3689B1BA3602368334423600020DBE7B6
:104FD0002A4600F0B3FF06460028E1D12169504679
:104FE00000F0CCFEC7E700002DE9F04F98468B8912
:104FF0001B069DB007460D4614460ED50B6963B9D6
:10500000402100F027FF2860286120B90C233B6075
:105010004FF0FF30D1E040236B6100230993202340
:105020008DF82930CDF80C803023DFF8A8818DF879
:105030002A304FF0010923469A4613F8012B0AB192
:10504000252AF9D1BAEB040B0BD05B462246294640
:105050003846FFF76DFF013000F0AA80099A5A44E4
:1050600009929AF80030002B00F0A28000234FF044
:10507000FF32CDE905230AF1010A049307938DF865
:1050800053301A935446052214F8011B5148FBF77C
:1050900037FA049AD8B9D00644BF20238DF853308C
:1050A000110744BF2B238DF853309AF800302A2B78
:1050B00015D0079A544600204FF00A0C214611F8EB
:1050C000013B303B092B4ED9B0B1079214E0A0EB65
:1050D000080309FA03F313430493A246D2E7039BA0
:1050E000191D1B680391002BBBBF5B4242F00202FB
:1050F00007930793B8BF049223782E2B0CD16378C3
:105100002A2B35D1039B1A1D1B680392002BB8BFB5
:105110004FF0FF3302340593DFF8C8A02178032253
:105120005046FBF7EDF940B14023A0EB0A0003FA2B
:1051300000F0049B03430134049314F8011B264838
:105140008DF828100622FBF7DBF9002838D0234B16
:105150001BBB039B073323F0070308330393099B0F
:105160003344099367E70CFB02320C460120A5E7A4
:1051700000230134059319464FF00A0C204610F81D
:10518000012B303A092A03D9002BC5D00591C3E77A
:105190000CFB012104460123F0E703AB00932A46F0
:1051A0000F4B04A93846AFF30080421C0646D6D107
:1051B000AB895B063FF52CAF09981DB0BDE8F08FB9
:1051C00003AB00932A46064B04A9384600F04CFA7C
:1051D000EBE700BF7D720008877200080000000046
:1051E000314F00088372000838B54B1C144603D1B8
:1051F0004FF0FF35284638BD938923F02003938173
:10520000636B5268CDB28BB1A36B934208DD236808
:105210005A1E226003F8015C636801336360E9E7AA
:10522000214600F055FD0028F1D0E1E7216923680F
:1052300051B1994208D213F8011CA94204D1013B93
:10524000013223606260D5E7C4E90F3204F1440300
:1052500063630323A363234603F8465F23600123AC
:10526000DCE710B50C46496B69B104F1440399427F
:1052700001D000F083FD236C63600020606313B1F4
:10528000E36B236010BD2369236000236360A3895F
:1052900043F02003A3814FF0FF30F3E72DE9F047FF
:1052A0000C46ADF5227D0021CDE94411A649A0911F
:1052B0000DF10408A549A64FDFF89892CDF81881A2
:1052C0000646A19100931378002B00F05A81D95D16
:1052D00011F0080102F1010519D06368002B0FDD00
:1052E00023681A78BA5C120701D42A46EBE7459A7C
:1052F0000132459262680133013A62602360ECE753
:10530000A19B2146304698470028E9D0EDE7252BA0
:1053100012D09A466368002B40F39180226813787C
:10532000534540F02E816368013B6360459B013229
:10533000013322604593D8E74191439153782A2B5A
:1053400002BF1023951C41930A22AA461AF8011B9A
:10535000A1F13003092B1DD97E480322FBF7D0F8B9
:1053600040B10123A0EB090003FA00F0419B184370
:105370004190554615F8013B782B06D8572B10D88D
:10538000252BC6D056D8002B64D0032347930A237D
:10539000429371E0439B02FB031130394391554620
:1053A000D3E7A3F15802202AEFD801A151F822F047
:1053B000635400088B5300088B530008C154000845
:1053C0008B5300088B5300088B5300088B53000845
:1053D0008B5300088B5300088B530008D7540008E8
:1053E000AD5400083B5400083B5400083B540008EF
:1053F0008B530008B15400088B5300088B530008EE
:105400008B5300088B530008E7540008B954000878
:105410005B5400088B5300088B530008E3540008CA
:105420008B530008AD5400088B5300088B530008C1
:1054300063540008453B022BA7D805231BE0A19B22
:1054400021463046984700283FF468AF449800282A
:1054500040F08D804FF0FF308FE0419A42F0200203
:105460004192419A42F40072419210226F2B429273
:1054700034BF0323042347936368002B42DD419B21
:10548000590604D423681A78BA5C120741D4479BA2
:10549000022B50DC6B46224641A9304600F00AFA46
:1054A00001286ED002287FF420AFCFE70A22DDE783
:1054B000002342930323DEE7082342930423DAE721
:1054C0002946404600F048FB419B43F0400341938E
:1054D00005460123CFE7419B43F04003419300235E
:1054E000C9E70223C7E74198C3063FF5FEAE009B1C
:1054F000459A191D00911B6810F0010F14BF1A8006
:105500001A60F2E6A19B2146304698470028B6D0A3
:105510009CE7459A013245926268013A002A62602E
:1055200002DD01332360ADE7A19B21463046984759
:105530000028A7D08AE7042B0EDC6B46224641A93F
:10554000304600F011FAABE7E95100086352000859
:105550007D710008837200080B4B002B3FF4C5AE31
:105560006B46224641A93046AFF3008098E7A389F5
:1055700013F0400F18BF4FF0FF300DF5227DBDE84E
:10558000F0874498F9E700BF000000002DE9F047DC
:10559000164699468A680B69DDF820809342B8BFA9
:1055A0001346336091F8432007460C460AB1013395
:1055B00033602368990642BF33680233336025683D
:1055C00015F0060506D104F1190AE36832689B1A42
:1055D000AB4226DC94F84320131E226818BF012337
:1055E00092062BD404F1430249463846C0470130A5
:1055F0001ED02368E568326803F00603042B08BF59
:10560000AD1AA36822690CBF25EAE575002593420F
:10561000C4BF9B1AED1800261A34B5421AD10020D7
:1056200008E00123524649463846C047013003D1BD
:105630004FF0FF30BDE8F0870135C6E7E1185A1C8E
:10564000302081F84300224494F8451082F843103A
:105650000233C7E70123224649463846C047013096
:10566000E6D00136D9E700002DE9FF470F7E0C9DFB
:10567000782F914680460C469A4601F1430207D89E
:10568000622F0AD8002F00F0D880582F00F0A38096
:1056900004F1420584F842703AE0A7F16303152B48
:1056A000F6D801A151F823F001570008155700085A
:1056B000915600089156000891560008915600082E
:1056C0001557000891560008915600089156000899
:1056D0009156000821580008455700080358000853
:1056E000915600089156000843580008915600084A
:1056F0004557000891560008915600080B580008BD
:105700002B681A1D1B682A6004F1420584F8423098
:105710000123A3E020682968060601F104030AD5E5
:105720000E682B60002E03DA2D23764284F8433076
:105730005E480A2319E00E682B6010F0400F18BF76
:1057400036B2EFE72B682068191D2960010601D5E4
:105750001E6802E04606FBD51E8854486F2F0CBF1A
:1057600008230A23002184F843106568A560002DF2
:10577000A2BF216821F0040121600EB9002D4DD097
:105780001546B6FBF3F103FB1167C75D05F8017D14
:105790003746BB420E46F4D9082B0BD12368DE07EF
:1057A00008D5236961689942DEBF302305F8013CC2
:1057B00005F1FF35521B2261CDF800A04B4603AA2C
:1057C00021464046FFF7E2FE01304CD14FF0FF305A
:1057D00004B0BDE8F087354881F845702968236832
:1057E00051F8046B29601D0614D5DF0744BF43F050
:1057F000200323601EB9236823F0200323601023B5
:10580000B0E7236843F0200323607823284884F816
:105810004530E3E7590648BFB6B2E6E71546BBE7B1
:105820002B6826686169181D286035061B6801D53C
:10583000196002E07006FBD519800023236115462C
:10584000BAE72B681A1D2A601D6862680021284685
:10585000FAF756FE08B1401B6060636823610023BD
:1058600084F84330A8E723692A4649464046D04792
:105870000130ABD023689B0713D4E068039B9842A8
:10588000B8BF1846A4E70123324649464046D047F0
:1058900001309BD00135E36803995B1AAB42F2DC1F
:1058A000EBE7002504F11906F5E700BF8E7200084A
:1058B0009F7200082DE9F84315468A6880460C4619
:1058C00032B98A69002A0CBF01224FF0FF328A6088
:1058D0002268DFF89090D1065FBF1A68111D196029
:1058E00016680027A06988B1012807D12A681178B5
:1058F0006269525C52B9002F31D022E0022820D1D7
:105900002B681B7813F809301B071AD42368DA06B2
:105910005EBF2B681B7806F8013B2A686B68013272
:105920002A60A268013B013A6B600137A26042B174
:10593000002BD7DCD4F88031294640469847002810
:10594000D0D0236813F0100305D1E2680132E26081
:10595000A26902B1337023693B4423610020BDE892
:10596000F88300BF7D7100082DE9F04F9846764B13
:105970000C468246164693E8070087B003AB83E8DF
:105980000700724BA169724A032918BF1A46A3681F
:1059900001925A1EB2F5AE7F88BF6FF4AE752746EE
:1059A00082BF03EB050940F25D13A36057F81C3B6F
:1059B00043F4506398BF4FF0000923603D464FF019
:1059C000000B316803AB097853F82B000222FAF779
:1059D00097FD28B3BBF1010F59D162682AB922683B
:1059E000082342F4007263602260226822F4A062FD
:1059F0002260A268511EA16092B13268511C3160D0
:105A0000127805F8012B7268013A002A726007DCEF
:105A1000D4F88021314650469047002840F08580D8
:105A20000BF1010BBBF1030FCBD163680BB90A2358
:105A30006360636847496069C91A00F08DF84FF0E8
:105A4000000BA3682268002B3DD03168606991F893
:105A500000C010F80C00002835D0BCF1300F24D164
:105A6000100522D50BF1010BB9F1000F03D0013362
:105A700009F1FF39A3607368013B002B73601BDDE4
:105A8000336801333360A368013BA360D9E7BBF1FE
:105A9000020FAED1226802F4C061B1F5007FBFD120
:105AA0001023636042F48072A2E722F41062226045
:105AB0000B7805F8013BDEE7D4F8803131465046DB
:105AC00098470028DFD02368DB050DD5BD4209D9F2
:105AD00015F8011CD4F87C3132465046984705F140
