:020000040800F2
:100000000000022035340008B9190008BB190008A7
:10001000BD190008BF190008C11900080000000040
:10002000000000000000000000000000C3190008EC
:10003000C519000800000000C7190008C919000808
:1000400085340008853400088534000885340008AC
:10005000853400088534000885340008853400089C
:10006000853400088534000885340008853400088C
:10007000853400088534000885340008853400087C
:10008000853400088534000885340008D11900083B
:10009000E1190008F11900088534000885340008CA
:1000A000853400088534000885340008853400084C
:1000B000853400088534000885340008853400083C
:1000C000853400088534000885340008853400082C
:1000D000853400088534000885340008853400081C
:1000E000853400088534000885340008853400080C
:1000F00085340008853400088534000885340008FC
:1001000085340008853400088534000885340008EB
:1001100085340008853400088534000885340008DB
:1001200085340008853400088534000885340008CB
:1001300085340008853400088534000885340008BB
:1001400085340008853400088534000885340008AB
:10015000853400088534000885340008853400089B
:10016000853400088534000885340008853400088B
:10017000853400088534000885340008000000003C
:080180008534000885340008F5
:1001900010B5054C237833B9044B13B10448AFF3C1
:1001A00000800123237010BD7C00002000000000AF
:1001B000F03D000808B5034B1BB103490348AFF3FA
:1001C000008008BD0000000080000020F03D000815
:1001D00053B94AB9002908BF00281CBF4FF0FF31AE
:1001E0004FF0FF3000F088B9ADF1080C6DE904CE96
:1001F00000F006F8DDF804E0DDE9022304B0704702
:100200002DE9F047089D8E4604468846002B4AD1CA
:100210008A42174662D9B2FA82F64EB1C6F120037D
:1002200001FA06F820FA03F3B74043EA0808B4409D
:100230004FEA174E1FFA87FCB8FBFEF1230C0EFBAA
:10024000118843EA084301FB0CF29A4209D9FB18D2
:1002500001F1FF3080F0EA809A4240F2E7800239F3
:100260003B449A1AA3B2B2FBFEF00EFB102243EA03
:10027000024300FB0CFC9C4509D9FB1800F1FF323E
:1002800080F0D6809C4540F2D3803B44023840EA5F
:100290000140A3EB0C0300211DB1F3400022C5E98E
:1002A0000032BDE8F0878B4205D90DB1C5E90001E8
:1002B00000210846F5E7B3FA83F1002946D17345DA
:1002C00002D3824200F20581841A6EEB0302012000
:1002D0009046002DE5D0C5E90048E2E7002A00F08D
:1002E0009080B2FA82F6002E40F0A4808A1A030CA5
:1002F0004FEA174E80B2BCB20121B2FBFEFC0EFBEE
:100300001C2243EA024304FB0CF29A4207D9FB1871
:100310000CF1FF3802D29A4200F2E080C4469B1AE8
:10032000B3FBFEF20EFB123340EA034302FB04F47C
:100330009C4207D9FB1802F1FF3002D29C4200F226
:10034000CA8002461B1B42EA0C40A5E7C1F1200609
:100350008B4022FA06F71F430EFA01F420FA06F347
:100360002EFA06FE4FEA1749234300FA01F81FFA56
:1003700087FCBEFBF9F01C0C09FB10EE44EA0E44AE
:1003800000FB0CFEA64502FA01F209D93C1900F166
:10039000FF3A80F09C80A64540F2998002383C44A8
:1003A000A4EB0E041FFA83FEB4FBF9F309FB13441C
:1003B0004EEA044403FB0CFCA44508D93C1903F1A4
:1003C000FF3E80F08280A4457FD9023B3C4443EA53
:1003D0000040A4EB0C04A0FB02EC64457346E1462C
:1003E00062D35FD05DB1B8EB030264EB090404FA99
:1003F00006F622FA01F31E43CC40C5E90064002151
:100400004FE7B1FBF2FC010C41EA0E4180B240EA39
:1004100001423B4638463C46B846BE462026B1FB24
:10042000F7F1A2EB080241EA0C4166E7014618E742
:1004300010462CE7C6F120022EFA02F3B740B14075
:1004400020FA02F24FEA174E0A43B3FBFEF8BCB2A1
:100450000EFB1833110C41EA034108FB04F9B040CC
:1004600089454FEA104380B23ED9791808F1FF3C24
:1004700001D289451FD8A1EB0901B1FBFEF909FBA7
:1004800004F80EFB191192B242EA0142424529D208
:10049000BA1809F1FF31C4D24245C2D2A9F1020112
:1004A0003A44BEE7F0459DD2BEEB02036CEB070C6D
:1004B0000138E14696E7A7EB09094944A8F1020C87
:1004C000B1FBFEF909FB04F8DBE773467FE7504612
:1004D00066E70846FDE63B44023A33E7ACF1020C1E
:1004E0003B441CE749469CE7A1EB0901C446B1FB2C
:1004F000FEF909FB04F8C4E7704700BF034613F890
:10050000012B002AFBD1181A0138704700000000A7
:1005100001F0FF01102A2BDB10F0070F08D010F8B4
:10052000013B013A8B422DD010F0070F42B3F6D1B8
:10053000F0B441EA012141EA014122F007047FF0D1
:1005400000070023F0E80256083C85EA010586EA28
:10055000010685FA47F5A3FA87F586FA47F6A5FA64
:1005600087F68EB9EED1F0BC01F0FF0102F0070270
:1005700032B110F8013B013A83EA010313B1F8D11B
:100580000020704701387047002D06BF35460338FC
:10059000073815F0010F07D1013015F4807F02BF35
:1005A000013015F4C03F0130F0BC0138704700BF86
:1005B000204B984228D303F58043984226D303F575
:1005C0008043984224D31C4B984223D903F58033AF
:1005D000984221D903F5003398421FD903F500331F
:1005E00098421DD903F5003398421BD903F5003317
:1005F000984219D903F50033984217D903F500330F
:10060000984215D90B207047002070470120704791
:100610000220704703207047042070470520704770
:100620000620704707207047082070470920704750
:100630000A20704700400008FFFF000870B586B030
:10064000002301930293039304930593009329B32A
:1006500004460E46B0F1006F23D3FFF7A9FF05460D
:1006600030190138FFF7A4FF044601F05DFF0023B5
:100670000193022305930395641B01340494694696
:1006800001A802F049F820B901F066FF002006B089
:1006900070BD01F061FF4FF0FF30F8E74FF0FF3021
:1006A000F5E74FF0FF30F2E700293FD0F8B50546F7
:1006B00017460C46002A3CD001F036FF2F4416E0C6
:1006C000D800FF21814022EA0102E15C81400A4317
:1006D0000133B342F4D319E000234FF0FF32F8E7BF
:1006E00001F03AFF4FF0FF301FE034443D46BD4279
:1006F00018D27E1B032EEFD92278637842EA0322B8
:10070000A37842EA0342E37842EA036200232946DF
:10071000022001F05BFF0028E2D1032EE5D904346A
:100720000435E4E701F018FF0020F8BD4FF0FF307A
:1007300070474FF0FF30F8E70048704710000E0890
:1007400072B6034B1B78DBB2024A137062B6704775
:10075000E9010020E801002000230E4A13600E4A40
:1007600013700E4A13700E4A13700E4A13700E4A1D
:1007700013600E4A13600E4A13600E4A4FF0FF31A9
:1007800011600D4A13700D4A13800D4A13700D4A03
:1007900013707047B8000020B7000020B60000209A
:1007A000B5000020B4000020B0000020AC00002004
:1007B000A8000020A40000209C0000209A00002037
:1007C00099000020980000204840002206E040F3F5
:1007D0000001044B0B4083EA50000132072AF6D98E
:1007E000704700BF2083B8ED10B50121084802F022
:1007F000D3F804464FF40051064802F0CDF8012C1E
:1008000002D018B9012000E0012010BD0020FCE753
:100810000000024000080240F0B58BB000240194B3
:10082000274B1A6B42F001021A631A6B02F00102A5
:100830000192019A02941A6B42F002021A631A6B37
:1008400002F002020292029A03941A6B42F004022E
:100850001A631A6B02F004020392039A04941A6B4F
:1008600042F008021A631B6B03F008030493049B15
:10087000059406940794089409944FF450470597FB
:10088000012506950F4E05A9304601F08FFF05950D
:1008900006940223079305A90B4801F087FF4FF444
:1008A000005305930694079505A9084801F07EFFBB
:1008B00022463946304602F076F80BB0F0BD00BF54
:1008C00000380240000C02400000024000080240D4
:1008D00008B5054B1860054B01221A704FF4004112
:1008E000034802F066F808BDEC010020F101002089
:1008F000000C024072B6164B1A78D2B2154B1B7818
:10090000DBB29A4220D070B50D46114E3478C4EB5C
:10091000C4028446104B03EB820EBEE80F00ACE825
:100920000F009EE807008CE807000C4B03EBC401A6
:1009300053F834204B682A606B60013404F00704DC
:10094000347062B6012070BD62B60020704700BFEF
:10095000E8010020E901002008010020C800002073
:100960002DE9F041AAB01C785D789E78DF7893F885
:1009700004C093F805E093F80680DB790993CDF87D
:100980002080CDF81CE0CDF818C00597049603959B
:1009900002940192009103460A4A80210AA802F0BB
:1009A00073FD00280ADD7F2802DD0AA8FFF7A6FDF7
:1009B000642382B20AA9044802F06DFC2AB0BDE8A3
:1009C000F08100BF083E00081802002008B5134B54
:1009D00018601A61124800230360436002F0BEFDF4
:1009E000104801F086FA08B9002008BD0E4B0C4AE9
:1009F0000A490C4801F008FA08B10020F5E74FF465
:100A000080510A4801F0D5FF0449054B0A6909687D
:100A10000748FFF7A5FF0120E7E700BF000200201D
:100A2000F801002060020020F4010020000C0240C8
:100A3000503E000828B310B582B00C46014614B3EE
:100A4000042C01D900201FE0104B1B888DF80030CA
:100A50001B0A8DF801300023CDF8023022460DF13B
:100A6000020002F07BFDA21CD2B2694640F22230A5
:100A7000FFF7ACFF40B1054A138801331380012012
:100A800002E000207047204602B010BD9A0000200E
:100A900008B50B4B1B784BB10A4B1B7833B10A4B93
:100AA0001B781BB1094B1978042900D008BD0848F0
:100AB000FFF7C0FF0028F9D0044B00221A70F5E7B9
:100AC000B7000020B6000020B50000209C000020E8
:100AD000A000002010B50446FFF710FD642382B289
:100AE0002146024802F0D7FB10BD00BF18020020CB
:100AF00010B590B0154B1A68154B9A4205D1134B9F
:100B00005B6813B1134A934209D90023124A136058
:100B1000124A13601248FFF7DDFF10B010BD0E4CF3
:100B200023600A4B9A680D4B1A600E48FFF7D2FFFC
:100B300023680D4A4021684602F0A6FC6846FFF78C
:100B4000C9FF0A48FFF7C6FFE7E700BF00000E082D
:100B50004F544132F0FF01008C0200208802002037
:100B6000BC3E0008543E0008703E00088C3E000861
:100B700008B5FFF7BDFFFFF7EFFD08BD00B58DB06D
:100B8000134B1B782BB9134B1B7893B90DB05DF841
:100B900004FB72B6104B1B680D4A0021117062B63F
:100BA0000E4A3021684602F06FFC6846FFF792FF5C
:100BB000E9E772B6074B00221A7062B64FF4804123
:100BC000074801F0F6FE0748FFF784FFDEE700BFA5
:100BD000F1010020F0010020EC010020D43E0008CB
:100BE000000C0240F83E000800B5A5B01BA91DA8E6
:100BF000FFF780FE18B31D9BB3F5497F22D01A4B37
:100C00009DF86C109DF86D209DF86E0042EA002260
:100C10009DF86F0042EA00429DF8700042EA0062CF
:100C200001920091114A602103A802F02DFC03A853
:100C3000FFF750FF1D9A40F225339A4204D025B0A9
:100C40005DF804FB0A4BDBE70A48FFF743FF01228C
:100C50004FF48041084801F0A6FE084B01221A70AB
:100C6000FFF77AFDEBE700BF203F0008283F0008B0
:100C70001C3F0008443F0008000C0240990000207F
:100C800000B583B031238DF8003044238DF8013056
:100C90004E238DF8023045238DF803300F4B1B682F
:100CA0008DF80430C3F307228DF80520C3F3074203
:100CB0008DF806201B0E8DF807300822694640F299
:100CC0002330FFF783FE10B903B05DF804FB044B3B
:100CD00001221A700348FFF7FDFEF5E7B00000207F
:100CE000B4000020743F000808B51D4B1B78EBB121
:100CF0001C4B1B78D3B11C4B1B78BBB11B4B1A6828
:100D00001B4B1B689A4211D11A4B197879B91A4BAF
:100D10001B68DB43194A12689A4211D1184B1B78A1
:100D2000D3B11848FFF7D6FEFFF716FD08BD1648E9
:100D3000FFF780FE0028F9D00E4B00221A70E6E77C
:100D40001248FFF7C7FE01224FF48041104801F01E
:100D50002AFEFFF701FDE9E7FFF792FFE6E700BF94
:100D6000B7000020B6000020B5000020A800002039
:100D7000B00000209C000020A4000020AC00002057
:100D8000B4000020A43F0008A0000020883F000815
:100D9000000C024000B583B00B4A6B4692E803009A
:100DA00083E80300082219464FF44870FFF70EFE4F
:100DB00010B903B05DF804FB044B01221A7004481B
:100DC000FFF788FEF5E700BFD03F0008B60000201F
:100DD000C03F000800B583B0174B1B688DF800308A
:100DE000C3F307228DF80120C3F307428DF80220D8
:100DF0001B0E8DF80330114B1B688DF80430C3F3C4
:100E000007228DF80520C3F307428DF806201B0E3C
:100E10008DF807300822694640F22130FFF7D6FDF1
:100E200010B903B05DF804FB054B01221A700548A8
:100E3000FFF750FEF5E700BFB0000020AC00002037
:100E4000B5000020DC3F000800B59BB0074B1B68D5
:100E50000093074B1B68074A602102A802F014FBAD
:100E600002A8FFF737FE1BB05DF804FB88020020E4
:100E70008C020020F03F000808B5294A1378517809
:100E800043EA0123917843EA0143D27843EA0263BB
:100E9000244A934236D1224A1379517943EA0123F5
:100EA000917943EA0143D17943EA01631E490B601A
:100EB000117A507A41EA0021907A41EA0041D27ACF
:100EC00041EA026219490A60013BB3F5802F20D242
:100ED000174B01221A700023164A1360164A4FF06E
:100EE000FF311160154A1360154A1370154A1370CB
:100EF000154A1370154A13701548FFF7EBFDFFF7FD
:100F000049FF08BD1348FFF7E5FD0A4B00221A60B0
:100F1000F7E71148FFF7DEFDFFF71EFCF1E700BF22
:100F2000BC0000204F544131B0000020AC00002034
:100F3000B7000020B8000020A4000020A800002076
:100F40009C000020B6000020B5000020B400002066
:100F5000504000081840000834400008F0B58BB03D
:100F600007460D46144600F0C5FD064607E0039B04
:100F7000B3F5497F24D040F22532934222D000F0CD
:100F8000B9FD801BB8421FD201A903A8FFF7B2FC2C
:100F90000028F4D015B19DF804302B70002CE6D059
:100FA0009DF805309DF8062043EA02239DF80720AE
:100FB00043EA02439DF8082043EA02632360D6E730
:100FC000012002E0022000E000200BB0F0BD2DE97E
:100FD000F84F80460F4616461D46DDF828A09DF8BE
:100FE0002CB0DDF83090FFF7ABFB002401E00134BA
:100FF000E4B2AC421BD2324639464046FFF7E6FC2B
:101000000028F4D00D9A49465046FFF7A7FF012863
:101010000BD00228EBD1BBF1000F06D0B9F1000FC5
:1010200003D099F80030012BE1D0BDE8F88F002003
:10103000FBE700002DE9F04F91B0FFF77DFB05467F
:101040007B4B1C687B4B1F6800238DF83F300E9351
:10105000794A0AAB92E8030083E80300002C3AD0F7
:101060007648FFF737FD764B00221A70002F40D0EC
:101070005FFA84FA8DF820A0C4F307298DF8219037
:10108000C4F3074B8DF822B0260E8DF823608DF83F
:101090002470C7F307238DF82530C7F307438DF875
:1010A00026303F0E8DF827700EAB03930DF13F03F2
:1010B0000293002301934FF4FA7300930323082251
:1010C0000AA94FF44870FFF782FF012814D05D4849
:1010D000FFF700FD02E05C48FFF7FCFC11B0BDE843
:1010E000F08FE95DFFF770FB0137A742F9D3C743E3
:1010F000BEE74FF0FF30F8E70EAB03930DF13F036F
:1011000002930123019340F6B8330093032308228E
:1011100008A940F22130FFF75AFF012841D10027EA
:10112000B846CDF810A0CDF81490A0454CD2A4EB51
:101130000809B9F1030F38D85FFA89F98DF83070D2
:101140003B0A8DF831304FF0000ACDF832A04A4604
:1011500005EB08010DF1320002F000FA09F102027C
:101160000EAB03930DF13F030293CDF804A04FF4AF
:10117000FA7300930323D2B20CA940F22230FFF796
:1011800026FF012814D0022807D19DF83F30012BFB
:1011900003D10E9B9AB297420ED32C48FFF79AFCCC
:1011A0009CE72B48FFF796FC98E74FF00409C5E74A
:1011B000C8440137BFB2B8E74FEA8208B4EB820FE8
:1011C00000D2A0461746B0E7DDF810A0DDF8149075
:1011D00031238DF8183044238DF819304E238DF8C3
:1011E0001A3045238DF81B308DF81CA08DF81D900A
:1011F0008DF81EB08DF81F600EAB03930DF13F0309
:1012000002930023019340F2DC530093032308224E
:1012100006A940F22330FFF7DAFE012803D00D487B
:10122000FFF758FC5AE70C48FFF754FC56E700BF9D
:101230008C02002088020020D03F0008884000086F
:1012400099000020C04000086C400008E040000801
:10125000D0400008F8400008084100082DE9F0439C
:10126000A7B0784B1B7813B1774A127872B313B1D9
:10127000764A12786AB323B1754B1B78042B00F0C1
:10128000DE80002301220DF19701724802F069F817
:10129000002840F0D4806B4B1B78002B40F0B880C6
:1012A0009DF89730552B17D0532B00F09F80512B72
:1012B00000F0A980684801684A1C026067484354EE
:1012C0000B2A40F2BC80FFF7D7FDB8E0FFF762FDC4
:1012D000B5E0FFF77FFDB2E04FF47A730422694670
:1012E0005C4802F03EF8002840F0A9809DF800809C
:1012F0009DF8013048EA03289DF8023048EA034887
:101300009DF8033048EA036808F1FF32544B9A42D3
:1013100011D85448FFF7DEFB4FF400315248FFF775
:101320008DF960B95148FFF7D5FB47464FF0FF35BF
:10133000DFF8849120E04E48FFF7CCFB7FE04D487A
:10134000FFF7C8FB7BE04C48FFF7C4FB77E04B4856
:10135000FFF7C0FB73E004F198036B4413F8841C9F
:101360002846FFF731FA05460134B442F3D3444826
:10137000FFF7B0FBB144BF1BAFB13E46802F28BF83
:10138000802641F28833B2B205A9324801F0E9FF64
:101390000028D8D1324605A94846FFF785F900282C
:1013A000D5D10024E1E7374B0193CDF80880ED4318
:1013B00003954FF0FF330493102201A92A48FFF749
:1013C00073F918B13048FFF785FB38E02F4BC3F8AD
:1013D0000080039A2E4B1A602E48FFF77BFB2E48A5
:1013E000FFF778FB2D48FFF775FB28E0274B1B68BC
:1013F0001BB92B48FFF76EFB21E02A48FFF76AFB79
:10140000FFF718FE1BE0FFF773FBFFF71DFD16E06B
:10141000254B1C68254B1B689C4210D29DF89750A9
:10142000234E29463068FFF7CFF93060084A137819
:10143000591C11701F4AD55401341B4B1C6027B036
:10144000BDE8F083B7000020B6000020B500002002
:101450009C00002018020020B8000020BC000020E2
:10146000EFFF01005841000800000E08B0410008DD
:10147000304100088C410008B8410008E4410008F0
:10148000084200084F5441320C4200088C020020F0
:1014900088020020304200084842000854420008F8
:1014A00088420008AC420008A8000020B0000020DC
:1014B000A4000020A000002010000E0808B502685B
:1014C000034B9A4200D008BD0020FFF701FAFAE76B
:1014D0000064004008B50268034B9A4200D008BD82
:1014E0000120FFF7F5F9FAE70064004008B502684B
:1014F000034B9A4200D008BD0220FFF7E9F9FAE752
:10150000006400400268044B9A4200D07047034BCD
:1015100001221A70FAE700BF00640040F0010020C9
:101520000268044B9A4200D07047034B01221A70A4
:10153000FAE700BF00640040F00100200268044B9D
:101540009A4200D07047034B01221A70FAE700BF9D
:1015500000640040F00100200268044B9A4200D071
:101560007047034B01221A70FAE700BF0064004085
:10157000F00100200268224B9A4200D0704730B53B
:101580008BB001AB03AA002100F0CCFC20B9039B77
:10159000A3F54973012B01D90BB030BD194B1C7851
:1015A000E5B2013404F00704174B1B78DBB2A34209
:1015B0001ED0C5EBC502154B03EB820C0DF10C0ED2
:1015C000BEE80F00ACE80F009EE807008CE80700BB
:1015D0000F4B03EBC50301AA92E8030083E8030065
:1015E000084B1C704FF400410A4801F0E2F9D3E7C0
:1015F000054A1378013303F007031370D9E700BFDE
:1016000000640040E9010020E801002008010020FA
:10161000C8000020000C024072B6FEE708B50D4875
:101620000D4B03600A23436000238360C3604FF4C3
:10163000702202614FF40012426103760122427669
:101640008376C2760377437700F06EFA00B908BD5F
:10165000FFF7E2FF600200200064004008B50A487E
:101660000A4B03604FF4E133436000238360C3609F
:1016700003610C2242618361C36101F0DCFD00B9AA
:1016800008BDFFF7C9FF00BF18020020004400405A
:1016900000B58BB028220021684601F02BFF012302
:1016A000079308930E2309936946114800F0E2FA64
:1016B000B8B90F4800F07AFBA8B948F203410C48CA
:1016C00000F0E5FC88B90B4B40F227121A600022AB
:1016D0005A609A60DA60082119611A750BB05DF8DA
:1016E00004FBFFF799FFFFF797FFFFF795FF00BF98
:1016F000600200200002002000B595B030220021D9
:1017000008A801F0F7FE00230393049305930693C2
:10171000079301931F4A116C41F080511164126CC0
:1017200002F080520192019A02931B4A116841F41F
:1017300080411160126802F480420292029A0222F1
:10174000089201210B9110210C910E920F93082306
:1017500010936423119312920723139308A801F0A6
:1017600031F998B90F2303930223049300230593BF
:101770004FF4A05306934FF480530793032103A81B
:1017800001F08AFB20B915B05DF804FBFFF744FFB8
:10179000FFF742FF003802400070004010B594B0DF
:1017A00000F082F9FFF7A8FFFFF736F8FFF736FFE2
:1017B000FFF754FFFFF76CFF2248FFF78BF9224831
:1017C000FFF788F92148FFF785F9FFF7D1F902E023
:1017D0001F4B00221A70FFF7D1F9FFF705FAFFF748
:1017E00057F9FFF781FAFFF739FD1A4B1B68002BF9
:1017F000F1D0194B1B78002BEDD1FEF7F5FF002837
:10180000E6D0134B1B78002BE5D10121134801F0E2
:10181000C3F804464FF40051114801F0BDF80090A0
:101820002346104A482102A801F02EFE02A8FFF725
:1018300051F9FFF7FFFB064B01221A703C2000F024
:101840005FF9C8E7D4420008EC4200080C430008E6
:10185000980000208C020020B70000200000024009
:10186000000802404C43000800B583B000210091FD
:101870000C4B5A6C42F480425A645A6C02F4804217
:101880000092009A01911A6C42F080521A641B6C0B
:1018900003F080530193019B072000F079FD03B012
:1018A0005DF804FB0038024010B588B000230393B4
:1018B00004930593069307930268214B9A4201D043
:1018C00008B010BD0024019403F5EA331A6C42F00D
:1018D00000721A641A6C02F000720192019A02946A
:1018E0001A6B42F002021A631B6B03F002030293AD
:1018F000029B4FF440730393022304930323069344
:101900000923079303A90F4800F050FF2246214600
:10191000132000F04FFD132000F05CFD224621460D
:10192000142000F047FD142000F054FD224621460B
:10193000152000F03FFD152000F04CFDC0E700BF72
:10194000006400400004024000B589B00023039306
:1019500004930593069307930268154B9A4202D0AD
:1019600009B05DF804FB0021019103F5FA331A6C0C
:1019700042F400321A641A6C02F400320192019AA5
:1019800002911A6B42F001021A631B6B03F0010310
:101990000293029B0C2303930223049303230693D5
:1019A0000723079303A9034800F000FFD8E700BF0F
:1019B0000044004000000240FEE7FEE7FEE7FEE7CD
:1019C000FEE770477047704708B500F087F808BD1C
:1019D00008B5024800F072FB08BD00BF600200209D
:1019E00008B5024800F06AFB08BD00BF6002002095
:1019F00008B5024800F062FB08BD00BF600200208D
:101A000010B503460C4A0D490D48006840B10C481A
:101A100000680344521A934206D8094A136010BD65
:101A20000748084C0460F2E701F06CFD0C230360EA
:101A30004FF0FF30F3E700BF000002200004000079
:101A400090020020E0030020034AD2F8883043F4DB
:101A50007003C2F88830704700ED00E010B504460E
:101A60000E4B1A784FF47A73B3FBF2F30C4A1068FA
:101A7000B0FBF3F000F0B2FC68B90F2C01D90120E3
:101A80000AE0002221464FF0FF3000F093FC054BA6
:101A90001C60002000E0012010BD00BF04000020F9
:101AA000000000200800002008B50B4B1A6842F423
:101AB00000721A601A6842F480621A601A6842F46E
:101AC00080721A60032000F063FC0020FFF7C6FF5D
:101AD000FFF7CAFE002008BD003C0240034A11681F
:101AE000034B1B780B441360704700BF9402002027
:101AF00004000020014B1868704700BF94020020CA
:101B000038B50446FFF7F6FF0546B4F1FF3F02D0B3
:101B1000044B1B781C44FFF7EDFF401BA042FAD397
:101B200038BD00BF04000020002800F0A18038B5B7
:101B3000044690F82030D3B12268136843F00103C3
:101B40001360FFF7D7FF054623685A6812F0010FAC
:101B500010D1FFF7CFFF401B0A28F5D9636A43F481
:101B600000336362052384F82030012038BDFFF77D
:101B70009BFEE1E71A6822F002021A60FFF7BAFF43
:101B8000054623685A6812F0020F0DD0FFF7B2FF26
:101B9000401B0A28F5D9636A43F4003363620523C6
:101BA00084F820300120E1E7227E012A3DD01A6826
:101BB00022F080021A60637E012B3BD022681368FA
:101BC00023F040031360A37E012B39D022681368F1
:101BD00023F020031360E37E012B37D022681368C3
:101BE00043F010031360237F012B35D02268136864
:101BF00023F008031360637F012B33D0226813683E
:101C000023F004031360A368E268134322691343BB
:101C1000626913436268013A21681343CB61002073
:101C20006062012384F82030A0E71A6842F0800245
:101C30001A60C0E72268136843F040031360C2E7EC
:101C40002268136843F020031360C4E72268136816
:101C500023F010031360C6E72268136843F00803FB
:101C60001360C8E72268136843F004031360CAE7EF
:101C70000120704790F82030013BDBB2012B05D9E1
:101C8000436A43F4802343620120704730B5464BDA
:101C9000D3F8002242F00102C3F80022D3F8002258
:101CA00022F47C52C3F80022D3F80022486A42EAA8
:101CB0000022C3F800224A6902F01F02012000FA44
:101CC00002F2D3F81C026FEA020C20EA0200C3F809
:101CD0001C02CB69C3B9344BD3F80C020CEA0000E8
:101CE000C3F80C028C884869CD6844EA0544483042
:101CF00043F830408C68088840EA04404C6904F19D
:101D0000480E03EBCE035860CB69012B1ED08B69C4
:101D1000002B33D12448D0F804320CEA0303C0F876
:101D200004320B698BBB2048D0F814320CEA030351
:101D3000C0F814320B6A012B2ED01B4AD2F80032A5
:101D400023F00103C2F80032002030BD164BD3F857
:101D50000C021043C3F80C028C8848690D6844EAF1
:101D60000544483043F8304088894C698D6840EA22
:101D70000540483403EBC4035860C8E70A48D0F86C
:101D800004321343C0F80432CBE70748D0F81432CA
:101D90001343C0F81432CDE70349D1F81C32134382
:101DA000C1F81C32C9E700BF0064004070B50446AA
:101DB00090F82050EDB2012D06D0436A43F4002381
:101DC00043620125284670BD022380F82030026856
:101DD000136823F001031360FFF78CFE06462368A7
:101DE0005B6813F0010F0CD0FFF784FE831B0A2BF6
:101DF000F5D9636A43F400336362052384F8203025
:101E0000E0E700256562DDE730B590F820C00468A2
:101E1000A4680CF1FF3C5FFA8CFCBCF1010F62D8A6
:101E200014F0E05F59D0C4F3016C012404FA0CF4FF
:101E30001C608B68002B3DD10D68CB68046843EAB9
:101E400045550CF118031B01E55003680C690CF1B2
:101E5000180E03EB0E135C600B7D012B35D0D1798E
:101E600093791B0443EA0163517943EA012314790E
:101E70000168234301EB0C11C1F88C31D1789378C0
:101E80001B0443EA0163517843EA01231178026895
:101E90000B4302EB0C12C2F8883102680CF1180CEB
:101EA0004FEA0C1C52F80C3043F0010342F80C309E
:101EB00000201DE04C6843EAC403CC6823430CF1C6
:101EC0001804240105682B51BFE7036803EB0E13C8
:101ED000596841F480715960C1E7436A43F40013C3
:101EE0004362012004E0436A43F4802343620120FB
:101EF00030BD90F82030013BDBB2012B01D900202E
:101F000070470368986810F0806000D001209A68DC
:101F100012F0006F00D001309B6813F0805FEFD0AB
:101F20000130704790F820C00CF1FF3C5FFA8CFC48
:101F3000BCF1010F00F2A58030B451B90468E46827
:101F400014F0030F10D1436A43F4001343620120DD
:101F50007EE00468246914F0030F05D1436A43F45A
:101F600000134362012073E0056801F11B042401A2
:101F70002C5904F004049460002C6BD1056801F125
:101F80001B0424012C59640D1460046801F11B0C1E
:101F90004FEA0C1C54F80C4004F00204D4600468AE
:101FA000A444DCF8045015F0080F5BD00824146139
:101FB000046801F11B0C04EB0C146468C4F30724DF
:101FC0009461046804EB0C146468240C5461026886
:101FD00002EB0112D2F8B8211A70026802EB01126A
:101FE000D2F8B821C2F307225A70026802EB01123C
:101FF000D2F8B821C2F307429A70026802EB0112CC
:10200000D2F8B821120EDA70026802EB0112D2F88F
:10201000BC211A71026802EB0112D2F8BC21C2F392
:1020200007225A71026802EB0112D2F8BC21C2F3F6
:1020300007429A71026802EB0112D2F8BC21120E1B
:10204000DA71C1B90268D36843F02003D36000207D
:1020500030BC7047056801F11B0424012C59E408C9
:10206000546092E701F11B0504EB0514646804F069
:102070000F0414619CE70268136943F020031361A5
:10208000E5E7436A43F4802343620120704790F8F8
:102090002030013BDBB2012B05D9436A43F4802396
:1020A000436201207047026853690B43536100206B
:1020B0007047704770477047704770472DE9F84F79
:1020C000054603685C69D3F804809F68D3F80CA0C8
:1020D000D3F81090D3F818B014F001063BD017F0E5
:1020E000010616D001229A6017F0020F08D117F0EE
:1020F000040F0CD117F0080606D04FF4805608E004
:10210000FFF7DCF9002604E0FFF7FCF901E04FF4EB
:10211000006617F4807F0DD02B684FF480729A60B0
:1021200017F4007F40F0968017F4806F00F09680DF
:1021300046F4005617F4803F0DD02B684FF48032E0
:102140009A6017F4003F40F0938017F4802F00F05E
:10215000938046F4004614F0080F07D01AF0100FD1
:1021600004D046F400762B681022DA6014F0040FD5
:1021700003D01AF0080F40F0898014F0020F05D048
:102180002B68DB6813F0030F40F0878014F0400FDA
:1021900007D019F0100F04D046F480662B68102287
:1021A0001A6114F0200F02D019F0080F79D114F041
:1021B000100F04D02B681B6913F0030F78D114F4AF
:1021C000003F02D018F0100F76D114F4803F02D0F7
:1021D00018F0080F77D114F4004F37D018F0040F1F
:1021E00031D014F4807F04D01BF0010F01D046F0F1
:1021F000010614F4007F04D01BF0020F01D046F05A
:10220000020614F4806F04D01BF0040F01D046F0D6
:10221000040614F4006F16D01BF0700B13D0BBF142
:10222000400F66D056D8BBF1200F5CD0BBF1300F09
:102230005CD0BBF1100F01D146F008062A68936903
:1022400023F0700393612B6804225A60002E56D14C
:10225000BDE8F88F2846FFF73DF96BE717F4006FEC
:1022600002D046F4804665E72846FFF759F961E752
:102270002846FFF73BF96EE717F4002F02D046F42B
:10228000803668E72846FFF759F964E72B6808228B
:10229000DA602846FFF70DFF6FE72846FFF76AF977
:1022A00074E72B6808221A612846FFF704FF7EE7CF
:1022B0002846FFF7FFFE82E72B6810225A60284667
:1022C000FFF7FAFE81E72B6808225A602846FFF7DD
:1022D000F4FE80E7BBF1500F0ED0BBF1600FADD123
:1022E00046F48076AAE746F01006A7E746F02006F7
:1022F000A4E746F04006A1E746F080069EE76B6A39
:1023000033436B622846FFF727F9A1E7002807DB74
:1023100000F01F02400901239340024A42F8203096
:10232000704700BF00E100E0002808DB0901C9B2E6
:1023300000F1604000F5614080F80013704700F044
:102340000F000901C9B2014B1954704714ED00E0A8
:1023500000B500F00700C0F1070CBCF1040F28BF66
:102360004FF0040C031D062B0FD9C31E4FF0FF3E88
:102370000EFA0CF021EA000199400EFA03FE22EA5F
:102380000E0241EA02005DF804FB0023EEE70000C4
:10239000074AD36823F4E0631B041B0C000200F41B
:1023A000E060034343F0BF6343F40033D3607047FE
:1023B00000ED00E010B50446054BD868C0F30220DC
:1023C000FFF7C6FF01462046FFF7AEFF10BD00BF76
:1023D00000ED00E008B5FFF799FF08BD0138B0F146
:1023E000807F0BD24FF0E0235861054AF02182F83C
:1023F00023100020986107221A617047012070475E
:1024000000ED00E010B40A490C6924F440740C613A
:102410000C6944F440740C610C6944F001040C61D3
:102420000260BFF36F8F43605DF8044B704700BFDD
:10243000003C0240074B1A6922F440721A611A6983
:1024400042F400721A611A6942F001021A610160D5
:10245000704700BF003C0240074B1A6922F44072EB
:102460001A611A6942F480721A611A6942F0010213
:102470001A610180704700BF003C0240064B1A6998
:1024800022F440721A611A691A611A6942F0010253
:102490001A610170704700BF003C0240204BDB68AE
:1024A00013F0100F07D01F4AD36943F01003D36114
:1024B0001B4B1022DA601A4BDB6813F0200F07D099
:1024C000184AD36943F00803D361154B2022DA6020
:1024D000134BDB6813F0400F07D0124AD36943F067
:1024E0000403D3610E4B4022DA600D4BDB6813F01E
:1024F000800F07D00B4AD36943F00203D361084B26
:102500008022DA60064BDB6813F0020F07D0054A21
:10251000D36943F02003D361014B0222DA60704794
:10252000003C02400C000020094B1B69002B01DB22
:1025300000207047064B074A5A6002F188325A6001
:102540001B69002B01DB002070470120704700BF92
:10255000003C024023016745034A136943F00043EE
:1025600013610020704700BF003C024038B50446AC
:10257000144B0022DA61FFF7BDFA0546124BDB6807
:1025800013F4803F0AD0B4F1FF3FF7D024B1FFF736
:10259000B1FA401BA042F1D903200DE00A4BDB68E1
:1025A00013F0010F02D0084B0122DA60064BDB6802
:1025B00013F0F20F01D1002038BDFFF76FFF0120AB
:1025C000FAE700BF0C000020003C0240F8B51646B8
:1025D0001B4A127E012A30D004460D461F46184B76
:1025E00001221A764CF25030FFF7C0FF90B9ACB11F
:1025F000012C18D0022C1BD032463B462846FFF750
:1026000001FF4CF25030FFF7B1FF0E4A136923F07F
:10261000010313610A4B00221A76F8BDF1B2284675
:10262000FFF72CFFEDE7B1B22846FFF715FFE8E70B
:1026300031462846FFF7FEFEE3E70220EDE700BF44
:102640000C000020003C0240074B1A6922F4407243
:102650001A611A6942F004021A611A6942EA0022F8
:1026600042F480321A617047003C0240012905D0D3
:10267000022906D039B14FF4407104E04FF4807163
:1026800001E04FF400710B4B1A6922F440721A6199
:102690001A690A431A611A6922F078021A611A69E2
:1026A00042EAC00040F0020018611A6942F4803228
:1026B0001A617047003C0240164B1B6813F4007F00
:1026C00010D0144B1A6822F400721A601A6842F48F
:1026D00000621A601A6822F400621A601A6842F4F2
:1026E00000721A600B4B1B6813F4806F10D0094BFB
:1026F0001A6822F480621A601A6842F480521A60E2
:102700001A6822F480521A601A6842F480621A60D1
:10271000704700BF003C0240F8B5224B1B7E012BE6
:102720003ED004460E461F4B01221A764CF2503022
:10273000FFF71CFF074670BB4FF0FF333360236881
:10274000012B16D0A568E368A2681344AB4220D9D8
:10275000217C2846FFF78AFF4CF25030FFF706FF36
:10276000114A136923F07A031361074680B90135D2
:10277000E9E76168207CFFF767FF4CF25030FFF714
:10278000F5FE0746084A136923F00403136100E0CD
:102790003560FFF791FF034B00221A763846F8BDEB
:1027A0000227FBE70C000020003C024000230F2B17
:1027B00000F2E98070B582B065E085684FEA430EAB
:1027C000032404FA0EF425EA0405CC6804FA0EF496
:1027D0002C438460446824EA02044A68C2F300126D
:1027E0009A40224342605CE0DC08083450F8242020
:1027F00003F00705AD004FF00F0E0EFA05FE22EABA
:102800000E0E0A69AA4042EA0E0240F824205CE05B
:10281000072200E0002202FA0EF22A4302345A4D47
:1028200045F82420594A94686FEA0C0224EA0C0502
:102830004E6816F4801F01D04CEA0405534CA56085
:10284000E46802EA04054E6816F4001F01D04CEA61
:1028500004054E4CE560646802EA04054E6816F40F
:10286000003F01D04CEA0405484C656024682240D2
:102870004D6815F4803F01D04CEA0402434C2260BD
:1028800001330F2B7DD801229A400C6804EA020C18
:1028900032EA0404F4D14C6804F00304013C012C36
:1028A0008BD94A6802F00302032A09D0C4685D008C
:1028B0000322AA4024EA02048A68AA402243C26092
:1028C0004A6802F00302022A8ED004684FEA430EDF
:1028D000032202FA0EF224EA02044A6802F003021A
:1028E00002FA0EF2224302604A6812F4403FC7D057
:1028F00000220192264A546C44F480445464526C81
:1029000002F480420192019A9C08A51C1E4A52F8CA
:10291000255003F0030E4FEA8E0E0F2202FA0EF23C
:1029200025EA02051B4A90423FF474AF02F580622B
:1029300090421AD002F58062904218D002F580626F
:10294000904216D002F58062904214D002F5806267
:10295000904212D002F58062904210D002F580625F
:1029600090423FF455AF082255E7012253E7022277
:1029700051E703224FE704224DE705224BE70622E9
:1029800049E702B070BD704700380140003C01408B
:1029900000380240000002400369194201D00120C2
:1029A0007047002070470AB1816170470904816156
:1029B0007047436901EA030221EA030141EA024147
:1029C00081617047002800F0E08170B582B0044654
:1029D000036813F0010F3BD09F4B9B6803F00C037F
:1029E000042B2CD09C4B9B6803F00C03082B21D0AC
:1029F0006368B3F5803F4FD0B3F5A02F52D0964B0C
:102A00001A6822F480321A601A6822F480221A604E
:102A10006368002B50D0FFF76DF805468E4B1B689E
:102A200013F4003F14D1FFF765F8401B6428F5D973
:102A30000320B1E1884B5B6813F4800FD8D0864B3C
:102A40001B6813F4003F03D06368002B00F09F81E4
:102A5000236813F0020F54D07F4B9B6813F00C0FC8
:102A60003ED07D4B9B6803F00C03082B33D0E3680A
:102A7000002B68D0794B01221A60FFF73BF805461E
:102A8000754B1B6813F0020F54D1FFF733F8401B4E
:102A90000228F5D903207FE16F4A136843F480339D
:102AA0001360B5E76C4B1A6842F480221A601A680A
:102AB00042F480321A60ABE7FFF71CF80546664B1C
:102AC0001B6813F4003FC3D0FFF714F8401B6428C1
:102AD000F5D9032060E1604B5B6813F4800FC6D129
:102AE0005D4B1B6813F0020F03D0E368012B40F02D
:102AF0005081594A136823F0F803216943EAC1035E
:102B00001360236813F0080F42D063696BB3534B13
:102B10000122C3F8802EFEF7EDFF05464E4B5B6F9A
:102B200013F0020F34D1FEF7E5FF401B0228F5D960
:102B3000032031E1484A136823F0F803216943EA8E
:102B4000C1031360DDE7454B00221A60FEF7D2FF98
:102B50000546414B1B6813F0020FD2D0FEF7CAFFA7
:102B6000401B0228F5D9032016E13C4B0022C3F894
:102B7000802EFEF7BFFF0546374B5B6F13F0020F49
:102B800006D0FEF7B7FF401B0228F5D9032003E16A
:102B9000236813F0040F77D02F4B1B6C13F0805F6A
:102BA00033D1002301932C4B1A6C42F080521A64EB
:102BB0001B6C03F080530193019B0125284B1B687C
:102BC00013F4807F23D0A368012B34D0052B38D099
:102BD000214B1A6F22F001021A671A6F22F00402C9
:102BE0001A67A368002B3DD0FEF784FF06461A4BF8
:102BF0001B6F13F0020F46D1FEF77CFF801B41F2E2
:102C000088339842F3D90320C6E00025D6E7144A5A
:102C1000136843F480731360FEF76CFF0646104B95
:102C20001B6813F4807FCED1FEF764FF801B02285F
:102C3000F5D90320B0E0084A136F43F0010313678E
:102C4000CFE7054B1A6F42F004021A671A6F42F081
:102C500001021A67C5E700BF003802400000474282
:102C600000700040FEF746FF0646524B1B6F13F004
:102C7000020F08D0FEF73EFF801B41F288339842D6
:102C8000F3D9032088E0EDB9A369002B00F083801D
:102C9000484A926802F00C02082A51D0022B17D041
:102CA000454B00221A66FEF725FF0446414B1B6880
:102CB00013F0007F42D0FEF71DFF001B0228F5D95C
:102CC000032069E03B4A136C23F080531364DBE775
:102CD000394B00221A66FEF70DFF0546354B1B687F
:102CE00013F0007F06D0FEF705FF401B0228F5D940
:102CF000032051E0E369226A1343626A43EA8213C4
:102D0000A26A5208013A43EA0243E26A43EA0263D2
:102D1000284A5360284B01221A66FEF7EBFE044650
:102D2000244B1B6813F0007F06D1FEF7E3FE001B67
:102D30000228F5D903202FE000202DE000202BE011
:102D4000012B2BD01B4B5B6803F48001E26991429D
:102D500026D103F03F02216A8A4223D1616A47F6F5
:102D6000C0721A40B2EB811F1ED103F44031A26A37
:102D70005208013AB1EB024F18D103F07063E26AD6
:102D8000B3EB026F14D1002006E001207047012050
:102D900002E0012000E0002002B070BD0120FBE74E
:102DA0000120F9E70120F7E70120F5E70120F3E72B
:102DB0000120F1E7003802400000474208B5334BDC
:102DC0009B6803F00C03042B5BD0082B5BD12F4BCB
:102DD0005A6802F03F025B6813F4800F2CD02B4B33
:102DE0005868C0F388104FEA401CBCEB000C6EEB37
:102DF0000E0E4FEA8E1343EA9C634FEA8C11B1EB3F
:102E00000C0163EB0E03DB0043EA5173C90011EBC5
:102E1000000C43F10003590200234FEA4C2041EA21
:102E2000DC51FDF7D5F9194B5B68C3F3014301335E
:102E30005B00B0FBF3F008BD144B5868C0F388107A
:102E40004FEA401CBCEB000C6EEB0E0E4FEA8E13EB
:102E500043EA9C634FEA8C11B1EB0C0163EB0E0368
:102E6000DB0043EA5173C90011EB000C43F100038E
:102E7000990200234FEA8C2041EA9C51FDF7A8F902
:102E8000D1E70348D7E70348D5E700BF0038024041
:102E900000127A000024F400002800F09B8070B536
:102EA0000D4604464F4B1B6803F007038B4208D2C4
:102EB000CBB24C4A1370136803F007038B4240F007
:102EC0008B80236813F0020F17D013F0040F04D087
:102ED000454A936843F4E0539360236813F0080F66
:102EE00004D0414A936843F4604393603E4A936838
:102EF00023F0F003A1680B439360236813F0010FE4
:102F000032D06368012B21D09A1E012A25D9364A76
:102F1000126812F0020F61D033498A6822F003026E
:102F200013438B60FEF7E6FD06462F4B9B6803F0CC
:102F30000C036268B3EB820F16D0FEF7DBFD801B3B
:102F400041F288339842F0D9032042E0264A1268C1
:102F500012F4003FE0D101203BE0234A126812F056
:102F6000007FD9D1012034E01E4B1B6803F007031A
:102F7000AB4207D9EAB21B4B1A701B6803F0070378
:102F8000AB422DD1236813F0040F06D0164A936884
:102F900023F4E053E1680B439360236813F0080FB8
:102FA00007D0114A936823F46043216943EAC103BF
:102FB0009360FFF703FF0C4B9B68C3F303130B4AAB
:102FC000D35CD8400A4B18600A4B1868FEF746FDE0
:102FD000002070BD012070470120FAE70120F8E7CA
:102FE0000120F6E7003C0240003802407843000828
:102FF0000000002008000020014B1868704700BF47
:103000000000002008B5FFF7F7FF044B9B68C3F3EF
:103010008223034AD35CD84008BD00BF0038024079
:103020007043000808B5FFF7E7FF044B9B68C3F344
:103030004233034AD35CD84008BD00BF0038024089
:1030400070430008026802F10C0353E8003F23F4C8
:1030500090730C3242E800310029F3D1026802F18A
:10306000140353E8003F23F00103143242E8003117
:103070000029F3D1036B012B05D0202380F84230C7
:10308000002303637047026802F10C0353E8003F1A
:1030900023F010030C3242E800310029F3D1ECE7B1
:1030A00010B504460268136923F44053C1680B430A
:1030B0001361836802691A4343691A43C3691A4357
:1030C0000168CB6823F4164323F00C031343CB6051
:1030D0000268536923F4407381690B4353610368A9
:1030E000314A934206D002F58062934202D0FFF744
:1030F00089FF01E0FFF796FFE369B3F5004F29D0A0
:103100000021031849411B1841F10001C90041EA9F
:103110005371DB00181863684FEA83024FEA937318
:1031200041F10001FDF754F8204AA2FB00314909A2
:10313000642303FB11031B013233A2FB03235B094E
:1031400003F0F00202EB011203F00F0321681344B5
:103150008B6010BD0023021843EB0301121841F1EC
:103160000001C90041EA5271D200101841F100017A
:10317000626892185B41FDF72BF80C4AA2FB003104
:103180004909642303FB1103DB003233A2FB032351
:103190005B095A0002F4F87202EB011203F0070314
:1031A000216813448B60D4E7001001401F85EB5168
:1031B0002DE9F04383B005460E4617469946DDF8E3
:1031C00028802B681C6836EA04040CBF0124002404
:1031D000BC4228D1B8F1FF3FF3D0FEF78BFCA0EB47
:1031E0000900404523D8B8F1000F22D02B68DA68D7
:1031F00012F0040FE5D0802EE3D0402EE1D01A6803
:1032000012F0080FDDD0002401941A6801925B6867
:103210000193019B2846FFF715FF08236B6485F88F
:103220004040012000E0002003B0BDE8F08303200F
:10323000FAE70320F8E760B310B5044690F8413090
:1032400013B3242384F841302268D36823F4005355
:10325000D3602046FFF724FF2268136923F49043CC
:1032600013612268536923F02A0353612268D368EB
:1032700043F40053D36000206064202384F841307D
:1032800084F84230606310BD80F84030FEF75CFB8C
:10329000D7E7012070472DE9F04182B01E4690F833
:1032A0004130DBB2202B56D104460D469046002912
:1032B00055D00AB901204FE000234364212380F850
:1032C0004130FEF717FC0746A4F82480A4F82680B6
:1032D000A368B3F5805F02D04FF0000814E02369C3
:1032E0002BB34FF000080FE0202384F84130032077
:1032F00032E038F8023B2268C3F308035360E28CE3
:1033000092B2013A92B2E284E38C9BB293B10096FE
:103310003B46002280212046FFF74AFF0028E3D1E8
:10332000002DE6D015F8012B23685A60E7E7A84680
:103330000025E9E700963B46002240212046FFF7A2
:1033400037FF18B9202384F8413005E0202384F8A2
:103350004130032000E0022002B0BDE8F0810120EE
:10336000FAE72DE9F04182B01E4690F84230DBB218
:10337000202B59D104460D469046002958D00AB951
:10338000012052E000234364222280F8422003639C
:10339000FEF7B0FB0746A4F82C80A4F82E80A368A3
:1033A000B3F5805F02D04FF000081CE0236913B131
:1033B0004FF0000817E0A846002514E0202384F809
:1033C0004230032031E023685B68C3F3080328F828
:1033D000023B03E023685B682B700135E28D92B2FB
:1033E000013A92B2E285E38D9BB2C3B100963B46AF
:1033F000002220212046FFF7DBFE0028DED1002D31
:10340000E1D0A368B3F5805FE4D013B92369002B42
:10341000E0D023685B6803F07F032B70DDE7202397
:1034200084F84230002000E0022002B0BDE8F081C4
:103430000120FAE7DFF834D0FEF706FB0C480D490F
:103440000D4A002302E0D458C4500433C4188C42FF
:10345000F9D30A4A0A4C002301E013600432A24265
:10346000FBD300F055F8FEF799F9704700000220F1
:10347000000000207C000020CC4300087C000020DD
:10348000E0030020FEE700000CB430B5184B0C1E22
:103490001D689DB008DA8B232B604FF0FF301DB004
:1034A000BDE8304002B070474FF40273ADF81430FD
:1034B0004FF000031B9314BF04F1FF332346049322
:1034C00007934FF6FF7302900690ADF81630209ADE
:1034D00021AB02A92846019300F0A2F9431CBCBF0E
:1034E0008B232B60002CDAD0029B00221A70D6E7C7
:1034F0002C00002002440346934200D1704703F899
:10350000011BF9E7014B1868704700BF2C00002031
:1035100070B50D4D0D4C641BA4100026A64209D1B8
:103520000B4D0C4C00F064FC641BA4100026A6425A
:1035300005D170BD55F8043B98470136EEE755F8C4
:10354000043B98470136F2E7C4430008C44300082F
:10355000C4430008C8430008704770470A449142BA
:1035600000F1FF3300D1704710B511F8014B03F89B
:10357000014F9142F9D110BD38B50546002941D01F
:1035800051F8043C0C1F002BB8BFE41800F0E0F821
:103590001D4A136833B9636014602846BDE838409B
:1035A00000F0DCB8A34208D9206821188B4201BF83
:1035B00019685B6809182160EDE71A465B680BB172
:1035C000A342FAD911685018A0420BD120680144D7
:1035D000501883421160E0D118685B68536008445A
:1035E0001060DAE702D90C232B60D6E72068211897
:1035F0008B4204BF19685B68636004BF09182160CF
:103600005460CAE738BD00BFDC03002070B50F4E20
:103610000C463168054611B900F0A4FB3060214624
:10362000284600F09FFB431C03D14FF0FF34204697
:1036300070BDC41C24F00304A042F8D0211A28460F
:1036400000F090FB0130F2D1EFE700BFD80300207B
:103650002DE9F843CD1C25F0030508350C2D38BFA6
:103660000C25002D064601DBA94204D90C2333604A
:103670000020BDE8F883DFF8D48000F069F8D8F8BE
:1036800000301C4644BB29463046FFF7BFFF431CB1
:10369000044658D1D8F800402746002F43D1002CCB
:1036A0004BD023683946304604EB030900F05AFB3F
:1036B000814542D121686D1A29463046FFF7A6FFA1
:1036C00001303AD023682B442360D8F800305A6880
:1036D00062BBC8F800700FE02268521B20D40B2A8E
:1036E00017D96119A342256018BF5960636808BFE4
:1036F000C8F8001062514B60304600F02FF804F11A
:103700000B00231D20F00700C21A1CBF1B1AA35078
:10371000AFE76268A3420CBFC8F800205A60EBE72D
:1037200023466468AEE73C467F68B6E71A465B68A6
:10373000A342FBD100235360DEE70C233360304605
:1037400000F00CF894E70560D6E700BFDC0300202A
:103750000148FFF701BF00BFD40300200148FFF775
:10376000FCBE00BFD40300202DE9F0478E681F4641
:10377000BE420B6882460C4690462DD8B1F90C200B
:1037800012F4906F26D06569096905EB4505A3EB36
:10379000010905EBD5757B1C4B446D109D4238BF6C
:1037A0001D46530527D52946FFF752FF064660B34D
:1037B00021694A46FFF7D2FEA38923F4906343F0C0
:1037C0008003A381266165614E44A5EB090526604F
:1037D000A5603E46BE4200D93E462068324641467C
:1037E00000F0A6FAA3689B1BA36023683344236000
:1037F0000020BDE8F0872A4600F0C4FA06460028FB
:10380000E0D121695046FFF7B7FE0C23CAF800301B
:10381000A38943F04003A3814FF0FF30E9E70000A4
:103820002DE9F04F98468B891B069DB007460D4643
:10383000144610D50B6973B94021FFF709FF2860C2
:10384000286130B90C233B604FF0FF301DB0BDE85C
:10385000F08F40236B610023099320238DF82930DA
:10386000CDF80C803023DFF89C818DF82A304FF0A2
:10387000010923469A4613F8012B0AB1252AF9D1EA
:10388000BAEB040B0BD05B46224629463846FFF7BD
:103890006BFF013000F0A780099A5A4409929AF808
:1038A0000030002B00F09F8000234FF0FF32CDE965
:1038B00005230AF1010A049307938DF853301A93F4
:1038C0005446052214F8011B4E48FCF721FE049AC9
:1038D000D8B9D00644BF20238DF85330110744BF18
:1038E0002B238DF853309AF800302A2B15D0079AE5
:1038F000544600204FF00A0C214611F8013B303BA2
:10390000092B4BD9B0B1079214E0A0EB080309FAD8
:1039100003F313430493A246D2E7039B191D1B68CC
:103920000391002BBBBF5B4242F002020793079357
:10393000B8BF049223782E2B0AD163782A2B32D178
:10394000039B1A1D1B68039243EAE3730234059339
:10395000DFF8C0A0217803225046FCF7D9FD38B12A
:10396000049BA0EB0A0040228240134301340493DD
:1039700014F8011B24488DF828100622FCF7C8FD16
:10398000002836D0214B1BBB039B073323F00703D2
:1039900008330393099B334409936AE70CFB023213
:1039A0000C460120A8E700230134059319464FF087
:1039B0000A0C204610F8012B303A092A03D9002BB3
:1039C000C6D00591C4E70CFB012104460123F0E7B2
:1039D00003AB00932A460E4B04A93846AFF3008090
:1039E000421C0646D6D1AB895B063FF52DAF099840
:1039F0002CE703AB00932A46054B04A9384600F098
:103A000079F8EDE7884300089243000800000000C1
:103A1000693700088E4300082DE9F047164698469E
:103A20008A680B69DDF820909342B8BF1346336073
:103A300091F8432007460C460AB1013333602368EE
:103A4000990642BF336802333360256815F00605D6
:103A500006D104F1190AE36832689B1AAB4226DCEE
:103A600094F843302268003B18BF012392062BD400
:103A700004F1430241463846C84701301ED023684E
:103A8000226903F00603042B02BFE5683368ED1AD0
:103A9000A3680CBF25EAE57500259342C4BF9B1AB5
:103AA000ED1800261A34B5421AD1002008E001238F
:103AB000524641463846C847013003D14FF0FF30E7
:103AC000BDE8F0870135C6E7E1185A1C302081F8BF
:103AD0004300224494F8451082F843100233C7E7AC
:103AE0000123224641463846C8470130E6D0013618
:103AF000D9E700002DE9FF470F7E0C9E782F9146F5
:103B000080460C469A4601F1430207D8622F0AD834
:103B1000002F00F0D180582F00F0B88004F1420649
:103B200084F842703AE0A7F16303152BF6D801A19F
:103B300051F823F08D3B0008A13B00081D3B000815
:103B40001D3B00081D3B00081D3B0008A13B000871
:103B50001D3B00081D3B00081D3B00081D3B0008E5
:103B60009F3C0008CB3B0008593C00081D3B000867
:103B70001D3B0008C13C00081D3B0008CB3B000872
:103B80001D3B00081D3B0008613C000833681A1DFE
:103B90001B68326004F1420684F8423001239CE045
:103BA00033682068191D3160060601D51D6803E0E1
:103BB0004506FBD5B3F90050002D03DA2D236D42E5
:103BC00084F8433058480A2311E021683368080616
:103BD00053F8045B02D4490648BFADB26F2F524878
:103BE000336014BF0A230823002184F84310666859
:103BF000A660002E05DB21682E4321F00401216020
:103C00004BD01646B5FBF3F103FB1157C75D06F821
:103C1000017D2F46BB420D46F4D9082B0BD12368FA
:103C2000DF0708D5236961689942DEBF302306F8B3
:103C3000013C06F1FF36921B2261CDF800A04B46F5
:103C400003AA21464046FFF7E7FE01304AD14FF074
:103C5000FF3004B0BDE8F087236843F02003236001
:103C60003248782784F84570236831681F0651F878
:103C7000045B02D45F0648BFADB23160D90744BFD0
:103C800043F0200323601DB11023ADE72648E9E788
:103C9000236823F020032360F6E71646BDE7336868
:103CA00025686169181D30602E061B6801D51960F2
:103CB00002E06806FBD51980002323611646BCE7A5
:103CC00033681A1D32601E68626800213046FCF7B6
:103CD0001FFC08B1801B606063682361002384F8C7
:103CE0004330AAE72369324649464046D04701306F
:103CF000ADD023689B0713D4E068039B9842B8BFFC
:103D00001846A6E70123324649464046D0470130CF
:103D10009DD00135E36803995B1AAB42F2DCEBE717
:103D2000002504F11906F5E799430008AA430008A5
:103D3000884210B501EB020402D98442234607D819
:103D4000431EA14208D011F8012B03F8012FF8E718
:103D5000024401468A4200D110BD13F8014D02F819
:103D6000014DF7E738B5064D0023044608462B60A1
:103D7000FDF746FE431C02D12B6803B1236038BD1A
:103D8000D00300202DE9F041074614460D4621B925
:103D9000BDE8F0411146FFF75BBC2AB9FFF7ECFB29
:103DA00025462846BDE8F08100F01AF88442064610
:103DB00002D8B4EB500FF4D821463846FFF748FC40
:103DC000804608B94546ECE7B4422246294628BF5A
:103DD0003246FFF7C3FB29463846FFF7CDFBF1E734
:103DE00051F8043C181F002BBCBF0B58C01870477B
:103DF000F8B500BFF8BC08BC9E467047F8B500BFD8
:083E0000F8BC08BC9E467047A7
:103E080025732049443D30782530336C5820444C84
:103E1800433D256C7520444154413D25303258209E
:103E28002530325820253032582025303258202568
:103E3800303258202530325820253032582025304D
:103E480032580D0A000000005458000053746F7275
:103E5800656420696D6167652068656164657220C5
:103E680076616C69640D0A0053746F72656420731F
:103E7800697A653A20256C752062797465730D0A34
:103E88000000000055736520627574746F6E206FB2
:103E9800722073656E6420275327206F7665722021
:103EA8005541525420746F207374617274204F54BA
:103EB800410D0A004E6F2076616C69642073746F3F
:103EC80072656420696D6167650D0A0041434B2086
:103ED800726563656976656420666F722054582040
:103EE8006D61696C626F7820256C750D0A000000A1
:103EF8005458206661696C65643A206E6F204143AE
:103F08004B206F722043414E206572726F720D0A0A
:103F18000000000041434B004E41434B00000000AD
:103F2800525820257320636F64653D25752076619E
:103F38006C75653D256C750D0A000000526563655A
:103F4800697665722072656A656374656420667255
:103F5800616D652E20526573657474696E67207390
:103F6800747265616D2E0D0A000000004F544120E7
:103F7800464F4F5445522073656E740D0A00000079
:103F88005541525420696D61676520435243206D45
:103F980069736D617463680D0A00000055415254DD
:103FA800204F54412073747265616D20636F6D708A
:103FB8006C6574650D0A00004F54412053594E43F7
:103FC8002073656E740D0A004F544153594E4321B6
:103FD800000000004F54412053544152542073654F
:103FE8006E740D0A0000000053746F7265642073CC
:103FF80074617475733A2073697A653D256C752010
:104008006372633D30782530386C580D0A00000023
:104018005541525420686561646572206D61676915
:104028006320696E76616C69640D0A0055415254CB
:1040380020696D6167652073697A6520696E7661AC
:104048006C69640D0A00000055415254204F5441D8
:104058002073747265616D20616363657074656453
:104068000D0A00004E6F2073746F72656420696DCD
:1040780061676520746F2073656E640D0A00000027
:104088005573657220627574746F6E2070726573F3
:104098007365642C2073656E64696E672073746F32
:1040A80072656420696D616765206F76657220436B
:1040B800414E0D0A0000000053594E4320666169C5
:1040C8006C65640D0A000000535441525420666127
:1040D800696C65640D0A00004441544120747261A2
:1040E8006E73666572206661696C65640D0A00000E
:1040F800454E44206661696C65640D0A0000000045
:1041080053746F72656420696D616765204F54410F
:10411800207472616E7366657220636F6D706C6572
:1041280074650D0A00000000496D616765207369B8
:104138007A6520746F6F206C6172676520666F7294
:104148002073746F72656420617265610D0A0000E6
:10415800526563656976696E6720696D6167652078
:104168006F766572205541525420746F2073746FB6
:10417800726520696E20666C6173682E2E2E0D0A9A
:1041880000000000466C61736820657261736520E9
:104198006661696C6564206265666F72652075701A
:1041A8006C6F61640D0A000052454144590D0A00C4
:1041B8005541525420726563656976652074696D4E
:1041C800656F757420647572696E6720696D6167C3
:1041D800652075706C6F61640D0A0000466C617330
:1041E80068207772697465206661696C656420640B
:1041F8007572696E672075706C6F61640D0A0000D6
:104208004B000000486561646572207772697465C7
:10421800206661696C6564206166746572207570DA
:104228006C6F61640D0A0000496D616765207374E5
:104238006F72656420696E20666C6173680D0A0090
:1042480055504C4F41445F4F4B0D0A0053656E6407
:1042580020275327206F7665722055415254206FCE
:104268007220707265737320627574746F6E207437
:104278006F207374617274204F54410D0A0000005E
:104288004E6F2073746F72656420696D6167652E67
:104298002055706C6F61642066697273742E0D0A04
:1042A800000000005541525420636F6D6D616E64CB
:1042B80020532072656365697665642E20537461A6
:1042C8007274696E67204F54410D0A0043414E20B5
:1042D800646562756720554152542072656164793E
:1042E8000D0A000043414E204F5441205458206E7F
:1042F8006F64652072656164792E204E4F44453D98
:10430800370D0A0055415254206865616465722072
:10431800666F726D61743A205B6D61676963204FE7
:104328005441315D5B73697A6520753332204C45A1
:104338005D5B637263333220753332204C455D0D0B
:104348000A000000427574746F6E206465746563BA
:10435800746564205041303D257520504331333D0C
:1043680025750D0A0000000000000000010203048A
:10437800000000000000000001020304060708090D
:10438800232D302B2000686C4C0065666745464736
:1043980000303132333435363738394142434445B9
:1043A8004600303132333435363738396162636428
:0443B8006566000036
:0843BC0044BEFF7F0100000078
:0443C400B501000837
:0443C8009101000857
:1043CC000024F400010000001000000000000000B8
:1043DC0000000000000000000000000001000000D0
:1043EC000000000000000000000000003000002071
:1043FC000000000098020020000300206803002049
:10440C0000000000000000000000000000000000A0
:10441C000000000000000000000000000000000090
:10442C000000000000000000000000000000000080
:0C443C0000000000000000000000000074
:040000050800343586
:00000001FF
